:020000040802F0
:10000000D03F002099010208B1980208A19002088F
:10001000DF930208B91202083963030800000000E8
:10002000000000000000000000000000F5A502082C
:10003000FF3F020800000000C39E0208815503082C
:1000400043630308C19E0208E55503084FA2020856
:10005000917C020899A10208D54D0208E54D0208DD
:10006000ED4D0208F54D0208FD4D02083D3D020828
:100070003F3D0208413D0208433D0208453D02085C
:10008000473D0208493D020825100208CF12020828
:10009000C3120208CB120208CD120208FF4D02085B
:1000A000E7550308F9550308F7550308EF5503080A
:1000B000015603080956030811560308B7900208B1
:1000C000B5900208BB900208B9900208CDA20208C0
:1000D000CFA20208C95F0308D15F0308D35F0308FA
:1000E000DD4D02084DA202081D9B02081F560308A1
:1000F0002B56030829560308215603084B3D0208D6
:10010000FB7D020895A2020813560308D1A202083B
:10011000C55F0308C75F0308155603081756030891
:100120004D3D0208553D0208573D0208593D020861
:10013000B3010208B3010208B3010208B3010208C7
:10014000B3010208B3010208B3010208B3010208B7
:10015000B3010208B3010208B3010208B3010208A7
:10016000B3010208B3010208B3010208B301020897
:10017000B3010208B3010208B3010208B301020887
:10018000B3010208DFF80CD000F0C0FB00480047C4
:1001900085BE0308D03F0020064880470648004738
:1001A000FEE7FEE7FEE7FEE7FEE7FEE7FEE7FEE727
:1001B000FEE7FEE7895503088501020840EA0103CE
:1001C0009B0703D009E008C9121F08C0042AFAD20D
:1001D00003E011F8013B00F8013B521EF9D27047D1
:1001E000D2B201E000F8012B491EFBD27047002279
:1001F000F6E710B513460A4604461946FFF7F0FF26
:10020000204610BD30B505462A460B4612F8010BB4
:1002100013F8014B08B1A042F8D01CB1002802D05D
:100220006D1CF1E7284630BD421C10F8011B002967
:10023000FBD1801A704730B504460020034600E029
:100240005B1C934203D2E05CCD5C401BF8D030BD18
:100250000FB400B58DB010A909900B9000914FF02C
:10026000FF300A9000200C90054806900548079042
:100270006A4609A80F9900F087FA0DB05DF814FBE3
:10028000A5070208C30702082DE9FF5F1D464FF0CE
:10029000FF3BD5E9014691465F464FF00008A9694A
:1002A0007F1C01988847296A824688470028F6D132
:1002B000BAF1FF3F0CD024F4C064002E19DD6006B3
:1002C00014D5BAF12B0F09D0BAF12D0F0ED103E0DE
:1002D000584604B0BDE8F09F44F48064A9697F1CCF
:1002E00001988847761E8246002E02DDBAF1300F53
:1002F00003D0B9F1000F26D032E0A969761E44F48C
:1003000000747F1C019888478246002E05DDBAF1F3
:10031000780F06D0BAF1580F03D0B9F1000F10D002
:100320001EE0B9F1000F02D0B9F1100F18D1A96980
:10033000761E24F400747F1C0198884782461020A2
:1003400002E0082000E00A20814609E008FB0908D5
:10035000A969761E44F400747F1C01988847824680
:10036000002E05DD4946504600F0F9F90028EDDA87
:10037000E96901988847A00502D46FF00100A8E759
:10038000E00725D1600613D5600502D5C8F100004D
:1003900000E0404629680A1D2A600968220501D547
:1003A000087015E0220701D5088011E008600FE011
:1003B0002868011D29600068210502D580F80080A9
:1003C00006E0210702D5A0F8008001E0C0F8008017
:1003D00038467EE72DE9FF5FD2E901A74FF000081C
:1003E000916999461446DDF838B046460198884729
:1003F000054659EA0B0005D009E0A169761C019871
:1004000088470546216A284688470028F5D1681C98
:1004100003D05FEACA7005D015E04FF0FF3004B09A
:10042000BDE8F09F2068011D2160D0F800800AE03F
:100430005FEACA7001D108F8015BA169761C7F1ED2
:10044000019888470546002F1ADD681C18D0B9F1BD
:10045000000F0DD0E81705EBD060421120F01F000F
:1004600059F822102A1A012090400142E0D107E0F9
:10047000BBF1000FDCD1216A284688470028D7D07D
:10048000E16901988847BBF1000F07D1002E05DD17
:100490005FEACA7002D1002188F80010A068B84253
:1004A00003DDBBF1000F03D017B16FF00100B6E719
:1004B0003046B4E7F0B480EA0102D40F4200B2EB58
:1004C000410F02D20246084611464A0042D0C30DEF
:1004D000DDB2C1F3C752AD1A202D35DAC1F31601D2
:1004E00041F4000204B15242C5F1200602FA06F1BD
:1004F0002A411044B3EBD05F23D0C4B1012DA0EB4F
:10050000C35009DCF0BC4FF0004202EAC352DBB238
:1005100000F5000000F06FB9400000F1807000EBC2
:10052000C350A0F1807040EAD170490009E0490849
:1005300041EAC071A0EBC35000F50000400800EB99
:10054000C350F0BC00F04EB96142012202EB410100
:10055000001BF6E7F0BC704781F00041AAE780F08D
:100560000040A7E780EA010210B502F00043400016
:1005700022D04A001FD0010E01EB1261C0F35600D9
:10058000C2F3560240F4000042F40002A0FB022035
:1005900000047F39140400D0401C50EA124001D4FA
:1005A0004000491EC2B20C0604EBD010401C4008AB
:1005B000802A02D003E0002010BD20F001000029B5
:1005C00000DA0020184310BD2DE9F04D81EA030444
:1005D00004F0004B21F0004514464FF0000A23F0D0
:1005E000004150EA050220D054EA01021DD0C5F3B3
:1005F0000A570246C5F31303C1F31300C1F30A56A9
:1006000040F4801543F48013A7EB0608101BD64670
:1006100008F2FD3873EB050002D308F1010801E090
:1006200092185B41B8F1000F03DA00200146BDE8E3
:10063000F08D00204FF48011064684460EE0171B13
:1006400073EB050705D3121B63EB050306434CEA66
:10065000010C49084FEA300092185B4150EA01074B
:10066000EDD152EA030012D082EA040083EA0501C8
:10067000084305D0101BAB4106D20122002306E03F
:1006800000224FF0004302E06FF0010253101AEB1A
:1006900006004CEB085110EB0A0041EB0B01BDE8E2
:1006A000F04D00F0D6B8C10F80EAE0700844CA07E8
:1006B0009623002100F09FB80EB5C10F80EAE070CC
:1006C0000844CA07002140F233438DE80E000A4671
:1006D0000B4600F0CDF803B000BD00F0004220F062
:1006E0000040C10DC0F3160040F400007F2901DA7C
:1006F00000207047962903DCC1F19601C84001E053
:1007000096398840002AF4D040427047C1F30A521B
:1007100010B5C1F3130140F2FF3341F480119A4246
:1007200001DA002010BD40F233439A42A2F2334274
:1007300003DC524200F003F810BD904010BD202AA7
:1007400004DB203A21FA02F00021704721FA02F37B
:10075000D040C2F1200291400843194670473A2820
:1007600000D2303820F02002412A01D3A2F1370014
:10077000884201D34FF0FF307047000002681144F7
:100780001378016018467047D160044951610449EB
:10079000116200211161114600F0DEB87D070208E8
:1007A0004F090208426842B1016811F8013B23B1C8
:1007B000521EC0E90012184670470121C160881E10
:1007C000704742685AB1C368016843B983688B4275
:1007D00005D0491E521CC0E90012002070474FF09E
:1007E000FF3070470029A8BF7047401C490008BF70
:1007F00020F00100704710B4B0FA80FC00FA0CF051
:1008000050EA010404BF10BC704749B1CCF1200488
:1008100021FA04F411FA0CF118BF01212143084315
:10082000A3EB0C01CB1D4FEA00614FEA102042BF41
:10083000002010BC704700EBC35010440029A4BF37
:1008400010BC7047401C490008BF20F0010010BCDC
:10085000704710B5141E73F1000408DA401C41F112
:10086000000192185B411A4301D120F0010010BD34
:100870002DE9F04D92469B4611B1B1FA81F202E0AA
:10088000B0FA80F22032904600F052F804460F464B
:1008900040EA0A0041EA0B0153465A46084313D086
:1008A000114653EA010019D0C8F140025046FFF743
:1008B00046FF05460E4650465946424600F038F877
:1008C000084305D0012004E020463946BDE8F08DFC
:1008D0000020054346EAE0762C4337430A98630537
:1008E000E40AA0EB08000022FD0A44EA47540A305B
:1008F00002D500200146E9E7010510196941DDE94B
:10090000084500196941BDE8F04DA2E7064C074DC6
:1009100006E0E06840F0010394E8070098471034CF
:10092000AC42F6D3FFF732FCF8CB030818CC03082F
:10093000202A04DB203A00FA02F10020704791409F
:10094000C2F1200320FA03F3194390407047C0B26C
:100950004FF4F05100F096B92DE9F34F8BB04FF002
:10096000000801F10C000C464FF0010B46460DF15A
:10097000080A01906269012101989047051E2DD057
:10098000252D2CD0216A8847C0B1626901210198C8
:100990009047216A88470028F7D1411E6269019873
:1009A000904700E0761CA1690B988847216A884728
:1009B0000028F7D1E1690B988847DBE7A1690B981C
:1009C00088470746A84201D1761CD3E7E1690B9816
:1009D00088477F1C02D1B8F1000F6FD046E1002795
:1009E00062693D463946019890472A2804D16269D8
:1009F0000121019890470125DFF884926269012165
:100A000001989047A0F130010A290AD24F45E5DC50
:100A100007EB870100EB4107303FDFD445F01005BD
:100A2000ECE7E90601D46FF000476C280AD04C28A7
:100A300014D0682815D06A280DD074281CD07A28C4
:100A40001AD01DE062690121019890476C2802D0FC
:100A500045F0040514E045F002050DE045F02005E1
:100A60000AE06269012101989047682802D045F0A8
:100A7000080505E045F40065626901210198904789
:100A8000C4E9015765283DD019DC58287AD00CDC20
:100A9000452837D004DC252826D0412831D131E043
:100AA00046282FD047282CD12CE05B2877D061280E
:100AB00028D063287CD0642823D15AE0D0E06F2866
:100AC00048D008DC66281DD067281BD0692821D0B3
:100AD0006E2816D127E0702845D0732868D0752875
:100AE00047D078280DD14DE0A1690B98884705467D
:100AF00025283FF469AFE1690B9888476D1C3FF4E6
:100B00006AAFB3E023466A466FF001000B99AFF37A
:100B100000809EE045F040006060A80723464FF04B
:100B2000000236D43EE0E8077FF447AF2068011D9D
:100B300021600068290501D506701BE7290701D54A
:100B4000068017E7A90703D5F117C0E9006111E78F
:100B500006600FE745F040006060A80723464FF0AD
:100B6000080216D41EE040F60E0125EA010060607E
:100B700016E045F040006060A80723464FF00A02E7
:100B800007D40FE045F040006060A80708D5234671
:100B900010226FF001000B99AFF3008059E007E0DD
:100BA000234610226FF001000B99FFF76DFB50E018
:100BB0004FF000094F464B46632802D05B2806D011
:100BC00040E0E80601D40120A06001273AE0626914
:100BD0000121019890475E2805D14FF00109626913
:100BE000494601989047216939B900210A46534680
:100BF00043F82120491C0829FADBB0B3216969B9FF
:100C0000C11700EBD16253110AEB830122F01F02DE
:100C1000821A01200B68904003430B606269012136
:100C2000019890475D28E8D1B9F1000F09D0002064
:100C3000514651F82020D24341F82020401C08287A
:100C4000F7DB02AB224600976FF001000B99FFF72C
:100C5000C1FB00280CDA401C08D1BBF1000F05D005
:100C60004FF0FF300DB0BDE8F08FFFE74046F9E7E9
:100C7000E90701D108F1010806444FF0000B79E6BD
:100C8000CCCCCC0C7F2801D9002208E0064A02EB2C
:100C90005002C007127800D1120902F00F020120A1
:100CA0009040084070470000A4C7030870B58C1836
:100CB00010F8015B15F0070301D110F8013B2A1170
:100CC00006D110F8012B03E010F8016B01F8016B5D
:100CD0005B1EF9D12B0705D40023521E0DD401F859
:100CE000013BFAE710F8013BCB1A921C03E013F822
:100CF000015B01F8015B521EF9D5A142D8D3002057
:100D000070BD000010B5002414E00C4800EB041086
:100D1000037A601CC2B2094800EB0410017908484C
:100D200000F0ACF9074800EB4400044901EB041162
:100D3000C860641C032CE8D310BD0000C803002069
:100D400000210140F803002010B596B0012188056C
:100D500009F0B8F8002404E00020394921F8140013
:100D6000641C032CF8D3374803F020F801A803F0E3
:100D700035F94FF0007001903348029030480390ED
:100D80000020049003200590002006904FF480601E
:100D90000790400008908000099040110A9040029E
:100DA0000B9000200C9001200D9000200E900F90D1
:100DB00001A9244803F0E6F80121224802F0EAFFE5
:100DC0000121480209F0BEF810A800F0B8F900208F
:100DD000109001208DF844008DF8450000201290FD
:100DE0001390149003208DF8540010A916484C3825
:100DF00000F01AF9FFF786FF012113484C3800F084
:100E000076F8012110484C3800F066F801210E48B0
:100E10004C3800F03DF8012210210A4803F094F804
:100E20003B208DF8000003208DF8010001208DF893
:100E300002008DF80300684608F04AFD16B010BDA8
:100E4000F8030020586402404C21014010B50024F2
:100E500014E00C4800EB0410037A601CC2B209488D
:100E600000EB04100179084800F008F9074800EB8E
:100E70004400044901EB0411C860641C062CE8D34B
:100E800010BD00006803002000200140A8230020BE
:100E900021B1826842F00102826003E0826822F0A0
:100EA00001028260704700000021084A1168084A68
:100EB0001140D0E900231A4383681A43C3681A43D8
:100EC0001143044AC2F80413704700000423014090
:100ED000E030FCFF0020014021B1826842F48072C2
:100EE000826003E0826822F480728260704721B1E0
:100EF000826842F40072826003E0826822F4007229
:100F00008260704710B59AB00121880508F0DAFFB9
:100F1000002404E00020404921F81400641C302C17
:100F2000F8D33E4802F042FF05A803F057F800202E
:100F300005903B48069038480790002008903020E4
:100F4000099000200A904FF480600B9040000C90B4
:100F500080000D9040110E9040020F9000201090E4
:100F60000120119000201290139005A92B4803F046
:100F700009F80121294802F00DFF0121080208F0BB
:100F8000E1FF0020019002900390049001A8FFF778
:100F90008BFF14A800F0D3F80020149001208DF8E6
:100FA00054008DF8550000201690179018900620D8
:100FB0008DF8640014A91A484C3800F035F8FFF792
:100FC00045FF012000F0C6F8012000F0D9F801210A
:100FD00013484C38FFF78BFF012111484C38FFF7BD
:100FE0007BFF01210E484C38FFF752FF01221021F0
:100FF0000A4802F0A9FF38208DF8000003208DF880
:10100000010001208DF802008DF80300684608F009
:101010005FFC1AB010BD000048230020106402409D
:101020004C2001407047000030B5024600200023EC
:101030005068104C20400D790C6844EA0524204388
:10104000506090680C4C2040D1E903542C438D68CB
:101050002C434D7944EA450420439060D06A20F443
:1010600070000C7D641EE4B2234340EA0350D0625A
:1010700030BD0000FFFEFFFCFDF7FFC0F0B50446E9
:101080000D4600200021092D11DDE068A5F10A06BA
:1010900006EB4607072606FA07F18843A5F10A067C
:1010A00006EB460603FA06F10843E0600CE020690F
:1010B00005EB4507072606FA07F1884305EB4506C9
:1010C00003FA06F108432061072A0FDA606B561E07
:1010D00006EB86071F2606FA07F18843561E06EB25
:1010E000860605FA06F10843606322E00D2A0FDA4E
:1010F000206BD61F06EB86071F2606FA07F18843EA
:10110000D61F06EB860605FA06F10843206310E0B9
:10111000E06AA2F10D0606EB86071F2606FA07F124
:101120008843A2F10D0606EB860605FA06F1084390
:10113000E062F0BD816841F080418160704700212C
:101140000160017141718160C1600161012101751E
:101150007047000038B10849096841F40001074AA6
:10116000C2F8041306E00449096821F40001034AA7
:10117000C2F804137047000004230140002001401E
:1011800038B10849096841F48001074AC2F80413DC
:1011900006E00449096821F48001034AC2F80413F7
:1011A00070470000042301400020014010B50348AF
:1011B000FFF7C0FF0248FFF7BDFF10BD002101404F
:1011C000002001404FF6FF710F4A116000210F4AC5
:1011D0001160002012E000210D4A42F820100D4A53
:1011E00042F8201001210C4A42F8201000210B4A3D
:1011F00042F820100A4A42F82010401C0228EAD384
:101200000021084A11607047280000202C000020AF
:10121000A0000020A8000020B0000020C000002096
:10122000B8000020CC00002000B50648006840B19E
:10123000054801680348006815F004F900200149D9
:10124000086000BD0C0000201000002010B51348FD
:10125000006800B110BD1248006800B1FAE71148FB
:10126000007800B9F6E710490D4815F04DF904462D
:101270002CB10D4801680A48006808F05DF909F0D2
:10128000DBF9044644B10021204615F0F7F818B9FF
:101290000021204615F062F900BFDBE718000020AE
:1012A0000C000020C404002010000020012001498F
:1012B000087070473F000060042015F0BBF800BFC5
:1012C000FEE710B519F04CFF10BD7047704770472E
:1012D00000B589B00121480608F014FE3E4800F030
:1012E0007FF805A800F00AFA00208DF81A008DF8A2
:1012F0001B008DF81C008DF81D008DF81E000120CC
:101300008DF81F0000208DF8170009208DF81800B7
:1013100003208DF819000220ADF8140005A92E480D
:1013200000F012F900208DF80E0001208DF80F005A
:101330008DF81000002016F003FE4FF6FF7101EA51
:101340004010ADF804000020ADF806000846ADF8E6
:101350000800ADF80A000020ADF80C0001208DF85F
:10136000110001A800F058F801208DF80E008DF84A
:101370000F008DF8100016F0E3FD4FF6FF7101EA43
:101380004010ADF804000020ADF806000846ADF8A6
:101390000800ADF80A000020ADF80C0001208DF81F
:1013A000110001A800F038F8012202210A4800F0DB
:1013B000C2F814208DF8200000208DF821008DF84F
:1013C000220001208DF8230008A808F081FA0020EF
:1013D0000249086009B000BD0064004058050020C3
:1013E00010B504460B48844209D10121480608F093
:1013F00099FD00214FF0007008F094FD08E00121F4
:10140000880608F08FFD00214FF0806008F08AFD0B
:1014100010BD00000064004010B50021837A012255
:1014200002FA03F13D4A126842F001023B4B1A6096
:101430003A4A1C3212688A43384B1C331A60027BCA
:10144000CAB9364A0C3212688A43344B0C331A60DC
:101450004288C38842EA0343304A4032847A42F8E1
:1014600034300288838842EA03432C4A4032847A2B
:1014700002EBC4025360027B012A19D1274A0C32C5
:1014800012680A43254B0C331A604288038842EAEB
:101490000343224A4032847A42F83430C288838837
:1014A00042EA03431D4A4032847A02EBC40253608D
:1014B000C27A3AB9194A121D12688A43174B1B1D8A
:1014C0001A6006E0154A121D12680A43134B1B1DD1
:1014D0001A60028932B9114A143212688A430F4BDA
:1014E00014331A600289012A06D10C4A1432126898
:1014F0000A430A4B14331A60427B012A06D1074A79
:101500001C3212680A43054B1C331A60034A1268E6
:1015100022F00102014B1A6010BD0000006600407D
:10152000014600208A69C2F3074070470146002047
:101530008A69100E70471AB143690B43436102E098
:1015400043698B434361704730B502460020002356
:10155000146824F002041460146844F00104146058
:1015600000E05B1C546804F001041CB94FF6FF74E2
:10157000A342F6D1546804F001040CB900206CE0D9
:101580008C79012C04D1146844F08004146003E0C9
:10159000146824F080041460CC79012C04D1146800
:1015A00044F04004146003E0146824F04004146024
:1015B0000C7A012C04D1146844F02004146003E078
:1015C000146824F0200414604C7A012C04D11468AF
:1015D00044F01004146003E0146824F01004146054
:1015E0008C7A012C04D1146844F00804146003E0E0
:1015F000146824F008041460CC7A012C04D1146817
:1016000044F00404146003E0146824F0040414603B
:101610008C78A407CD7844EA05640D7944EA054442
:101620004D7944EA05540D886D1E2C43D46114682D
:1016300024F001041460002300E05B1C546804F0F3
:1016400001041CB14FF6FF74A342F6D1546804F0B4
:1016500001040CB1002000E0012030BD10B500F500
:10166000D87303EB01131B6803F004031372137A9E
:1016700053B900F5D87303EB01131B6840F2FF74F4
:1016800004EA5353136009E000F5D87303EB011328
:101690001B686FF0604404EAD303536000F5D8730D
:1016A00003EB01131B6803F00203537200F5D873B8
:1016B00003EB01135B6803F00F03937200F5D8731B
:1016C00003EB01135B681B0AD37400F5D87303EBBB
:1016D00001139B68C2F80B3000F5D87303EB0113BC
:1016E000DC680F239C5021B9C36843F02003C3601A
:1016F00003E0036943F02003036110BD0021817101
:10170000C171017241728172C1728170C170032115
:1017100001710221417101210180704710B502461B
:101720000020936803F08063B3F1806F00D110E074
:10173000936803F00063B3F1006F01D1012008E06A
:10174000936803F08053B3F1805F01D1022000E081
:101750000420042874D002F5C07303EB00131B6847
:1017600003F0010402F5C07303EB00131C600B7A55
:101770007BB94B7A0C8843EA445302F5C07404EBFE
:1017800000142468234302F5C07404EB00142360A2
:1017900010E00B7A4C6843EAC4034C7A234302F509
:1017A000C07404EB00142468234302F5C07404EBF6
:1017B000001423608B7A03F00F038B7202F5C07361
:1017C00003EB00135B6823F00F0402F5C07303EB17
:1017D00000135C6002F5C07303EB00135B688C7A46
:1017E000234302F5C07404EB001463608B7B1C067A
:1017F0004B7B44EA03440B7B44EA0323CC7A234328
:1018000002F5C07404EB0014A3608B7C1C064B7CB7
:1018100044EA03440B7C44EA0323CC7B234302F5D4
:10182000C07404EB0014E36002F5C07303EB001313
:101830001B6843F0010402F5C07303EB00131C6046
:1018400010BD000010B50B48007800B910BD0A4863
:1018500000684FF2FF31084050B10848007820B1CD
:1018600005480168FD2014F079FE00200349087046
:1018700000BFEBE78C0400201C0500208E04002034
:1018800070B50446207800F0800050B12578667865
:1018900045EA0620A3896289218907F03CFE0120E0
:1018A00070BD0020FCE7000010B50A48006838B1A0
:1018B00015F0AEFF60B10021B82014F04FFE07E034
:1018C00015F0A6FF032803D00021B92014F046FE2E
:1018D00010BD00006800002010B517F0A7FF50B140
:1018E0000C48006844F62061884204D20948006828
:1018F000401C0849086017F0A5FF50B10648006871
:1019000044F62061884204D203480068401C024922
:10191000086010BDEC000020F000002010B5024669
:10192000074B1B689343064C23600846037803F07B
:1019300001031BB1038823F00103038010BD0000E5
:101940001C05002070B5044604B970BD60780C28F1
:1019500075D2DFE800F0CC06212ACCCC3EC3C4C54A
:10196000C6C92046FFF78CFF00B1C1E0A078482827
:1019700011D1E07851280ED1207954280BD160790B
:10198000452808D1A079532805D1E079542802D1FF
:10199000012059490870ABE02046FFF771FF00B104
:1019A000A6E0002054490870A2E02046FFF768FF37
:1019B00000B19DE05048007850B163891AB2E378D5
:1019C0000BB1012300E000231946A0780FF0C0FB03
:1019D0008EE02046FFF754FF00B189E020890928F6
:1019E00079D2DFE800F005121F2D52565A5E6600CC
:1019F0002278657842EA0520404A1268131421894A
:101A00003E4A126807F087FD66E02278657842EA70
:101A100005203B4A126813142189394A126807F0DD
:101A20007AFD59E02278657842EA0520354A126845
:101A300013142189334A126807F06DFD4CE056E01B
:101A40002178627841EA02202C4909680B142B495D
:101A50000A68002107F05FFD2178627841EA0220E0
:101A6000274909680B1426490A68012107F053FD2C
:101A70002178627841EA0220224909680B14214941
:101A80000A68022107F047FD26E000201B49086094
:101A900022E000201A4908601EE000201949086071
:101AA0001AE00020154908601549086015490860CA
:101AB00012E0608913490968884207D062890023CF
:101AC000104801684FF6F27007F025FD00200D491F
:101AD000086001E0FFE700BF00BF09E008E007E0A1
:101AE00006E008F099FF03E008F06EFF00E000BF99
:101AF00000BF00BF29E70000830000205805002038
:101B0000600500206405002070B5044604B970BD6E
:101B1000A948007800B9FAE76078162871D2DFE8A2
:101B200000F0700B2C59626B8898A3ACADB7C2D192
:101B3000F2F170F07070707C2046FFF7A1FE00B1EA
:101B400036E19E480078B8B1012017F0EDFD38B9B4
:101B500003209B49086000220121084616F01CF969
:101B6000002017F0E1FD38B90320954908600022F4
:101B70000121104616F010F91AE12046FFF780FE09
:101B800000B115E1208920B101280FD002281ED113
:101B90000FE006F0A3FD05462178627841EA0220B5
:101BA000A3890022294607F0B6FC11E0FFF77CFE6E
:101BB0000EE08448006838B18248006807F0A4FC51
:101BC00000208049086001E003F070FF00E000BFE2
:101BD00000BFEDE02046FFF753FE00B1E8E02089AA
:101BE00079490860E4E02046FFF74AFE00B1DFE0F3
:101BF000208907F095FFDBE02046FFF741FE08B1A2
:101C0000D6E0D4E0E278012A01DB012300E00023E2
:101C10001946A0781AF04EFCCAE02046FFF730FEC5
:101C200000B1C5E02178627841EA02201AF084FC14
:101C3000BEE02046FFF724FE00B1B9E0A07818B955
:101C4000E07805F0ADFD03E06189E07805F03AFD4C
:101C500000BF2046FFF714FE00B1A9E0E178A078AC
:101C6000012205F0C5FDA3E02046FFF709FE00B103
:101C70009EE0A07808F09AFE9AE099E02046FFF7EF
:101C8000FFFD00B194E06189208914F087FB8FE0AB
:101C90002046FFF7F5FD00B18AE02279E178A078CF
:101CA00005F0A6FD84E02046FFF7EAFD00B17FE0E5
:101CB0002178627841EA0220A3890022012107F0FD
:101CC0002AFC75E02046FFF7DBFD00B170E02089BB
:101CD000642802DD20893D4908606089642802DDAE
:101CE00060893B490860A089322811DDA089384904
:101CF0000968884208D33648006832383549086098
:101D000011E047E021E00FE0A089324908600AE0D5
:101D1000304800682E490968884204D32C4800687E
:101D200032382C49086043E02046FFF7A9FD00B196
:101D30003EE0A07818B900202749087004E0A07898
:101D4000012801D12449087032E02046FFF798FDB0
:101D500000B12DE0E07810B1012818D10BE0A07897
:101D600018B900201D49087004E0A078012801D1AD
:101D70001A4908700CE0A07818B9002018490870BA
:101D800004E0A078012801D11549087000E000BFE7
:101D900000BF0DE02046FFF773FD00B108E0A0781A
:101DA00008B1012000E000200E49087000E000BFEB
:101DB00000BF00BFABE6000031000020C4040020DB
:101DC000C80400200C00002028000020300500205E
:101DD000380500203C0500200C0100200D010020EA
:101DE0000E0100205C00002070B5044604B970BDEF
:101DF0002046FFF745FD00B1F9E715F01FFD054648
:101E000035B1012009490870A800094908600AE0B5
:101E100015F014FD217841EA0026A389002211461D
:101E2000304607F078FB00BFE1E7000040000020EB
:101E30004400002010B5044604B910BD12480078D3
:101E400000B9FAE76078012802D0022818D10BE027
:101E50002046FFF715FD00B113E00C48018804F19E
:101E6000080004F08DFC0CE02046FFF709FD00B1EE
:101E700007E00648018804F1080005F01DFB00E0BA
:101E800000BF00BF00BFD8E7310000204E00002097
:101E900070B5044604B970BD9448007800B9FAE7FB
:101EA0006078082870D2DFE800F06F04265077A130
:101EB000D7F52046FFF7E4FC00B114E1012017F04C
:101EC00033FC38B98A48007840F48071FE2014F061
:101ED00045FB08E1002017F027FC28B98448017869
:101EE000FE2014F03BFBFEE0A3896289E178A07834
:101EF00004F05EFAF7E02046FFF7C2FC00B1F2E022
:101F000000250026A07800F0010018B1794880680B
:101F1000C0B20543A07800F0020020B17548006807
:101F2000C0B245EA0025A07800F0040018B171485D
:101F30004068C0B206432178627841EA0220A38952
:101F40003246294607F0E7FACDE02046FFF798FC35
:101F500000B1C8E0A07870B1E07810B1012808D1D4
:101F600003E060896449086004E0608963490860AF
:101F700000E000BF0FE0E07810B1012809D104E0D3
:101F800060895F49086005E0ACE060895D490860F0
:101F900000E000BF00BFA6E02046FFF771FC00B1E3
:101FA000A1E00020A17821B1012906D0022909D1A0
:101FB00005E0E17801F10C0005E0E07803E0E1786C
:101FC000881D00E000BF00BF618939B10121814057
:101FD0004D4A126811434C4A116006E001218140CC
:101FE000494A12688A4348490A607CE02046FFF764
:101FF00047FC00B177E000254448007810B1A07894
:1020000000B970E0A078022800DD6CE006F0C8FEA0
:10201000A07810B1A078401E00E00220354951F8A8
:102020002000E17801F0070201219140084008B941
:10203000012000E000200546E178A0782A4604F05F
:10204000D5F9022032490870E178A07801EBC00090
:1020500020303049087046E02046FFF711FC00B1FF
:1020600041E06289E178A07804F06AF90546A27837
:10207000E67842EA06212278667842EA06206289FA
:1020800012B1012201E005E0002213462A4607F0C2
:1020900042FA28E02046FFF7F3FB00B123E00025D9
:1020A0001A48007810B1A07800B91CE0A078022886
:1020B00000DD18E006F074FE608908B1012000E040
:1020C00000200546E178A0782A4604F08FF9012027
:1020D0000F490870E178A07801EBC00020300D496D
:1020E000087000E000BF00BF00BFD4E63100002050
:1020F0005C040020EC0B00209400002098000020DD
:102100008C000020900000209C0000203200002065
:1021100081000020820000207CB5044604B97CBD0B
:10212000F848007800B9FAE7607820287BD2DFE829
:1021300000F07A1054AFE0F1F0EFEEED7A7A7A7AAF
:102140007AEC7A7A7A7AEBEA7A7A7A7A7AE9E8E752
:10215000E6E52046FFF794FB00B112E2012017F0FC
:10216000E3FA38B9E848007840F48071FE2014F0B2
:10217000F5F906E22089022811D003DC38B10128E4
:1021800028D108E003280ED0FF2823D11BE0A07936
:1021900008F0FEFD1FE0A0790CF00AFE1BE0A0791C
:1021A0000CF034FE17E0608906F088FC00B112E004
:1021B00060890EF0FBFE0546A079C0F300112846A9
:1021C0000CF0BEFA07E0A279C2F3001160890CF0AE
:1021D000B7FA00E000BF00BFD3E12046FFF750FB95
:1021E00000B1CEE1608906F069FC00B1C9E1A078D8
:1021F00005284AD2DFE800F003040527350000BFB8
:1022000000BFE07880B16289A078012106F006FC69
:1022100005462178627841EA0220A38900222946F6
:1022200007F079F90EE0ABE1A078012106F058FB48
:1022300005462178627841EA0220A38900222946D6
:1022400007F069F922E0608909F03CF80546217839
:10225000627841EA0220A3890022294607F05BF94F
:1022600014E0E07878B16289A078012106F0D6FB0D
:1022700005462178627841EA0220A3890022294696
:1022800007F049F900E001E000E000BF00BF78E19D
:102290002046FFF7F5FA00B173E1A07806F00EFCD6
:1022A00000B16EE1012017F03FFA38B99648007886
:1022B00040F48071FE2014F051F962E1E07840B101
:1022C000A178012088409149096808438F49086036
:1022D00007E0A178012088408C49096881438B4838
:1022E0000160A389628911B2A07801220EF004FF77
:1022F00047E12046FFF7C4FA68B142E124E122E158
:1023000015E10AE1F8E0EEE0DBE0CDE0CBE0A4E0AF
:1023100099E027E015E0E07806F0D0FB00B130E16D
:10232000E0780EF043FE0546A07828B1608901B23E
:1023300028460CF0C7FD03E0618928460CF0AAFD91
:102340001FE12046FFF79CFA00B11AE1208920B96D
:10235000608901210CF014FE03E0608901210CF07A
:102360004BFE0EE12046FFF78BFA00B109E1208910
:10237000072850D007DC072862D2DFE800F01721D9
:1023800029333D42470040F20112811A90421BD08E
:1023900007DC08284AD009284DD0B0F5807F4FD1FE
:1023A00009E0012919D002294AD120E060890021E1
:1023B0000DF056F845E0608901210DF051F840E03C
:1023C00060890DF059F83CE060890DF0F1F838E0D3
:1023D000608900210CF048FD33E0608901210CF098
:1023E00043FD2EE0608900210CF064FE29E0608945
:1023F00001210CF05FFE24E0618901200FF02AFF2B
:102400001FE0618901200DF02BF91AE0618901209C
:102410000CF08AFE15E0608908B1012000E0002080
:102420000246002101200CF07FFF0AE061890120B3
:102430000CF016FF05E0608901210CF08DFE00E034
:1024400000BF00BF9DE02046FFF71AFA00B198E0F8
:10245000618920890CF07AFD93E02046FFF710FA9D
:1024600000B18EE0012017F05FF938B926480078F6
:1024700040F48071FE2014F071F882E0E07800F002
:102480007F000090E57805F0800515B14FF40075E8
:1024900000E0002545F00103A289658929B2A078F2
:1024A0000EF03FFE6DE06CE02046FFF7E9F900B169
:1024B00067E0A07820B96289E17801200CF0D4FDB2
:1024C0005FE02046FFF7DCF900B15AE0E07800F069
:1024D0000302607908B1207900E0FF200146012065
:1024E00004F022FF4DE02046FFF7CAF900B148E0B2
:1024F000208904F0F3FA44E02046FFF7C1F938B12F
:102500003FE00000310000205C0400206801002052
:102510006189012007F0A4F933E02046FFF7B0F904
:1025200000B12EE0A178012007F044F929E020460F
:10253000FFF7A6F900B124E0628911B2228910B236
:1025400007F05CF91DE000BF2046FFF799F900B1E4
:1025500017E061781F2901D1012100E00021084620
:10256000694607F0E3F82578667845EA0620BDF865
:102570000430BDF80220BDF8001006F0CCFF00E0EA
:1025800000BF00BF00BFCAE52DE9FC4104460CB9FD
:10259000BDE8FC81FA48007800B9F9E7A078062880
:1025A00005DCA078052802D0A078F6490E5C60789A
:1025B000322879D2DFE800F078193B5F97ACBECBC8
:1025C000F1EFEEED787878ECEB787878EA7878E9E6
:1025D000E8E7E6E5E4E3E2E1E0DFDEDDDCDBDAD9F3
:1025E000D8787878787878D7781A00BF2046FFF7BF
:1025F00047F900B199E2012017F096F838B9E2489E
:10260000007840F48071FE2013F0A8FF8DE2E0789E
:10261000314606F077FA00B187E2E0790090A379BD
:10262000628911B2E07832460DF08AF97DE22046E7
:10263000FFF726F900B178E2012017F075F838B9F4
:10264000D148007840F48071FE2013F087FF6CE2DF
:10265000608958B1E078314606F054FA00B164E27E
:10266000A279E07831460DF024F903E0A1793046F3
:102670000DF030F959E22046FFF702F900B154E2BB
:102680000025E078052822D2DFE800F003040515D4
:10269000160000BF00BF607938B12279E07831467A
:1026A00006F0BCF9054605E03EE2E078314606F06A
:1026B00017F905460CE000BF607930B12279E07867
:1026C000314606F0ABF9054600E001E000E000BF4E
:1026D00000BF2178627841EA0220A38900222946BE
:1026E00006F019FF21E22046FFF7CAF800B11CE20C
:1026F000FF25E178304606F009FB0546217862782F
:1027000041EA0220A3890022294606F004FF0CE2D8
:102710002046FFF7B5F800B107E2E078314606F051
:10272000F1F900B101E2628911B2E07832460DF0B0
:10273000F7F8FAE12046FFF7A3F800B1F5E1628966
:10274000E178A3789B1CD8B20BF0A4FFEDE1204602
:10275000FFF796F800B1E8E16189A278921CD0B247
:102760000CF070FDE1E1D0E1C5E16EE16BE169E102
:1027700066E163E160E152E146E125E13AE12EE103
:1027800018E10DE102E1E4E0D5E0C6E0A6E0B8E042
:1027900094E03FE033E028E0FFE72046FFF770F8E1
:1027A00000B1C2E1A07828B96189E278921CD0B268
:1027B0000FF050FDA078012804D16189E278901CC7
:1027C0000CF04EFFA078022805D16189E278921CB6
:1027D000D0B20BF0A1FFA078032805D16189E2787F
:1027E000921CD0B20BF066FF9FE12046FFF748F83D
:1027F00000B19AE1618920890CF012FE95E1204632
:10280000FFF73EF800B190E1A2896189208904F0C8
:102810008BFE8AE12046FFF733F800B185E1A0780E
:10282000012806D0022816D0032833D0042842D12C
:1028300040E0012016F078FF38B95348007840F4A2
:102840008071FE2013F08AFE36E0A2896189E0786B
:1028500004F0AAFD30E0608900280DDDE0780CF07E
:10286000CDFF05462178627841EA0220A389002243
:10287000294606F050FE0CE0E0780CF0CAFF054651
:102880002178627841EA0220A3890022294606F0D5
:1028900042FE11E0A089002805DD628911B2E078CE
:1028A00008F03AFA05E0A27A02F00301E0780CF0B1
:1028B000DAFF01E000E000BF00BF36E12046FEF78E
:1028C000DFFF00B131E1A078062806DA6289E178FD
:1028D000A3789B1CD8B20CF0C7FB26E12046FEF77C
:1028E000CFFF00B121E1E37803F0030263790BB17C
:1028F000237900E0FF231946A378981C04F014FD07
:1029000013E12046FEF7BCFF00B10EE1042E03D117
:102910006189E07808F00EFB07E12046FEF7B0FF82
:1029200000B102E1032E05D1628911B2E07832468E
:102930000FF014FDF9E02046FEF7A2FF00B1F4E02D
:10294000A08903B2608902B2E17830460EF0E8FC5B
:10295000EBE02046FEF794FF00B1E6E0E1786B463D
:1029600001AA30460EF0B2FC2278637842EA0320D6
:102970002189BDF90030BDF9042006F0CCFDD4E07A
:10298000310000203A0100205C0400202046FEF7C0
:1029900077FF00B1C9E06189304606F039FFC4E035
:1029A0002046FEF76DFF00B1BFE06189304606F0BA
:1029B00057FFBAE02046FEF763FF00B1B5E061893A
:1029C00030460CF0B1FBB0E02046FEF759FF00B1F5
:1029D000ABE06289E17830460CF0A6FCA5E0204629
:1029E000FEF74EFF00B1A0E0608901B230460CF066
:1029F000A9FB9AE02046FEF743FF00B195E061890C
:102A000030460CF02DFC90E02046FEF739FF00B177
:102A10008BE06289E17830460CF02EFC85E02046A0
:102A2000FEF72EFF00B180E0A08903B22279E178A1
:102A3000304608F005F978E0022608E0032606E0B3
:102A4000042604E000BF052601E0062600BF20465C
:102A5000FEF716FF00B168E014F0F0FEC7B2072FD2
:102A600041D2DFE807F0040E1840222C3600052E74
:102A700005D16078252801D1258901E03AE0A578C3
:102A800032E0052E05D16078252801D1658901E065
:102A900030E0E57828E0052E05D16078252801D1C1
:102AA000A58901E026E025791EE0052E05D1607894
:102AB000262801D1258901E01CE0657914E0052E66
:102AC00005D16078262801D1658901E012E0A57959
:102AD0000AE0052E05D16078262801D1A58901E0FC
:102AE00008E0E57900E000BF00BF2946304608F065
:102AF00075F800BF19E02046FEF7C2FE00B114E0F1
:102B0000E17830460CF0E2FA0FE02046FEF7B8FE1E
:102B100000B10AE0E07820B96189304607F0E4FFAF
:102B200000E000BF00BF00E000BF00BF00BF2FE516
:102B30002DE9F04104460CB9BDE8F08194480078D5
:102B400000B9F9E76078152872D2DFE800F0710B60
:102B5000203244545C6C8E97A0AD71BCBDCECFF0DA
:102B6000F1EDEC002046FEF78BFE00B10CE105F024
:102B7000AFFE054606F010F806462178677841EA70
:102B800007202B0CAAB2314606F0C5FCFCE020461B
:102B9000FEF776FE00B1F7E014F022FE054621783C
:102BA000627841EA0220A3890022294606F0B3FC9C
:102BB000EAE02046FEF764FE00B1E5E005F0C0FD66
:102BC00005462178627841EA0220A389002229463D
:102BD00006F0A1FCD8E02046FEF752FE00B1D3E09B
:102BE0002178627841EA0220A389002269490968B4
:102BF00006F091FCC8E02046FEF742FE00B1C3E0BB
:102C00000CF0A8FFC0E02046FEF73AFE00B1BBE0A2
:102C10002089102800DBB7E015F040FB15F05CF8C8
:102C200013F06EFBB0E02046FEF72AFE08B1ABE0E1
:102C3000A9E0A07801280AD12278657842EA052027
:102C4000A3892189544A128806F065FC0CE0A0781B
:102C5000022809D12278657842EA0520A3892189D2
:102C60004E4A128806F057FC8EE02046FEF708FE1A
:102C700000B189E0A07806F0A3F885E02046FEF7D1
:102C8000FFFD00B180E0A07805F084FF7CE02046E5
:102C9000FEF7F6FD00B177E02278637842EA032080
:102CA000A17805F059FD6FE02046FEF7E9FD00B17F
:102CB0006AE02178627841EA0220A389002201219A
:102CC00006F029FC60E000BF2046FEF7D9FD00B108
:102CD0005AE060780D2801D0012000E00020014674
:102CE00004F1080004F010FF4EE000BF2046FEF79C
:102CF000C7FD00B148E060780F2801D0012000E056
:102D00000020014604F1080004F040FB22786378BB
:102D100042EA03200F2B01D0012200E000221146DD
:102D200003F0C6FE30E022E014E001E0FFE700BF60
:102D30002046FEF7A5FD00B126E02278637842EA3E
:102D40000320112B01D0012200E00022114603F0E4
:102D5000D9FB19E02046FEF793FD00B114E00221F3
:102D600004F1080004F0D0FE04F06AFD0CE02046F7
:102D7000FEF786FD00B107E02178627841EA022083
:102D800003F0ACFB00E000BF00BF00BFD4E60000D2
:102D900031000020D4000020E4040020E6040020DC
:102DA0002DE9FC4104460CB9BDE8FC81FE480078E1
:102DB00018B960780C2800D0F6E76078272871D21F
:102DC000DFE800F0141A2A3749588889BAC3D6EECA
:102DD000EDECEBEAE9E8E7E6E5FEE3E2E1E0B1DFAE
:102DE0009E8A947070DE70DDDC71DB002046FEF799
:102DF00047FD00B1F9E2F8E22046FEF741FD00B1DF
:102E0000F3E2208928B114F08FFF3C2007F036FF51
:102E100001E014F061FFE8E22046FEF731FD00B169
:102E2000E3E2208910B115F0E3FA01E015F036FA7B
:102E3000DBE22046FEF724FD00B1D6E214F0E8FC08
:102E400005462178627841EA0220A38900222946BA
:102E500006F061FBC9E22046FEF712FD00B1C4E2B4
:102E60002089D24908600120D1490870FF20D1494A
:102E70000870BAE22046FEF703FD00B1B5E22189F1
:102E800009B1012100E00021084605F09DFE05463C
:102E90002178627841EA0220A3890022294606F0BF
:102EA0003AFBA2E2A0E22046FEF7EAFC00B19CE277
:102EB000012005F0DBFE0546002005F0D7FE0646A2
:102EC0002178627841EA0220A3892A46314606F039
:102ED00022FB8AE289E288E22046FEF7D1FC00B1BB
:102EE00083E26189208902F065FC7EE22046FEF7DC
:102EF000C7FC00B179E26189208902F07BFC74E2B1
:102F00002046FEF7BDFC00B16FE2208902F0AEF969
:102F100005462278667842EA0620A38921892A4656
:102F200006F0F9FA61E22046FEF7AAFC00B15CE285
:102F3000208902F085F958E22046FEF7A1FC00B195
:102F400053E2208902F064F94FE22046FEF798FC34
:102F500000B14AE2FF2002F065FB05462178627865
:102F600041EA0220A3890022294606F0D4FA3CE275
:102F70002046FEF785FCA0B137E22CE222E218E2FF
:102F80000BE278E056E04BE037E02CE018E0F7E1A8
:102F9000EBE1BCE1AEE189E17BE1C8E0B5E0A7E0AF
:102FA00076E020896A4601A902F0E8FC217862787F
:102FB00041EA0220A389DDE9002106F0ACFA14E21F
:102FC0002046FEF75DFC00B10FE2608918B9208948
:102FD00002F022FD06E06089012803D1A189208941
:102FE00002F07AFC01E22046FEF74AFC00B1FCE167
:102FF0006189208902F0EEFDF7E12046FEF740FCF2
:1030000000B1F2E1208902F0D7FC05462178627810
:1030100041EA0220A3890022294606F07CFAE4E175
:103020002046FEF72DFC00B1DFE16189208902F026
:1030300083FDDAE12046FEF723FC00B1D5E160898B
:1030400020B92089012102F007FD13E060890128E1
:1030500009D12089FF2802D102F026FC0AE020894C
:1030600002F0E8FB06E06089022803D1A1892089EB
:1030700002F08AFDB9E12046FEF702FC00B1B4E19E
:103080002278637842EA0320A17802F0FBF8ACE1F1
:103090002046FEF7F5FB00B1A7E1208930B9608931
:1030A00045490860608900F007FE1DE0208901287D
:1030B00006D1608940498860608900F013FE13E002
:1030C0002089022810D160893B4948613B4800783B
:1030D00018B1608906F068F906E0394800780228DE
:1030E00002D1608907F0D8F80120364908707CE1E8
:1030F0002046FEF7C5FB00B177E1208908B1012029
:1031000000E00020284908706FE12046FEF7B8FB78
:1031100000B16AE105F0BAFB05462178627841EA20
:103120000220A3890022294606F0F5F95DE1204638
:10313000FEF7A6FB00B158E12078617840EA012053
:10314000ADF80000A078ADF80600A07830B10128F5
:1031500048D002285ED0032870D170E01A48006879
:1031600085B240F2726085420CDB05EB850044F2CB
:103170007401C1EB4000372190FBF1F080B2ADF853
:10318000020002E00020ADF802001048006885B29D
:1031900040F27260854221DB05EB850044F2740148
:1031A000C1EB4000372113E031000020680000200F
:1031B0006D0000206E000020182000203300002049
:1031C0005B010020300000200004002004040020E7
:1031D00090FBF1F080B2ADF8040002E00020ADF801
:1031E00004004AE082480068C0EBC00000EB4000E9
:1031F0006421B0FBF1F080B2ADF802007D480068B8
:10320000C0EBC00000EB4000B0FBF1F080B2ADF8C5
:10321000040032E078480068D721484340F2DC518E
:10322000B0FBF1F080B2ADF80200744800684FF6D0
:10323000FF7101EA4000ADF804001EE01CE0704898
:10324000006880B2ADF802006E48006885B2C5F52E
:103250003E7064214843192190FBF1F0C0F1FA005F
:1032600080B2ADF80400BDF806006749097840EA6D
:103270000120ADF8060000E000BF00BFBDF8063039
:10328000BDF80420BDF80210BDF8000006F043F9B7
:10329000ABE02046FEF7F4FA00B1A6E0A07800F01B
:1032A0000F005A49087005F07BFD9EE02046FEF7AE
:1032B000E7FA00B199E0002519E0002606EB450683
:1032C000012707EB450746EA07232678677846EA91
:1032D0000720012606EB45064D4F57F8262000260D
:1032E00006EB450657F8261006F015F96D1C242D3F
:1032F000E3DB7AE02046FEF7C3FA00B175E0A07880
:1033000008B1012000E00020424908706DE020462D
:10331000FEF7B6FA00B168E0208940F20122811A76
:10332000904214D006DC60B101280CD0A0F201104C
:1033300098B90AE0B1F5807F0BD0B1F5007F0CD1D0
:1033400009E001250BE0022509E0032507E004253B
:1033500005E0052503E0062501E0002500BF00BFCC
:103360006189284603F0C4FB3FE02046FEF788FA57
:1033700000B13AE0E178A0782B2214F00DFD34E0A2
:103380002046FEF77DFA00B12FE0E07800F003025E
:10339000FF21084603F0C8FF27E02046FEF770FA39
:1033A00000B122E0A3896289E178A07803F034FEBD
:1033B0001BE02046FEF764FA00B116E0208907F012
:1033C0009BFB12E02046FEF75BFA00B10DE020897E
:1033D0001149088009E02046FEF752FA00B104E0E6
:1033E00020890E49088000E000BF00BF00BFDBE479
:1033F000080400200C040020100400201404002005
:10340000180400201C040020340500208000002047
:10341000942F00204C0000204E000020500000207F
:1034200070B5044604B970BD4F48007800B9FAE79A
:103430006078142875D2DFE800F0930A13232F5127
:10344000935293939393939393935B6775882046DA
:10345000FEF716FA00B184E020894449086080E054
:103460002046FEF70DFA00B17BE0E078062806DC86
:10347000E3783F4DEA5C2179A07810F00BF870E01A
:103480002046FEF7FDF900B16BE0E378627921791F
:10349000A07810F053F864E02046FEF7F1F900B18F
:1034A0005FE0A07828B9E0780BF062FE0A2007F010
:1034B000E5FBA07801280BD110F07EF805462178B5
:1034C000627841EA022000231A46294606F023F8D2
:1034D000A078022801D105F045FB42E041E02046FA
:1034E000FEF7CEF900B13CE020892249088038E09F
:1034F0002046FEF7C5F900B133E0A279C2F300110E
:10350000A0780BF01DF92CE02046FEF7B9F900B1C8
:1035100027E0A389628911B2A07801220DF0ECFDA9
:103520001FE01DE02046FEF7ABF900B119E0A078DE
:1035300007F0C8FE05462178627841EA0220A38997
:103540000022294605F0E7FF0BE02046FEF798F938
:1035500000B106E0628911B2A0780BF0B3FC00E084
:1035600000BF00BF00BF5EE7310000202C0000203C
:103570003A0100207200002000B970470249097822
:1035800001B9FAE700BFF8E7310000202DE9F0416A
:1035900004460CB9BDE8F081F948007800B9F9E7B4
:1035A00060780C2874D009DC0C2872D2DFE800F0B7
:1035B000711F279FC2D6E8F1F0EFEEED122869D017
:1035C00008DCA0F10D000528EFD2DFE800F0E7E607
:1035D000E5E4E300152870D004DC13286ED014282D
:1035E00057D13BE116286AD08228F9D108E020465D
:1035F000FEF746F900B145E205F036FE42E200BFB3
:103600002046FEF73DF900B13CE214F017F9C7B2CD
:103610006078C009DB490870012016F085F838B9D8
:10362000D948007840F48071FE2012F097FF29E21B
:10363000002016F079F828B9D3480178FE2012F05E
:103640008DFF1FE2D1480068A0B1062F10D2DFE83D
:1036500007F003080C04070B00BFA578E67808E024
:1036600000BF2579667904E000BFA579E67900E01E
:1036700000BF33E0072F2FD2DFE807F0040D132E31
:1036800019222800A07800F00F05A078060924E090
:1036900090E1F6E1EFE1E07800F00F05E07806094F
:1036A0001BE0207900F00F052079060915E060790C
:1036B00000F00F05607906090FE093E091E0CEE09D
:1036C000A07900F00F05A079060906E0E07900F086
:1036D0000F05E079060900E000BF00BFF1B2E8B2D3
:1036E00017F022FA3146284606F042F9CAE1204690
:1036F000FEF7C6F800B1C5E1012016F015F838B99B
:10370000A148007840F48071FE2012F027FFB9E153
:10371000002016F009F828B99B480178FE2012F025
:103720001DFFAFE16289A38942EA0341208902F0CB
:1037300015FFA7E12046FEF7A3F800B1A2E1227829
:10374000657842EA0520A389227A02F00702904DAB
:1037500055F82210002205F0DEFE93E12046FEF728
:103760008FF800B18EE105F075FD0546217862788D
:1037700041EA0220A3890022294605F0CCFE81E11E
:103780002046FEF77DF850B17CE1F3E0D7E0CDE0D4
:10379000A2E012E064E160E022E045E119E1208965
:1037A00005F05EFD05462178627841EA0220A38992
:1037B0000022294605F0AFFE64E12046FEF760F8DE
:1037C00000B15FE16089217A01F00701714A42F896
:1037D0002100A189227A02F0070005F06FFD51E176
:1037E00000BF00BF2046FEF74BF800B14AE114F0DD
:1037F00025F806460027042E2DD226B1012E04D02E
:10380000022E06D103E0278904E0678902E0A78938
:1038100000E021E000BF00251BE0A80047FA00F00F
:1038200000F00F0005F007015A4A42F821006278C3
:103830000F2A01D1002206E06278152A02D145F252
:10384000AA5200E00122114605F0070005F036FDFE
:103850006D1C042DE1DB00BF14E100BF00BF20465A
:10386000FEF70EF800B10DE113F0E8FF0646002761
:10387000082E2FD2042E2DD304D0052E04D0062ED0
:1038800006D103E0278904E0678902E0A78900E008
:1038900021E000BF00251BE0A80047FA00F000F07F
:1038A0000F0005F007013B4A42F821006278102A18
:1038B00001D1002206E06278152A02D145F2AA520F
:1038C00000E00122114605F0070005F0F7FC6D1C31
:1038D000042DE1DB00BFD5E02046FDF7D1FF00B1AC
:1038E000D0E0208908BB6079A8B16079642808DC41
:1038F0006079062101EB80000A2190FBF1F0264956
:1039000008602548006808B9012001E022480068E5
:103910002149086005E016F007FD217948431E495A
:1039200008601D4800681D490860ABE02046FDF7AF
:10393000A7FF00B1A6E0208905F0F2FCA2E0204636
:10394000FDF79EFF00B19DE02089401C14490860EE
:103950000E48006830B108460068052809D90520DE
:10396000086006E00E4800680A2802D90A200C49BF
:10397000086087E02046FDF783FF98B182E00000F1
:10398000310000206C0000205C0400204800002072
:103990007C0B0020D409002060000020640000207F
:1039A00054000020208908B1012000E000203749A0
:1039B000086067E02046FDF763FF00B162E0208900
:1039C000012802D02089022802D1208930490880AC
:1039D00058E02046FDF754FF00B153E0002505F004
:1039E000DFF9A07800F003002A4951F82000E178BF
:1039F00001F0070201219140084008B1012000E0D8
:103A000000200546A379E178A0782A4602F040FE1E
:103A1000022021490870E178A07801EBC00000F095
:103A200007001E4908702DE02046FDF729FF00B170
:103A300028E0E178A07802F079FD0546A278E678E2
:103A400042EA06212278667842EA062062890AB1B3
:103A5000012200E0002213462A4605F05CFD11E039
:103A60002046FDF70DFF00B10CE02279E178A07847
:103A700005F062FC06E02046FDF702FF00B101E020
:103A800000E000BF00BF00BF84E500004800002048
:103A9000D00000207C0B002081000020820000204C
:103AA0001FB54A480068401C484908608BE005F093
:103AB000BFFC044604B987E020788DF80000A078A8
:103AC0008DF80100A088ADF80800E088ADF80A0084
:103AD0002089ADF80C00BDF80800C0B28DF80200D6
:103AE000BDF80800000A8DF80300BDF80A00C0B256
:103AF0008DF80400BDF80A00000A8DF80500BDF835
:103B00000C00C0B28DF80600BDF80C00000A8DF85C
:103B100007002F48006810B12088803820802D4889
:103B2000008860B12C48008848B19DF8000000F082
:103B30007F00082803D00021FB2012F00FFD9DF824
:103B4000000000F07F00102839D2DFE800F0080CF8
:103B50001014181C2024282C303838383834684683
:103B6000FFF70AFD2CE06846FFF71AF928E06846DF
:103B7000FFF756FC24E06846FEF7CEFA20E06846E0
:103B8000FEF702FD1CE06846FEF782F918E0684681
:103B9000FFF7FCFC14E06846FDF7B6FF10E068464E
:103BA000FEF7C6FF0CE06846FEF71EF908E068461F
:103BB000FEF740F904E06846FDF7C4FE00E000BFF0
:103BC00000BFFDF731FB72E700BF1FBD840000207E
:103BD0002C0000204A0400204804002039B1084A83
:103BE0001268012383401A43054B1A6006E0044A19
:103BF0001268012383409A43014B1A60704700000A
:103C0000007400401FB50121480706F07BF93C20F5
:103C10000090002001904FF4007002900220039069
:103C20006946002000F00EF86946102000F00AF8FE
:103C300001210020FFF7D2FF01211020FFF7CEFF66
:103C40001FBD000030B5002200230A4C226840F658
:103C5000FE748440A243D1E900452C438D682C4377
:103C6000CD6844EA050303FA00F42243014C2260C4
:103C700030BD00000074004008B500220092054AE3
:103C8000009200F10802009B1A440092009A116011
:103C900008BD00000074004008B500220092054AEB
:103CA000009200F11402009B1A440092009A1160E5
:103CB00008BD00000074004070B50446204615F0B1
:103CC000E1FF0446E000C0EB003048F2E80190FB61
:103CD000F1F5A9B20020FFF7CFFF0121002000F08D
:103CE00017F870BD70B50446204615F0CBFF0446AA
:103CF000E000C0EB003048F2E80190FBF1F5A9B21A
:103D00000020FFF7C9FF0121102000F001F870BD6D
:103D100010B541B1084A126804090123A3401A43AF
:103D2000054B1A6007E0044A126804090123A34006
:103D30009A43014B1A6010BD0474004070477047ED
:103D400070477047704770477047704710B515F05F
:103D500037FB10BD7047704710B515F06BFA10BDFA
:103D60000246094B9A4201D2084801E00648103841
:103D700001F000531BB1064B0B40C36002E0044B43
:103D80000B408360704700001064024000600240F6
:103D90007D0F7D0F21B1026842F00102026003E055
:103DA000026822F00102026070470000016821F001
:103DB000010101600021016041608160C160016119
:103DC000212141614A49884204D13D21484A103AA3
:103DD00091608CE046491831884205D14FF47461F6
:103DE000434A103A916082E041493031884205D11E
:103DF0004FF474113E4A103A916078E03C494831E2
:103E0000884205D14FF07461394A103A91606EE0F2
:103E100037496031884204D13649354A103AD16079
:103E200065E033497831884204D13349304A103A49
:103E3000D1605CE02E499031884204D12F492C4A50
:103E4000103AD16053E02A49A831884205D14FF099
:103E50003D51274A103AD16049E02949884204D1AE
:103E60003D21274A083A116041E02549183188422E
:103E700005D14FF47461224A083A116037E02049B5
:103E80003031884205D14FF474111D4A083A11604F
:103E90002DE01B494831884205D14FF07461184A22
:103EA000083A116023E016496031884204D1114973
:103EB000134A121F11601AE011497831884204D167
:103EC0000D490F4A121F116011E00D4990318842CF
:103ED00004D10A490A4A121F116008E00849A831B2
:103EE000884204D14FF03D51054A121F11607047BE
:103EF000106002403D000020400F002000003D20E7
:103F00001064024030B503460A46002000240B4DE1
:103F1000AB4201D20A4901E00849103902F00055CC
:103F20000DB14C6800E00C68064D2C4004EA020517
:103F30000DB1012000E0002030BD000010640240FF
:103F4000006002407D0F7D0F10B501F080034BB182
:103F500022B1436943F08003436103E0436923F0E6
:103F60008003436180290BD02AB1036801F01E044D
:103F70002343036004E0036801F01E04A3430360CD
:103F800010BD000010B500220268134B1A40CC6827
:103F90000B6823434C6923438C692343CC69234337
:103FA0000C6A23434C6A23438C6A23434C6B2343A0
:103FB0008C6B23431A430260426922F00702D1E965
:103FC0000B3423431A4342610B6943604B6883609F
:103FD0008B68C36010BD00003F801CF000210160B1
:103FE00041608160C160016141618161C1610162C3
:103FF00041628162C16201634163816370477047BE
:10400000F3B50646358801A804F0CEFB0746002F1D
:1040100060D10021002415E004F10800BDF804205F
:10402000024102F0010028B145FA04F0012222EA1F
:10403000000003E045FA04F000F00100A04008434E
:1040400081B2641C082CE7DB00241BE004F10800AB
:10405000BDF80420024102F0010038B104F108006B
:1040600045FA00F0012222EA000005E004F1080010
:1040700045FA00F000F0010004F108029040084306
:1040800081B2641C082CE1DB0D46BDF80400C0F3CE
:104090000310C0F1100005FA00F081B2BDF8040071
:1040A000C0F3031005410D43002100240DE0A200E0
:1040B00045FA02F0BDF80420801A001B00F00F0042
:1040C000A2009040084381B2641C042CEFDB3180D5
:1040D0000020FCBD4FF0FF30FBE7FCB505460E4667
:1040E000002728680090A888ADF804008EB14FF62C
:1040F000FF7086420DD0002409E0694601EB4400C0
:104100003146FFF77DFF08B1012722E0641C032C34
:10411000F3DBBDF80400B0B1BDF804004FF6FF7149
:10412000884210D0BDF804100DF10200FFF768FFBF
:1041300008B102270DE0BDF804106846FFF760FFE4
:1041400008B1032705E000982860BDF80400A880A6
:1041500000BF3846FCBD00002DE9F84380460C4600
:10416000208820F0020020802088C0F34310062819
:104170007ED2DFE800F0F103295B7EEC208C06F0B4
:10418000D9FDA08AE081208C012200210AF04AFAA0
:10419000208AC0EB0010C000642190FBF1F00FFA00
:1041A00080F900200090208C00231A4649460BF02D
:1041B000FDFC208C4FF47A710DF0A6FB208820F4D2
:1041C000F07040302080CCE0A18AE08900F0DCF87B
:1041D0000646002E02DDA08AE08126E0208C07F052
:1041E000CDF800B1BDE0E089A081208AC0EB0010CD
:1041F000C000642190FBF1F00FFA80F9208C0122BD
:1042000049460AF00FFA00200090208C00231A463D
:1042100019460BF0CBFC208C4FF47A710DF074FB37
:10422000208820F4F070603020809AE0A18AA08974
:1042300000F0AAF80646002E02DAA08AA08116E055
:10424000208C07F09BF800B18BE0208C012200212C
:104250000AF0E8F900200090208C00231A4605217E
:104260000BF0A4FC208820F4F0708030208078E0EF
:1042700072E0208C07F082F800B172E0208820F410
:10428000F0702080208C0DF073F8E089A189451A28
:10429000002D01DA05F58055A18801FB05F0C11755
:1042A00000EB1151C1F30F31E1830095A389E2893D
:1042B00041462DA017F0A8FFA389E28901214046BD
:1042C00000F07AF80746608AC8B1608AB0F5487F86
:1042D00001D0608A07E0208A00EB001000EB80002C
:1042E000642190FBF1F0B84209DD0DB16D4201E0AF
:1042F0004FF0FF352946404600F090FC26E0A078BC
:10430000C0F3401038B9A0884FF47041B1FBF0F011
:10431000A189451802E06D10A0890544C5F30B057D
:10432000E580208820F001002080608820F00200D5
:10433000801C60802946404600F070FC208820F4F4
:10434000F070A03020804FF4C870208309E0208CEA
:1043500000210AF0F5F900BF208820F4F0702080D9
:1043600000BF00BFBDE8F8835B25645D2063775B19
:1043700025645D202D206363775B25645D203D20EF
:104380005B25645D0D0A000010B502460B46991AC4
:1043900009B9002010BD081E01DB044600E04442BC
:1043A000B4F5006F06D9002902DA01F5805101E069
:1043B000A1F580510846EDE7F0B504460D460D4ED7
:1043C00006EB8416B7884FF48051012D02D1D61A1E
:1043D000314401E09E1A3144B1F5805F01D3A1F56B
:1043E000805101FB07F64FEAE67C06EB1C5C4FEAC6
:1043F0002C30F0BDB035002070B506460C46E38881
:10440000A28A01213046FFF7D7FF0546A078C0F306
:10441000401030B9A0884638A84207DAA0882D1A83
:1044200004E0A08FA84201DAA0882D1A284670BDAA
:104430002DE9F04782460F4690461C462078C0F38F
:10444000400010B90020BDE8F087B4F80490E08A7D
:1044500001F0C0FA08B10020F5E7380390FBF9F647
:10446000E0880644C6F30B06002E01DA06F58056F6
:10447000A18A3046FFF788FF0546281E01DB01466A
:1044800000E041420D462089002846D02089A842FC
:1044900043DA608B401C6083608B404501DA012069
:1044A000D1E7608820F01000103060802088C0F3D1
:1044B000C32002281CDA208820F4004000F50040C8
:1044C0002080608820F010006080218C41F47F40C3
:1044D0003A46294605F010F92078C0F3C00018B11B
:1044E00020460EF00EFE26E020460EF0EDFD22E006
:1044F000208820F4F0402080208820F40040208094
:10450000AAB22078C0F3C00008B1012000E0022068
:104510000146504600F040FC0DE02088C00B38B149
:10452000208820F4F0402080208820F40040208063
:1045300020460DF039FF002060832088C00B18B999
:10454000208820F008002080208820F002002080B1
:10455000208820F010002080002074E70346062108
:1045600006221248018812480288ABB1012B1BD1E8
:104570003AB94EF6EE60814201D100207047012029
:10458000FCE739B94EF6EE60824201D10120F5E731
:104590000020F3E7AB20F1E709B90020EEE70AB904
:1045A0000120EBE7AB20E9E70020E7E700C00008C7
:1045B0000000010810B508240120104908600221FC
:1045C000182003F0F1FA0446082C01D0204610BD53
:1045D00002200A4908600021094803F0B3FB0446A1
:1045E000082C01D02046F2E701200449086002218E
:1045F000202003F0D9FA04462046E8E74C070020C3
:1046000000C000082DE9F05F4FF0060B06260025DC
:10461000A846A9464FF0FF3A002705E0781D8449D7
:1046200021F81700781C87B2642FF7DB8148B0F8B7
:1046300000B081480688012080490860BBF1000075
:1046400072D0A0F56E40EE3848B3A0F5885011380E
:1046500000286AD116B34EF6EE60864217D10120CB
:1046600008600221182003F09FFA0446082C02D0AB
:104670002046BDE8F09F02207049086000216E4886
:1046800003F060FB0446082C08D02046F1E7FFF752
:1046900091FF0446082C01D02046EAE7C2E0002E34
:1046A00044D1002526E06348C088614931F81510DF
:1046B000884201D10FFA85FA554519D05C4931F885
:1046C00015005F4900F060F98146B9F1010F0FD084
:1046D00002205A490860564931F81500584909889E
:1046E00000F08CF98046B8F1080F01D04046C0E7D1
:1046F000681C85B2642DD6DB022050490860002179
:104700004C4803F01FFB0446082C01D02046B0E7BC
:1047100001204A4908600221202003F045FA04469E
:10472000082C26D02046A4E724E073E04FF6FF7063
:10473000864217D10120414908600221202003F060
:1047400033FA0446082C01D0204692E702203B4968
:1047500008600021374803F0F5FA0446082C08D019
:10476000204686E7FFF726FF0446082C01D02046A6
:104770007FE757E036B9FFF71DFF0446082C48D005
:10478000204676E74FF6FF70864242D0002526E0AD
:104790002948C088264931F81510884201D10FFAFE
:1047A00085FA554519D0224931F81500244900F001
:1047B000EBF88146B9F1010F0FD002201F490860C4
:1047C0001B4931F815001E49098800F017F9804689
:1047D000B8F1080F01D040464BE7681C85B2642D44
:1047E000D6DB0220154908600021134803F0AAFA1D
:1047F0000446082C01D020463BE701200F49086001
:104800000221182003F0D0F90446082C01D02046DC
:104810002FE707E0FFF7CEFE0446082C01D0204624
:1048200027E700BF00BF002004490860082020E7F8
:104830009434002000C00008000001084C0700204C
:10484000900500202DE9F84F80468A460825374814
:1048500000904FF00009002400264FF0000B0020CC
:10486000FFF77CFE8146B9F1010F03D1304800907B
:10487000202709E0B9F1000F03D12E480090182736
:1048800002E0AB20BDE8F88F02202B4908604EF60D
:10489000EE61009803F056FA0546082D01D028462F
:1048A000F0E75146404600F0A9F80646082E01D030
:1048B0003046E7E700241CE0204830F8140040456B
:1048C00015D01E4931F814001D4900F05DF88346EB
:1048D000BBF1010F0BD0194931F8140018490988B0
:1048E00000F08CF80646082E01D03046CAE7601C5E
:1048F00084B2642CE0DB01200F49086002213846B5
:1049000003F052F90546082D01D02846BAE70220E7
:10491000094908600021009803F014FA0546082DA3
:1049200001D02846AEE72846ACE70000FF030108A7
:1049300000C00008000001084C070020943400204B
:10494000900500202DE9F04105460F461646A819AE
:10495000642802DDAF20BDE8F08100240DE007EB04
:1049600044012A19074B33F8120000F00DF808280B
:1049700002D04FF0FF30EEE7641CB442EFDB0020C2
:10498000E9E70000943400202DE9F04706460F4681
:10499000002545F255584FF00109154CA24600205C
:1049A000FFF7DCFD0546AB2D01D1BDE8F0871DB951
:1049B00010490F4A521E06E0012D02D10C490E4A41
:1049C00001E0AB20F1E78A46541E0AE0B4F800800B
:1049D000B04505D134F8020C38804FF0080904E0E6
:1049E000241F0AF102008442F0D800BF4846DCE7E9
:1049F0000000010800C00008FFFF01082DE9F04792
:104A000006468846082700251D4CDFF878900120CF
:104A1000FFF7A4FD0546AB2D01D1BDE8F0871DB918
:104A20001949174A521E06E0012D02D11449174AAE
:104A300001E0AB20F1E70C46A2F1010919E0206882
:104A4000401CA8B90220124908604146204603F0E4
:104A500079F90746082F01D03846DEE702200C49D5
:104A600008603146A01C03F06DF907463846D4E7CC
:104A7000241D4C45E3D30020054908608020CCE785
:104A800000000108FF07010800C00008FFFF01083F
:104A90004C0700202DE9F04105460F4616464FF021
:104AA0000008012080F3108800BFA819642802DDE7
:104AB0004FF0AF0817E003F07DF900240DE037F860
:104AC00014102A190B4B33F8120000F015F80828BF
:104AD00002D04FF0FF3802E0641CB442EFDB00BFAD
:104AE00003F0D8F800BF002080F3108800BF4046D4
:104AF000BDE8F0819434002070B505460E460024D0
:104B000031462846FFF77AFF0446802C04D131460F
:104B10002846FFF797FE0446204670BD0021144A40
:104B200011601521134A1160134A11600021134AC4
:104B30001160134A1160134A1160002004E0002143
:104B4000114A42F82010401C1428F8DB002004E031
:104B500000210E4A42F82010401C0328F8DB0021F7
:104B60000B4A11604FF6FF71084A916070470000D0
:104B70009C0000208C000020900000209400002069
:104B800098000020780000209C0B0020EC0B0020F7
:104B90007C00002010B500241D480068002836D095
:104BA00000BF0120A0401A490968084038B301201D
:104BB000A04018490968084000B121E0164850F8A3
:104BC000240000B91CE0144850F82400401E12498B
:104BD00041F82400084650F8240080B90C2C03D278
:104BE000204612F0B9FA03E0A4F10C0014F042F9E7
:104BF0000120A0400649096881430548016000BFC3
:104C0000601C044602490968C1400029C9D110BD91
:104C10007C0000209C0000209C0B002070B5044606
:104C20000D4600232246294641F2015004F073FC50
:104C300070BD00002DE9F84306460C464FF0FF37E3
:104C400000BFA07800F0010000B99FE02088C0F309
:104C5000402010B9E08D401CE08504F11602694641
:104C6000304605F091FB0746002F40D1BDF800000B
:104C7000A082606A08B100206062608820F00800AD
:104C80000830608014F0F2FD424941F82600A07817
:104C9000C0F3800020B1A08A40F6FF71081AA082FC
:104CA0002088C0F34020E0B9A08D4FF6FF71884204
:104CB00001D1A08AA085E08EA18A884201DAA08A6B
:104CC000E086208FA18A884201DDA08A2087608E3D
:104CD00038B1A08E618E884201DA608EA0860020F5
:104CE000608694F82000002105F0E2FF4EE0A078F5
:104CF000C0F3C00020B114F0B9FD6062002505E0EA
:104D00004FF47A71304600F033FA05462088C0F33C
:104D1000402028B9208E401C2086608E401C608672
:104D2000608820F00800608094F82000012105F0E0
:104D3000BFFF41F28831304600F040FA20B12088B0
:104D4000C0F3402000B921E0304605F011FB47F2E6
:104D50003051884200DD00BFBDB16420208314F0D3
:104D600085FD6062A078C0F3001068B9608820F00B
:104D7000100010306080E08A00F02CFE8046424631
:104D80000021304600F008F800E000BF00BF3846C0
:104D9000BDE8F883B03700202DE9F04107460C4606
:104DA00016460025E2200A49086025460CB945EA66
:104DB0000625022C03D1304665F31F300546044911
:104DC000096841EA0720294611F0C8FBBDE8F081D7
:104DD0004407002010B516F0EBF910BD10B516F021
:104DE000E7F910BD10B516F0E3F910BD10B516F0D7
:104DF000DFF910BD10B516F0DBF910BD704710B526
:104E000016F0D6F910BD10B5002400F005F80446E0
:104E10000CB1FCF717FD10BD002070470149086078
:104E200070470000143C01400EB50121880305F0D5
:104E300089F80F21042005F0DFFB0C21042005F088
:104E4000DBFB0B21052005F0D7FB0821052005F031
:104E5000D3FB8848007818B90721042005F0CCFB63
:104E60000321022005F0C8FB0221084605F0C4FB1F
:104E70000121062005F0C0FB0021062005F0BCFB47
:104E80004FF40040009000208DF804000C208DF8B5
:104E9000050001208DF80600684600F01DF94FF46A
:104EA000004000F0E9F84FF48050009000208DF8A9
:104EB00004000C208DF8050001208DF806006846DE
:104EC00000F00AF94FF4805000F0D6F84FF400607B
:104ED000009000208DF804000C208DF805000120C2
:104EE0008DF80600684600F0F7F84FF4006000F017
:104EF000C3F84FF48070009000208DF804000C205F
:104F00008DF8050001208DF80600684600F0E4F8F1
:104F10004FF4807000F0B0F85648007880B98020D7
:104F2000009000208DF804000C208DF80500012071
:104F30008DF80600684600F0CFF8802000F09CF85D
:104F40000820009000208DF804000C208DF805004A
:104F500001208DF80600684600F0BEF8082000F039
:104F60008BF80420009000208DF804000C208DF8B0
:104F7000050001208DF80600684600F0ADF8042019
:104F800000F07AF80220009000208DF804000C2038
:104F90008DF8050001208DF80600684600F09CF8A9
:104FA000022000F069F80120009000208DF8040034
:104FB0000C208DF8050001208DF80600684600F0F1
:104FC0008BF8012000F058F806208DF8080000202A
:104FD0008DF8090001208DF80A008DF80B0002A859
:104FE00004F076FC07208DF8080000208DF80900F9
:104FF00001208DF80A008DF80B0002A804F068FC6F
:1050000008208DF8080000208DF8090001208DF897
:105010000A008DF80B0002A804F05AFC09208DF854
:10502000080000208DF8090001208DF80A008DF895
:105030000B0002A804F04CFC17208DF8080000209B
:105040008DF8090001208DF80A008DF80B0002A8E8
:1050500004F03EFC28208DF8080000208DF809009F
:1050600001208DF80A008DF80B0002A804F030FC36
:105070000EBD000032000020054909688143044A42
:105080001160111D09688143121D116070470000F5
:10509000003C014010B504462046FFF7BFFE034820
:1050A000006820430149086010BD0000003C014039
:1050B000014600200022074B1B6803EA0102054B52
:1050C00014331B680B4013B10AB1012000E000202B
:1050D00070470000003C0140002123498279002AEA
:1050E0003AD00A46126803689A430B461A600A1DB2
:1050F000126803689A430B1D1A60027911440A680A
:1051000003681A430A60184A0832126803689A430F
:10511000154B08331A601A1D126803689A43124B24
:105120000C331A604279102A0ED11A1F12680368D4
:105130001A430D4B08331A601A1D126803681A438C
:10514000094B0C331A600DE00749427911440A6893
:1051500003681A430A6005E0027911440A6803688B
:105160009A430A6070470000003C0140704700000D
:1051700070B505460E460F480078854201DB0020D9
:1051800070BD14F073FB04460B4850F82500241A38
:10519000201E01DB014600E041420C46B4F1004F05
:1051A00001D3C4F1FF34B6EB940F01D20120E7E73D
:1051B0000020E5E748070020B03700202DE9F04146
:1051C00005460E4610480078854202DB0020BDE807
:1051D000F0810E4800EB851714F048FB0446B86ACE
:1051E000241A201E01DB014600E041420C46B4F1C6
:1051F000004F01D3C4F1FF34B6EB940F01D201206C
:10520000E5E70020E3E7000048070020B035002074
:10521000014609B1012200E00022114600200AE007
:10522000064A02EB8012528861F30002034B03EB43
:1052300080135A80401C0828F2DB7047B0350020EC
:10524000014600200CE041FA00F2074B03EB80130B
:105250005B8862F30003044A02EB80125380401C17
:105260000828F0DB70470000B03500200146002020
:10527000082903DA024B03EB8112D08B7047000040
:10528000B03500202DE9F04781460D464FF000086B
:10529000FF2D12D100240DE0134800EB8416F08A94
:1052A00000F098FB074604EB440007FA00F040EAE0
:1052B0000808641C082CEFDB0AE0082D05DA0A4810
:1052C00000EB8516B6F8168002E00120BDE8F087F5
:1052D0004FF6FF7000EA18431FFA88F22946484645
:1052E00004F019F90020F1E7B03500202DE9F04174
:1052F00006463F490E70082E05DD0820087031462D
:105300003CA016F081FF002564E0062D03DBA81DFC
:1053100000F0FF0801E005F0FF0808EB480000EB93
:1053200008103A4901EBC0078020C05BC0F344106D
:10533000A84207D08020C05BC0F344112A4634A0A5
:1053400016F062FF3B4800EB8514A4F82080002093
:105350002080608097F88C00C0F3C001284600F0E0
:10536000EBFBB8F1030F04DD608820F02000203053
:105370006080608820F0400040306080608820F0CD
:10538000080008306080608820F001006080022002
:10539000E0800020A0834FF44870A080002060834C
:1053A0003220208319202081052060814FF439703C
:1053B00020824FF448706082208AE083002060627F
:1053C000208820F4007020800020A0624FF4C87074
:1053D000A0876D1C082D98DB00221146104604F0B2
:1053E000D3FFFF2000F01EF90020BDE8F08100008F
:1053F00048070020452D4E756D20746F6F206C613D
:105400007267655B25645D0D0A000000C817002007
:10541000537465706E6F5F656E6964785B25645D5B
:10542000213D456E636F64655F6964785B25645DEB
:105430000D0A0000B03500202DE9F0474FF00009BB
:1054400000BF76480078401C744908700878C1177E
:1054500000EB5171C910A0EBC101704A1170704886
:105460001146097800EB8114A07800F0010000B922
:10547000D0E0208C05F082FF054625BB208B18B1BB
:10548000208B401E2083C5E00A2020832088C0F3A3
:10549000402000285CD014F0E9F9A062208820F4B4
:1054A000007020804FF001094FF6FF70A0850020AA
:1054B0006087E0864FF6FF7020870020E085208619
:1054C0006086A08644E02088C0F34020002835D1C3
:1054D000A078C0F3C00010B1A08A608702E04FF648
:1054E000FF706087E18E228F881A002801DB014659
:1054F00000E041428FB2208E28B9142F1DDD40F606
:10550000EC70874219DA628FA18D208C04F0F4F8D8
:10551000228FE18E238C43F4807004F0EDF8228E0C
:10552000E18D238C43F4007004F0E6F8A28E618EC6
:10553000238C43F4407004F0DFF800BF208820F48F
:10554000007000F500702080A06A08B10020A06201
:10555000214632480078FFF76DFB0646002E05DA3B
:10556000B9F1000F01D00020208353E02088C0F360
:10557000431028B1214629480078FEF7EDFD49E0A7
:10558000207800F0010078B1208820F00100208010
:10559000608820F00200801C6080A08AE080208C5F
:1055A0000022114609F03EF81DB9A078C0F3400072
:1055B00058B94DB1A078C0F3400028B900220421A9
:1055C00016480078FFF7E8FB24E02078C0F380005D
:1055D00080B1214611480078FEF70EFF0FFA80F8DF
:1055E000208C0122414609F01DF8208820F004009B
:1055F00020800EE0A078C0F3001050B9208C05F098
:105600008FFE824623460122514604480078FEF769
:105610000FFF00BF00BFBDE8F08700004907002072
:10562000B0350020F8B505460027082D19DA2148C5
:1056300000EB851421462846FFF7FCFA064606F1E2
:10564000640038B1608820F0080008306080E08A8B
:1056500047102DE0608820F0080060804FF6FF774B
:1056600026E0FF2D24D100251EE0124800EB851412
:1056700021462846FFF7DEFA0646E08A0090A38A14
:105680002A4631460CA016F0BFFD46B90120A840BD
:105690000743608820F008000830608003E06088DD
:1056A00020F0080060806D1C0E4800788542DCDB2D
:1056B0003846F8BDB03500205353495F52656164E8
:1056C0003D202564202E2E2E2564205B636F6465AB
:1056D000723A256420737461743A307825785D0DD0
:1056E0000A000000480700202DE9F04105460E465B
:1056F00014480078854200DA1EB94FF0FF30BDE84B
:10570000F081114800EB8514A07800F0010008B981
:105710000020F4E7608820F010006080A078C0F3DB
:10572000C00008B90020EAE721462846FEF764FEDB
:1057300007463760208820F00800083020800120CC
:10574000DDE7000048070020B03500202DE9F047D4
:1057500005460E4691464FF0000800BF13480078FA
:10576000854200DB1DE0124800EB85142088C0F361
:10577000431000B115E0A078C0F3001018B16088A4
:1057800020F010006080A078C0F3C00000B908E0ED
:1057900021462846FEF730FE07B237804FF0010859
:1057A00000BF00BF4046BDE8F0870000480700206A
:1057B000B03500200246C82901DD00207047082AC4
:1057C00003DA034800EB821399830120F6E7000017
:1057D000B03500200246B1F5487F01DD002070475A
:1057E000082A03DA024800EB821399870120F6E7C2
:1057F000B03500200246B1F5487F01DC002901DA0E
:1058000000207047082A03DA024800EB821359820D
:105810000120F6E7B03500200146082901DB002011
:105820007047034800EB8110807800F00100F7E733
:10583000B0350020F8B50546082D02DB4FF0FF30EB
:10584000F8BD184800EB8514A078C0F3400010B9EB
:105850004FF0FF30F4E7608820F01000608020787F
:10586000C0F3001010B14FF0FF30E9E700202080B6
:10587000208820F010001030208013F0F7FFA06285
:10588000208C0CF021F9208C05F04AFD0646002002
:105890000090208C0023012231460AF087F9002075
:1058A000CEE70000B035002010B500240AE008481B
:1058B00000EB84108078C0F3001010B12046FFF791
:1058C000B9FF641C034800788442F0DB10BD00007F
:1058D000B03500204807002070B506460D46082E5A
:1058E00000DB70BD134800EB86143C2D00DCA5885E
:1058F000A0883C38A84202DCA0883C3885B22582CA
:10590000608820F002006080608820F010006080D5
:1059100000202080208820F4F07020302080192082
:105920002083002060832A46314603A016F06CFCD9
:1059300000BFD6E7B03500205B25645D452D61755D
:10594000746F5A65726F206D6178737465705B2532
:10595000645D0D0A00000000082800DB704706495E
:1059600001EB8011498821F00201034A02EB801209
:10597000518000BFF2E70000B03500202DE9F04172
:1059800005460F461646082D03DB4FF0FF30BDE8F5
:10599000F081084800EB851421462846FFF74AF9B4
:1059A00080460FB1A08A38600EB1E08A3060404670
:1059B000EDE70000B03500200146082902DB4FF07A
:1059C000FF307047024800EB8110C088F9E7000003
:1059D000B0350020014601F03F003F2802D001F021
:1059E0003F0008B90120704701F0180008B10220FB
:1059F000F9E701F00600062801D10320F3E701F0E2
:105A0000010008B10420EEE701F0200008B90520EC
:105A1000E9E70020E7E700000146082902DB4FF034
:105A2000FF3070470B4800EB8110008820F0010028
:105A3000401C084A02EB81121080064800EB8110DE
:105A4000408820F00200034A02EB811250800020BF
:105A5000E7E70000B03500200246082A02DB4FF0DD
:105A6000FF30704709B1012000E00020054B03EB37
:105A700082131B8860F38203024800EB82100380CC
:105A80000020EEE7B035002001460020082900DBA9
:105A90007047054A02EB81121278C2F3400202B944
:105AA000012000BFF4E70000B035002010B5044825
:105AB000006803F029FDEF200149086010BD0000D7
:105AC000440700200246082A02DB4FF0FF307047EF
:105AD000C9B1184800EB8210008820F00200801C39
