:020000040802F0
:10000000E07400209901020829840208357C020866
:100010006B7F0208310C0208C531030800000000A4
:100020000000000000000000000000003D910208F8
:100030002F35020800000000238A02081924030853
:10004000CF310308218A02087D240308AF8D0208FE
:1000500005690208F98C0208694102087941020821
:100060008141020889410208914102086D3202086B
:100070006F320208713202087332020875320208C8
:1000800077320208793202089D090208470C0208FB
:100090003B0C0208430C0208450C0208934102087D
:1000A0007F240308912403088F240308872403086E
:1000B00099240308A1240308A92403084B7C0208FF
:1000C000497C02084F7C02084D7C0208158E02080C
:1000D000178E0208552E03085D2E03085F2E0308B5
:1000E00071410208AD8D02087D860208B72403081D
:1000F000C3240308C1240308B92403087B3202087F
:100100006F6A0208DD8D0208AB240308198E02080D
:10011000512E0308532E0308AD240308AF2403080F
:100120007D320208853202088732020889320208CD
:10013000B3010208B3010208B3010208B3010208C7
:10014000B3010208B3010208B3010208B3010208B7
:10015000B3010208B3010208B3010208B3010208A7
:10016000B3010208B3010208B3010208B301020897
:10017000B3010208B3010208B3010208B301020887
:10018000B3010208DFF80CD000F02CFA0048004759
:10019000B5890308E07400200648804706480047F8
:1001A000FEE7FEE7FEE7FEE7FEE7FEE7FEE7FEE727
:1001B000FEE7FEE7212403088501020840EA010367
:1001C0009B0703D009E008C9121F08C0042AFAD20D
:1001D00003E011F8013B00F8013B521EF9D27047D1
:1001E000D2B201E000F8012B491EFBD27047002279
:1001F000F6E710B513460A4604461946FFF7F0FF26
:10020000204610BD421C10F8011B0029FBD1801AAA
:100210007047F0B480EA0102D40F4200B2EB410F04
:1002200002D20246084611464A0042D0C30DDDB252
:10023000C1F3C752AD1A202D35DAC1F3160141F4CE
:10024000000204B15242C5F1200602FA06F12A4129
:100250001044B3EBD05F23D0C4B1012DA0EBC35049
:1002600009DCF0BC4FF0004202EAC352DBB200F5F9
:10027000000000F02CB9400000F1807000EBC3508A
:10028000A0F1807040EAD170490009E0490841EAD4
:10029000C071A0EBC35000F50000400800EBC35054
:1002A000F0BC00F00BB96142012202EB4101001BDE
:1002B000F6E7F0BC704781F00041AAE780F000400B
:1002C000A7E780EA010210B502F00043400022D007
:1002D0004A001FD0010E01EB1261C0F35600C2F3B9
:1002E000560240F4000042F40002A0FB0220000489
:1002F0007F39140400D0401C50EA124001D4400061
:10030000491EC2B20C0604EBD010401C4008802AE3
:1003100002D003E0002010BD20F00100002900DA27
:100320000020184310BD2DE9F04D81EA030404F0CC
:10033000004B21F0004514464FF0000A23F0004125
:1003400050EA050220D054EA01021DD0C5F30A5735
:100350000246C5F31303C1F31300C1F30A5640F478
:10036000801543F48013A7EB0608101BD64608F24D
:10037000FD3873EB050002D308F1010801E0921883
:100380005B41B8F1000F03DA00200146BDE8F08DB3
:1003900000204FF48011064684460EE0171B73EBD5
:1003A000050705D3121B63EB050306434CEA010C5A
:1003B00049084FEA300092185B4150EA0107EDD13D
:1003C00052EA030012D082EA040083EA05010843DE
:1003D00005D0101BAB4106D20122002306E000220B
:1003E0004FF0004302E06FF0010253101AEB0600D9
:1003F0004CEB085110EB0A0041EB0B01BDE8F04D4E
:1004000000F093B8C10F80EAE0700844CA07962351
:10041000002100F05CB80EB5C10F80EAE07008441E
:10042000CA07002140F233438DE80E000A460B460E
:1004300000F08AF803B000BD00F0004220F0004058
:10044000C10DC0F3160040F400007F2901DA00203E
:100450007047962903DCC1F19601C84001E0963946
:100460008840002AF4D040427047C1F30A5210B5C8
:10047000C1F3130140F2FF3341F480119A4201DAD3
:10048000002010BD40F233439A42A2F2334203DC13
:10049000524200F003F810BD904010BD202A04DB4A
:1004A000203A21FA02F00021704721FA02F3D040ED
:1004B000C2F1200291400843194670470029A8BFA5
:1004C0007047401C490008BF20F00100704710B47D
:1004D000B0FA80FC00FA0CF050EA010404BF10BC32
:1004E000704749B1CCF1200421FA04F411FA0CF15F
:1004F00018BF012121430843A3EB0C01CB1D4FEA98
:1005000000614FEA102042BF002010BC704700EB92
:10051000C35010440029A4BF10BC7047401C4900C0
:1005200008BF20F0010010BC704710B5141E73F115
:10053000000408DA401C41F1000192185B411A43A3
:1005400001D120F0010010BD2DE9F04D92469B46EF
:1005500011B1B1FA81F202E0B0FA80F22032904695
:1005600000F052F804460F4640EA0A0041EA0B0147
:1005700053465A46084313D0114653EA010019D096
:10058000C8F140025046FFF789FF05460E46504627
:100590005946424600F038F8084305D0012004E0EF
:1005A00020463946BDE8F08D0020054346EAE07656
:1005B0002C4337430A986305E40AA0EB08000022A5
:1005C000FD0A44EA47540A3002D500200146E9E713
:1005D000010510196941DDE9084500196941BDE8C7
:1005E000F04DA2E7064C074D06E0E06840F001033D
:1005F00094E8070098471034AC42F6D3FFF7C6FDE5
:10060000D8930308F8930308202A04DB203A00FA61
:1006100002F1002070479140C2F1200320FA03F359
:1006200019439040704770B58C1810F8015B15F0B5
:10063000070301D110F8013B2A1106D110F8012B54
:1006400003E010F8016B01F8016B5B1EF9D12B0779
:1006500005D40023521E0DD401F8013BFAE710F82F
:10066000013BCB1A921C03E013F8015B01F8015B1C
:10067000521EF9D5A142D8D3002070BD10B5002478
:1006800014E00C4800EB0410037A601CC2B2094865
:1006900000EB04100179084800F0ACF9074800EBC2
:1006A0004400044901EB0411C860641C032CE8D326
:1006B00010BD0000C405002000210140F405002009
:1006C00010B596B00121880508F0ACF9002404E0CB
:1006D0000020394921F81400641C032CF8D3374852
:1006E00002F0FCFD01A802F011FF4FF00070019034
:1006F0003348029030480390002004900320059076
:10070000002006904FF48060079040000890800021
:10071000099040110A9040020B9000200C9001209B
:100720000D9000200E900F9001A9244802F0C2FE07
:100730000121224802F0C6FD0121480208F0B2F969
:1007400010A800F0B8F90020109001208DF84400A6
:100750008DF84500002012901390149003208DF81E
:10076000540010A916484C3800F01AF9FFF786FF1C
:10077000012113484C3800F076F8012110484C381C
:1007800000F066F801210E484C3800F03DF80122D7
:1007900010210A4802F070FE3B208DF80000032073
:1007A0008DF8010001208DF802008DF803006846E5
:1007B00007F04AFE16B010BDF40500205864024050
:1007C0004C21014010B5002414E00C4800EB04104B
:1007D000037A601CC2B2094800EB04100179084892
:1007E00000F008F9074800EB4400044901EB04114C
:1007F000C860641C062CE8D310BD0000640500200E
:1008000000200140C024002021B1826842F0010292
:10081000826003E0826822F001028260704700007B
:100820000021084A1168084A1140D0E900231A4300
:1008300083681A43C3681A431143044AC2F8041375
:100840007047000004230140E030FCFF002001401D
:1008500021B1826842F48072826003E0826822F4EF
:1008600080728260704721B1826842F400728260B7
:1008700003E0826822F400728260704710B59AB07B
:100880000121880508F0CEF8002404E0002040494A
:1008900021F81400641C302CF8D33E4802F01EFDF1
:1008A00005A802F033FE002005903B48069038482A
:1008B0000790002008903020099000200A904FF403
:1008C00080600B9040000C9080000D9040110E90C5
:1008D00040020F90002010900120119000201290F3
:1008E000139005A92B4802F0E5FD0121294802F0EB
:1008F000E9FC0121080208F0D5F8002001900290DF
:100900000390049001A8FFF78BFF14A800F0D3F820
:100910000020149001208DF854008DF8550000201F
:1009200016901790189006208DF8640014A91A48A4
:100930004C3800F035F8FFF745FF012000F0C6F80D
:10094000012000F0D9F8012113484C38FFF78BFF44
:10095000012111484C38FFF77BFF01210E484C382C
:10096000FFF752FF012210210A4802F085FD3820CE
:100970008DF8000003208DF8010001208DF80200A1
:100980008DF80300684607F05FFD1AB010BD000047
:1009900060240020106402404C2001407047000099
:1009A00030B50246002000235068104C20400D79DD
:1009B0000C6844EA05242043506090680C4C2040A9
:1009C000D1E903542C438D682C434D7944EA450406
:1009D00020439060D06A20F470000C7D641EE4B265
:1009E000234340EA0350D06230BD0000FFFEFFFC0D
:1009F000FDF7FFC0F0B504460D4600200021092D8B
:100A000011DDE068A5F10A0606EB4607072606FA9F
:100A100007F18843A5F10A0606EB460603FA06F13C
:100A20000843E0600CE0206905EB4507072606FA5D
:100A300007F1884305EB450603FA06F108432061F8
:100A4000072A0FDA606B561E06EB86071F2606FA8A
:100A500007F18843561E06EB860605FA06F10843A1
:100A6000606322E00D2A0FDA206BD61F06EB8607A3
:100A70001F2606FA07F18843D61F06EB860605FAFD
:100A800006F10843206310E0E06AA2F10D0606EBD0
:100A900086071F2606FA07F18843A2F10D0606EB2A
:100AA000860605FA06F10843E062F0BD816841F070
:100AB0008041816070470021016001714171816056
:100AC000C1600161012101757047000038B108491A
:100AD000096841F40001074AC2F8041306E004491A
:100AE000096821F40001034AC2F8041370470000AA
:100AF000042301400020014038B10849096841F44D
:100B00008001074AC2F8041306E00449096821F489
:100B10008001034AC2F80413704700000423014017
:100B20000020014010B50348FFF7C0FF0248FFF75F
:100B3000BDFF10BD00210140002001404FF6FF71B4
:100B40000F4A116000210F4A1160002012E00021BD
:100B50000D4A42F820100D4A42F8201001210C4A9B
:100B600042F8201000210B4A42F820100A4A42F8AD
:100B70002010401C0228EAD30021084A1160704767
:100B80002400002028000020900000209800002071
:100B9000A0000020B0000020A8000020BC00002021
:100BA00000B50648006840B1054801680348006880
:100BB00013F0FAF800200149086000BD0C00002085
:100BC0001000002010B51348006800B110BD124895
:100BD000006800B1FAE71148007800B9F6E710495B
:100BE0000D4813F043F904462CB10D4801680A483A
:100BF000006807F078FA08F0C3FA044644B100210F
:100C0000204613F0EDF818B90021204613F058F9EA
:100C100000BFDBE7180000200C000020B406002015
:100C20001000002001200149087070473F0000605B
:100C3000042013F0B1F800BFFEE710B517F020F95B
:100C400010BD70477047704700B589B00121480654
:100C500007F008FF3E4800F07FF805A800F00AFA08
:100C600000208DF81A008DF81B008DF81C008DF8FF
:100C70001D008DF81E0001208DF81F0000208DF84A
:100C8000170009208DF8180003208DF819000220A4
:100C9000ADF8140005A92E4800F012F900208DF8D7
:100CA0000E0001208DF80F008DF81000002014F0C8
:100CB0007DF94FF6FF7101EA4010ADF80400002005
:100CC000ADF806000846ADF80800ADF80A000020AF
:100CD000ADF80C0001208DF8110001A800F058F8C3
:100CE00001208DF80E008DF80F008DF8100014F023
:100CF0005DF94FF6FF7101EA4010ADF804000020E5
:100D0000ADF806000846ADF80800ADF80A0000206E
:100D1000ADF80C0001208DF8110001A800F038F8A2
:100D2000012202210A4800F0C2F814208DF82000A8
:100D300000208DF821008DF8220001208DF823007D
:100D400008A807F081FB00200249086009B000BD37
:100D5000006400405407002010B504460B4884424C
:100D600009D10121480607F08DFE00214FF00070E7
:100D700007F088FE08E00121880607F083FE0021C5
:100D80004FF0806007F07EFE10BD00000064004060
:100D900010B50021837A012202FA03F13D4A12685C
:100DA00042F001023B4B1A603A4A1C3212688A43F5
:100DB000384B1C331A60027BCAB9364A0C321268AF
:100DC0008A43344B0C331A604288C38842EA034397
:100DD000304A4032847A42F834300288838842EACA
:100DE00003432C4A4032847A02EBC4025360027BF4
:100DF000012A19D1274A0C3212680A43254B0C33B9
:100E00001A604288038842EA0343224A4032847AC5
:100E100042F83430C288838842EA03431D4A403294
:100E2000847A02EBC4025360C27A3AB9194A121D9D
:100E300012688A43174B1B1D1A6006E0154A121DE3
:100E400012680A43134B1B1D1A60028932B9114AFA
:100E5000143212688A430F4B14331A600289012A34
:100E600006D10C4A143212680A430A4B14331A6032
:100E7000427B012A06D1074A1C3212680A43054BFD
:100E80001C331A60034A126822F00102014B1A60F7
:100E900010BD000000660040014600208A69C2F3D0
:100EA00007407047014600208A69100E70471AB14A
:100EB00043690B43436102E043698B4343617047DD
:100EC00030B5024600200023146824F002041460A8
:100ED000146844F00104146000E05B1C546804F0E2
:100EE00001041CB94FF6FF74A342F6D1546804F014
:100EF00001040CB900206CE08C79012C04D1146839
:100F000044F08004146003E0146824F0800414604A
:100F1000CC79012C04D1146844F04004146003E03F
:100F2000146824F0400414600C7A012C04D1146875
:100F300044F02004146003E0146824F020041460DA
:100F40004C7A012C04D1146844F01004146003E0BE
:100F5000146824F0100414608C7A012C04D11468F5
:100F600044F00804146003E0146824F008041460DA
:100F7000CC7A012C04D1146844F00404146003E01A
:100F8000146824F0040414608C78A407CD7844EA33
:100F900005640D7944EA05444D7944EA05540D8809
:100FA0006D1E2C43D461146824F0010414600023E6
:100FB00000E05B1C546804F001041CB14FF6FF74A0
:100FC000A342F6D1546804F001040CB1002000E003
:100FD000012030BD10B500F5D87303EB01131B6879
:100FE00003F004031372137A53B900F5D87303EBBB
:100FF00001131B6840F2FF7404EA5353136009E0C5
:1010000000F5D87303EB01131B686FF0604404EA2A
:10101000D303536000F5D87303EB01131B6803F08F
:101020000203537200F5D87303EB01135B6803F0FE
:101030000F03937200F5D87303EB01135B681B0A6F
:10104000D37400F5D87303EB01139B68C2F80B301F
:1010500000F5D87303EB0113DC680F239C5021B912
:10106000C36843F02003C36003E0036943F0200337
:10107000036110BD00218171C171017241728172E1
:10108000C1728170C170032101710221417101217E
:101090000180704710B502460020936803F080631A
:1010A000B3F1806F00D110E0936803F00063B3F1F7
:1010B000006F01D1012008E0936803F08053B3F181
:1010C000805F01D1022000E00420042874D002F5E2
:1010D000C07303EB00131B6803F0010402F5C07337
:1010E00003EB00131C600B7A7BB94B7A0C8843EA44
:1010F000445302F5C07404EB00142468234302F542
:10110000C07404EB0014236010E00B7A4C6843EACF
:10111000C4034C7A234302F5C07404EB0014246822
:10112000234302F5C07404EB001423608B7A03F0B0
:101130000F038B7202F5C07303EB00135B6823F09F
:101140000F0402F5C07303EB00135C6002F5C0737B
:1011500003EB00135B688C7A234302F5C07404EB45
:10116000001463608B7B1C064B7B44EA03440B7BBF
:1011700044EA0323CC7A234302F5C07404EB001441
:10118000A3608B7C1C064B7C44EA03440B7C44EA42
:101190000323CC7B234302F5C07404EB0014E3600B
:1011A00002F5C07303EB00131B6843F0010402F562
:1011B000C07303EB00131C6010BD000010B50B489A
:1011C000007800B910BD0A4800684FF2FF310840AE
:1011D00050B10848007820B105480168FD2012F0A0
:1011E0006FFE00200349087000BFEBE77C0600207B
:1011F0000C0700207E06002070B50446207800F021
:10120000800050B12578667845EA0620A389628976
:10121000218906F046FF012070BD0020FCE7000098
:1012200010B50A48006838B113F01CFB60B100210A
:10123000B82012F045FE07E013F014FB032803D09A
:101240000021B92012F03CFE10BD00005800002023
:1012500010B515F051FB50B10C48006844F6206100
:10126000884204D209480068401C0849086015F00B
:101270004FFB50B10648006844F62061884204D212
:1012800003480068401C0249086010BDDC000020D3
:10129000E000002010B50246074B1B689343064C44
:1012A00023600846037803F001031BB1038823F091
:1012B0000103038010BD00000C07002070B5044638
:1012C00004B970BD60780C2875D2DFE800F0D20652
:1012D000212AD2D23EC3C4C7CCCF2046FFF78CFF11
:1012E00000B1C7E0A078482811D1E07851280ED18C
:1012F000207954280BD16079452808D1A07953284A
:1013000005D1E079542802D101205C490870B1E090
:101310002046FFF771FF00B1ACE00020574908708C
:10132000A8E02046FFF768FF00B1A3E0534800782B
:1013300050B163891AB2E3780BB1012300E00023B6
:101340001946A0780DF092FC94E02046FFF754FF78
:1013500000B18FE02089092879D2DFE800F005127A
:101360001F2D52565A5E66002278657842EA0520A3
:10137000434A126813142189414A126806F091FE0B
:1013800066E02278657842EA05203E4A1268131426
:1013900021893C4A126806F084FE59E0227865787B
:1013A00042EA0520384A126813142189364A126825
:1013B00006F077FE4CE05CE02178627841EA02209A
:1013C0002F4909680B142E490A68002106F069FEAE
:1013D0002178627841EA02202A4909680B142949D8
:1013E0000A68012106F05DFE2178627841EA022058
:1013F000254909680B1424490A68022106F051FEA8
:1014000026E000201E49086022E000201D490860F7
:101410001EE000201C4908601AE0002018490860FE
:10142000184908601849086012E06089164909687F
:10143000884207D062890023134801684FF6F27092
:1014400006F02FFE00201049086001E0FFE700BF12
:1014500000BF0FE00EE008F06FF80BE0E178A07835
:1014600017F064FD06E008F07DF803E008F03CF8B2
:1014700000E000BF00BF00BF23E7000073000020B2
:10148000540700205C0700206007002070B5044668
:1014900004B970BD8D48007800B9FAE760780F286C
:1014A00073D2DFE800F0720829565F687989949F4B
:1014B000AAB4BFCEFE002046FFF79EFE00B102E1B7
:1014C00083480078B8B1012015F094F938B90320A9
:1014D0008049086000220121084613F093FC002097
:1014E00015F088F938B903207A49086000220121F3
:1014F000104613F087FCE6E02046FFF77DFE00B1C2
:10150000E1E0208920B101280FD002281ED10FE090
:1015100005F0D2FE05462178627841EA0220A389CF
:101520000022294606F0BDFD11E0FFF779FE0EE02E
:101530006948006838B16848006806F0ABFD0020D3
:101540006549086001E003F0CDFC00E000BF00BF8A
:10155000B9E02046FFF750FE00B1B4E020895F49B2
:101560000860B0E02046FFF747FE00B1ABE02089FD
:1015700007F086F8A7E02046FFF73EFE00B1A2E0A4
:10158000E278012A02DB012301E09BE000231946F7
:10159000A07817F0B3FD96E02046FFF72DFE00B1CE
:1015A00091E0A07818B9E07805F03EF803E0618991
:1015B000E07804F0CDFF00BF2046FFF71DFE00B12C
:1015C00081E0E178A078012205F056F87BE0204622
:1015D000FFF712FE00B176E061892089002211F048
:1015E00023FE70E02046FFF707FE00B16BE0618943
:1015F0002089012211F018FE65E02046FFF7FCFD6E
:1016000000B160E06189208912F07CFB5BE020463C
:10161000FFF7F2FD00B156E02279E178A07805F0FD
:101620002BF850E02046FFF7E7FD00B14BE02178B2
:10163000627841EA0220A3890022012106F031FDEF
:1016400041E02046FFF7D8FD00B13CE02089642846
:1016500002DD2089224908606089642802DD6089F2
:1016600020490860A08932280FDDA0891D4909683A
:10167000884205D31B48006832381B4908600FE0D8
:10168000A089194908600BE00BE01748006815496C
:101690000968884204D31348006832381249086048
:1016A00011E02046FFF7A8FD00B10CE0A07818B9C2
:1016B00000200E49087004E0A078012801D10B49F0
:1016C000087000E000BF00BF00BFE2E62D00002070
:1016D000B4060020B80600200C00002024000020E2
:1016E00020070020280700202C070020FC000020F5
:1016F00070B5044604B970BD2046FFF77DFD00B10A
:10170000F9E713F0C5F8054635B10120094908701D
:10171000A800094908600AE013F0BAF8217841EA04
:101720000026A38900221146304606F0BAFC00BF0D
:10173000E1E700003C0000204000002070B50446B6
:1017400004B970BD9448007800B9FAE760780828B9
:1017500070D2DFE800F06F04265077A1D7F520465D
:10176000FFF74AFD00B114E1012015F043F838B944
:101770008A48007840F48071FE2012F0A1FB08E155
:10178000002015F037F828B984480178FE2012F0BF
:1017900097FBFEE0A3896289E178A07803F08EFFD1
:1017A000F7E02046FFF728FD00B1F2E00025002613
:1017B000A07800F0010018B179488068C0B20543F4
:1017C000A07800F0020020B175480068C0B245EA78
:1017D0000025A07800F0040018B171484068C0B23C
:1017E00006432178627841EA0220A38932462946DD
:1017F00006F057FCCDE02046FFF7FEFC00B1C8E044
:10180000A07870B1E07810B1012808D103E06089B8
:101810006449086004E060896349086000E000BF33
:101820000FE0E07810B1012809D104E060895F4938
:10183000086005E0ACE060895D49086000E000BF39
:1018400000BFA6E02046FFF7D7FC00B1A1E00020D2
:10185000A17821B1012906D0022909D105E0E1785A
:1018600001F10C0005E0E07803E0E178881D00E07C
:1018700000BF00BF618939B1012181404D4A126822
:1018800011434C4A116006E001218140494A126827
:101890008A4348490A607CE02046FFF7ADFC00B16E
:1018A00077E000254448007810B1A07800B970E0D6
:1018B000A078022800DD6CE005F0F4FFA07810B1FC
:1018C000A078401E00E00220354951F82000E17860
:1018D00001F0070201219140084008B9012000E011
:1018E00000200546E178A0782A4603F005FF022093
:1018F00032490870E178A07801EBC000203030490F
:10190000087046E02046FFF777FC00B141E06289AD
:10191000E178A07803F09AFE0546A278E67842EADC
:1019200006212278667842EA0620628912B10122F5
:1019300001E005E0002213462A4606F0B2FB28E04B
:101940002046FFF759FC00B123E000251A48007833
:1019500010B1A07800B91CE0A078022800DD18E0E2
:1019600005F0A0FF608908B1012000E000200546D5
:10197000E178A0782A4603F0BFFE01200F490870E5
:10198000E178A07801EBC00020300D49087000E03C
:1019900000BF00BF00BFD4E62D0000204C06002091
:1019A000F80D002084000020880000207C0000202A
:1019B000800000208C0000202E00002071000020FC
:1019C000720000207CB5044604B97CBDF94800785B
:1019D00000B9FAE7607820287BD2DFE800F07A10BF
:1019E00054AFE0F1F0EFEEED7A7A7A7A7AEC7A7A27
:1019F0007A7AEBEA7A7A7A7A7AE9E8E7E6E52046D3
:101A0000FFF7FAFB00B10DE2012014F0F3FE38B944
:101A1000E948007840F48071FE2012F051FA01E2AA
:101A20002089022811D003DC38B1012828D108E030
:101A300003280ED0FF2823D11BE0A07907F0FCFE7D
:101A40001FE0A0790AF004FF1BE0A0790AF02EFF46
:101A500017E0608905F0B6FD00B112E060890DF075
:101A600035F80546A079C0F3001128460AF00CFCB1
:101A700007E0A279C2F3001160890AF005FC00E0DA
:101A800000BF00BFCEE12046FFF7B6FB00B1C9E1C1
:101A9000608905F097FD00B1C4E1A07805284AD21D
:101AA000DFE800F003040527350000BF00BFE07841
:101AB00080B16289A078012105F034FD05462178C6
:101AC000627841EA0220A3890022294606F0E9FA59
:101AD0000EE0A6E1A078012105F086FC05462178FC
:101AE000627841EA0220A3890022294606F0D9FA49
:101AF00022E0608908F010F905462178627841EA11
:101B00000220A3890022294606F0CBFA14E0E078EF
:101B100078B16289A078012105F004FD054621789D
:101B2000627841EA0220A3890022294606F0B9FA28
:101B300000E001E000E000BF00BF73E12046FFF7D6
:101B40005BFB00B16EE1A07805F03CFD00B169E1FE
:101B5000012014F04FFE38B99748007840F48071A6
:101B6000FE2012F0ADF95DE1E07840B1A1780120EE
:101B700088409249096808439049086007E0A178C5
:101B8000012088408D49096881438C480160A38900
:101B9000628911B2A07801220DF03EF842E12046A0
:101BA000FFF72AFB68B13DE11FE11DE112E107E10A
:101BB000F5E0EBE0D8E0CAE0C8E0A1E096E027E07D
:101BC00015E0E07805F0FEFC00B12BE1E0780CF0C8
:101BD0007DFF0546A07828B1608901B228460AF049
:101BE000C1FE03E0618928460AF0A4FE1AE12046FE
:101BF000FFF702FB00B115E1208920B960890121BE
:101C00000AF00EFF03E0608901210AF045FF09E1B7
:101C10002046FFF7F1FA00B104E1208907284FD0F0
:101C200006DC60D2DFE800F0172129333D4247008F
:101C300040F20112811A90421BD007DC082848D0DC
:101C400009284BD0B0F5807F4DD109E0012919D08A
:101C5000022948D120E0608900210BF0D9F843E047
:101C6000608901210BF0D4F83EE060890BF0DCF8CC
:101C70003AE060890BF074F936E0608900210AF0DF
:101C800043FE31E0608901210AF03EFE2CE06089CC
:101C900000210AF057FF27E0608901210AF052FF76
:101CA00022E0618901200EF005F81DE06189012024
:101CB0000BF0AEF918E0618901200AF04FFF13E044
:101CC000618909B1012100E00021084603F0F0FF1D
:101CD0000AE0618901200AF0D3FF05E06089012153
:101CE0000AF04AFF00E000BF00BF9BE02046FFF77C
:101CF00083FA00B196E0618920890AF077FE91E0CD
:101D00002046FFF779FA00B18CE0012014F072FD53
:101D100038B92948007840F48071FE2012F0D0F8DC
:101D200080E0E07800F07F000090E57805F0800525
:101D300015B14FF4007500E0002545F00103A289BC
:101D4000658929B2A0780CF07AFF6BE06AE0204642
:101D5000FFF752FA00B165E0A07820B96289E17816
:101D600001200AF0D1FE5DE02046FFF745FA00B100
:101D700058E0E07800F00302607908B1207900E0D3
:101D8000FF200146012004F05BFA4BE02046FFF7FC
:101D900033FA00B146E0208903F080FF42E020469C
:101DA000FFF72AFA00B13DE06189012006F014FB3B
:101DB00038E000002D0000204C06002044010020E7
:101DC0002046FFF719FA00B12CE0A178012006F0B7
:101DD000ADFA27E02046FFF70FFA00B122E0618953
:101DE000208906F0C7FA1DE000BF2046FFF704FA7D
:101DF00000B117E061781F2901D1012100E0002125
:101E00000846694606F04EFA2578667845EA0620C7
:101E1000BDF80430BDF80220BDF8001006F041F90D
:101E200000E000BF00BF00BFCFE500002DE9F0419A
:101E300004460CB9BDE8F081F948007800B9F9E72B
:101E4000A07805280ED2DFE800F0030507090B0093
:101E5000022508E0032506E0042504E0052502E04C
:101E6000062500E000BF00BF6078212874D2DFE8BB
:101E700000F0731130548CA1B3BFCBFDFBFA737328
:101E800073F9F8737373F77373F6F5F4F3F2F17390
:101E9000F0EFEE002046FFF7AFF900B1F3E10120CB
:101EA00014F0A8FC38B9DF48007840F48071FE20B7
:101EB00012F006F8E7E1E078294605F0A7FB00B14B
:101EC000E1E1A379628911B2E0782A460BF074FA55
:101ED000D9E12046FFF790F900B1D4E1012014F0D8
:101EE00089FC38B9CF48007840F48071FE2011F0A9
:101EF000E7FFC8E1608958B1E078294605F086FB24
:101F000000B1C0E1A279E07829460BF00DFA03E0B8
:101F1000A17928460BF01AFAB5E12046FFF76CF9D3
:101F200000B1B0E10026E078052822D2DFE800F019
:101F300003040515160000BF00BF607930B1227997
:101F4000E078294605F0EEFA064604E0E0782946F6
:101F500005F04AFA06460DE094E100BF607930B121
:101F60002279E078294605F0DDFA064600E001E036
:101F700000E000BF00BF2178627841EA0220A38917
:101F80000022314606F08DF87DE12046FFF734F956
:101F900000B178E1FF26E178284605F039FC0646D5
:101FA0002178627841EA0220A3890022314606F0B6
:101FB00078F868E12046FFF71FF900B163E1E078A7
:101FC000294605F023FB00B15DE1628911B2E0789A
:101FD0002A460BF0E1F956E12046FFF70DF900B172
:101FE00051E16289E178A378981C0AF0F7F84AE198
:101FF0002046FFF701F900B145E16189A278921C02
:10200000D0B20AF02FFE3EE12046FFF7F5F800B10E
:1020100039E1A07820B96189E278901C0DF04AFE80
:10202000A078012804D16189E278901C0AF0F0FFC1
:10203000A078022803D16189E0780AF013F9A0782A
:10204000032803D16189E0780AF0D8F81BE10EE19A
:10205000F9E002E1EDE0DDE0D2E0B8E0AAE09BE0EB
:102060007BE08DE06AE016E00AE0FFE72046FFF73C
:10207000C3F800B107E1618920890AF0A9FE02E1F5
:102080002046FFF7B9F800B1FDE0A28961892089F7
:1020900004F090F9F7E02046FFF7AEF800B1F2E067
:1020A000A078012806D0022816D0032833D00428AF
:1020B00041D13FE0012014F09DFB38B95948007828
:1020C00040F48071FE2011F0FBFE35E0A2896189A9
:1020D000E07804F0E9F82FE0608900280DDDE07871
:1020E0000BF082F806462178627841EA0220A38943
:1020F0000022314605F0D5FF0CE0E0780BF07FF8C8
:1021000006462178627841EA0220A38900223146FE
:1021100005F0C7FF10E0A089002804DD6189E078A0
:1021200007F04EFB05E0A27A02F00301E0780BF025
:10213000AFF801E000E000BF00BFA4E02046FFF7D9
:102140005BF800B19FE0A078052805DA6289E178A4
:10215000A378981C0AF0D8FC95E02046FFF74CF8CD
:1021600000B190E0E37803F0030263790BB12379C7
:1021700000E0FF231946A378981C04F061F882E080
:102180002046FFF739F800B17DE0042D03D16189C5
:10219000E07807F011FC76E02046FFF72DF800B15B
:1021A00071E0032D05D1628911B2E0782A460DF065
:1021B00005FE68E02046FFF71FF800B163E0032D3D
:1021C00004D1A2896189E0780BF088F85BE02046B1
:1021D000FFF712F800B156E0032D10D1E0780BF0B4
:1021E00039F806B2E0780AF0E1FF07B222786378A6
:1021F00042EA032021893B46324605F052FF42E085
:102200002046FEF7F9FF00B13DE06189284606F05F
:10221000BBF838E02046FEF7EFFF28B133E00000BE
:102220002D0000204C0600206189284606F0D4F8D5
:1022300029E02046FEF7E0FF00B124E0618928464E
:102240000AF08CFC1FE02046FEF7D6FF00B11AE032
:10225000618928460AF078FD15E02046FEF7CCFF9C
:1022600000B110E0618928460AF00AFD0BE0204623
:10227000FEF7C2FF00B106E06289E17828460AF065
:102280000BFD00E000BF00BF00BFD3E52DE9F0412A
:1022900004460CB9BDE8F0816148007800B9F9E75F
:1022A00060780C287BD2DFE800F0B7061B2D3F4F8B
:1022B000576789929BA82046FEF79EFF00B1ACE0CD
:1022C00005F08AF8054605F0E9F9064621786778B1
:1022D00041EA07202B0CAAB2314605F0E2FE9CE051
:1022E0002046FEF789FF00B197E012F0A3FA0546F9
:1022F0002178627841EA0220A3890022294605F06C
:10230000D0FE8AE02046FEF777FF00B185E005F0B9
:1023100005F805462178627841EA0220A389002267
:10232000294605F0BEFE78E02046FEF765FF00B1C5
:1023300073E02178627841EA0220A38900223949BA
:10234000096805F0AEFE68E02046FEF755FF00B1D3
:1023500063E00BF00FF960E02046FEF74DFF00B19F
:102360005BE02089102800DB57E012F0CBFF12F071
:10237000E9FC10F00BFF50E02046FEF73DFF00B1F6
:102380004BE0A07801280BD12278657842EA05203D
:10239000A3892189244A128805F083FE0DE03BE0E1
:1023A000A078022809D12278657842EA0520A3891D
:1023B00021891E4A128805F074FE2EE02046FEF7A1
:1023C0001BFF00B129E0A07805F07CFA25E020464B
:1023D000FEF712FF00B120E0A07805F05DF91CE0E7
:1023E0002046FEF709FF00B117E02278637842EA41
:1023F0000320A17804F09EFF0FE02046FEF7FCFECC
:1024000000B10AE02178627841EA0220A389002223
:10241000012105F046FE00E000BF00BF00BF39E724
:102420002D000020C4000020D4060020D606002085
:102430002DE9FC4104460CB9BDE8FC81FE4800785A
:1024400018B960780C2800D0F6E76078262872D298
:10245000DFE800F01319263345548485B6BFD2F760
:10246000F6F5F4F3F2F1F0EFEEF8ECEBEAE9ADE8B3
:102470009A86907171E771E6716C2046FEF7BCFE9A
:1024800000B1E2E2E1E22046FEF7B6FE00B1DCE296
:10249000208910B112F07EFC01E012F053FCD4E26E
:1024A0002046FEF7A9FE00B1CFE2208910B112F05C
:1024B000D3FF01E012F026FFC7E22046FEF79CFEA4
:1024C00000B1C2E212F0CEF905462178627841EA05
:1024D0000220A3890022294605F0E3FDB5E220464B
:1024E000FEF78AFE00B1B0E22089D44908600120DD
:1024F000D3490870FF20D3490870A6E22046FEF7B2
:102500007BFE00B1A1E2218909B1012100E0002197
:10251000084605F0DBF805462178627841EA02209A
:10252000A3890022294605F0BCFD8EE22046FEF775
:1025300063FE08B189E287E2012005F019F905463A
:10254000002005F015F906462178627841EA02205C
:10255000A3892A46314605F0A4FD76E275E274E2CD
:102560002046FEF749FE00B16FE26189208902F042
:1025700029FB6AE22046FEF73FFE00B165E2618971
:10258000208902F043FB60E22046FEF735FE00B1F1
:102590005BE2208902F03CF805462278667842EA40
:1025A0000620A38921892A4605F07BFD4DE22046BD
:1025B000FEF722FE00B148E2208902F013F844E25F
:1025C0002046FEF719FE00B13FE2208901F0F2FF3C
:1025D0003BE22046FEF710FE00B136E2FF2002F09B
:1025E00007FA05462178627841EA0220A389002291
:1025F000294605F056FD28E22046FEF7FDFD00B114
:1026000023E220896A4601A902F0D4FB217862788E
:1026100041EA0220A389DDE9002105F042FD14E230
:1026200009E2FCE169E047E03CE028E01DE009E068
:10263000E8E1DCE1ADE19FE17AE16CE1B9E0A6E03F
:1026400098E067E02046FEF7D7FD00B1FDE1608924
:1026500018B9208902F0FCFB06E06089012803D14B
:10266000A189208902F054FBEFE12046FEF7C4FD6A
:1026700000B1EAE16189208902F0D8FCE5E1204659
:10268000FEF7BAFD00B1E0E1208902F0B1FB05469A
:102690002178627841EA0220A3890022294605F0C8
:1026A00000FDD2E12046FEF7A7FD00B1CDE1618932
:1026B000208902F05DFCC8E12046FEF79DFD00B1D7
:1026C000C3E1608920B92089012102F0E1FB13E018
:1026D0006089012809D12089FF2802D102F000FB7E
:1026E0000AE0208902F0B4FA06E06089022803D1EA
:1026F000A189208902F064FCA7E12046FEF77CFD59
:1027000000B1A2E12278637842EA0320A17801F0C7
:102710008BFF9AE12046FEF76FFD00B195E120891D
:1027200030B9608948490860608900F05DFD1DE0AE
:102730002089012806D1608943498860608900F0BA
:1027400069FD13E02089022810D160893E49486163
:102750003E48007818B1608905F0ECFB06E03C4883
:102760000078022802D1608906F03AFB012039493D
:1027700008706AE12046FEF73FFD00B165E120895F
:1027800008B1012000E000202B4908705DE12046DF
:10279000FEF732FD00B158E104F0FCFD054621785A
:1027A000627841EA0220A3890022294605F079FCDB
:1027B0004BE12046FEF720FD00B146E1207861782C
:1027C00040EA0120ADF80000A078ADF80600A0783E
:1027D00030B1012848D002285ED0032870D170E0C3
:1027E0001D48006885B240F2726085420CDB05EB43
:1027F000850044F27401C1EB4000372190FBF1F0F9
:1028000080B2ADF8020002E00020ADF802001348EB
:10281000006885B240F27260854221DB05EB8500DD
:1028200044F27401C1EB4000372190FBF1F080B21B
:10283000ADF8040017E000002D0000205800002033
:102840005D0000205E0000205C2200202F000020A0
:10285000350100202C000020FC050020000600208F
:102860000020ADF804004AE079480068C0EBC000E1
:1028700000EB40006421B0FBF1F080B2ADF8020043
:1028800074480068C0EBC00000EB4000B0FBF1F002
:1028900080B2ADF8040032E06F480068D7214843A9
:1028A00040F2DC51B0FBF1F080B2ADF802006B48B1
:1028B00000684FF6FF7101EA4000ADF804001EE029
:1028C0001CE06748006880B2ADF802006548006807
:1028D00085B2C5F53E7064214843192190FBF1F0A3
:1028E000C0F1FA0080B2ADF80400BDF806005E4900
:1028F000097840EA0120ADF8060000E000BF00BF03
:10290000BDF80630BDF80420BDF80210BDF8000087
:1029100005F0C7FB99E02046FEF76EFC00B194E09D
:10292000A07800F00F005149087004F0BBFF8CE064
:102930002046FEF761FC00B187E0002519E0002683
:1029400006EB4506012707EB450746EA07232678ED
:10295000677846EA0720012606EB4506444F57F8FC
:102960002620002606EB450657F8261005F099FBB1
:102970006D1C242DE3DB68E02046FEF73DFC00B132
:1029800063E0A07808B1012000E000203949087018
:102990005BE02046FEF730FC00B156E0208940F2B3
:1029A0000122811A904214D006DC60B101280CD0BB
:1029B000A0F2011098B90AE0B1F5807F0BD0B1F513
:1029C000007F0CD109E001250BE0022509E0032579
:1029D00007E0042505E0052503E0062501E00025C4
:1029E00000BF00BF6189284603F086F92DE020462C
:1029F000FEF702FC00B128E0E178A0782B2212F06B
:102A000001FA22E02046FEF7F7FB00B11DE0E07876
:102A100000F00302FF21084603F012FC15E02046F7
:102A2000FEF7EAFB00B110E0A3896289E178A078A3
:102A300003F08CFB09E02046FEF7DEFB00B104E06A
:102A4000208906F0F7FD00BF00BF00BF00BFF3E420
:102A500004060020080600200C06002010060020B6
:102A60001406002018060020240700207000002013
:102A7000AC3000204800002070B5044604B970BD99
:102A80002D48007800B9FAE7607808284FD2DFE8CF
:102A900000F04E040D1925444E452046FEF7ACFBD0
:102AA00000B145E020892549086041E02046FEF755
:102AB000A3FB00B13CE0E37862792179A0780DF0C6
:102AC00009FD35E02046FEF797FB00B130E0E378E2
:102AD00062792179A0780DF043FD29E02046FEF7C8
:102AE0008BFB00B124E0A07810B9E0780AF050F830
:102AF000A07801280BD10DF06BFD05462178627896
:102B000041EA022000231A46294605F0CAFAA078B5
:102B1000022801D104F0AAFD0AE009E02046FEF7F0
:102B20006BFB00B104E020890549088000E000BF8C
:102B300000BF00BFA3E700002D00002028000020F8
:102B40006200002000B970470249097801B9FAE72C
:102B500000BFF8E72D0000202DE9F04104460CB934
:102B6000BDE8F081F848007800B9F9E760780B28F3
:102B70006FD008DC6ED2DFE800F06D1B239BBED265
:102B8000E4FAF9F8F700112871D008DCA0F10C0084
:102B90000528EFD2DFE800F0F0EFEEEDEC001228B0
:102BA00072D0132871D0142870D0822852D108E036
:102BB0002046FEF721FB00B11AE205F01BF917E2EF
:102BC00000BF2046FEF718FB00B111E211F060FED5
:102BD000C7B26078C009DD490870012013F00AFE11
:102BE00038B9DB48007840F48071FE2011F068F9B4
:102BF000FEE1002013F0FEFD28B9D5480178FE2043
:102C000011F05EF9F4E1D3480068A0B1062F10D2AC
:102C1000DFE807F003080C04070B00BFA578E6788F
:102C200008E000BF2579667904E000BFA579E67960
:102C300000E000BF33E0072F2FD2DFE807F0040CDD
:102C4000122E191F2800A07800F00F05A0780609A1
:102C500024E045E1CBE1E07800F00F05E0780609DB
:102C60001CE0207900F00F052079060916E0ADE19F
:102C7000607900F00F05607906090FE0A07900F097
:102C80000F05A079060909E0ABE18AE0BFE0E07931
:102C900000F00F05E079060900E000BF00BFF1B2C7
:102CA000E8B214F02DFE3146284605F01DFC9FE1E8
:102CB0002046FEF7A1FA00B19AE1012013F09AFD37
:102CC00038B9A348007840F48071FE2011F0F8F87C
:102CD0008EE1002013F08EFD28B99D480178FE207A
:102CE00011F0EEF884E16289A38942EA0341208968
:102CF00002F090FD7CE12046FEF77EFA00B177E11C
:102D00002278657842EA0520A389227A02F0070238
:102D1000914D55F82210002205F0C3F968E12046D4
:102D2000FEF76AFA00B163E105F05AF8054621782A
:102D3000627841EA0220A3890022294605F0B1F910
:102D400056E12046FEF758FA00B151E1208905F01E
:102D50004DF805462178627841EA0220A3890022D5
:102D6000294605F09EF943E19FE095E086E004E006
:102D70004CE015E00EE1CFE0BFE02046FEF73CFA64
:102D800000B135E16089217A01F00701734A42F808
:102D90002100A189227A02F0070005F055F827E109
:102DA00000BF2046FEF728FA00B121E111F070FDC6
:102DB00006460027042E28D226B1012E04D0022E6A
:102DC00006D103E0278904E0678902E0A78900E0D3
:102DD0001BE000BF002515E0A80047FA00F000F056
:102DE0000F0005F007015D4A42F8210062780F2AC2
:102DF00001D0012200E00022114605F0070005F095
:102E000023F86D1C042DE7DB00BFF1E000BF204676
:102E1000FEF7F2F900B1EBE011F03AFD06460027AB
:102E2000082E2AD2042E28D304D0052E04D0062E34
:102E300006D103E0278904E0678902E0A78900E062
:102E40001BE000BF002515E0A80047FA00F000F0E5
:102E50000F0005F00701414A42F821006278102A6C
:102E600001D0012200E00022114605F0070004F025
:102E7000EBFF6D1C042DE7DB00BFB9E02046FEF739
:102E8000BBF900B1B4E0208928B914F0B5FA618922
:102E9000484333490860ABE02046FEF7ADF900B186
:102EA000A6E0208905F002F8A2E02046FEF7A4F98A
:102EB00000B19DE02089401C2A490860254800682F
:102EC00030B108460068052809D90520086006E0E9
:102ED000244800680A2802D90A202249086087E0AD
:102EE0002046FEF789F900B182E0208908B101206F
:102EF00000E00020174908607AE02046FEF77CF9E0
:102F000000B175E02089012802D02089022802D171
:102F10002089154908806BE02046FEF76DF900B165
:102F200066E0002504F0BEFCA07800F003000A492A
:102F300051F82000E17801F007020121914008409A
:102F4000A0B1012013E000002D0000205C00002053
:102F50004C06002044000020880D0020E00B0020DB
:102F6000540000204C000020C00000200020054636
:102F7000A379E178A0782A4602F0E4FC02201E49F9
:102F80000870E178A07801EBC00000F007001B4951
:102F900008702DE02046FEF72FF900B128E0E17817
:102FA000A07802F01FFC0546A278E67842EA0621E6
:102FB0002278667842EA062062890AB1012200E09E
:102FC000002213462A4605F06CF811E02046FEF771
:102FD00013F900B10CE02279E178A07804F072FFD7
:102FE00006E02046FEF708F900B101E000E000BF6E
:102FF00000BF00BFB4E50000710000207200002097
:103000001FB540480068401C3E49086077E004F066
:10301000D5FF044604B973E020788DF80000A0784D
:103020008DF80100A088ADF80800E088ADF80A002E
:103030002089ADF80C00BDF80800C0B28DF8020080
:10304000BDF80800000A8DF80300BDF80A00C0B200
:103050008DF80400BDF80A00000A8DF80500BDF8DF
:103060000C00C0B28DF80600BDF80C00000A8DF807
:1030700007002548006810B12088803820809DF81E
:10308000000000F07F00102835D2DFE800F0080CC7
:103090001014181C2024282C34343434343068465E
:1030A000FFF750FD28E06846FFF7C2F924E06846C4
:1030B000FFF7E2FC20E06846FEF784FC1CE068466F
:1030C000FEF7B4FE18E06846FEF738FB14E06846E9
:1030D000FFF742FD10E06846FEF7D8F90CE06846BD
:1030E000FFF7D4F808E06846FEF702FB04E0684604
:1030F000FEF7E4F800E000BF00BFFDF751FD86E7F2
:1031000000BF1FBD740000202800002039B1084A0C
:103110001268012383401A43054B1A6006E0044AF3
:103120001268012383409A43014B1A6070470000E4
:10313000007400401FB50121480705F093FC3C20B6
:103140000090002001904FF4007002900220039044
:103150006946002000F00EF86946102000F00AF8D9
:1031600001210020FFF7D2FF01211020FFF7CEFF41
:103170001FBD000030B5002200230A4C226840F633
:10318000FE748440A243D1E900452C438D682C4352
:10319000CD6844EA050303FA00F42243014C22609F
:1031A00030BD00000074004008B500220092054ABE
:1031B000009200F10802009B1A440092009A1160EC
:1031C00008BD00000074004008B500220092054AC6
:1031D000009200F11402009B1A440092009A1160C0
:1031E00008BD00000074004070B50446204613F08E
:1031F000ADFD0446E000C0EB003048F2E80190FB72
:10320000F1F5A9B20020FFF7CFFF0121002000F067
:1032100017F870BD70B50446204613F097FD0446BC
:10322000E000C0EB003048F2E80190FBF1F5A9B2F4
:103230000020FFF7C9FF0121102000F001F870BD48
:1032400010B541B1084A126804090123A3401A438A
:10325000054B1A6007E0044A126804090123A340E1
:103260009A43014B1A6010BD0474004070477047C8
:1032700070477047704770477047704710B513F03C
:1032800001F910BD7047704710B513F035F810BD47
:103290000246094B9A4201D2084801E0064810381C
:1032A00001F000531BB1064B0B40C36002E0044B1E
:1032B0000B408360704700001064024000600240D1
:1032C0007D0F7D0F21B1026842F00102026003E030
:1032D000026822F00102026070470000016821F0DC
:1032E000010101600021016041608160C1600161F4
:1032F000212141614A49884204D13D21484A103A7E
:1033000091608CE046491831884205D14FF47461D0
:10331000434A103A916082E041493031884205D1F8
:103320004FF474113E4A103A916078E03C494831BC
:10333000884205D14FF07461394A103A91606EE0CD
:1033400037496031884204D13649354A103AD16054
:1033500065E033497831884204D13349304A103A24
:10336000D1605CE02E499031884204D12F492C4A2B
:10337000103AD16053E02A49A831884205D14FF074
:103380003D51274A103AD16049E02949884204D189
:103390003D21274A083A116041E025491831884209
:1033A00005D14FF47461224A083A116037E0204990
:1033B0003031884205D14FF474111D4A083A11602A
:1033C0002DE01B494831884205D14FF07461184AFD
:1033D000083A116023E016496031884204D111494E
:1033E000134A121F11601AE011497831884204D142
:1033F0000D490F4A121F116011E00D4990318842AA
:1034000004D10A490A4A121F116008E00849A8318C
:10341000884204D14FF03D51054A121F1160704798
:10342000106002403D000020400F002000003D20C1
:103430001064024030B503460A46002000240B4DBC
:10344000AB4201D20A4901E00849103902F00055A7
:103450000DB14C6800E00C68064D2C4004EA0205F2
:103460000DB1012000E0002030BD000010640240DA
:10347000006002407D0F7D0F10B501F080034BB15D
:1034800022B1436943F08003436103E0436923F0C1
:103490008003436180290BD02AB1036801F01E0428
:1034A0002343036004E0036801F01E04A3430360A8
:1034B00010BD000010B500220268134B1A40CC6802
:1034C0000B6823434C6923438C692343CC69234312
:1034D0000C6A23434C6A23438C6A23434C6B23437B
:1034E0008C6B23431A430260426922F00702D1E940
:1034F0000B3423431A4342610B6943604B6883607A
:103500008B68C36010BD00003F801CF0002101608B
:1035100041608160C160016141618161C16101629D
:1035200041628162C1620163416381637047704798
:103530002DE9F84380460C46208820F002002080C8
:103540002088C0F34310062878D2DFE800F0EB03B0
:10355000275778E6208C06F041F9A08AE081208C7C
:103560000122002108F002FE208AC0EB0010C000FA
:10357000642190FBF1F00FFA80F9208C00231A46A9
:1035800049460AF023F8208C4FF47A710BF0D8FEEC
:10359000208820F4F07040302080C8E0A18AE089C3
:1035A00000F0D8F80646002E02DDA08AE08124E073
:1035B000208C06F00DFC00B1B9E0E089A081208AE2
:1035C000C0EB0010C000642190FBF1F00FFA80F90D
:1035D000208C0122494608F0C9FD208C00231A46A0
:1035E000194609F0F3FF208C4FF47A710BF0A8FE16
:1035F000208820F4F0706030208098E0A18AA089B3
:1036000000F0A8F80646002E02DAA08AA08114E095
:10361000208C06F0DDFB00B189E0208C0122002126
:1036200008F0A4FD208C00231A46052109F0CEFFE6
:10363000208820F4F0708030208078E072E0208CC8
:1036400006F0C6FB00B172E0208820F4F070208004
:10365000208C0BF0C5FBE089A189451A002D01DA09
:1036600005F58055A18801FB05F0C11700EB11514C
:10367000C1F30F31E1830095A389E28941462DA072
:1036800015F05AFBA389E2890121404600F07AF83F
:103690000746608AC8B1608AB0F5487F01D0608A69
:1036A00007E0208A00EB001000EB8000642190FB13
:1036B000F1F0B84209DD0DB16D4201E04FF0FF3588
:1036C0002946404600F074FC26E0A078C0F3401084
:1036D00038B9A0884FF47041B1FBF0F0A1894518CA
:1036E00002E06D10A0890544C5F30B05E580208834
:1036F00020F001002080608820F00200801C6080A3
:103700002946404600F054FC208820F4F070A03098
:1037100020804FF4C870208309E0208C002108F03D
:10372000B3FD00BF208820F4F070208000BF00BFF0
:10373000BDE8F8835B25645D2063775B25645D20CD
:103740002D206363775B25645D203D205B25645DF0
:103750000D0A000010B502460B46991A09B900205F
:1037600010BD081E01DB044600E04442B4F5006FC2
:1037700006D9002902DA01F5805101E0A1F5805156
:103780000846EDE7F0B504460D460D4E06EB8416EF
:10379000B7884FF48051012D02D1D61A314401E08F
:1037A0009E1A3144B1F5805F01D3A1F5805101FB30
:1037B00007F64FEAE67C06EB1C5C4FEA2C30F0BDC6
:1037C000FC36002070B506460C46E388A28A01212B
:1037D0003046FFF7D7FF0546A078C0F3401030B958
:1037E000A0884638A84207DAA0882D1A04E0A08FE6
:1037F000A84201DAA0882D1A284670BD2DE9F047AD
:1038000082460F4690461C462078C0F3400010B90F
:103810000020BDE8F087B4F80490E08A01F0F6FAE1
:1038200008B10020F5E7380390FBF9F6E08806447C
:10383000C6F30B06002E01DA06F58056A18A304643
:10384000FFF788FF0546281E01DB014600E04142E4
:103850000D462089002849D02089A84246DA5046E2
:1038600014F006FA608B401C6083608B404501DADF
:103870000120CEE7608820F01000103060802088A2
:10388000C0F3C32002281CDA208820F4004000F591
:1038900000402080608820F010006080218C41F47E
:1038A0007F403A46294604F0E3FC2078C0F3C0008C
:1038B00018B120460CF0D1FD26E020460CF0B2FDF8
:1038C00022E0208820F4F0402080208820F400406E
:1038D0002080AAB22078C0F3C00008B1012000E027
:1038E00002200146504600F021FC0DE02088C00B6C
:1038F00038B1208820F4F0402080208820F4004057
:10390000208020460CF080FA002060832088C00BC5
:1039100018B9208820F008002080208820F00200BC
:103920002080208820F010002080002071E7000017
:103930000346062106221248018812480288ABB1CC
:10394000012B1BD13AB94EF6EE60814201D1002025
:1039500070470120FCE739B94EF6EE60824201D192
:103960000120F5E70020F3E7AB20F1E709B90020DB
:10397000EEE70AB90120EBE7AB20E9E70020E7E733
:1039800000C000080000010810B5082401201049FB
:1039900008600221182002F041FF0446082C01D0E3
:1039A000204610BD02200A4908600021094803F0A2
:1039B00003F80446082C01D02046F2E70120044910
:1039C00008600221202002F029FF04462046E8E793
:1039D0005809002000C000082DE9F05F4FF0060BE9
:1039E00006260025A846A9464FF0FF3A002705E025
:1039F000781D844921F81700781C87B2642FF7DB03
:103A00008148B0F800B081480688012080490860EC
:103A10005FEA0B0072D0A0F56E40EE3848B3A0F517
:103A20008850113800286AD116B34EF6EE608642EF
:103A300017D1012008600221182002F0EFFE044691
:103A4000082C02D02046BDE8F09F02207049086093
:103A500000216E4802F0B0FF0446082C08D0204632
:103A6000F1E7FFF791FF0446082C01D02046EAE772
:103A7000C2E0002E44D1002526E06348C088614999
:103A800031F81510884201D10FFA85FA554519D041
:103A90005C4931F815005F4900F044F98146B9F1FD
:103AA000010F0FD002205A490860564931F815001D
:103AB0005849098800F070F98046B8F1080F01D024
:103AC0004046C0E7681C85B2642DD6DB0220504911
:103AD000086000214C4802F06FFF0446082C01D01A
:103AE0002046B0E701204A4908600221202002F068
:103AF00095FE0446082C26D02046A4E724E073E077
:103B00004FF6FF70864217D101204149086002211B
:103B1000202002F083FE0446082C01D0204692E7C4
:103B200002203B4908600021374802F045FF044667
:103B3000082C08D0204686E7FFF726FF0446082C0D
:103B400001D020467FE757E036B9FFF71DFF044656
:103B5000082C48D0204676E74FF6FF70864242D0C8
:103B6000002526E02948C088264931F815108842EA
:103B700001D10FFA85FA554519D0224931F81500BF
:103B8000244900F0CFF88146B9F1010F0FD002208F
:103B90001F4908601B4931F815001E49098800F0CB
:103BA000FBF88046B8F1080F01D040464BE7681C8F
:103BB00085B2642DD6DB0220154908600021134828
:103BC00002F0FAFE0446082C01D020463BE7012013
:103BD0000F4908600221182002F020FE0446082C3C
:103BE00001D020462FE707E0FFF7CEFE0446082C61
:103BF00001D0204627E700BF00BF0020044908602D
:103C0000082020E78835002000C0000800000108D7
:103C1000580900208C0700202DE9FC5F80468A4669
:103C200008253A4801903A4800904FF000090024D6
:103C300000264FF0000B0020FFF77AFE8146B9F115
:103C4000010F05D1334801903148009020270BE047
:103C5000B9F1000F05D12E4801902E480090182789
:103C600002E0AB20BDE8FC9F02202B4908604EF625
:103C7000EE61019802F0A0FE0546082D01D028460D
:103C8000F0E75146404600F087F80646082E01D07E
:103C90003046E7E700241CE0204830F81400404597
:103CA00015D01E4931F814001D4900F03BF8834639
:103CB000BBF1010F0BD0194931F8140018490988DC
:103CC00000F06AF80646082E01D03046CAE7601CAC
:103CD00084B2642CE0DB01200F49086002213846E1
:103CE00002F09CFD0546082D01D02846BAE70220C7
:103CF000094908600021019802F05EFE0546082D82
:103D000001D02846AEE72846ACE70000FF030108D3
:103D10000000010800C00008580900208835002074
:103D20008C0700202DE9F04706460F46002545F296
:103D300055584FF00109154CA2460020FFF7F8FD39
:103D40000546AB2D01D1BDE8F0871DB910490F4ADA
:103D5000521E06E0012D02D10C490E4A01E0AB20B3
:103D6000F1E78A46541E0AE0B4F80080B04505D158
:103D700034F8020C38804FF0080904E0241F0AF1DF
:103D800002008442F0D800BF4846DCE7000001088A
:103D900000C00008FFFF01082DE9F04706468846ED
:103DA000082700251D4CDFF878900120FFF7C0FDA3
:103DB0000546AB2D01D1BDE8F0871DB91949174A59
:103DC000521E06E0012D02D11449174A01E0AB2032
:103DD000F1E70C46A2F1010919E02068401CA8B9DE
:103DE0000220124908604146204602F0E5FD0746E0
:103DF000082F01D03846DEE702200C490860314622
:103E0000A01C02F0D9FD07463846D4E7241D4C45D6
:103E1000E3D30020054908608020CCE700000108BA
:103E2000FF07010800C00008FFFF01085809002033
:103E30002DE9F04105460F461646012080F3108813
:103E400000BFA819642802DDAF20BDE8F08102F0B0
:103E5000EBFD00240DE037F814102A190A4B33F853
:103E6000120000F013F8082802D04FF0FF30ECE702
:103E7000641CB442EFDB02F047FD002080F31088A1
:103E800000BF00BFE1E700008835002070B505469F
:103E90000E46002431462846FFF77EFF0446802C5C
:103EA00004D131462846FFF7B7FE0446204670BDD0
:103EB0000021144A11601521134A1160134A116040
:103EC0000021134A1160134A1160134A1160002047
:103ED00004E00021114A42F82010401C1428F8DBAD
:103EE000002004E000210E4A42F82010401C032864
:103EF000F8DB00210B4A11604FF6FF71084A916010
:103F0000704700008C0000207C0000208000002012
:103F1000840000208800002068000020A80D0020F8
:103F2000F80D00206C00002010B500241D4800682A
:103F3000002836D000BF0120A0401A490968084077
:103F400038B30120A04018490968084000B121E0B9
:103F5000164850F8240000B91CE0144850F824001A
:103F6000401E124941F82400084650F8240080B948
:103F70000C2C03D2204610F01DF903E0A4F10C0034
:103F800011F094FF0120A0400649096881430548CB
:103F9000016000BF601C044602490968C140002955
:103FA000C9D110BD6C0000208C000020A80D00209D
:103FB00070B504460D4600232246294641F20150C1
:103FC00004F06FF870BD00002DE9F84306460C467A
:103FD0004FF0FF3700BFA07800F0010000B99FE06C
:103FE0002088C0F3402010B9E08D401CE08504F12A
:103FF00016026946304604F06BFF0746002F40D199
:10400000BDF80000A082606A08B10020606260888C
:1040100020F008000830608012F08EFC424941F820
:104020002600A078C0F3800020B1A08A40F6FF717E
:10403000081AA0822088C0F34020E0B9A08D4FF676
:10404000FF71884201D1A08AA085E08EA18A8842B2
:1040500001DAA08AE086208FA18A884201DDA08A49
:104060002087608E38B1A08E618E884201DA608E22
:10407000A0860020608694F82000002105F06CFBEB
:104080004EE0A078C0F3C00020B112F055FC606291
:10409000002505E04FF47A71304600F033FA05460A
:1040A0002088C0F3402028B9208E401C2086608ED6
:1040B000401C6086608820F00800608094F8200032
:1040C000012105F049FB41F28831304600F048FA01
:1040D00020B12088C0F3402000B921E0304604F030
:1040E000EBFE47F23051884200DD00BFBDB16420D5
:1040F000208312F021FC6062A078C0F3001068B940
:10410000608820F0100010306080E08A00F07EFEB1
:10411000804642460021304600F008F800E000BF2B
:1041200000BF3846BDE8F883FC3800202DE9F04197
:1041300007460C4616460025E2200A490860254637
:104140000CB945EA0625022C03D1304665F31F3031
:1041500005460449096841EA072029460FF0B0FEE8
:10416000BDE8F081F408002010B513F0B1FE10BDD9
:1041700010B513F0ADFE10BD10B513F0A9FE10BDC3
:1041800010B513F0A5FE10BD10B513F0A1FE10BDC3
:10419000704710B513F09CFE10BD10B5002400F060
:1041A00005F804460CB1FDF709F810BD0020704772
:1041B0000149086070470000143C01400EB5012120
:1041C000880304F06FFC0F21042004F0B9FF0C21D8
:1041D000042004F0B5FF0B21052004F0B1FF0821F5
:1041E000052004F0ADFF8848007818B907210420A5
:1041F00004F0A6FF0321022004F0A2FF02210846DA
:1042000004F09EFF0121062004F09AFF0021062001
:1042100004F096FF4FF40040009000208DF8040059
:104220000C208DF8050001208DF80600684600F08E
:104230001DF94FF4004000F0E9F84FF48050009071
:1042400000208DF804000C208DF8050001208DF869
:104250000600684600F00AF94FF4805000F0D6F8E6
:104260004FF40060009000208DF804000C208DF8C1
:10427000050001208DF80600684600F0F7F84FF4BD
:10428000006000F0C3F84FF48070009000208DF8BB
:1042900004000C208DF8050001208DF8060068460A
:1042A00000F0E4F84FF4807000F0B0F85648007861
:1042B00080B98020009000208DF804000C208DF83B
:1042C000050001208DF80600684600F0CFF8802038
:1042D00000F09CF80820009000208DF804000C20CD
:1042E0008DF8050001208DF80600684600F0BEF844
:1042F000082000F08BF80420009000208DF80400C6
:104300000C208DF8050001208DF80600684600F0AD
:10431000ADF8042000F07AF80220009000208DF81B
:1043200004000C208DF8050001208DF80600684679
:1043300000F09CF8022000F069F8012000900020B5
:104340008DF804000C208DF8050001208DF8060082
:10435000684600F08BF8012000F058F806208DF830
:10436000080000208DF8090001208DF80A008DF862
:104370000B0002A804F068F807208DF80800002060
:104380008DF8090001208DF80A008DF80B0002A8B5
:1043900004F05AF808208DF8080000208DF8090074
:1043A00001208DF80A008DF80B0002A804F04CF8EB
:1043B00009208DF8080000208DF8090001208DF8F3
:1043C0000A008DF80B0002A804F03EF817208DF8C3
:1043D000080000208DF8090001208DF80A008DF8F2
:1043E0000B0002A804F030F828208DF80800002007
:1043F0008DF8090001208DF80A008DF80B0002A845
:1044000004F022F80EBD00002E00002005490968C6
:104410008143044A1160111D09688143121D116016
:1044200070470000003C014010B504462046FFF7ED
:10443000BFFE0348006820430149086010BD00002A
:10444000003C0140014600200022074B1B6803EAA4
:104450000102054B14331B680B4013B10AB1012054
:1044600000E0002070470000003C0140002123498B
:104470008279002A3AD00A46126803689A430B46AA
:104480001A600A1D126803689A430B1D1A600279AC
:1044900011440A6803681A430A60184A083212680D
:1044A00003689A43154B08331A601A1D1268036893
:1044B0009A43124B0C331A604279102A0ED11A1FFC
:1044C000126803681A430D4B08331A601A1D1268EC
:1044D00003681A43094B0C331A600DE0074942790F
:1044E00011440A6803681A430A6005E0027911441E
:1044F0000A6803689A430A6070470000003C014064
:10450000704700002DE9F04105460E46114800783D
:10451000854202DB0020BDE8F0810F4800EB8517E3
:1045200012F00AFA04460D4850F82500241A201EFD
:1045300001DB014600E041420C46B4F1004F01D3DB
:10454000C4F1FF34B6EB940F01D20120E3E7002061
:10455000E1E70000F8080020FC360020FC380020CD
:104560002DE9F04105460E4610480078854202DBF1
:104570000020BDE8F0810E4800EB851712F0DCF951
:104580000446B86A241A201E01DB014600E04142BD
:104590000C46B4F1004F01D3C4F1FF34B6EB940FD5
:1045A00001D20120E5E70020E3E70000F808002041
:1045B000FC360020014609B1012200E0002211462C
:1045C00000200AE0064A02EB8012528861F30002E2
:1045D000034B03EB80135A80401C0828F2DB704722
:1045E000FC360020014600200CE041FA00F2074BA7
:1045F00003EB80135B8862F30003044A02EB801232
:104600005380401C0828F0DB70470000FC36002077
:1046100001460020082903DA024B03EB8112D08BFC
:1046200070470000FC3600202DE9F04781460D461A
:104630004FF00008FF2D12D100240DE0134800EBCD
:104640008416F08A00F0E2FB074604EB440007FA08
:1046500000F040EA0808641C082CEFDB0AE0082D93
:1046600005DA0A4800EB8516B6F8168002E001204C
:10467000BDE8F0874FF6FF7000EA18431FFA88F292
:104680002946484603F00DFD0020F1E7FC360020E6
:104690002DE9F04106463F490E70082E05DD082041
:1046A000087031463CA014F047FB002564E0062D5D
:1046B00003DBA81D00F0FF0801E005F0FF08C8EBD0
:1046C000C80000EB48103A4901EB80078420C05B2A
:1046D000C0F30420A84207D08420C05BC0F30421AB
:1046E0002A4634A014F028FB3B4800EB8514A4F8BC
:1046F000208000202080608097F89000C0F3C001E7
:10470000284600F035FCB8F1030F04DD608820F086
:10471000200020306080608820F0400040306080C1
:10472000608820F0080008306080608820F0010078
:1047300060800220E0800020A0834FF44870A080B9
:104740000020608332202083192020810520608191
:104750004FF4397020824FF448706082208AE083E1
:1047600000206062208820F4007020800020A06279
:104770004FF4C870A0876D1C082D98DB00221146ED
:10478000104604F0A5FBFF2000F032F90020BDE840
:10479000F0810000F8080020452D4E756D20746FE3
:1047A0006F206C617267655B25645D0D0A00000017
:1047B000D4190020537465706E6F5F656E696478FC
:1047C0005B25645D213D456E636F64655F69647858
:1047D0005B25645D0D0A0000FC3600202DE9F047E2
:1047E0004FF0000900BF7A480078401C78490870F3
:1047F0000878C11700EB5171C910A0EBC101744AD0
:10480000117074481146097800EB8114A07800F00B
:10481000010000B9D8E0208C05F0DAFA054625BB86
:10482000208B18B1208B401E2083CDE00A202083EE
:104830002088C0F3402000285ED012F07DF8A062EE
:10484000208820F4007020804FF001094FF6FF709F
:10485000A08500206087E0864FF6FF70208700204B
:10486000E08520866086A08646E02088C0F3402050
:10487000002837D1A078C0F3C00010B1A08A6087AB
:1048800002E04FF6FF706087E18E228F881A0028C1
:1048900001DB014600E041421FFA81F8208E30B969
:1048A000B8F1140F1DDD40F6EC70804519DA628F07
:1048B000A18D208C03F0DCFC228FE18E238C43F44D
:1048C000807003F0D5FC228EE18D238C43F40070C0
:1048D00003F0CEFCA28E618E238C43F4407003F073
:1048E000C7FC00BF208820F4007000F50070208015
:1048F000A06A08B10020A062214635480078FFF781
:1049000063FB0646002E05DAB9F1000F01D0002046
:10491000208359E02088C0F3431028B121462C4859
:104920000078FEF705FE4FE0207800F0010078B136
:10493000208820F001002080608820F00200801C88
:104940006080A08AE080208C0022114607F00EFCD7
:104950001DB9A078C0F3400058B94DB1A078C0F39C
:10496000400028B90022042119480078FFF7DEFB37
:104970002AE02078C0F38000B0B1214614480078C6
:10498000FEF720FF07B2208C0122394607F0EEFB2C
:10499000A38A3A460E4801780FA014F0CDF920887A
:1049A00020F0040020800EE0A078C0F3001050B981
:1049B000208C05F0DFF98246234601225146044847
:1049C0000078FEF71BFF00BF00BFBDE8F0870000C6
:1049D000F9080020FC3600205B25645D452D6550FC
:1049E0006F735B25645D5B25645D0D0A000000004C
:1049F000F8B505460027082D21DA274800EB851475
:104A000021462846FFF7E0FA0646E08A0090A38A8E
:104A10002A46314621A014F08FF906F1640038B11E
:104A2000608820F0080008306080E08A471031E09C
:104A3000608820F0080060804FF6FF772AE0FF2DA5
:104A400028D100251EE0144800EB85142146284695
:104A5000FFF7BAFA0646E08A0090A38A2A46314652
:104A60000EA014F069F946B90120A84007436088F8
:104A700020F008000830608003E0608820F0080023
:104A800060806D1C104800788542DCDB39460FA041
:104A900014F052F93846F8BDFC3600205353495FF4
:104AA000526561643D202564202E2E2E2564205BF6
:104AB000636F6465723A256420737461743A307868
:104AC00025785D0D0A000000F8080020452D73745C
:104AD0006174757320307825780D0A002DE9F04156
:104AE00005460E46DFF8548015480078854200DA06
:104AF0001EB94FF0FF30BDE8F081124800EB85147D
:104B0000A07800F0010008B90020F4E7608820F0E8
:104B100010006080A078C0F3C00008B90020EAE768
:104B200021462846FEF74EFE07463760208820F0D3
:104B30000800083020800120DDE70000FFFF0F00A3
:104B4000F8080020FC3600202DE9F05F05460E46EF
:104B500093464FF0000900BF18480078854200DBFB
:104B600028E0174800EB85142088C0F3431000B1FB
:104B700020E0A078C0F3001018B1608820F0100089
:104B80006080A078C0F3C00000B913E0B6F90080DF
:104B900021462846FEF716FE07B2A8EB07000028BC
:104BA00001DB014600E041420FFA81FA37804FF005
:104BB000010900BF00BF4846BDE8F09FF80800208B
:104BC000FC36002010B502460024C82901DD002073
:104BD00010BD082A03DA034800EB821399830120F1
:104BE000F6E70000FC36002010B502460024B1F5BF
:104BF000487F01DD002010BD082A03DA024800EBDF
:104C0000821399870120F6E7FC36002010B5024692
:104C10000024B1F5487F01DC002901DA002010BD35
:104C2000082A03DA024800EB821359820120F6E7D2
:104C3000FC3600200146082901DB002070470348AC
:104C400000EB8110807800F00100F7E7FC360020CF
:104C500070B50546082D02DB4FF0FF3070BD1948D6
:104C600000EB8514A078C0F3400010B94FF0FF307E
:104C7000F4E7608820F0100060802078C0F3001016
:104C800010B14FF0FF30E9E700202080208820F0AD
:104C900010001030208011F04FFEA062208C0AF02E
:104CA0002FFC208C05F066F80646208C002301229C
:104CB000314608F08BFC3246294603A014F03CF83C
:104CC0000020CBE7FC3600205B25645D452D616448
:104CD0006A5B6D706F732025645D0D0A0000000033
:104CE00010B500240AE0084800EB84108078C0F377
:104CF000001010B12046FFF7ABFF641C034800789A
:104D00008442F0DB10BD0000FC360020F8080020D3
:104D100070B506460D46082E00DB70BD134800EB4B
:104D200086143C2D00DCA588A0883C38A84202DC13
:104D3000A0883C3885B22582608820F0020060801F
:104D4000608820F01000608000202080208820F4FF
:104D5000F0702030208019202083002060832A46B4
:104D6000314603A013F0E8FF00BFD6E7FC36002071
:104D70005B25645D452D6175746F5A65726F206D9A
:104D80006178737465705B25645D0D0A0000000036
:104D9000082800DB7047064901EB8011498821F0A3
:104DA0000201034A02EB8012518000BFF2E70000CB
:104DB000FC3600202DE9F04105460F461646082D29
:104DC00003DB4FF0FF30BDE8F081084800EB8514AD
:104DD00021462846FFF7F8F880460FB1A08A3860D0
:104DE0000EB1E08A30604046EDE70000FC3600205E
:104DF0000146082902DB4FF0FF307047024800EB04
:104E00008110C088F9E70000FC360020014601F05F
:104E10003F003F2802D001F03F0008B90120704751
:104E200001F0180008B10220F9E701F00600062899
:104E300001D10320F3E701F0010008B10420EEE7FF
:104E400001F0200008B90520E9E70020E7E70000AD
:104E50000146082902DB4FF0FF3070470B4800EB9A
:104E60008110008820F00100401C084A02EB8112EA
:104E70001080064800EB8110408820F00200034AB1
:104E800002EB811250800020E7E70000FC36002092
:104E90000246082A02DB4FF0FF30704709B10120BB
:104EA00000E00020054B03EB82131B8860F38203B4
:104EB000024800EB821003800020EEE7FC36002061
:104EC00001460020082900DB7047054A02EB8112E9
:104ED0001278C2F3400202B9012000BFF4E70000DB
:104EE000FC36002010B50448006803F0D3F8EF202A
:104EF0000149086010BD0000F40800200246082A9D
:104F000002DB4FF0FF307047C9B1184800EB821048
:104F1000008820F00200801C144B03EB82131880E1
:104F2000124800EB82100088C0F3431008B119202A
:104F300000E005200D4B03EB821318830EE00B48B5
:104F400000EB8210008820F00200084B03EB821374
:104F500018800020054B03EB821318830020034BBD
:104F600003EB8213588300BFCDE70000FC3600201E
:104F70000246082A02DB4FF0FF30704709B10120DA
:104F800000E00020054B03EB82135B8860F3820393
:104F9000024800EB821043800020EEE7FC36002040
:104FA0000246082A00DA11B94FF0FF307047034873
:104FB00000EB821081800020F8E70000FC36002022
:104FC00070B504460D46082C02DB4FF0FF3070BD73
:104FD000022D00DA0225B5F5806F01D94FF4806506
:104FE0000C4800EB841005810A4901EB8411898883
:104FF00001FB05F0C11700EB11510E13054901EB40
:1050000084114E812A46214603A013F095FE00200C
:10501000DDE70000FC3600205B25645D452D7365EF
:105020007454685B25645D0D0A00000070B5064687
:105030000D46082E02DAB5F5805F02D34FF0FF303F
:1050400070BD104800EB861400202080608820F09E
:1050500010006080608820F00200801C6080E08882
:10506000A84207D0E580208820F00400001D2080A1
:10507000322020832A46314603A013F05DFE002033
:10508000DEE70000FC3600205B25645D452D5A6597
:10509000726F5B25645D0D0A0000000070B500268C
:1050A0003048007800B970BD2F480078002857D1EB
:1050B000322014F02DF92B480078401E2949087041
:1050C0000846007828B911F039FF002025490870FA
:1050D00046E02648007820281DDA24480078C010D1
:1050E000234951F820102148007800F007020120E0
:1050F0009040014009B1012000E0002006461B4A13
:10510000127802F00701194A1278D01000233246B3
:1051100000F018FC24E015480078382820DA002434
:105120000025124800782038C4101048007800F09C
:1051300007050CB1601E00E002200E4951F8200066
:1051400005F0070201219140084008B9012000E064
:105150000020064632462946204600F0CDFA00BF20
:1051600000BFA0E77100002031060020720000207F
:10517000880D0020F80D002070B50024B648007896
:1051800000B970BDB448007800F00100002867D075
:105190000024B248006820B1012825D002285CD143
:1051A00039E0AF480068C008AE4951F82000AC496A
:1051B000097801F0070201219140084008B101205F
:1051C00000E000200446A64A127802F00701A44A33
:1051D0001268D0080023224600F0B4FB9F48006804
:1051E000401C9E49086039E09F48007820B99F48DC
:1051F000006800F0030000B130E099480068401CEE
:105200009749086095480068401C9449086032201E
:1052100014F07EF822E092480068202819D39448C0
:10522000007840B901209249087000208C4908603C
:105230008A49086010E08848007820F0010086491B
:105240000870002086490860844908608849087011
:1052500002E000208149086000E000BF00BFE8E0F4
:105260007D48007800F00200002861D08148007875
:1052700030B17948007820F0020077490870D8E012
:105280007648006820B1012824D002284DD138E0AA
:10529000794880687249097801F00701C84000F038
:1052A00001040CB9012000E0002002466C4800789F
:1052B00000F00701002000F01FFA28B968480068D4
:1052C000401C6749086004E064480068401C63496A
:1052D00008602BE06448007820B96448006800F05A
:1052E000030000B122E05E480068401C5C49086091
:1052F0005A480068401C59490860322014F008F8E8
:1053000014E05748006810280BD35348007820F069
:105310000200514908700020514908604F49086057
:1053200002E000204D49086000E000BF00BF80E0BF
:105330004948007800F0040000286DD04748006814
:1053400020B101283AD0022863D14EE044480068D9
:105350000621B0FBF1F000F00100474951F82000B0
:105360003F4909680622B1FBF2F302FB1311C84062
:1053700000F001043A4800680621B0FBF1F201FB9D
:10538000120537480068B0FBF1F000F00100461C40
:105390000CB9012000E0002002462946304600F00A
:1053A000ABF928B92E480068401C2D49086004E07C
:1053B0002A480068401C294908602BE02A480078E8
:1053C00020B92A48006800F0030000B122E0244818
:1053D0000068401C2249086020480068401C1F49A2
:1053E0000860322013F094FF14E01D48006818286C
:1053F0000BD31948007820F00400174908700020EA
:10540000174908601549086002E000201349086048
:1054100000E000BF00BF0CE00F48007800F008007B
:1054200030B10D48007820F008000B49087000E00A
:1054300000BF0948007868B900231A46194640F6AB
:10544000017002F02EFE0020054908600349086043
:105450000749087000BF94E670000020EC000020AF
:10546000E8000020880D00203106002014070020ED
:10547000F00000202E000020F80D00202DE9F0475C
:105480000446884692469946962065490860142C41
:1054900001D3BDE8F0870C2C55D226460620B4FB7C
:1054A000F0F5B4FBF0F100FB1141012000FA01F727
:1054B000B8F1000F0CD05B4850F82500384359492B
:1054C00041F8250058480068584941F824000BE08D
:1054D000544850F82500B843524941F82500544833
:1054E0000068524941F824004FEA690020B14FEAB0
:1054F00069004E4941F82400BAF1000F1AD00A2081
:105500004A4941F824000120A0404A49096808405E
:1055100080B1B8F1000F01D0012000E00020014669
:10552000324602200FF0BAF9434940F2E73241F81F
:105530002020AEE7002011F02DFE0122414630462A
:105540000EF094FE63E0A4F10C060225012000FA9F
:1055500006F73A48007828B100224146304610F05C
:105560000BFD96E7B8F1000F13D02E4850F8250038
:1055700038432C4941F825002B4800682B4941F855
:1055800024002F480068B8B12D48006841F8240075
:1055900012E0244850F82500B843224941F825007C
:1055A00023480068214941F824002648006818B1C2
:1055B0002448006841F824004FEA690020B14FEA0E
:1055C00069001A4941F82400BAF1000F1AD00F20DF
:1055D000164941F824000120A040164909680840F6
:1055E00080B1B8F1000F01D0012000E00020014699
:1055F000324601200FF052F90F4940F2E73241F8EC
:10560000202046E701224146304610F0B5FC01203B
:10561000A0400D49096808430B49086000BF38E7FE
:1056200068000020F80D00207C000020A80D00205C
:10563000800000208C000020AC3000202E000020D4
:1056400084000020880000206C00002010B5044673
:105650000B4624B1012C0BD0022C1FD113E00AB150
:10566000012000E0002003EBC00000F1200118E061
:105670000AB1012000E0002000EB400003EB8000B5
:1056800000F130010DE00AB1012000E0002000EB44
:10569000400003EB800000F1360102E04FF0FF31E3
:1056A00000BF00BF482903D2034850F8210010BDB5
:1056B0004FF6FF70FBE70000AC3000202DE9F04111
:1056C00006460C461746984626B1012E05D0022EF6
:1056D00007D104E004F10C0505E0254603E0A51D13
:1056E00001E0BDE8F08100BF43460022394628466C
:1056F000FFF7C4FE00BFF4E72DE9F04106460D4672
:10570000174626B1012E0BD0022E19D110E005F15B
:105710000C041548007840F002001349087012E0AC
:105720002C461148007840F004000F4908700AE048
:10573000AC1D0D48007840F004000B49087002E0F1
:105740004046BDE8F08100BF0023012239462046D3
:10575000FFF794FE0120A04004490968084008B101
:105760000020EEE70120ECE7850600208C000020F9
:105770007FB5044600200090019002900390E1B2B2
:10578000154800681030814223D11448007800B3D6
:10579000C4F30725082D00DB7FBD6A1005211046E4
:1057A00009F09CF9C0EBC00101EB40110C4A02EB7F
:1057B0008101096D009108490968103145EA01210C
:1057C0000191002340F60420DDE9001202F069FC9B
:1057D00000BF00BFE0E70000780600202E00002098
:1057E000D41900200246082A02D34FF6FF707047F2
:1057F000082902D34FF6FF70F9E701EBC203482BEB
:1058000003D2034850F82300F1E74FF6FF70EEE7AC
:10581000AC3000202DE9F04704460E4642480768A8
:10582000C6F3074906F0FF08082C01D3BDE8F0874E
:1058300032203E490860002571E049FA05F000F089
:105840000100002868D10120A84000EA080088B3C0
:10585000374850F824000121A940084000285CD1B5
:1058600001231A46294620460FF094F908BB304818
:1058700050F824000121A94008432D4941F8240093
:105880002C48006804EB84012B4A02EBC10141F86B
:105890002500002004EB8401284A02EB4101485511
:1058A000274850F824000121A9400843244941F821
:1058B000240033E0FFE71E4850F824100120A840E0
:1058C000014051B301230022294620460FF062F91E
:1058D00008BB174850F824000121A9408843144907
:1058E00041F824001348006804EB8401124A02EBDB
:1058F000C10141F82500002004EB84010F4A02EBAE
:10590000410148550E4850F824100120A840014399
:105910000B4840F8241001E000E000BF6D1CBD42C0
:105920008BD300BF82E700004C0000206400002001
:10593000880D002054000020541000200410002086
:10594000941100202DE9F04104460D4617461E46ED
:105950003048D0F800800FB1002100E00321012081
:1059600088402D49097808432B490870082C01D339
:10597000BDE8F081082D00D3FAE7322027490860FE
:105980007FB100230122294620460FF003F9244865
:1059900050F824000121A9400843214941F824007E
:1059A0000EE000231A46294620460FF0F3F81C4863
:1059B00050F824000121A9408843194941F82400E6
:1059C0004EB1142E07D204EB8400164901EBC0003F
:1059D00040F8256007E00A2004EB8401114A02EB3D
:1059E000C10141F82500012004EB84010E4A02EBBD
:1059F000410148550D4850F824000121A9400843B1
:105A00000A4941F824000020094901EBC401485526
:105A100000BFADE74C000020850600206400002098
:105A2000880D002054100020041000209411002044
:105A3000103200202DE9F04107460D46104800784D
:105A4000D8B1002415E0C4EBC40000EB44100D49AC
:105A500001EB800684208059C0F34330052800D034
:105A600005E0C5F30011204606F00EFC00BF601CE7
:105A700084B2054800788442E5DBBDE8F08100008F
:105A80002E000020D4190020340100202DE9F0411F
:105A900004460D46E1B20D4800681030814213D132
:105AA0000B48007880B1C4F30726082E01DBBDE85F
:105AB000F0817010052109F011F80746C5F30011B7
:105AC000384606F0E1FB00BF00BFF0E77806002093
:105AD0002E0000202DE9F04106460F46F1B2544851
