:020000040802F0
:10000000F86A0020990102087D750208D16F020884
:10001000677302080D0C02081908030800000000AD
:100020000000000000000000000000002182020823
:10003000BF300208000000001B7B0208D9FA02084A
:1000400023080308197B02083DFB0208A77E02086B
:10005000015E0208F17D0208113C0208213C020801
:10006000293C0208313C0208393C0208FD2D0208F7
:10007000FF2D0208012E0208032E0208052E020899
:10008000072E0208092E020879090208230C02082B
:10009000170C02081F0C0208210C02083B3C020846
:1000A0003FFB02084BFB020849FB020841FB020828
:1000B00053FB02085BFB020863FB0208E76F0208C0
:1000C000E56F0208EB6F0208E96F0208057F02087E
:1000D000077F0208A9040308B1040308B304030856
:1000E000193C0208A57E02087577020871FB020818
:1000F0007DFB02087BFB020873FB02080B2E020843
:100100006B5F0208D57E020865FB0208097F0208C2
:10011000A5040308A704030867FB020869FB02089B
:100120000D2E0208152E0208172E0208192E02089D
:10013000B3010208B3010208B3010208B3010208C7
:10014000B3010208B3010208B3010208B3010208B7
:10015000B3010208B3010208B3010208B3010208A7
:10016000B3010208B3010208B3010208B301020897
:10017000B3010208B3010208B3010208B301020887
:10018000B3010208DFF80CD000F01AFA004800476B
:10019000E5560308F86A00200648804706480047ED
:1001A000FEE7FEE7FEE7FEE7FEE7FEE7FEE7FEE727
:1001B000FEE7FEE7E1FA020885010208D2B201E09B
:1001C00000F8012B491EFBD270470022F6E710B55C
:1001D00013460A4604461946FFF7F0FF204610BDB5
:1001E000421C10F8011B0029FBD1801A7047F0B4A3
:1001F00080EA0102D40F4200B2EB410F02D2024664
:10020000084611464A0042D0C30DDDB2C1F3C752C1
:10021000AD1A202D35DAC1F3160141F4000204B104
:100220005242C5F1200602FA06F12A411044B3EB0E
:10023000D05F23D0C4B1012DA0EBC35009DCF0BCCA
:100240004FF0004202EAC352DBB200F5000000F0BA
:100250002CB9400000F1807000EBC350A0F1807019
:1002600040EAD170490009E0490841EAC071A0EBB9
:10027000C35000F50000400800EBC350F0BC00F094
:100280000BB96142012202EB4101001BF6E7F0BC11
:10029000704781F00041AAE780F00040A7E780EABC
:1002A000010210B502F00043400022D04A001FD0E6
:1002B000010E01EB1261C0F35600C2F3560240F486
:1002C000000042F40002A0FB022000047F39140465
:1002D00000D0401C50EA124001D44000491EC2B276
:1002E0000C0604EBD010401C4008802A02D003E02A
:1002F000002010BD20F00100002900DA0020184382
:1003000010BD2DE9F04D81EA030404F0004B21F00B
:10031000004514464FF0000A23F0004150EA050260
:1003200020D054EA01021DD0C5F30A570246C5F396
:100330001303C1F31300C1F30A5640F4801543F4CC
:100340008013A7EB0608101BD64608F2FD3873EBA6
:10035000050002D308F1010801E092185B41B8F1F1
:10036000000F03DA00200146BDE8F08D00204FF4B5
:100370008011064684460EE0171B73EB050705D374
:10038000121B63EB050306434CEA010C49084FEAD4
:10039000300092185B4150EA0107EDD152EA0300A8
:1003A00012D082EA040083EA0501084305D0101B3D
:1003B000AB4106D20122002306E000224FF00043A9
:1003C00002E06FF0010253101AEB06004CEB0851EB
:1003D00010EB0A0041EB0B01BDE8F04D00F093B8C3
:1003E000C10F80EAE0700844CA079623002100F09C
:1003F0005CB80EB5C10F80EAE0700844CA0700215E
:1004000040F233438DE80E000A460B4600F08AF8AE
:1004100003B000BD00F0004220F00040C10DC0F369
:10042000160040F400007F2901DA00207047962969
:1004300003DCC1F19601C84001E096398840002AEA
:10044000F4D040427047C1F30A5210B5C1F3130112
:1004500040F2FF3341F480119A4201DA002010BDCE
:1004600040F233439A42A2F2334203DC524200F09C
:1004700003F810BD904010BD202A04DB203A21FA79
:1004800002F00021704721FA02F3D040C2F12002AD
:1004900091400843194670470029A8BF7047401C87
:1004A000490008BF20F00100704710B4B0FA80FC8A
:1004B00000FA0CF050EA010404BF10BC704749B1C7
:1004C000CCF1200421FA04F411FA0CF118BF012137
:1004D00021430843A3EB0C01CB1D4FEA00614FEA17
:1004E000102042BF002010BC704700EBC3501044E6
:1004F0000029A4BF10BC7047401C490008BF20F071
:10050000010010BC704710B5141E73F1000408DA26
:10051000401C41F1000192185B411A4301D120F0C7
:10052000010010BD2DE9F04D92469B4611B1B1FA84
:1005300081F202E0B0FA80F22032904600F052F8E8
:1005400004460F4640EA0A0041EA0B0153465A4668
:10055000084313D0114653EA010019D0C8F14002F4
:100560005046FFF789FF05460E465046594642461B
:1005700000F038F8084305D0012004E02046394651
:10058000BDE8F08D0020054346EAE0762C43374372
:100590000A986305E40AA0EB08000022FD0A44EA79
:1005A00047540A3002D500200146E9E70105101939
:1005B0006941DDE9084500196941BDE8F04DA2E750
:1005C000064C074D06E0E06840F0010394E80700A0
:1005D00098471034AC42F6D3FFF7D8FD3C600308CF
:1005E0005C600308202A04DB203A00FA02F10020B4
:1005F00070479140C2F1200320FA03F31943904061
:10060000704770B58C1810F8015B15F0070301D125
:1006100010F8013B2A1106D110F8012B03E010F865
:10062000016B01F8016B5B1EF9D12B0705D4002388
:10063000521E0DD401F8013BFAE710F8013BCB1A2A
:10064000921C03E013F8015B01F8015B521EF9D51F
:10065000A142D8D3002070BD10B5002414E00C488E
:1006600000EB0410037A601CC2B2094800EB0410CE
:100670000179084800F0ACF9074800EB4400044950
:1006800001EB0411C860641C032CE8D310BD00000A
:1006900060050020002101409005002010B596B0B3
:1006A0000121880507F03AFA002404E000203949C6
:1006B00021F81400641C032CF8D3374802F0D6FB51
:1006C00001A802F0EBFC4FF000700190334802905B
:1006D00030480390002004900320059000200690ED
:1006E0004FF480600790400008908000099040110E
:1006F0000A9040020B9000200C9001200D900020E9
:100700000E900F9001A9244802F09CFC0121224880
:1007100002F0A0FB0121480207F040FA10A800F007
:10072000B8F90020109001208DF844008DF84500A4
:10073000002012901390149003208DF8540010A9FB
:1007400016484C3800F01AF9FFF786FF01211348CC
:100750004C3800F076F8012110484C3800F066F86B
:1007600001210E484C3800F03DF8012210210A48C2
:1007700002F04AFC3B208DF8000003208DF80100B8
:1007800001208DF802008DF80300684606F006FF90
:1007900016B010BD90050020586402404C21014065
:1007A00010B5002414E00C4800EB0410037A601C20
:1007B000C2B2094800EB04100179084800F008F9BA
:1007C000074800EB4400044901EB0411C860641CB5
:1007D000062CE8D310BD00000005002000200140D9
:1007E000801C002021B1826842F00102826003E097
:1007F000826822F001028260704700000021084AEE
:100800001168084A1140D0E900231A4383681A434B
:10081000C3681A431143044AC2F804137047000026
:1008200004230140E030FCFF0020014021B1826838
:1008300042F48072826003E0826822F480728260F7
:10084000704721B1826842F40072826003E08268DE
:1008500022F400728260704710B59AB001218805B9
:1008600007F05CF9002404E00020404921F814005E
:10087000641C302CF8D33E4802F0F8FA05A802F0C8
:100880000DFC002005903B4806903848079000205A
:1008900008903020099000200A904FF480600B905F
:1008A00040000C9080000D9040110E9040020F907F
:1008B000002010900120119000201290139005A9A3
:1008C0002B4802F0BFFB0121294802F0C3FA0121A5
:1008D000080207F063F90020019002900390049051
:1008E00001A8FFF78BFF14A800F0D3F800201490A4
:1008F00001208DF854008DF85500002016901790B7
:10090000189006208DF8640014A91A484C3800F09D
:1009100035F8FFF745FF012000F0C6F8012000F090
:10092000D9F8012113484C38FFF78BFF01211148FA
:100930004C38FFF77BFF01210E484C38FFF752FF80
:10094000012210210A4802F05FFB38208DF80000D8
:1009500003208DF8010001208DF802008DF80300BE
:10096000684606F01BFE1AB010BD0000201C0020D7
:10097000106402404C2001407047000030B5024630
:10098000002000235068104C20400D790C6844EA88
:1009900005242043506090680C4C2040D1E903545A
:1009A0002C438D682C434D7944EA450420439060E4
:1009B000D06A20F470000C7D641EE4B2234340EA48
:1009C0000350D06230BD0000FFFEFFFCFDF7FFC00A
:1009D000F0B504460D4600200021092D11DDE06828
:1009E000A5F10A0606EB4607072606FA07F1884333
:1009F000A5F10A0606EB460603FA06F10843E06095
:100A00000CE0206905EB4507072606FA07F1884345
:100A100005EB450603FA06F108432061072A0FDAC1
:100A2000606B561E06EB86071F2606FA07F1884301
:100A3000561E06EB860605FA06F10843606322E0BF
:100A40000D2A0FDA206BD61F06EB86071F2606FA43
:100A500007F18843D61F06EB860605FA06F1084320
:100A6000206310E0E06AA2F10D0606EB86071F2660
:100A700006FA07F18843A2F10D0606EB860605FA91
:100A800006F10843E062F0BD816841F08041816079
:100A9000704700210160017141718160C160016195
:100AA000012101757047000038B10849096841F417
:100AB0000001074AC2F8041306E00449096821F45A
:100AC0000001034AC2F804137047000004230140E8
:100AD0000020014038B10849096841F48001074A03
:100AE000C2F8041306E00449096821F48001034AAE
:100AF000C2F80413704700000423014000200140A5
:100B000010B50348FFF7C0FF0248FFF7BDFF10BD57
:100B100000210140002001404FF6FF710F4A116093
:100B200000210F4A1160002012E000210D4A42F816
:100B300020100D4A42F8201001210C4A42F82010E2
:100B400000210B4A42F820100A4A42F82010401CAB
:100B50000428EAD30021084A1160704724000020CD
:100B600028000020100F0020200F0020300F002050
:100B7000500F0020400F00208800002000B50648DC
:100B8000006840B1054801680348006810F032FC75
:100B900000200149086000BD0C000020100000206A
:100BA00010B51348006800B110BD1248006800B1CC
:100BB000FAE71148007800B9F6E710490D4810F03F
:100BC0007BFC04462CB10D4801680A48006806F019
:100BD0006BFC07F047FB044644B10021204610F0AF
:100BE00025FC18B90021204610F090FC00BFDBE77F
:100BF000180000200C0000204C06002010000020EF
:100C000001200149087070473F000060042010F087
:100C1000E9FB00BFFEE710B514F00CF910BD7047FA
:100C20007047704700B589B00121480606F096FF6D
:100C30003E4800F07FF805A800F00AFA00208DF881
:100C40001A008DF81B008DF81C008DF81D008DF822
:100C50001E0001208DF81F0000208DF817000920CC
:100C60008DF8180003208DF819000220ADF814004B
:100C700005A92E4800F012F900208DF80E00012081
:100C80008DF80F008DF81000002011F011FC4FF6C8
:100C9000FF7101EA4010ADF804000020ADF8060035
:100CA0000846ADF80800ADF80A000020ADF80C00C9
:100CB00001208DF8110001A800F058F801208DF8EE
:100CC0000E008DF80F008DF8100011F0F1FB4FF6BB
:100CD000FF7101EA4010ADF804000020ADF80600F5
:100CE0000846ADF80800ADF80A000020ADF80C0089
:100CF00001208DF8110001A800F038F8012202212E
:100D00000A4800F0C2F814208DF8200000208DF869
:100D100021008DF8220001208DF8230008A806F09C
:100D20003DFC00200249086009B000BD006400409D
:100D3000BC06002010B504460B48844209D10121AD
:100D4000480606F01BFF00214FF0007006F016FF6A
:100D500008E00121880606F011FF00214FF08060B5
:100D600006F00CFF10BD00000064004010B500212B
:100D7000837A012202FA03F13D4A126842F001022D
:100D80003B4B1A603A4A1C3212688A43384B1C3378
:100D90001A60027BCAB9364A0C3212688A43344B55
:100DA0000C331A604288C38842EA0343304A403217
:100DB000847A42F834300288838842EA03432C4A1A
:100DC0004032847A02EBC4025360027B012A19D1BB
:100DD000274A0C3212680A43254B0C331A604288AA
:100DE000038842EA0343224A4032847A42F834308C
:100DF000C288838842EA03431D4A4032847A02EB68
:100E0000C4025360C27A3AB9194A121D12688A4361
:100E1000174B1B1D1A6006E0154A121D12680A4383
:100E2000134B1B1D1A60028932B9114A1432126821
:100E30008A430F4B14331A600289012A06D10C4AE7
:100E4000143212680A430A4B14331A60427B012A97
:100E500006D1074A1C3212680A43054B1C331A603C
:100E6000034A126822F00102014B1A6010BD000013
:100E700000660040014600208A69C2F307407047BF
:100E8000014600208A69100E70471AB143690B436E
:100E9000436102E043698B434361704730B50246CA
:100EA00000200023146824F002041460146844F045
:100EB0000104146000E05B1C546804F001041CB9D8
:100EC0004FF6FF74A342F6D1546804F001040CB944
:100ED00000206CE08C79012C04D1146844F080046B
:100EE000146003E0146824F080041460CC79012CB1
:100EF00004D1146844F04004146003E0146824F042
:100F0000400414600C7A012C04D1146844F02004CD
:100F1000146003E0146824F0200414604C7A012C5F
:100F200004D1146844F01004146003E0146824F041
:100F3000100414608C7A012C04D1146844F0080465
:100F4000146003E0146824F008041460CC7A012CC7
:100F500004D1146844F00404146003E0146824F01D
:100F6000040414608C78A407CD7844EA05640D79F4
:100F700044EA05444D7944EA05540D886D1E2C431E
:100F8000D461146824F001041460002300E05B1CA9
:100F9000546804F001041CB14FF6FF74A342F6D16B
:100FA000546804F001040CB1002000E0012030BDC1
:100FB00010B500F5D87303EB01131B6803F00403AD
:100FC0001372137A53B900F5D87303EB01131B683E
:100FD00040F2FF7404EA5353136009E000F5D8733C
:100FE00003EB01131B686FF0604404EAD303536002
:100FF00000F5D87303EB01131B6803F0020353726F
:1010000000F5D87303EB01135B6803F00F039372D1
:1010100000F5D87303EB01135B681B0AD37400F56A
:10102000D87303EB01139B68C2F80B3000F5D8733B
:1010300003EB0113DC680F239C5021B9C36843F014
:101040002003C36003E0036943F02003036110BD84
:1010500000218171C171017241728172C17281700E
:10106000C17003210171022141710121018070478A
:1010700010B502460020936803F08063B3F1806FDF
:1010800000D110E0936803F00063B3F1006F01D169
:10109000012008E0936803F08053B3F1805F01D131
:1010A000022000E00420042874D002F5C07303EB92
:1010B00000131B6803F0010402F5C07303EB001377
:1010C0001C600B7A7BB94B7A0C8843EA445302F5D7
:1010D000C07404EB00142468234302F5C07404EBCD
:1010E0000014236010E00B7A4C6843EAC4034C7A86
:1010F000234302F5C07404EB00142468234302F573
:10110000C07404EB001423608B7A03F00F038B721E
:1011100002F5C07303EB00135B6823F00F0402F5C4
:10112000C07303EB00135C6002F5C07303EB0013A4
:101130005B688C7A234302F5C07404EB001463608F
:101140008B7B1C064B7B44EA03440B7B44EA032362
:10115000CC7A234302F5C07404EB0014A3608B7CAB
:101160001C064B7C44EA03440B7C44EA0323CC7BFF
:10117000234302F5C07404EB0014E36002F5C0736E
:1011800003EB00131B6843F0010402F5C07303EB8B
:1011900000131C6010BD000010B50B48007800B9AA
:1011A00010BD0A4800684FF2FF31084050B10848AE
:1011B000007820B105480168FD2010F0A7F9002053
:1011C0000349087000BFEBE71406002094060020D6
:1011D0001606002070B50446207800F0800050B15B
:1011E0002578667845EA0620A3896289218906F078
:1011F0004AF9012070BD0020FCE7000010B50A4844
:10120000006838B110F022FE60B10021B82010F063
:101210007DF907E010F01AFE032803D00021B92061
:1012200010F074F910BD00005C00002010B512F041
:101230008FFC50B10C48006844F62061884204D20B
:1012400009480068401C0849086012F08DFC50B144
:101250000648006844F62061884204D203480068CA
:10126000401C0249086010BDA8000020AC0000200E
:1012700010B50246074B1B689343064C2360084693
:10128000037803F001031BB1038823F001030380FB
:1012900010BD00009406002010B5044604B910BD2E
:1012A0006078082850D2DFE800F04F041F284F4F25
:1012B0003C4E2046FFF78EFF00B146E0A07848285C
:1012C00011D1E07851280ED1207954280BD16079C2
:1012D000452808D1A079532805D1E079542802D1B6
:1012E00001201B49087030E02046FFF773FF00B172
:1012F0002BE000201649087027E02046FFF76AFF20
:1013000000B122E01248007850B163891AB2E37844
:101310000BB1012300E000231946A0780BF070FF09
:1013200013E02046FFF756FF00B10EE02178637806
:1013300041EA0320074909680A140023054909689E
:1013400006F0A1F801E000E000BF00BF00BFA6E783
:101350006F000020C406002070B5044604B970BDBB
:101360006F48007800B9FAE760780D2870D2DFE89E
:1013700000F0D20726535C657686919CA7B1BC002D
:101380002046FFF727FF00B1C6E066480078A8B105
:10139000012012F091FB30B903206349086001215C
:1013A000084610F0EBFF002012F086FB30B9032056
:1013B0005D4908600121002010F0E0FFACE020460C
:1013C000FFF708FF00B1A7E0208920B101280FD066
:1013D00002281ED10FE005F0AFF9054621786278AA
:1013E00041EA0220A3890022294606F04CF811E0C8
:1013F000FFF704FF0EE04D48006838B14B48006825
:1014000006F03AF800204949086001E003F090FA3C
:1014100000E000BF00BF7FE02046FFF7DBFE00B129
:101420007AE020894249086076E02046FFF7D2FE44
:1014300000B171E0208906F09FF96DE02046FFF7CA
:10144000C9FE00B168E0E278012A02DB012301E075
:1014500061E000231946A07814F060FC5CE02046AF
:10146000FFF7B8FE00B157E0A07818B9E07804F0B3
:10147000FBFB03E06189E07804F088FB00BF2046B5
:10148000FFF7A8FE00B147E0E178A078012204F060
:1014900013FC41E02046FFF79DFE00B13CE061896E
:1014A000208900220FF0E6F936E02046FFF792FE91
:1014B00000B131E06189208901220FF0DBF92BE0D6
:1014C0002046FFF787FE00B126E0618920890FF0F2
:1014D0003FFF21E02046FFF77DFE00B11CE02279AE
:1014E000E178A07804F0E8FB16E02046FFF772FEF2
:1014F00000B111E02089642803DD20890D490860CE
:1015000008E02178627841EA0220A38900220121C3
:1015100005F0B9FF00E000BF00BF00BF1FE70000FB
:101520002D0000204C060020500600200C0000205A
:1015300024000020A806002070B5044604B970BD40
:101540002046FFF747FE00B1F9E710F095FC05468D
:1015500035B1012009490870A800094908600AE06E
:1015600010F08AFC217841EA0026A3890022114666
:10157000304605F088FF00BFE1E700003C00002096
:101580004000002070B5044604B970BD9248007850
:1015900000B9FAE76078082870D2DFE800F06F043D
:1015A000224C739DD3F12046FFF714FE00B110E1E9
:1015B000012012F081FA20B90121FE200FF0A6FFD0
:1015C00007E1002012F078FA20B90021FE200FF088
:1015D0009DFFFEE0A3896289E178A07803F062FDB7
:1015E000F7E02046FFF7F6FD00B1F2E00025002607
:1015F000A07800F0010018B178488068C0B20543B7
:10160000A07800F0020020B174480068C0B245EA3A
:101610000025A07800F0040018B170484068C0B2FE
:1016200006432178627841EA0220A389324629469E
:1016300005F029FFCDE02046FFF7CCFD00B1C8E062
:10164000A07870B1E07810B1012808D103E060897A
:101650006349086004E060896249086000E000BFF7
:101660000FE0E07810B1012809D103E060895E49FC
:10167000086005E060895D49086001E0A8E000BFFE
:1016800000BFA6E02046FFF7A5FD00B1A1E00020C5
:10169000A17821B1012906D0022909D105E0E1781C
:1016A00001F10C0005E0E07803E0E178881D00E03E
:1016B00000BF00BF618939B1012181404C4A1268E5
:1016C00011434B4A116006E001218140484A1268EB
:1016D0008A4347490A607CE02046FFF77BFD00B162
:1016E00077E000254348007810B1A07800B970E099
:1016F000A078022800DD6CE005F0BEFAA07810B1F9
:10170000A078401E00E00220344951F82000E17822
:1017100001F0070201219140084008B9012000E0D2
:1017200000200546E178A0782A4603F0D9FC022083
:1017300031490870E178A07801EBC00020302F49D2
:10174000087046E02046FFF745FD00B141E06289A0
:10175000E178A07803F06EFC0546A278E67842EACC
:1017600006212278667842EA062062890AB10122BF
:1017700000E0002213462A4605F085FE29E0FFE737
:101780002046FFF727FD00B123E000251948007827
:1017900010B1A07800B91CE0A078022800DD18E0A4
:1017A00005F06AFA608908B1012000E000200546D2
:1017B000E178A0782A4603F093FC01200E490870D6
:1017C000E178A07801EBC00020300C49087000E0FF
:1017D00000BF00BF00BFD8E62D000020540D002040
:1017E000780000207C0000207000002074000020A1
:1017F000800000202E0000206D0000206E000020E0
:1018000038B5044604B938BDD948007800B9FAE7BC
:101810006078072874D006DC73D2DFE800F072131A
:101820004BABD8F5EE0014286CD006DC08286AD043
:10183000092869D00F2864D163E1152874D01B28CA
:10184000F9D186E12046FFF7C5FC00B18CE101200B
:1018500012F032F920B90121FE200FF057FE83E18A
:10186000208902280FD003DC38B101281FD107E0FE
:1018700003280BD0FF281AD115E006F0B7FF17E0B8
:1018800009F0D0FD14E009F0F7FD11E0608905F0E2
:10189000D5F800B10CE060890BF0EEFB0546284658
:1018A00009F054FB04E0608909F050FB00E000BF40
:1018B00000BF59E12046FFF78DFC00B154E160897B
:1018C00005F0BCF800B14FE1A07805284FD2DFE861
:1018D00000F00304052C3A0000BF00BFE078A0B17F
:1018E0006289A078012105F059F8054621786278CF
:1018F00041EA0220A3890022294605F0C4FD12E036
:10190000D1E030E10AE1D8E0FAE0A078012104F06A
:10191000ABFF05462178627841EA0220A3890022C4
:10192000294605F0B0FD23E00AE1608907F0ACF933
:1019300005462178627841EA0220A38900222946DF
:1019400005F0A1FD14E0E07878B16289A07801216A
:1019500005F024F805462178627841EA0220A3893F
:101960000022294605F08FFD00E001E000E000BF05
:1019700000BFF9E02046FFF72DFC00B1F4E0A078AD
:1019800005F05CF800B1EFE0012012F095F820B905
:101990000121FE200FF0BAFDE6E0E07840B1A17829
:1019A000012088407349096808437249086007E0CC
:1019B000A178012088406F49096881436D48016022
:1019C000628911B2A07801220BF0F4FBCCE0204632
:1019D000FFF700FC00B1C7E0E07805F02FF800B198
:1019E000C2E0E0780BF048FB0546A07838B160898A
:1019F00001B2284609F09EFD05E016E004E0618989
:101A0000284609F07FFDAFE02046FFF7E3FB00B179
:101A1000AAE0208920B96089012109F0E7FD03E0EF
:101A20006089012109F01EFE9EE02046FFF7D2FBEF
:101A300000B199E02089092832D2DFE800F00509D9
:101A40000D1115191E232C00608909F03BFF28E0B9
:101A5000608909F03DFF24E0608909F043FD20E042
:101A6000608909F055FE1CE0608909F02FFD18E03F
:101A70006089012109F09EFF13E06189012009F0CE
:101A80004DFE0EE0618909B1012100E00021084608
:101A900003F0EAFD05E06189012009F0BDFE00E0E8
:101AA00000BF00BF60E02046FFF794FB00B15BE0A1
:101AB0006189208909F080FD56E02046FFF78AFB06
:101AC00000B151E0012011F0F7FF20B90121FE2003
:101AD0000FF01CFD48E0E07800F07F000090E57812
:101AE00005F0800515B14FF4007500E0002545F0C4
:101AF0000103A289658929B2A0780BF06BFB33E062
:101B000032E02046FFF766FB00B12DE0A07820B957
:101B10006289E178012009F0DDFD25E02046FFF72C
:101B200059FB00B120E0E07800F00302607908B1D1
:101B3000207900E0FF200146012003F0B5FE13E00C
:101B40002046FFF747FB00B10EE0208903F082FD3D
:101B50000AE02046FFF73EFB00B105E06189012065
:101B600005F0E6FC00E000BF00BF00BF4BE6000050
:101B70002D000020E40000202DE9F04104460CB9BE
:101B8000BDE8F081F748007800B9F9E7A0780528AA
:101B90000ED2DFE800F0030507090B00022508E07C
:101BA000032506E0042504E0052502E0062500E003
:101BB000E6E700BF6078202875D2DFE800F07410F7
:101BC0002C4B8398AAB6C2F2FCEF747474EEED74D9
:101BD0007474EC7474EBEAE9E8E7E674E5E4204633
:101BE000FFF7F8FA00B1D4E1012011F065FF20B948
:101BF0000121FE200FF08AFCCBE1E078294604F0B9
:101C000041FF00B1C5E1A379628911B2E0782A46AB
:101C10000AF094F8BDE12046FFF7DCFA00B1B8E124
:101C2000012011F049FF20B90121FE200FF06EFCC8
:101C3000AFE1608950B1E078294604F023FF00B19C
:101C4000A7E1E07829460AF03DF802E028460AF0CC
:101C500045F89EE12046FFF7BDFA00B199E1002664
:101C6000E078052822D2DFE800F00304051415000F
:101C700000BF00BF607930B12279E078294604F0D6
:101C80008DFE064604E0E078294604F0EDFD0646A8
:101C90000DE000BF607938B12279E078294604F080
:101CA0007DFE064601E073E101E000E000BF00BFF9
:101CB0002178627841EA0220A3890022314605F0AA
:101CC000E2FB66E12046FFF785FA00B161E1FF26FD
:101CD000E178284604F086FF06462178627841EADA
:101CE0000220A3890022314605F0CDFB51E12046B8
:101CF000FFF770FA00B14CE1E078294604F0C2FE2B
:101D000000B146E1628911B2E0782A460AF006F88D
:101D10003FE12046FFF75EFA00B13AE16289E178DF
:101D2000A378981C09F0B0F833E12046FFF752FA87
:101D300000B12EE16189A278921CD0B209F05EFD5B
:101D400027E12046FFF746FA00B122E1A07818B952
:101D50006189E07809F0A8F8A078012804D1E27838
:101D6000911C608909F026FEA078022803D16189C0
:101D7000E07809F0D9F8A078032803D16189E078E8
:101D800009F0A8F805E1F4E0FDE0E5E0DAE0CFE0F5
:101D9000B5E0A7E098E078E08AE067E016E00AE0C6
:101DA000FFE72046FFF716FA00B1F2E061892089CB
:101DB00009F068FDEDE02046FFF70CFA00B1E8E01D
:101DC000A2896189208903F01FFEE2E02046FFF727
:101DD00001FA00B1DDE0A078012806D0022813D076
:101DE000032830D004283ED13CE0012011F064FEED
:101DF00020B90121FE200FF089FB35E0A28961891D
:101E0000E07803F081FD2FE0608900280DDDE078A7
:101E100009F0B8FE06462178627841EA0220A389DB
:101E20000022314605F02FFB0CE0E07809F0B5FE0A
:101E300006462178627841EA0220A38900223146D1
:101E400005F021FB10E0A089002804DD6189E0781D
:101E500006F091FC05E0A27A02F00301E07809F0B7
:101E6000E5FE01E000E000BF00BF92E02046FFF782
:101E7000B1F900B18DE0A078052805DA6289E17832
:101E8000A378981C09F026FC83E02046FFF7A2F90E
:101E900000B17EE0E37803F0030263790BB12379AC
:101EA00000E0FF231946A378981C03F0FDFC70E0C6
:101EB0002046FFF78FF900B16BE0042D03D1618953
:101EC000E07806F049FD64E02046FFF783F900B1B1
:101ED0005FE0032D05D1628911B2E0782A460CF04B
:101EE00017F856E02046FFF775F900B151E0032DD1
:101EF00004D1A2896189E07809F0BEFE49E020465C
:101F0000FFF768F900B144E0032D10D1E07809F043
:101F10006FFE06B2E07809F017FE07B22278637808
:101F200042EA032021893B46324605F0ACFA30E014
:101F30002046FFF74FF900B12BE06189284605F0F4
:101F4000D1FA26E02046FFF745F900B121E061898A
:101F5000284605F0EDFA1CE02046FFF73BF918B1E2
:101F600017E000002D0000206189284609F0D6FB0B
:101F70000FE02046FFF72EF900B10AE061892846FC
:101F800009F056FC05E06189284609F045FC00E0AF
:101F900000BF00BF00BFF3E52DE9F04104460CB9D6
:101FA000BDE8F0815A48007800B9F9E760780B285D
:101FB0007BD2DFE800F0A8061B2D3F4F57678992C0
:101FC0009B002046FFF706F900B19DE004F044FCB9
:101FD000054604F09FFD06462178677841EA072010
:101FE0002B0CAAB2314605F04EFA8DE02046FFF7E1
:101FF000F1F800B188E00FF011FF05462178627812
:1020000041EA0220A3890022294605F03CFA7BE040
:102010002046FFF7DFF800B176E004F0BFFB05468D
:102020002178627841EA0220A3890022294605F03E
:102030002AFA69E02046FFF7CDF800B164E0217884
:10204000627841EA0220A38900223249096805F03A
:102050001AFA59E02046FFF7BDF800B154E009F044
:10206000E5FE51E02046FFF7B5F800B14CE02089CD
:10207000102800DB48E010F0C7FB10F023F90EF049
:10208000AFFB41E02046FFF7A5F800B13CE0A078A7
:1020900001280BD12278657842EA0520A38921899D
:1020A0001D4A128805F0EFF90DE02CE0A078022817
:1020B00009D12278657842EA0520A3892189174A47
:1020C000128805F0E0F91FE02046FFF783F800B121
:1020D0001AE0A07804F0E0FD16E02046FFF77AF859
:1020E00000B111E0A07804F013FD0DE02046FFF7E9
:1020F00071F800B108E02278637842EA0320A17801
:1021000004F058FB00E000BF00BF00BF48E700003C
:102110002D000020900000206C0600206E0600209C
:102120002DE9FC4104460CB9BDE8FC81FE4800786D
:1021300018B960780C2800D0F6E760781F2870D2B4
:10214000DFE800F010162330424B6364969FB2F034
:10215000EFEEEDECEBEAE9E8E7C6D9F1E5E48DE373
:102160007A6570002046FFF735F800B19DE29CE2E9
:102170002046FFF72FF800B197E2208910B110F048
:10218000C7F801E010F09EF88FE22046FFF722F832
:1021900000B18AE2208910B110F078FB01E010F064
:1021A00033FB82E22046FFF715F800B17DE20FF025
:1021B0004DFE05462178627841EA0220A38900227B
:1021C000294605F060F970E22046FFF703F800B1F8
:1021D0006BE22089D549086067E22046FEF7FAFFE6
:1021E00000B162E2218909B1012100E00021084625
:1021F00004F0A8FC05462178627841EA0220A38910
:102200000022294605F03FF94FE24EE24DE220461A
:10221000FEF7E0FF00B148E26189208902F0F0F9A1
:1022200043E241E22046FEF7D5FF00B13DE261897D
:10223000208902F00DFA38E22046FEF7CBFF00B10C
:1022400033E2208901F046FF05462278667842EAAB
:102250000620A38921892A4605F015F925E22046A2
:10226000FEF7B8FF00B120E2208901F019FF1CE25F
:102270002046FEF7AFFF00B117E2208901F0F2FE21
:1022800013E22046FEF7A6FF00B10EE2FF2002F0A7
:10229000C5F805462178627841EA0220A389002228
:1022A000294605F0F0F800E22046FEF793FF00B162
:1022B000FBE120896A4601A902F0A6FA217862783A
:1022C00041EA0220A389DDE9002105F0DCF8ECE118
:1022D0002046FEF77FFF00B1E7E1608918B9208949
:1022E00002F0E4FA06E06089012803D1A18920897F
:1022F00002F032FAD9E12046FEF76CFF00B1D4E1DA
:102300006189208902F0C6FBCFE14AE028E01DE0A8
:1023100009E0BCE1B1E182E174E14FE141E194E027
:1023200081E073E04AE02046FEF754FF00B1BCE1D3
:10233000208902F089FA05462178627841EA022074
:10234000A3890022294605F09EF8AEE12046FEF75B
:1023500041FF00B1A9E16189208902F033FBA4E1CA
:102360002046FEF737FF00B19FE1608920B9208940
:10237000012102F0C1FA13E06089012809D1208906
:10238000FF2802D102F0CEF90AE0208902F086F996
:1023900006E06089022803D1A189208902F040FB70
:1023A00083E12046FEF716FF00B17EE122786378D4
:1023B00042EA0320A17801F09BFE76E12046FEF779
:1023C00009FF00B171E1208930B96089584908607E
:1023D000608900F0D9FC15E02089012806D16089C8
:1023E00053498860608900F0E1FC0BE020890228F5
:1023F00008D160894E4948614E48007810B1608923
:1024000004F09AFF01204C4908704EE12046FEF787
:10241000E1FE00B149E1208908B1012000E000207F
:102420004149087041E12046FEF7D4FE00B13CE18D
:1024300004F0F0F905462178627841EA0220A38988
:102440000022294605F01FF82FE12046FEF7C2FEC4
:1024500000B12AE12078617840EA0120ADF800005F
:10246000A078ADF80600A07830B1012833D002285A
:1024700049D0032857D172E03048006885B240F255
:10248000726085420CDB05EB850044F27401C1EB00
:102490004000372190FBF1F080B2ADF8020002E07D
:1024A0000020ADF802002648006885B240F2726054
:1024B00085420CDB05EB850044F27401C1EB400062
:1024C000372190FBF1F080B2ADF8040002E000206B
:1024D000ADF8040059E01B480068C0EBC00000EBF9
:1024E00040006421B0FBF1F080B2ADF80200164864
:1024F0000068C0EBC00000EB4000B0FBF1F080B220
:10250000ADF8040041E011480068D721484340F28B
:10251000DC51B0FBF1F080B2ADF802000C4800686D
:102520004FF6FF7116E02FE02D0000205C00002028
:10253000281A00202F0000202C00002098050020E1
:102540009C050020A0050020A4050020A80500206F
:10255000AC05002001EA4000ADF8040015E0544845
:10256000006880B2ADF802005248006885B2C5F537
:102570003E7064214843192190FBF1F0C0F1FA004C
:1025800080B2ADF8040000E000BF00BFBDF8063027
:10259000BDF80420BDF80210BDF8000004F073FF80
:1025A00083E02046FEF716FE00B17EE0A07800F042
:1025B0000F004149087004F05FFB76E02046FEF70B
:1025C00009FE00B171E0002519E0002606EB450682
:1025D000012707EB450746EA07232678677846EA8E
:1025E0000720012606EB4506344F57F82620002623
:1025F00006EB450657F8261004F045FF6D1C242D08
:10260000E3DB52E02046FEF7E5FD00B14DE0A078A7
:1026100008B1012000E000202949087045E020466B
:10262000FEF7D8FD00B140E0208940F20122811A76
:10263000904214D006DC60B101280CD0A0F2011049
:1026400098B90AE0B1F5807F0BD0B1F5007F0CD1CD
:1026500009E001250BE0022509E0032507E0042538
:1026600005E0052503E0062501E0002500BF00BFC9
:102670006189284603F01AF817E02046FEF7AAFD04
:1026800000B112E0E178A0780FF078FE0DE020466E
:10269000FEF7A0FD00B108E0E07800F00302FF21A2
:1026A000084603F001F900E000BF00BF00BF3BE5B2
:1026B000B0050020B40500206C0000206C2800202C
:1026C0004800002070B5044604B970BD2848007861
:1026D00000B9FAE76078062845D2DFE800F0440345
:1026E0000C1824432046FEF775FD00B13CE020891C
:1026F0002049086038E02046FEF76CFD00B133E069
:10270000E37862792179A0780BF046FE2CE0204630
:10271000FEF760FD00B127E0E37862792179A078C7
:102720000BF07CFE20E02046FEF754FD00B11BE0DC
:10273000A07810B9E07808F0FFFFA07801280BD14D
:102740000BF09CFE05462178627841EA02200023C6
:102750001A46294604F097FEA078022801D104F019
:10276000C1F901E000E000BF00BF00BFADE700001D
:102770002D0000202800002000B970470249097888
:1027800001B9FAE700BFF8E72D0000202DE9F0417C
:1027900004460CB9BDE8F081F948007800B9F9E7C2
:1027A0006078122870D2DFE800F06F09117796AADE
:1027B000BCCFEFEEEDECEBEAE9E2E8E72046FEF70E
:1027C00009FD00B1EFE104F0FDFCECE12046FEF76D
:1027D00001FD00B1E7E10FF04FFBC7B2012011F09E
:1027E0006BF920B90121FE200EF090FEDBE1002004
:1027F00011F062F920B90021FE200EF087FED2E12F
:10280000E0480068A0B1062F10D2DFE807F0030807
:102810000C04070B00BFA578E67808E000BF257917
:10282000667904E000BFA579E67900E000BF2EE0FC
:10283000072F2AD2DFE807F0040A1029161C22000D
:10284000A07800F00F05A07806091FE0E07800F0FE
:102850000F05E078060919E0207900F00F052079CE
:10286000060913E0607900F00F05607906090DE0B4
:10287000A07900F00F05A079060907E0E07900F0E3
:102880000F05E079060901E08CE100BF00BF314689
:10289000284604F0D3FE86E12046FEF79BFC00B1FB
:1028A00081E1012011F008F920B90121FE200EF08C
:1028B0002DFE78E1002011F0FFF820B90021FE2064
:1028C0000EF024FE6FE16289A38942EA0341208968
:1028D00002F08AFC67E12046FEF77CFC00B162E171
:1028E0002278657842EA0520A389227A02F007025D
:1028F000A54D55F82210002204F0C5FD53E12046F5
:10290000FEF768FC00B14EE104F052FC0546217868
:10291000627841EA0220A3890022294604F0B3FD2F
:1029200041E12046FEF756FC00B13CE1208904F06D
:1029300045FC05462178627841EA0220A3890022FD
:10294000294604F0A0FD2EE12046FEF743FC00B12D
:1029500029E16089217A01F007018C4A42F82100BF
:10296000A189227A02F0070004F066FC1BE12046F0
:10297000FEF730FC48B116E1F7E030E0D9E0ADE019
:102980009DE08FE073E069E05AE00FF075FA0646CB
:102990000027042E22D226B1012E04D0022E06D109
:1029A00003E0278904E0678902E0A78900E015E0D9
:1029B00000BF00250FE0A80047FA00F000F00F006C
:1029C00005F00701714A42F8210005F007000021D7
:1029D00004F032FC6D1C042DEDDB00BFE3E020466B
:1029E000FEF7F8FB00B1DEE00FF046FA06460027DE
:1029F000082E24D2042E22D304D0052E04D0062E75
:102A000006D103E0278904E0678902E0A78900E096
:102A100015E000BF00250FE0A80047FA00F000F025
:102A20000F0005F00701594A42F8210005F00700A0
:102A3000002104F001FC6D1C042DEDDB00BFB2E0B1
:102A40002046FEF7C7FB00B1ADE0208928B911F0A0
:102A500087FD618948434E490860A4E02046FEF79F
:102A6000B9FB00B19FE0208904F022FC9BE02046E6
:102A7000FEF7B0FB00B196E02089401C4549086094
:102A80004048006830B108460068052809D905208B
:102A9000086006E03F4800680A2802D90A203D493C
:102AA000086080E02046FEF795FB00B17BE02089BE
:102AB00008B1012000E000203249086073E02046A0
:102AC000FEF788FB00B16EE02089012802D0208942
:102AD000022802D120893049088064E02046FEF7B0
:102AE00079FB00B15FE0002504F0C6F8A07800F0A3
:102AF0000300254951F82000E17801F00702012187
:102B00009140084008B1012000E000200546A3796B
:102B1000E178A0782A4602F0FFFB02201F490870E6
:102B2000E178A07801EBC00000F007001C490870B4
:102B300039E02046FEF74EFB00B134E0E178A078A2
:102B400002F03AFB0546A278E67842EA06212278AE
:102B5000667842EA062062890AB1012200E000227A
:102B600013462A4604F08FFC1DE02046FEF732FB98
:102B700000B118E02279E178A07804F0A5FB12E01A
:102B80002D00002044000020E40C00203C0B00201D
:102B9000580000204C0000208C0000206D00002018
:102BA0006E00002000BF00BF00BFF3E51FB577E057
:102BB00004F0F6FB044604B973E020788DF80000B9
:102BC000A0788DF80100A088ADF80800E088ADF885
:102BD0000A002089ADF80C00BDF80800C0B28DF8DD
:102BE0000200BDF80800000A8DF80300BDF80A00D5
:102BF000C0B28DF80400BDF80A00000A8DF8050087
:102C0000BDF80C00C0B28DF80600BDF80C00000A3B
:102C10008DF807002448006810B120888038208093
:102C20009DF8000000F07F00102835D2DFE800F0AA
:102C3000080C1014181C2024282C3434343434305C
:102C40006846FFF799FD28E06846FFF769FA24E037
:102C50006846FFF737FD20E06846FEF7D1FD1CE02F
:102C60006846FEF789FF18E06846FEF78BFC14E023
:102C70006846FFF78BFD10E06846FEF76DFB0CE041
:102C80006846FFF789F908E06846FEF755FC04E05E
:102C90006846FEF701FB00E000BF00BFFDF76EFFD6
:102CA00086E700BF1FBD00002800002039B1084A98
:102CB0001268012383401A43054B1A6006E0044A58
:102CC0001268012383409A43014B1A607047000049
:102CD000007400401FB50121480704F03FFF3C206D
:102CE0000090002001904FF40070029002200390A9
:102CF0006946002000F00EF86946102000F00AF83E
:102D000001210020FFF7D2FF01211020FFF7CEFFA5
:102D10001FBD000030B5002200230A4C226840F697
:102D2000FE748440A243D1E900452C438D682C43B6
:102D3000CD6844EA050303FA00F42243014C226003
:102D400030BD00000074004008B500220092054A22
:102D5000009200F10802009B1A440092009A116050
:102D600008BD00000074004008B500220092054A2A
:102D7000009200F11402009B1A440092009A116024
:102D800008BD00000074004070B50446E000C0EBD0
:102D9000003048F2E80190FBF1F5A9B20020FFF7FE
:102DA000D3FF0121002000F013F870BD70B5044678
:102DB000E000C0EB003048F2E80190FBF1F5A9B269
:102DC0000020FFF7D1FF0121102000F001F870BDB5
:102DD00010B541B1084A126804090123A3401A43FF
:102DE000054B1A6007E0044A126804090123A34056
:102DF0009A43014B1A6010BD04740040704770473D
:102E000070477047704770477047704710B510F0B3
:102E10009FFC10BD7047704710B510F0D5FB10BD7A
:102E20000246094B9A4201D2084801E00648103890
:102E300001F000531BB1064B0B40C36002E0044B92
:102E40000B40836070470000106402400060024045
:102E50007D0F7D0F21B1026842F00102026003E0A4
:102E6000026822F00102026070470000016821F050
:102E7000010101600021016041608160C160016168
:102E8000212141614A49884204D13D21484A103AF2
:102E900091608CE046491831884205D14FF4746145
:102EA000434A103A916082E041493031884205D16D
:102EB0004FF474113E4A103A916078E03C49483131
:102EC000884205D14FF07461394A103A91606EE042
:102ED00037496031884204D13649354A103AD160C9
:102EE00065E033497831884204D13349304A103A99
:102EF000D1605CE02E499031884204D12F492C4AA0
:102F0000103AD16053E02A49A831884205D14FF0E8
:102F10003D51274A103AD16049E02949884204D1FD
:102F20003D21274A083A116041E02549183188427D
:102F300005D14FF47461224A083A116037E0204904
:102F40003031884205D14FF474111D4A083A11609E
:102F50002DE01B494831884205D14FF07461184A71
:102F6000083A116023E016496031884204D11149C2
:102F7000134A121F11601AE011497831884204D1B6
:102F80000D490F4A121F116011E00D49903188421E
:102F900004D10A490A4A121F116008E00849A83101
:102FA000884204D14FF03D51054A121F116070470D
:102FB000106002403D000020400F002000003D2036
:102FC0001064024030B503460A46002000240B4D31
:102FD000AB4201D20A4901E00849103902F000551C
:102FE0000DB14C6800E00C68064D2C4004EA020567
:102FF0000DB1012000E0002030BD0000106402404F
:10300000006002407D0F7D0F10B501F080034BB1D1
:1030100022B1436943F08003436103E0436923F035
:103020008003436180290BD02AB1036801F01E049C
:103030002343036004E0036801F01E04A34303601C
:1030400010BD000010B500220268134B1A40CC6876
:103050000B6823434C6923438C692343CC69234386
:103060000C6A23434C6A23438C6A23434C6B2343EF
:103070008C6B23431A430260426922F00702D1E9B4
:103080000B3423431A4342610B6943604B688360EE
:103090008B68C36010BD00003F801CF00021016000
:1030A00041608160C160016141618161C161016212
:1030B00041628162C162016341638163704770470D
:1030C0002DE9F84380460C46208820F0020020803D
:1030D0002088C0F34310062875D2DFE800F0E7032C
:1030E000265575E3208C05F053FBA08AE081208CE7
:1030F0000122002107F092FE208AC0EB0010C000E0
:10310000642190FBF1F00FFA80F9208C00224946EF
:1031100008F0B8FE208C4FF47A710AF027FB208863
:1031200020F4F07040302080C5E0A18AE08900F0F2
:10313000D5F80646002E02DDA08AE08123E0208C2F
:1031400005F0CEFD00B1B6E0E089A081208AC0EB99
:103150000010C000642190FBF1F00FFA80F9208C80
:103160000122494607F05AFE208C0022114608F041
:1031700089FE208C4FF47A710AF0F8FA208820F446
:10318000F0706030208096E0A18AA08900F0A6F857
:103190000646002E02DAA08AA08113E0208C05F0FA
:1031A0009FFD00B187E0208C0122002107F036FE50
:1031B000208C0022052108F065FE208820F4F070A4
:1031C0008030208077E071E0208C05F089FD00B12F
:1031D00071E0208820F4F0702080208C0AF0C4F880
:1031E000E089A189451A002D01DA05F58055A188ED
:1031F00001FB05F0C11700EB1151C1F30F31E18361
:103200000095A389E28941462CA012F025FCA389F0
:10321000E2890121404600F079F80746608AC8B18A
:10322000608AB0F5487F01D0608A07E0208A00EB11
:10323000001000EB8000642190FBF1F0B84209DD42
:103240000DB16D4201E04FF0FF352946404600F0D8
:103250002FFC26E0A078C0F3401038B9A0884FF4C6
:103260007041B1FBF0F0A189451802E06D10A08912
:103270000544C5F30B05E580208820F0010020807F
:10328000608820F00200801C60802946404600F0E3
:103290000FFC208820F4F070A03020804FF4C8701C
:1032A000208308E0208C07F051FE00BF208820F426
:1032B000F070208000BF00BFBDE8F8835B25645D2F
:1032C0002063775B25645D202D206363775B256435
:1032D0005D203D205B25645D0D0A000010B50246AF
:1032E0000B46991A09B9002010BD081E01DB0446DF
:1032F00000E04442B4F5006F06D9002902DA01F576
:10330000805101E0A1F580510846EDE7F0B5044693
:103310000D4604EB4406DFF838C00CEB0616B78800
:103320004FF48051012D02D1D61A314401E09E1A8A
:103330003144B1F5805F01D3A1F5805101FB07F65F
:103340004FEAE67C06EB1C5C4FEA2C30F0BD000037
:10335000982D002070B506460C46E388A28A01210C
:103360003046FFF7D3FF0546A078C0F3401030B9D0
:10337000A0884638A84207DAA0882D1A04E0A08D5C
:10338000A84201DAA0882D1A284670BD2DE9F04721
:1033900082460F4690461C462078C0F3400010B984
:1033A0000020BDE8F087B4F80490E08A01F05CFAF0
:1033B00008B10020F5E7380390FBF9F6E0880644F1
:1033C000C6F30B06002E01DA06F58056A18A3046B8
:1033D000FFF784FF0546281E01DB014600E041425D
:1033E0000D46208908B32089A8421EDA504611F004
:1033F00039FC608B401C6083608B404501DA012002
:10340000CFE7608820F01000103060802078C0F393
:10341000C00028B100220121504600F0DBFB04E08F
:10342000AAB20221504600F0D5FB0020608320881C
:1034300020F008002080208820F0020020802088D2
:1034400020F0100020800020ABE70000034606219A
:1034500006221248018812480288ABB1012B1BD109
:103460003AB94EF6EE60814201D10020704701204A
:10347000FCE739B94EF6EE60824201D10120F5E752
:103480000020F3E7AB20F1E709B90020EEE70AB925
:103490000120EBE7AB20E9E70020E7E700C00008E8
:1034A0000000010810B5082401201049086002211D
:1034B000182002F031FC0446082C01D0204610BD33
:1034C00002200A4908600021094802F0F3FC044682
:1034D000082C01D02046F2E70120044908600221AF
:1034E000202002F019FC04462046E8E7B40800203A
:1034F00000C000082DE9F05F4FF0060B06260025FE
:10350000A846A9464FF0FF3A002705E0781D8449F8
:1035100021F81700781C87B2642FF7DB8148B0F8D8
:1035200000B0814806880120804908605FEA0B00EE
:1035300072D0A0F56E40EE3848B3A0F5885011382F
:1035400000286AD116B34EF6EE60864217D10120EC
:1035500008600221182002F0DFFB0446082C02D08C
:103560002046BDE8F09F02207049086000216E48A7
:1035700002F0A0FC0446082C08D02046F1E7FFF733
:1035800091FF0446082C01D02046EAE7C2E0002E55
:1035900044D1002526E06348C088614931F8151000
:1035A000884201D10FFA85FA554519D05C4931F8A6
:1035B00015005F4900F044F98146B9F1010F0FD0C1
:1035C00002205A490860564931F8150058490988BF
:1035D00000F070F98046B8F1080F01D04046C0E70E
:1035E000681C85B2642DD6DB02205049086000219A
:1035F0004C4802F05FFC0446082C01D02046B0E79E
:1036000001204A4908600221202002F085FB04467F
:10361000082C26D02046A4E724E073E04FF6FF7084
:10362000864217D10120414908600221202002F082
:1036300073FB0446082C01D0204692E702203B4948
:1036400008600021374802F035FC0446082C08D0F9
:10365000204686E7FFF726FF0446082C01D02046C7
:103660007FE757E036B9FFF71DFF0446082C48D026
:10367000204676E74FF6FF70864242D0002526E0CE
:103680002948C088264931F81510884201D10FFA1F
:1036900085FA554519D0224931F81500244900F022
:1036A000CFF88146B9F1010F0FD002201F49086001
:1036B0001B4931F815001E49098800F0FBF88046C7
:1036C000B8F1080F01D040464BE7681C85B2642D65
:1036D000D6DB0220154908600021134802F0EAFBFE
:1036E0000446082C01D020463BE701200F49086022
:1036F0000221182002F010FB0446082C01D02046BD
:103700002FE707E0FFF7CEFE0446082C01D0204645
:1037100027E700BF00BF002004490860082020E719
:103720007C2C002000C0000800000108B408002024
:10373000E80600202DE9FC5F80468A4608253A48C5
:1037400001903A4800904FF00009002400264FF005
:10375000000B0020FFF77AFE8146B9F1010F05D179
:10376000334801903148009020270BE0B9F1000F59
:1037700005D12E4801902E480090182702E0AB207A
:10378000BDE8FC9F02202B4908604EF6EE610198CF
:1037900002F090FB0546082D01D02846F0E751467F
:1037A000404600F087F80646082E01D03046E7E78D
:1037B00000241CE0204830F81400404515D01E4974
:1037C00031F814001D4900F03BF88346BBF1010FAE
:1037D0000BD0194931F814001849098800F06AF82B
:1037E0000646082E01D03046CAE7601C84B2642C1D
:1037F000E0DB01200F4908600221384602F08CFA14
:103800000546082D01D02846BAE70220094908607C
:103810000021019802F04EFB0546082D01D02846F4
:10382000AEE72846ACE70000FF03010800000108EE
:1038300000C00008B40800207C2C0020E80600200E
:103840002DE9F04706460F46002545F255584FF042
:103850000109154CA2460020FFF7F8FD0546AB2DE7
:1038600001D1BDE8F0871DB910490F4A521E06E08C
:10387000012D02D10C490E4A01E0AB20F1E78A4646
:10388000541E0AE0B4F80080B04505D134F8020CAB
:1038900038804FF0080904E0241F0AF10200844236
:1038A000F0D800BF4846DCE70000010800C000086F
:1038B000FFFF01082DE9F047064688460827002546
:1038C0001D4CDFF878900120FFF7C0FD0546AB2DB9
:1038D00001D1BDE8F0871DB91949174A521E06E00B
:1038E000012D02D11449174A01E0AB20F1E70C4643
:1038F000A2F1010919E02068401CA8B90220124970
:1039000008604146204602F0D5FA0746082F01D04C
:103910003846DEE702200C4908603146A01C02F060
:10392000C9FA07463846D4E7241D4C45E3D30020A6
:10393000054908608020CCE700000108FF07010866
:1039400000C00008FFFF0108B40800202DE9F04185
:1039500005460F461646012080F3108800BFA819BF
:10396000642802DDAF20BDE8F08102F0DBFA00241C
:103970000DE037F814102A190A4B33F8120000F042
:1039800013F8082802D04FF0FF30ECE7641CB44273
:10399000EFDB02F037FA002080F3108800BF00BF91
:1039A000E1E700007C2C002070B505460E4600249F
:1039B00031462846FFF77EFF0446802C04D131466D
:1039C0002846FFF7B7FE0446204670BD0021144A82
:1039D00011601521134A1160134A11600021134A26
:1039E0001160134A1160134A1160002004E00021A5
:1039F000114A42F82010401C1428F8DB002004E093
:103A000000210E4A42F82010401C0328F8DB002158
:103A10000B4A11604FF6FF71084A91607047000031
:103A2000800000207000002074000020780000203A
:103A30007C00002064000020040D0020540D0020B4
:103A40006800002010B5002429E00120A04015499D
:103A50000968084000B121E0134850F8240000B97B
:103A60001CE0114850F82400401E0F4941F8240082
:103A7000084650F8240080B90C2C03D220460DF0E3
:103A8000E1FE03E0A4F10C000FF0B8FB0120A04020
:103A90000649096881430548016000BF641C142C75
:103AA000D3D310BD80000020040D0020680000204A
:103AB00070B504460D462A46214605A011F0CCFFFC
:103AC00000232246294641F2015003F0DCFC70BD80
:103AD0000D0A5B25645D452D6175746F5A65726FC3
:103AE000207265745B25645D0D0A00002DE9F843C2
:103AF00007460C4600BFA07800F0010000B962E064
:103B000004F116026946384604F05AFA0646D6B958
:103B1000BDF80000A082606A08B100206062608881
:103B200020F008000830608010F032F8284941F891
:103B30002700A078C0F3800020B1A08A40F6FF7172
:103B4000081AA0823FE0A078C0F3C00020B110F0B6
:103B50001FF86062002505E04FF47A71384600F0E6
:103B600025FA0546608820F00800608041F288311F
:103B7000384600F04BFA20B12088C0F3402000B94D
:103B800021E0384604F010FA47F23051884200DD57
:103B900000BFBDB1642020830FF0FAFF6062A078FF
:103BA000C0F3001068B9608820F010001030608009
:103BB000E08A00F059FE804642460021384600F077
:103BC00009F800E000BF00BF3046BDE8F883000000
:103BD000182F00202DE9F04107460C461646002517
:103BE000E2200A49086025460CB945EA0625022C60
:103BF00003D1304665F31F3005460449096841EAA0
:103C0000072029460DF082FCBDE8F0815008002015
:103C100010B511F037F910BD10B511F033F910BD22
:103C200010B511F02FF910BD10B511F02BF910BD22
:103C300010B511F027F910BD704710B511F022F939
:103C400010BD10B5002400F005F804460CB1FDF7D6
:103C5000A3FA10BD002070470149086070470000BA
:103C6000143C01400EB50121880303F097FF0F219A
:103C7000042004F0D7FA0C21042004F0D3FA0B211D
:103C8000052004F0CFFA0821052004F0CBFA88487B
:103C9000007818B90721042004F0C4FA0321022097
:103CA00004F0C0FA0221084604F0BCFA0121062003
:103CB00004F0B8FA0021062004F0B4FA4FF40040F2
:103CC000009000208DF804000C208DF805000120E4
:103CD0008DF80600684600F01DF94FF4004000F032
:103CE000E9F84FF48050009000208DF804000C207B
:103CF0008DF8050001208DF80600684600F00AF9ED
:103D00004FF4805000F0D6F84FF40060009000208F
:103D10008DF804000C208DF8050001208DF80600B8
:103D2000684600F0F7F84FF4006000F0C3F84FF475
:103D30008070009000208DF804000C208DF80500A4
:103D400001208DF80600684600F0E4F84FF480701A
:103D500000F0B0F85648007880B98020009000202C
:103D60008DF804000C208DF8050001208DF8060068
:103D7000684600F0CFF8802000F09CF80820009002
:103D800000208DF804000C208DF8050001208DF82E
:103D90000600684600F0BEF8082000F08BF804200A
:103DA000009000208DF804000C208DF80500012003
:103DB0008DF80600684600F0ADF8042000F07AF8AF
:103DC0000220009000208DF804000C208DF80500E2
:103DD00001208DF80600684600F09CF8022000F0F3
:103DE00069F80120009000208DF804000C208DF867
:103DF000050001208DF80600684600F08BF80120D0
:103E000000F058F806208DF8080000208DF8090011
:103E100001208DF80A008DF80B0002A803F0BEFB0C
:103E200007208DF8080000208DF8090001208DF88A
:103E30000A008DF80B0002A803F0B0FB08208DF8F3
:103E4000080000208DF8090001208DF80A008DF887
:103E50000B0002A803F0A2FB09208DF80800002047
:103E60008DF8090001208DF80A008DF80B0002A8DA
:103E700003F094FB17208DF8080000208DF809004E
:103E800001208DF80A008DF80B0002A803F086FBD4
:103E900028208DF8080000208DF8090001208DF8F9
:103EA0000A008DF80B0002A803F078FB0EBD00009D
:103EB0002E000020054909688143044A1160111D44
:103EC00009688143121D116070470000003C0140E9
:103ED00010B504462046FFF7BFFE034800682043A4
:103EE0000149086010BD0000003C0140014600206F
:103EF0000022074B1B6803EA0102054B14331B68C1
:103F00000B4013B10AB1012000E00020704700000F
:103F1000003C0140002123498279002A3AD00A4618
:103F2000126803689A430B461A600A1D12680368F8
:103F30009A430B1D1A60027911440A6803681A43F8
:103F40000A60184A0832126803689A43154B08330E
:103F50001A601A1D126803689A43124B0C331A60D8
:103F60004279102A0ED11A1F126803681A430D4BAA
:103F700008331A601A1D126803681A43094B0C3380
:103F80001A600DE00749427911440A6803681A4330
:103F90000A6005E0027911440A6803689A430A60DE
:103FA00070470000003C0140704700002DE9F041DF
:103FB00005460E4612480078854202DB0020BDE827
:103FC000F08105EB45000F4901EB00170FF0E0FD14
:103FD00004460D4850F82500241A201E01DB014636
:103FE00000E041420C46B4F1004F01D3C4F1FF346C
:103FF000B6EB940F01D20120E1E70020DFE70000DB
:1040000054080020982D0020182F00202DE9F041A1
:1040100005460E4611480078854202DB0020BDE8C7
:10402000F08105EB45000E4901EB00170FF0B0FDE4
:104030000446B86A241A201E01DB014600E0414212
:104040000C46B4F1004F01D3C4F1FF34B6EB940F2A
:1040500001D20120E3E70020E1E70000540800203E
:10406000982D002010B5014609B1012200E0002280
:10407000114600200EE000EB4002084B03EB021259
:10408000528861F3000200EB4003044C04EB03137D
:104090005A80401C0828EEDB10BD0000982D00203F
:1040A00010B5014600200FE041FA00F200EB40039A
:1040B000074C04EB03135B8862F3000300EB400240
:1040C00004EB02125380401C0828EDDB10BD0000F9
:1040D000982D002010B501460020082905DA01EBD3
:1040E0004103024C04EB0312D08B10BD982D00202D
:1040F0002DE9F04781460D464FF00008FF2D14D101
:1041000000240FE004EB4400144901EB0016F08A90
:1041100000F0AAFB074604EB440007FA00F040EA6F
:104120000808641C082CEDDB0CE0082D07DA05EB11
:1041300045000A4901EB0016B6F8168002E001209E
:10414000BDE8F0874FF6FF7000EA18431FFA88F2C7
:104150002946484603F097F90020F1E7982D002002
:104160002DE9F041064640490E70082E05DD082075
:10417000087031463DA011F06FFC002566E0062D69
:1041800003DBA81D00F0FF0801E005F0FF08C8EB05
:10419000C80000EB80003B4901EB80077820C05B42
:1041A000C0F30420A84207D07820C05BC0F30421EC
:1041B0002A4635A011F050FC05EB45003B4901EBC8
:1041C0000014A4F8208000202080608097F88400EC
:1041D000C0F3C001284600F0F5FBB8F1030F04DD81
:1041E000608820F0200020306080608820F040004F
:1041F00040306080608820F008000830608060886F
:1042000020F0010060800220E0800020A0834FF4B5
:104210004870A080002060833220208319202081F4
:10422000052060814FF4397020824FF4487060821D
:10423000208AE08300206062208820F400702080C3
:104240000020A0624FF4C870A0856D1C082D96DB7D
:1042500000221146104603F0B3FEFF2000F0DEF806
:104260000020BDE8F081000054080020452D4E7567
:104270006D20746F6F206C617267655B25645D0DE6
:104280000A00000080120020537465706E6F5F6535
:104290006E6964785B25645D213D456E636F64657E
:1042A0005F6964785B25645D0D0A0000982D00202D
:1042B0002DE9F04100BF51480078401C4F4908707B
:1042C0000878C11700EB5171C910A0EBC1014B4A2E
:1042D00011701046007800EB4000494901EB0014D2
:1042E000A07800F0010000B985E0208C04F0F8FC13
:1042F00005469DB9208B18B1208B401E20837AE0A3
:104300000A2020832088C0F3402088B10FF040FCB1
:10431000A062208820F40070208009E0208820F42A
:10432000007000F500702080A06A08B10020A06233
:10433000214632480078FFF7D9FB0646002E00DA06
:1043400059E02088C0F3431028B121462B4800785B
:10435000FEF7B6FE4FE0207800F0010078B120882B
:1043600020F001002080608820F00200801C608026
:10437000A08AE080208C0022114606F04FFD1DB976
:10438000A078C0F3400058B94DB1A078C0F3400008
:1043900028B90022042119480078FFF71BFC2AE005
:1043A0002078C0F38000B0B1214614480078FEF7B1
:1043B000D1FF07B2208C0122394606F02FFDA38AD7
:1043C0003A460E4801780FA011F046FB208820F0F5
:1043D000040020800EE0A078C0F3001050B9208CBB
:1043E00004F052FC804623461422414603480078DC
:1043F000FEF7CCFF00BF00BFBDE8F08155080020EC
:10440000982D00205B25645D452D65506F735B25FD
:10441000645D5B25645D0D0A00000000F8B505468B
:104420000027082D23DA05EB4500284901EB00148D
:1044300021462846FFF75AFB0646E08A0090A38AE9
:104440002A46314622A011F007FB06F1640038B17C
:10445000608820F0080008306080E08A471033E070
:10446000608820F0080060804FF6FF772CE0FF2D79
:104470002AD1002520E005EB4500144901EB00148A
:1044800021462846FFF732FB0646E08A0090A38AC1
:104490002A4631460EA011F0DFFA46B90120A840A5
:1044A0000743608820F008000830608003E06088DF
:1044B00020F0080060806D1C104800788542DADB2F
:1044C00039460FA011F0C8FA3846F8BD982D0020E3
:1044D0005353495F526561643D202564202E2E2E82
:1044E0002564205B636F6465723A25642073746190
:1044F000743A307825785D0D0A00000054080020D9
:10450000452D73746174757320307825780D0A0019
:104510002DE9F04705460E46DFF860901848007810
:10452000854200DA1EB94FF0FF30BDE8F08705EB99
:104530004500144901EB0014A07800F0010008B90F
:104540000020F2E7608820F01000608021462846B5
:10455000FFF7CCFA0746002F01DA3846E5E7214697
:104560002846FEF7F7FE8046C6F80080208820F037
:104570000800083020800120D7E70000FFFF0F006F
:1045800054080020982D00202DE9F05F05460E46C6
:1045900093464FF0000A00BF17480078854200DBC1
:1045A00026E005EB4500154901EB0014208820B1F9
:1045B0002078C0F3001000B91AE0B6F90080214657
:1045C0002846FEF7C7FE07B2A8EB0700002801DB6C
:1045D000014600E041420FFA81F92078C0F3001053
:1045E00010B92089484502DD37804FF0010A00BF2D
:1045F00000BF5046BDE8F09F54080020982D0020D1
:1046000030B502460024C82901DD002030BD082A4B
:1046100005DA02EB4200034D05EB001399830120FC
:10462000F4E70000982D002030B502460024B1F5D3
:10463000487F01DD002030BD082A05DA02EB420088
:10464000024D05EB001399850120F4E7982D002019
:1046500030B502460024B1F5487F01DC002901DABB
:10466000002030BD082A05DA02EB4200024D05EBBE
:10467000001359820120F4E7982D002001460829F3
:1046800001DB0020704701EB4100034A02EB001000
:10469000807800F00100F5E7982D002070B5054600
:1046A000082D02DB4FF0FF3070BD05EB45001649C9
:1046B00001EB0014A078C0F3400010B94FF0FF30B8
:1046C000F2E7608820F0100060802078C0F30010CE
:1046D00010B14FF0FF30E7E700202080208820F065
:1046E000100010302080208C04F0CEFA0646208C7A
:1046F0000122314607F0C6FB3246294603A011F0DD
:10470000ABF90020D0E70000982D00205B25645D08
:10471000452D61646A5B6D706F732025645D0D0AC1
:104720000000000010B500240CE004EB4400084930
:1047300001EB00108078C0F3001010B12046FFF7A5
:10474000ADFF641C034800788442EEDB10BD00001E
:10475000982D00205408002070B506460D46082EFE
:1047600000DB70BD06EB4600134901EB00143C2D45
:1047700000DCA588A0883C38A84202DCA0883C3830
:1047800085B22582608820F002006080608820F079
:104790001000608000202080208820F4F0702030FD
:1047A000208019202083002060832A46314603A000
:1047B00011F052F900BFD4E7982D00205B25645D0D
:1047C000452D6175746F5A65726F206D61787374D1
:1047D00065705B25645D0D0A00000000082800DBA1
:1047E000704700EB4001074A02EB0111498821F0B4
:1047F000020100EB4002034B03EB0212518000BFA9
:10480000EEE70000982D00202DE9F04105460F4607
:104810001646082D03DB4FF0FF30BDE8F08105EBB5
:104820004500084901EB001421462846FFF75EF9D0
:1048300080460FB1A08A38600EB1E08A30604046F1
:10484000EBE70000982D00200146082902DB4FF01D
:10485000FF30704701EB4100024A02EB0010C088B4
:10486000F7E70000982D0020014601F03F003F28A7
:1048700002D001F03F0008B90120704701F0180094
:1048800008B10220F9E701F00600062801D1032053
:10489000F3E701F0010008B10420EEE701F0200089
:1048A00008B90520E9E70020E7E7000001460829EC
:1048B00002DB4FF0FF30704701EB41000D4A02EB85
:1048C0000010008820F00100401C01EB4102094B60
:1048D00003EB0212108001EB41001A4602EB0010BC
:1048E000408820F0020001EB410203EB02125080ED
:1048F0000020E0E7982D002010B50246082A02DBD0
:104900004FF0FF3010BD09B1012000E0002002EBA4
:104910004203064C04EB03131B8860F3820302EB93
:10492000420004EB001003800020EBE7982D0020EC
:1049300010B50448006802F09FFDEF2001490860AF
:1049400010BD00005008002010B50246082A02DB06
:104950004FF0FF3010BDA9B102EB4200184B03EB42
:104960000010008820F00200801C02EB4203144C6F
:1049700004EB03131880192002EB420304EB03132A
:10498000188313E002EB42000D4B03EB001000888C
:1049900020F0020002EB4203094C04EB03131880E1
:1049A000002002EB420304EB03131883002002EB08
:1049B0004203034C04EB0313588300BFCAE7000013
:1049C000982D002010B50246082A02DB4FF0FF3078
:1049D00010BD09B1012000E0002002EB4203064CAB
:1049E00004EB03135B8860F3820302EB420004EBE9
:1049F000001043800020EBE7982D00200246082A93
:104A000000DA11B94FF0FF30704702EB4200034B60
:104A100003EB001081800020F6E70000982D0020B5
:104A200070B504460D46082C02DB4FF0FF3070BD18
:104A3000022D00DA0225B5F5806F01D94FF48065AB
:104A400004EB44000D4901EB0010058104EB440127
:104A50000A4A02EB0111898801FB05F0C11700EB3E
:104A600011510E1304EB440102EB01114E812A4651
:104A7000214603A010F0F0FF0020D8E7982D002079
:104A80005B25645D452D73657454685B25645D0D1D
:104A90000A00000070B506460D46082E02DAB5F58C
:104AA000805F02D34FF0FF3070BD06EB4600104927
:104AB00001EB001400202080608820F0100060804E
:104AC000608820F00200801C6080E088A84207D047
:104AD000E580208820F00400001D20803220208303
:104AE0002A46314603A010F0B7FF0020DCE70000A3
:104AF000982D00205B25645D452D5A65726F5B25FE
:104B0000645D0D0A0000000070B500263048007892
:104B100000B970BD2F480078002857D1322011F01D
:104B200029FA2B480078401E294908700846007869
:104B300028B90FF0E1FA00202549087046E0264820
:104B4000007820281DDA24480078C010234951F845
:104B500020102148007800F0070201209040014019
:104B600009B1012000E0002006461B4A127802F03D
:104B70000701194A1278D0100023324600F0CCFB0E
:104B800024E015480078382820DA0024002512484F
:104B900000782038C4101048007800F007050CB1E8
:104BA000601E00E002200E4951F8200005F00702C7
:104BB00001219140084008B9012000E0002006468C
:104BC00032462946204600F08BFA00BF00BFA0E71E
:104BD0006D000020CD0500206E000020E40C0020B8
:104BE000540D002070B50024AF48007800B970BDA6
:104BF000AD48007800F00100002867D00024AB48E1
:104C0000006820B1012825D002285CD139E0A848ED
:104C10000068C008A74951F82000A549097801F0AB
:104C2000070201219140084008B1012000E0002066
:104C300004469F4A127802F007019D4A1268D00884
:104C40000023224600F068FB98480068401C974902
:104C5000086039E09848007820B99848006800F06A
:104C6000030000B130E092480068401C90490860A1
:104C70008E480068401C8D490860322011F07AF996
:104C800022E08B480068202819D38D48007840B96D
:104C900001208B490870002085490860834908601D
:104CA00010E08148007820F001007F490870002062
:104CB0007F4908607D4908608149087002E0002052
:104CC0007A49086000E000BF00BFDAE0764800786B
:104CD00000F0020000285AD07A48007830B17248BB
:104CE000007820F0080070490870CAE06F4800683A
:104CF00020B101281DD0022846D131E072488068D9
:104D00006B49097801F00701C84000F001040CB9B3
:104D1000012000E0002002466548007800F007010D
:104D2000002000F0DDF961480068401C5F49086020
:104D30002BE06148007820B96048006800F003006B
:104D400000B122E05A480068401C594908605748A1
:104D50000068401C55490860322011F00BF914E03E
:104D60005348006810280BD34F48007820F0020009
:104D70004D49087000204E4908604C49086002E027
:104D800000204A49086000E000BF00BF79E04648C3
:104D9000007800F00400002866D04448006820B184
:104DA000012833D002285CD147E041480068062141
:104DB000B0FBF1F000F00100434951F820003C49FC
:104DC00009680622B1FBF2F302FB1311C84000F0A0
:104DD0000104374800680621B0FBF1F201FB12051F
:104DE00033480068B0FBF1F000F00100461C0CB93C
:104DF000012000E0002002462946304600F070F90C
:104E00002A480068401C294908602BE02A4800789D
:104E100020B92A48006800F0030000B122E02448CD
:104E20000068401C2249086020480068401C1F4957
:104E30000860322011F09EF814E01D480068182820
:104E40000BD31948007820F004001749087000209F
:104E5000174908601549086002E0002013490860FE
:104E600000E000BF00BF0CE00F48007800F0080031
:104E700030B10D48007820F008000B49087000E0C0
:104E800000BF0948007868B900231A46194640F661
:104E9000017002F0F8FA0020054908600349086033
:104EA0000749087000BFA2E66C000020B400002093
:104EB000B0000020E40C0020CD0500209C0600205E
:104EC000B80000202E000020540D00202DE9F047EE
:104ED000044689469246984696204D490860142C0F
:104EE00001D3BDE8F0870C2C3DD226460620B4FB4A
:104EF000F0F5B4FBF0F100FB1141012000FA01F7DD
:104F0000B9F1000F0CD0434850F82500384341490F
:104F100041F8250040480068404941F824000BE072
:104F20003C4850F82500B8433A4941F825003C4830
:104F300000683A4941F824004FEA680020B14FEA7E
:104F40006800364941F82400BAF1000F03D00A2066
:104F5000324941F8240000200FF0D0F9494630468C
:104F60000CF0C6FC4AE0A4F10C060225012000FA70
:104F700006F72C48007820B1494630460EF09EF9DD
:104F8000AFE7B9F1000F13D0224850F8250038439D
:104F9000204941F8250020480068204941F82400B4
:104FA00021480068B8B12048006841F8240012E0A8
:104FB000184850F82500B843164941F8250018480C
:104FC0000068164941F824001848006818B11748CD
:104FD000006841F824004FEA680020B14FEA6800F9
:104FE0000E4941F82400BAF1000F03D00F200B49FD
:104FF00041F82400494630460EF060F90120A040F7
:105000000B49096808430A49086000BF69E70000C6
:1050100064000020540D002070000020040D0020CA
:10502000740000202E000020780000207C0000206A
:105030006800002010B504460B4624B1012C0BD0AB
:10504000022C1FD113E00AB1012000E0002003EB85
:10505000C00000F1200118E00AB1012000E00020AA
:1050600000EB400003EB800000F130010DE00AB1DD
:10507000012000E0002000EB400003EB800000F185
:10508000360102E04FF0FF3100BF00BF482903D2D4
:10509000034850F8210010BD4FF6FF70FBE70000F9
:1050A0006C2800202DE9F04106460C46174698462C
:1050B00026B1012E05D0022E07D104E004F10C0523
:1050C00005E0254603E0A51D01E0BDE8F08100BF35
:1050D0004346002239462846FFF7F8FE00BFF4E7B2
:1050E0002DE9F04106460C46174626B1012E0BD09D
:1050F000022E19D110E004F10C051148007840F09F
:1051000002000F49087011E025460D48007840F074
:1051100004000B49087009E0A51D0948007840F01B
:1051200004000749087001E0BDE8F08100BF0023DA
:10513000012239462846FFF7C9FE00BFF4E7000008
:105140001D0600207FB504460020009001900290CB
:105150000390E1B2154800681030814223D1144811
:10516000007800B3C4F30725082D00DB7FBD6A106B
:105170000521104607F088FFC0EBC00101EB81015B
:105180000C4A02EB8101496C009108490968103111
:1051900045EA01210191002340F60420DDE90012D7
:1051A00002F071F900BF00BFE0E700001006002028
:1051B0002E000020801200200246082A02D34FF65B
:1051C000FF707047082902D34FF6FF70F9E701EB33
:1051D000C203482B03D2034850F82300F1E74FF6EF
:1051E000FF70EEE76C2800202DE9F04704460E46DC
:1051F00042480768C6F3074906F0FF08082C01D3A8
:10520000BDE8F08732203E490860002571E049FA88
:1052100005F000F00100002868D10120A84000EA54
:10522000080088B3374850F824000121A9400840FD
:1052300000285CD101231A46294620460CF07AFF4B
:1052400008BB304850F824000121A94008432D49EB
:1052500041F824002C48006804EB84012B4A02EB3F
:10526000C10141F82500002004EB8401284A02EB2B
:1052700041014855274850F824000121A94008431E
:10528000244941F8240033E0FFE71E4850F8241079
:105290000120A840014051B30123002229462046A5
:1052A0000CF048FF08BB174850F824000121A94022
:1052B0008843144941F824001348006804EB840132
:1052C000124A02EBC10141F82500002004EB8401E1
:1052D0000F4A02EB410148550E4850F824100120B6
:1052E000A84001430B4840F8241001E000E000BF53
:1052F0006D1CBD428BD300BF82E700004C00002034
:1053000060000020E40C002058000020B00D0020B8
:10531000600D0020F00E00202DE9F04104460D46FE
:1053200017461E463048D0F800800FB1002100E03B
:105330000321012088402D49097808432B49087032
:10534000082C01D3BDE8F081082D00D3FAE7322004
:10535000274908607FB100230122294620460CF02E
:10536000E9FE244850F824000121A94008432149BE
:1053700041F824000EE000231A46294620460CF08E
:10538000D9FE1C4850F824000121A940884319493E
:1053900041F824004EB1142E07D204EB84001649C4
:1053A00001EBC00040F8256007E00A2004EB84010F
:1053B000114A02EBC10141F82500012004EB8401F0
:1053C0000E4A02EB410148550D4850F824000121D6
:1053D000A94008430A4941F824000020094901EB8B
:1053E000C401485500BFADE74C0000201D06002059
:1053F00060000020E40C0020B00D0020600D0020B3
:10540000F00E0020D029002070B506460E48007826
:10541000C0B1002412E0C4EBC40000EB80000B49D3
:1054200001EB8005A86FC0F34330052800D003E0EE
:10543000204605F08BFD00BF601C84B20448007854
:105440008442E8DB70BD00002E00002080120020A6
:10545000D400002070B50446E1B20C48006810305A
:10546000814210D10A48007868B1C4F30725082D9D
:1054700000DB70BD6810052107F006FE06463046C9
:1054800005F064FD00BF00BFF3E700001006002038
:105490002E0000202DE9F04106460F46F1B2544897
:1054A00000681030814273D15248007800286FD0D4
:1054B000B8B251498860002593E00521284607F0DD
:1054C000E3FD84B24C4880686900C84000F00300E6
:1054D00030B1012820D002283AD0032869D158E001
:1054E00005214FF4C87010F0DFFB00B2C4EBC4011B
:1054F00001EB8101414A22F8210005214FF4C870D7
:1055000010F0D2FB00B2C4EBC40101EB81013B4AB5
:1055100002EB810148804CE005213948006810F019
:10552000C3FB00B2C4EBC40101EB8101334A22F892
:10553000210005213248006810F0B6FB00B2C4EB30
:10554000C40101EB81012D4A02EB8101488030E06A
:105550002B490968C1F54870052110F0A5FB00B280
:10556000C4EBC40101EB8101244A22F82100244943
:105570000968C1F54870052110F096FB00B2C4EB34
:10558000C40101EB81011D4A02EB8101488010E05A
:105590002BE00020C4EBC40101EB8101174A22F883
:1055A0002100C4EBC40101EB810102EB81014880C1
:1055B00000BF00BFC4EBC40000EB80000F4901EB4B
:1055C0008000D0F8840020F00100401CC4EBC4012E
:1055D00001EB8101094A02EB8101C1F88400681CDA
:1055E00085B2042DFFF669AF00BFBDE8F081000071
:1055F000100600202E000020540D002080120020F4
:10560000E800002070B504460D46E1B20E4800687F
:105610001030814215D10D48007890B1C4F30726AF
:10562000082E00DB70BD72100521104607F02CFD1E
:10563000C0EBC00101EB8101054A02EB81014D6421
:1056400000BF00BFEEE70000100600202E00002083
:105650008012002008B9002100E00146014A1160D3
:1056600070470000DC00002030B502460023002116
:1056700012E0C1EBC10404EB84040A4D05EB840085
:10568000846FC4F34334012C00D004E0846F62F3D0
:105690005D74846700BF491C034C2478A142E8DB99
:1056A00030BD000080120020D400002070B50446F8
:1056B0000D462946204600F005F82946204600F010
:1056C0000FF870BD002806DD072804DA421E034BE0
:1056D00043F8221000E0704700BFFCE7281A0020C2
:1056E00070B504460D466D480078092870D2DFE891
:1056F00000F0052540638283AB848500072C1BD214
:10570000DFE804F00405090D1112190070BD2846E8
:10571000FDF73AFB10E0284602F0DEFB0CE02846DD
:10572000FDF744FB08E0F1E75D48007810B128463A
:105730000BF07AF800E0E9E700BFACE0062C16D2E7
:10574000DFE804F0030408090D0EDFE72846FDF743
:105750001BFB0CE0DAE72846FDF728FB07E0D5E75E
:105760004F48007810B128460BF05EF800BF00BF2C
:1057700091E0072C1ED2DFE804F00405090D0E0F9E
:105780001600C3E72846FDF7FFFA13E02846FDF7A9
:105790000DFB0FE0BAE7B9E74148007810B12846A1
:1057A0000BF042F806E03F48007810B1284601F0BF
:1057B000C3FD00BF00BF6EE0062C1AD2DFE804F084
:1057C000030409101112A1E72846FDF7DDFA10E0E5
:1057D00060E028460BF058FF2846FDF7E7FA08E09E
:1057E00094E793E72E48007810B128460BF01CF898
:1057F00000BF00BF4FE000BF00BF00BF072C21D299
:10580000DFE804F00405090D111219007EE72846AF
:10581000FDF7BAFA16E0284602F05EFB12E02846D1
:10582000FDF7C4FA0EE071E71D48007810B1284674
:105830000AF0FAFF06E01B48007810B1284601F094
:105840007BFD00BF00BF26E0072C21D2DFE804F07B
:105850000405090D14181F0058E72846FDF794FAAF
:1058600016E0284602F038FB12E00E48007810B12E
:10587000284601F061FD0BE02846FDF797FA07E0A6
:105880000748007810B128460AF0CEFF00E000BFBC
:1058900000BF00E000BF00BF00BF37E7D500002019
:1058A0002E0000202F000020F0B5034614460025EE
:1058B00000221FE0C2EBC20606EB8606104F07EB84
:1058C0008600FF2B05D0866FC6F343369E4200D07C
:1058D0000FE0FF2904D07526365C8E4200D008E028
:1058E000866FC6F343361EB1866F64F3C4068667BF
:1058F00000BF521C034E3678B242DBDBF0BD000025
:1059000080120020D40000202DE9F74F82B0884695
:1059100093464FF0000A0321029807F0B5FB814639
:1059200037480078814502D305B0BDE8F08FC9EB58
:10593000C90000EB8000334901EB8007CDF80490EB
:105940000BF0030634464FEA840A0BF4004080BB98
:1059500008F0030634464FEA840A08F0030068B1F1
:10596000012804D0022805D0032812D104E06FF0EA
:10597000EF050FE0F0250DE000250BE0032448467D
:1059800005F0E4FAD7F8800064F3D030C7F880005F
:10599000CAE700BF00BF4AF0030A524629464846FC
:1059A00006F070FAD7F8800064F3D030C7F88000B2
:1059B00024E0FFE70FFA88F548460FF06FFD28B1A5
:1059C000284601F087F90646344608E0142D01DC2C
:1059D000022404E0142D01DB012400E000244FEA3E
:1059E000840A4AF0030A52462946484606F04AFA13
:1059F000D7F8800064F3D030C7F8800000BF93E789
:105A0000D4000020801200202DE9FF4705460C46F7
:105A100016460020009001900290039057480078AD
:105A200038B9102D05D02946DB200BF06FFDBDE8FD
:105A3000FF87112D7BD2DFE805F0091B20242936D2
:105A400043445556617B7F84898E8F00E1B24C4878
:105A50000068103081420AD14948006810300202C3
:105A600048488168002340F6042001F00CFD82E0E4
:105A700031462046FFF70EFD7DE02046FFF762FB32
:105A800079E031462046FFF7BDFD74E001200EF0BD
:105A900013F820B90121FE200BF038FD6BE0204601
:105AA000FFF7D8FC67E001200EF006F820B90121CD
:105AB000FE200BF02BFD5EE02046FFF7A5FC5AE030
:105AC00059E04FF0FF39601C4FEA6008B8F1040F4D
:105AD00001DD4FF0040809FA08F0C743384605F025
