:020000040800F2
:10000000881B0020DD010008E92400086D2100089C
:10001000E52400080D030008F12B00080000000093
:10002000000000000000000000000000232900087C
:100030001B06000800000000BD2600082529000856
:10004000F7010008F7010008F7010008F7010008B0
:10005000F7010008F7010008F7010008F7010008A0
:10006000F7010008F7010008F7010008F701000890
:10007000F7010008F7010008F7010008F701000880
:10008000F7010008F7010008F7010008F701000870
:1000900011030008F7010008F7010008F701000844
:1000A000F7010008F7010008F7010008F701000850
:1000B000F7010008F7010008F7010008F701000840
:1000C000F7010008F7010008F7010008F701000830
:1000D000F7010008F7010008F7010008F701000820
:1000E000F7010008F7010008F7010008F701000810
:1000F000F7010008F7010008F7010008F701000800
:1001000000000000F7010008F7010008F7010008EF
:100110000000000000000000F7010008F7010008DF
:10012000F7010008F7010008F7010008F7010008CF
:10013000F7010008F7010008F7010008F7010008BF
:10014000F7010008F7010008F7010008F7010008AF
:10015000F7010008F7010008F7010008F70100089F
:10016000F7010008F701000800000000000000008F
:10017000000000000000000000000000000000007F
:10018000F7010008F701000800000000000000006F
:10019000F7010008F701000800000000000000005F
:1001A000000000000000000000000000000000004F
:1001B000F70100080000000000000000F70100083F
:1001C000F7010008DFF810D000F08EF80048004773
:1001D000A92C0008AFF30080881B00200648804748
:1001E00006480047FEE7FEE7FEE7FEE7FEE7FEE71C
:1001F000FEE7FEE7FEE7FEE7112A0008C50100085A
:100200002DE9F05F0546002092469B46884606464B
:10021000814640241BE0284641464746224600F0DE
:1002200053F853465A46C01A914110D31146184606
:10023000224600F03AF82D1A67EB01084F46224695
:100240000120002100F031F817EB00094E41201E7B
:10025000A4F10104DFDC484631462A464346BDE8A6
:10026000F09F40EA01039B0703D009E008C9121F71
:1002700008C0042AFAD203E011F8013B00F8013B60
:10028000521EF9D27047D2B201E000F8012B491E8C
:10029000FBD270470022F6E710B513460A46044623
:1002A0001946FFF7F0FF204610BD202A04DB203A54
:1002B00000FA02F1002070479140C2F1200320FAB9
:1002C00003F3194390407047202A04DB203A21FAB7
:1002D00002F00021704721FA02F3D040C2F120025F
:1002E0009140084319467047064C074D06E0E06808
:1002F00040F0010394E8070098471034AC42F6D36D
:10030000FFF764FFEC2C00080C2D000800BFFEE78F
:1003100000B58DB000200490059015480068406934
:1003200000F00200F8B11CE011480068C06800F05D
:10033000030000B916E004AB06AA00210C4800F047
:10034000BAFC70B904AA0B4906A800F02BF9094AB7
:100350000C3207CA8DE8070006480EC8064800F0B0
:100360005DF9E1E700BF024800F07DFD0DB000BD82
:1003700008130020F01200202000002070B588B083
:1003800004460D46164602960020049005900695F8
:100390008DF81C0000BF084800F04AFD0028FAD084
:1003A00001AB224602A9044800F047FB08B100F067
:1003B00054F908B070BD0000081300202DE9F04783
:1003C00007468946384600F0B1FA0402781C00F06E
:1003D000ADFA04434FF002082AE007EB080000F0F2
:1003E000A5FA064608251FE004F4004078B14FF650
:1003F000FF7000EA4404681E46FA00F000F00100B5
:1004000008B144F0010441F2210044400BE04FF6F2
:10041000FF7000EA4404681E46FA00F000F0010094
:1004200008B144F001046D1E002DDDD108F1010872
:10043000C845D2D310250FE004F4004038B14FF680
:10044000FF7000EA440441F22100444003E04FF60B
:10045000FF7000EA44046D1E002DEDD12046BDE87A
:10046000F08700007CB50446002000900190207CBD
:1004700008280AD1607C022807D14948007820F07A
:100480000100401C4649087088E0207C082816D1ED
:10049000607C0A2813D100200090019008208DF87C
:1004A00000000A208DF801008DF8040002F0CEFB58
:1004B00005462A4608216846FFF760FF6EE0207C6B
:1004C000082820D1607C01281DD1002000900190D7
:1004D00008208DF8000001208DF8010099208DF88A
:1004E00002001D208DF8030063208DF80400012018
:1004F0008DF8060002F0AAFB05462A460821684648
:10050000FFF73CFF4AE0207C082819D1607C1428C2
:1005100016D1A07CA0B900200090019008208DF891
:10052000000014208DF8010001208DF8040002F075
:100530008DFB05462A4608216846FFF71FFF2DE080
:10054000207C08280AD1607C062807DC1448007843
:1005500020F00200801C124908701FE0207C3B281C
:1005600007D10F48007820F0080008300C490870C7
:1005700014E0207C3D2807D10948007820F00400D1
:10058000001D0749087009E0207C3C2806D104487A
:10059000007820F0100010300149087000207CBD68
:1005A0001C00002030B513460022846814B904688A
:1005B0000C6004E08468042C01D144680C608468F9
:1005C0004C60C4688C600469CC60002204E09D5CCF
:1005D00001F11004A554521C04699442F7D830BDAF
:1005E00070B504460D46204602F069F808B10020B7
:1005F00070BD226802EB4202E06800EBC2011822E3
:100600002846FFF72EFE2068401CA168B0FBF1F2DF
:1006100001FB120020600120EAE770470FB410B51B
:100620000446204602F054F818B1002010BC5DF8D2
:1006300014FB626802EB4202E16801EBC20018227F
:1006400003A9FFF70EFE6068401CA168B0FBF1F241
:1006500001FB120060600120E8E772B600BFFEE710
:1006600010B5002201B909E0012901D10A0205E013
:10067000022901D10A0201E04FF440720E4B1B68BF
:1006800023F440730C4C236023461B681343236000
:1006900023461B6823F0F803236023461B680224CB
:1006A00044EAC0042343044C236023461B6843F4FC
:1006B0008033236010BD0000103C02401C480068DD
:1006C00000F40070B0B11A48006820F400701849B6
:1006D000086000BF0846006840F4006008600846F3
:1006E000006820F40060086000BF0846006840F41D
:1006F000007008600E48006800F48060B0B10C48DB
:10070000006820F480600A49086000BF084600685D
:1007100040F4805008600846006820F4805008606B
:1007200000BF0846006840F4806008607047000021
:10073000003C02400A4A126822F44072084B1A60D8
:100740001A46126842F004021A601A4612684FF400
:10075000803343EA00231A43014B1A6070470000BC
:10076000103C0240074A126822F44072054B1A609E
:100770001A4612681A601A46126842F001021A609C
:1007800001707047103C024010B50D49096821F412
:1007900040710B4C21602146096841F44071216091
:1007A0002146096841F001012160026000BF00BFDD
:1007B00000BFBFF36F8F00BF00BF00BF436010BD1D
:1007C000103C0240084A126822F44072064B1A603C
:1007D0001A46126842F480721A601A46126842F091
:1007E00001021A6001807047103C0240084A1268FA
:1007F00022F44072064B1A601A46126842F40072E4
:100800001A601A46126842F001021A6001607047CD
:10081000103C02402A48006800F0100040B129480E
:10082000C06940F010002749C861102024490860C1
:100830002348006800F0200040B12248C06940F021
:1008400008002049C86120201D4908601C48006834
:1008500000F0400040B11B48C06940F00400194955
:10086000C8614020164908601548006800F0800003
:1008700040B11448C06940F002001249C8618020AC
:100880000F4908600E48006800F4807048B10D48B8
:10089000C06940F001000B49C8614FF480700849FD
:1008A00008600748006800F0020040B10548C069D0
:1008B00040F020000349C8610220014908607047E8
:1008C0000C3C02403C13002070B50446002500207B
:1008D0001449C86100F0F6FE054609E0601C38B115
:1008E00024B100F0EFFE401BA04201D9032070BDEF
:1008F0000D48006800F480300028EFD10A480068F5
:1009000000F0010010B101200749086006480068A6
:1009100000F4F97018B1FFF77DFF0120E7E7002030
:10092000E5E700003C1300200C3C0240014608783B
:100930007047000010B51448007810B101281ED18E
:1009400006E001201049087000201049086017E0F7
:100950000F480078C0F3800048B10D48007820F0BF
:1009600004000B49087001200A49087006E0074896
:100970000068B0F5FA6F01D300F00EF800E000BF98
:1009800000BF002010BD000016000020180000204D
:100990001C0000201400002038B5194800681949CF
:1009A0000840B0F1005F2AD1012080F3108800BF19
:1009B00000204FF0E02108614861886101F050F8A3
:1009C000002008E04FF0FF320F4941F820200F4986
:1009D00041F82020401C0828F4DB002080F3108818
:1009E00000BF00BF80F3148800BF05484068009036
:1009F000009C0349086880F3088800BFA04738BD01
:100A0000000002080000FE2F80E100E080E200E02C
:100A100010B5024692F82030012B01D0022B06D1EE
:100A200010684069084314686061002010BD506A76
:100A300040F4802050620120F8E7F0B504460D46EE
:100A40001E4694F8207020688368A86800B900E00A
:100A500000BF012F01D0022F7CD103F0806030B99C
:100A600003F0006018B903F08050002873D0C3F37E
:100A70000161022905D9606A40F40000606201202A
:100A8000F0BD012088403060A86860B9B5F800C0AA
:100A9000E86840EA4C5C206800F5C07000EB01108B
:100AA000C0F800C00FE0D5E901C040EACC00D5F89D
:100AB0000CC040EA0C00D4F800C00CF5C07C0CEB74
:100AC000011CCCF80000D5F810C0206800F5C070FB
:100AD00000EB0110C0F804C0287D01280ED1206869
:100AE00000F5C07000EB0110406840F4807C206885
:100AF00000F5C07000EB0110C0F804C0D07900060A
:100B000092F806C040EA0C4092F805C040EA0C2C6E
:100B100010794CEA000C206800F5C07000EB011061
:100B2000C0F80CC0D078000692F802C040EA0C4031
:100B300092F801C040EA0C2092F800C040EA0C0094
:100B4000D4F800C00CF5C07C0CEB011CCCF80800FC
:100B5000206801E016E00FE000F5C07000EB011026
:100B6000006840F0010C206800F5C07000EB011037
:100B7000C0F800C0002083E7606A40F400106062A3
:100B800001207DE7606A40F480206062012077E701
:100B9000F0B504460A46216894F82050012D01D092
:100BA000022D7ED1424901F50071086840F0010034
:100BB0000860086820F47C5008600868566A40EABB
:100BC00006200860107D00F01F06012000FA06F3E1
:100BD000C8699843C861A1F50071D069C8B9D1F856
:100BE0000C029843C1F80C02908880B2968940EAC2
:100BF000064601F51070576940F83760108880B2DA
:100C0000168940EA064601F51070576900EBC700E7
:100C10004660D069012819D1D1F80C021843C1F8F7
:100C20000C02908880B2168840EA064601F51070E2
:100C3000576940F83760908980B2168940EA0646C5
:100C400001F51070576900EBC7004660906928B93C
:100C5000D1F804029843C1F8040204E0D1F8040278
:100C60001843C1F80402106928B9D1F81402984356
:100C7000C1F8140204E0D1F814021843C1F81402B8
:100C8000106A012804D1D1F81C021843C1F81C02D3
:100C9000D1F8000220F00100C1F800020020F0BDF0
:100CA000FFE7606A40F4802060620120F7E70000FF
:100CB00000640040704770B5044694F82050012D40
:100CC00001D0022D7DD151B92068C06800F0030029
:100CD00080B9606A40F400106062012070BD206835
:100CE000006900F0030028B9606A40F400106062F7
:100CF0000120F3E7206800F5D87000EB01100068D0
:100D000000F004009060906840B9206800F5D87049
:100D100000EB01100068400D106007E0206800F54E
:100D2000D87000EB01100068C0085060206800F522
:100D3000D87000EB0110006800F00200D06020685D
:100D400000F5D87000EB0110406800F00F00106152
:100D5000206800F5D87000EB0110406800F47F4077
:100D6000000A9061206800F5D87000EB011040681F
:100D7000000C5061206800F5D87000EB011080680D
:100D80001870206800F5D87000EB0110806800F43E
:100D90007F40000A5870206800F5D87000EB011001
:100DA000806800F47F00000C9870206800F5D8700F
:100DB00000EB01108068000ED870206800F5D87034
:100DC00000E02FE000EB0110C0681871206800F50A
:100DD000D87000EB0110C06800F47F40000A587121
:100DE000206800F5D87000EB0110C06800F47F00A7
:100DF000000C9871206800F5D87000EB0110C068F5
:100E0000000ED87131B92068C06840F02000266813
:100E1000F06005E02068006940F02000266830613D
:100E200000205BE7606A40F480206062012055E7A3
:100E30000146002091F82020012A01D0022A11D178
:100E40000B689B6803F0806303B1401C0B689B68D0
:100E500003F0006303B1401C0B689B6803F08053F0
:100E600003B1401C70472DE9F05F0446002520685F
:100E700046692068D0F80490206887682068D0F818
:100E80000CA02068D0F810B02068D0F8188006F0C8
:100E90000100002855D007F00100C0B101202168F1
:100EA000886007F0020018B1204600F03EFA0EE01C
:100EB00007F0040010B145F4006508E007F00800F1
:100EC00010B145F4805502E0204600F02DFA07F4F9
:100ED0008070C8B14FF480702168886007F400709A
:100EE00018B1204600F023FA0EE007F4806010B13C
:100EF00045F4005508E007F4006010B145F4804562
:100F000002E0204600F012FA07F48030C8B14FF436
:100F100080302168886007F4003018B1204600F066
:100F200008FA0EE007F4802010B145F4004508E00F
:100F300007F4002010B145F4803502E0204600F0AF
:100F4000F7F906F0080038B10AF0100020B145F4B6
:100F5000007510202168C86006F0040040B10AF056
:100F6000080028B108202168C860204600F0A8F9D0
:100F700006F0020038B12068C06800F0030010B12C
:100F8000204600F09EF906F0400038B10BF010004A
:100F900020B145F4806510202168086106F020002A
:100FA00040B10BF0080028B10820216808612046F4
:100FB00000F088F906F0100038B12068006900F0F0
:100FC000030010B1204600F07EF906F4003040B175
:100FD00009F0100028B1102021684860204600F078
:100FE00073F906F4803040B109F0080028B10820F8
:100FF00021684860204600F09DF906F4004088B35F
:1010000009F0040078B306F4807020B108F0010004
:1010100008B145F0010506F4007020B108F00200A7
:1010200008B145F0020506F4806020B108F0040024
:1010300008B145F0040506F40060A0B108F07000A6
:1010400088B108F07000402817D006DC10280BD0BB
:1010500020280CD0302819D10CE0502810D060285E
:1010600014D110E01DE019E045F008050FE045F04F
:1010700010050CE045F0200509E045F0400506E0CC
:1010800045F0800503E045F4807500E000BF00BF37
:101090002068806920F07000216888610420216840
:1010A00048602DB1606A284360622046FFF702FE67
:1010B000BDE8F09F70B504460CB9012070BD94F8EE
:1010C000200010B9204600F0AFF82068006840F01A
:1010D00001002168086000F0F5FA05460DE000F017
:1010E000F1FA401B0A2808D9606A40F400306062B7
:1010F000052084F820000120E0E72068406800F027
:1011000001000028EBD02068006820F00200216870
:10111000086000F0D7FA05460DE000F0D3FA401B56
:101120000A2808D9606A40F400306062052084F81B
:1011300020000120C2E72068406800F0020000287B
:10114000EBD1207E012806D12068006840F08000A5
:101150002168086005E02068006820F080002168B0
:101160000860607E012806D12068006840F04000D9
:101170002168086005E02068006820F040002168D0
:101180000860A07E012806D12068006840F0200099
:101190002168086005E02068006820F020002168D0
:1011A0000860E07E012806D12068006820F0100069
:1011B0002168086005E02068006840F010002168A0
:1011C0000860207F012806D12068006840F00800F0
:1011D0002168086005E02068006820F008002168A8
:1011E0000860607F012806D12068006840F0040094
:1011F0002168086005E02068006820F0040021688C
:101200000860D4E902010843216908436169084381
:101210006168491E08432168C8610020606201209E
:1012200084F82000002049E710B586B00446142158
:1012300001A8FFF72FF81F492068884238D100BF66
:10124000002000901C48006840F000701A490860B7
:101250000846006800F00070009000BF00BF00BFAB
:101260000020009014481038006840F00200124935
:10127000103908600846006800F00200009000BFC6
:1012800000BF4FF4407001900220029000200390B4
:10129000032004900820059001A9084800F026F9D1
:1012A00000221146142000F0C7FA142000F0B4FA0E
:1012B00006B010BD00640040403802400004024007
:1012C0007047704770477047704770B5044694F890
:1012D0002000012822D1022084F820002068006824
:1012E00020F001002168086000F0ECF905460DE0EF
:1012F00000F0E8F9401B0A2808D9606A40F4003081
:101300006062052084F82000012070BD20684068DC
:1013100000F001000028EBD16062F6E7606A40F45B
:10132000002060620120F0E7704770477047704707
:10133000704770477047000070B5044600F0C2F96E
:1013400006462546681C10B104480078054400BFD5
:1013500000F0B8F9801BA842FAD370BD0800002045
:101360002DE9F04104460E460127002500BF25481F
:10137000007E012802D10220BDE8F0810120214930
:10138000087600BF4CF25030FFF79EFA0746002F58
:1013900031D1401E3060206801280FD1207C616867
:1013A000FFF7C8F94CF25030FFF78EFA074616489F
:1013B000006820F00400144908601AE0A56812E0F3
:1013C000217C2846FFF74CF94CF25030FFF77CFAAD
:1013D00007460D48006820F0FA000B4908600FB17D
:1013E000356005E06D1CD4E902100844A842E7D836
:1013F00000BFFFF763F900BF00200249087600BF75
:101400003846B9E73C130020103C0240034800680E
:1014100040F000400149086000207047103C024045
:101420002DE9F04106460F4614461D464FF00108CF
:1014300000BF1F48007E012802D10220BDE8F081D4
:1014400001201B49087600BF4CF25030FFF73CFAF0
:101450008046B8F1000F23D126B9E1B23846FFF734
:1014600081F912E0012E04D1A1B23846FFF7AAF9A2
:101470000BE0022E04D121463846FFF7B7F904E00D
:1014800022462B463846FFF77FF94CF25030FFF7E3
:101490001BFA80460748006820F0010005490860F3
:1014A00000BF00200249087600BF4046C6E70000A2
:1014B0003C130020103C024000200949096801F05B
:1014C000004159B10749064A0C3A116006491160BA
:1014D0000349096801F0004101B101207047000093
:1014E000103C024023016745AB89EFCDF8B50346B8
:1014F0000A460025002400200021C2E0012606FA49
:1015000001F5166806EA0504AC4274D1167906F0B6
:101510000306012E04D0167906F00306022E13D11D
:1015200098684F000326BE40B0434F00D668BE40C7
:1015300030439860586801268E40B0431679C6F350
:1015400000168E4030435860167906F00306032ECD
:1015500009D0D8684F000326BE40B0434F009668BC
:10156000BE403043D860167906F00306022E13D130
:10157000CF0803F1200656F827004E07F70E0F2676
:10158000BE40B0434F07FF0E1669BE403043CF0840
:1015900003F1200646F8270018684F000326BE40D6
:1015A000B043167906F003064F00BE403043186082
:1015B000566806F44036002E62D000BF0026009622
:1015C000324E366846F48046304F3E603E463668BE
:1015D00006F48046009600BF00BF2D4E8F0856F8D7
:1015E00027008E07370F0F26BE40B043294EB34267
:1015F00002D1002610E043E0274EB34201D101267C
:101600000AE0264EB34201D1022605E0244EB34241
:1016100001D1032600E007268F073F0FBE4030436D
:101620001B4E8F0846F827001E4E3068A0435668B0
:1016300006F4801606B120431A4E3060361D30681D
:10164000A043566806F4001606B12043154E361D19
:101650003060144E361F3068A043566806F40036DA
:1016600006B120430F4E361F3060361F3068A0434E
:10167000566806F4803606B120430A4E083E3060B4
:10168000491C1029FFF43AAFF8BD0000443802406D
:1016900008380140000002400004024000080240F7
:1016A000000C0240083C0140024613690B400BB19C
:1016B000012000E0002070470AB1816101E00B04C5
:1016C00083617047014800687047000000000020F7
:1016D00070B504460CB9012070BD4CF6CC402168B1
:1016E000086045F2555021680860D4E90010486050
:1016F0002168A0688860FFF7E5FF05460BE0FFF76B
:10170000E1FF401B312806D92068C06800F00300C3
:1017100008B10320E0E72068C06800F0030000285B
:10172000EDD14AF6AA20216808600020D4E7000025
:101730000348006803490978084401490860704774
:10174000000000200800002010B50D48006840F49B
:1017500000700B4908600846006840F4806008602B
:101760000846006840F480700860032000F0A2F88A
:101770000F2000F007F800F02BF8002010BD00004B
:10178000003C024070B504460E4800784FF47A7170
:10179000B1FBF0F00C490968B1FBF0F5284600F008
:1017A000CBFC08B1012070BD102C07D200222146CD
:1017B000501E00F041F80548046001E00120F2E706
:1017C0000020F0E7080000200C00002004000020AA
:1017D00008B500BF002000900E48006840F480402B
:1017E0000C4908600846006800F48040009000BF83
:1017F00000BF00BF00200090081F006840F080502C
:10180000091F08600846006800F08050009000BF83
:1018100000BF08BD4438024001460846002809DBE5
:1018200000F01F0301229A4043099B0003F1E023CB
:10183000C3F8002100BF70472DE9F05F80460D46D8
:101840001646002701F0D6F9074639462A463346A0
:1018500001F00700C0F1070ABAF1040F02D94FF0F6
:10186000040A01E0C0F1070AD14600F1040ABAF106
:10187000070F02D24FF0000A01E0A0F1030AD4469C
:101880004FF0010A0AFA09FAAAF1010A0AEA020A61
:101890000AFA0CFA4FF0010B0BFA0CFBABF1010B3F
:1018A0000BEA030B4AEA0B042146404601F0AAF971
:1018B000BDE8F09F00BF00F00702064B19684FF625
:1018C000FF031940044B0B4343EA0221014B19600B
:1018D00000BF70470CED00E00000FA0570B504464B
:1018E0000D460CB9012070BD5848006800F0070093
:1018F000A84209D255490D700846006800F007005B
:10190000A84201D00120EEE7207800F00200022872
:101910001DD1207800F00400042805D14C4800684F
:1019200040F4E0504A490860207800F00800082898
:1019300005D14748006840F4604045490860444884
:10194000006820F0F000A168084341490860207851
:1019500000F00100A8B36068012807D13C480838AE
:101960000068C0F34040B8B90120BCE760680228B5
:1019700002D06068032807D1354808380068C0F3F2
:10198000406048B90120AEE7314808380068C0F32C
:10199000400008B90120A6E72D48006820F00300A8
:1019A000616808432A490860FFF78CFE064609E093
:1019B000FFF788FE801B41F28831884202D903205C
:1019C00091E707E02248006800F00C006168B0EB86
:1019D000810FEDD11D48006800F00700A84209D929
:1019E0001A490D700846006800F00700A84201D0AF
:1019F000012078E7207800F00400042807D114487B
:101A0000006820F4E050E16808431149086020783C
:101A100000F00800082808D10D48006820F4604054
:101A2000216940EAC1000A49086000F0D5F8084978
:101A30000968C1F30311074A515CC84006490860B0
:101A400006480068FFF79EFE00204CE7003C02407D
:101A500008380240D02C00080C00002004000020B0
:101A600010B5FFF72FFE04465648006840F001000D
:101A70005449086006E0FFF725FE001B022801D943
:101A8000032010BD4F48006800F002000028F2D08B
:101A90004C48006840F080004A490860FFF712FE99
:101AA0000446002047490831086008E0FFF70AFEB5
:101AB000001B41F28831884201D90320E1E7414807
:101AC0000830006800F00C000028EFD1FFF7FAFDA5
:101AD00004463C48006820F450203A49086006E07B
:101AE000FFF7F0FD001B642801D90320C9E7354842
:101AF000006800F400300028F2D1FFF7E3FD04464F
:101B00003048006820F080702E49086006E0FFF73A
:101B1000D9FD001B022801D90320B2E7294800683B
:101B200000F000700028F2D1FFF7CCFD04462548F4
:101B3000006820F080602349086006E0FFF7C2FDDE
:101B4000001B022801D903209BE71E48006800F013
:101B500000600028F2D11C481A49091D0860194983
:101B60008431086017480C30006820F4F85015499B
:101B70000C3108600846006820F4005008600846F0
:101B8000006840F41F0008600846006840F4001038
:101B900008600C487430006820F001000949743175
:101BA00008600846006840F08070086007480849EF
:101BB000086008480068FFF7E5FD08B1012060E70C
:101BC00000205EE700380240103000240024F400BA
:101BD0000C000020040000202DE9F047002400251F
:101BE0000026A1462548006800F00C0020B104281A
:101BF00005D008283AD105E0DFF8849039E0DFF815
:101C0000849036E01D48001F006800F03F041B4828
:101C1000001F006800F4800078B11A481749091FB6
:101C20000968C1F38811A0FB017001462246002318
:101C30003846FEF7E5FA05460EE011480F49091F40
:101C40000968C1F38811A0FB0170014622460023F8
:101C50003846FEF7D5FA05460848001F0068C0F36D
:101C60000140401C4600B5FBF6F902E0DFF8109099
:101C700000BF00BF4846BDE8F087000008380240BA
:101C80000024F40000127A00F8B504460CB90120D3
:101C9000F8BD207800F00100002874D0F7480068F3
:101CA00000F00C0004280DD0F448006800F00C008F
:101CB000082813D1F148001F006800F48000B0F537
:101CC000800F0BD1ED4808380068C0F34040002871
:101CD00059D06068002856D10120D9E700BF60685C
:101CE000B0F5803F08D1E5480838006840F48030FE
:101CF000E249083908601EE06068B0F5A02F0DD1F8
:101D0000DE480838006840F48020DC490839086063
:101D10000846006840F4803008600CE0D748083876
:101D2000006820F48030D54908390860084600680A
:101D300020F48020086000BF606890B1FFF7C2FC0B
:101D4000054606E0FFF7BEFC401B642801D90320CE
:101D50009EE7CA4808380068C0F340400028F1D028
:101D600011E0FFF7AFFC054606E0FFF7ABFC401BB8
:101D7000642801D903208BE7C04808380068C0F305
:101D800040400028F1D1207800F0020002285FD105
:101D9000BA48006800F00C0058B1B848006800F07C
:101DA0000C0008281CD1B548001F006800F4800012
:101DB000B0B9B24808380068C0F3400020B1E0680C
:101DC000012801D0012063E7AC480838006820F002
:101DD000F800216940EAC100A8490839086037E0E5
:101DE000E06800B30120A6490860FFF76BFC0546D8
:101DF00006E0FFF767FC401B022801D9032047E7F4
:101E00009E4808380068C0F340000028F1D09B4885
:101E10000838006820F0F800216940EAC1009749BD
:101E20000839086014E0002095490860FFF74AFC73
:101E3000054606E0FFF746FC401B022801D90320B7
:101E400026E78E4808380068C0F340000028F1D12A
:101E5000207800F0080008282CD16069A8B1012082
:101E600088490860FFF72EFC054606E0FFF72AFCCC
:101E7000401B022801D903200AE780486C30006823
:101E8000C0F340000028F1D014E000207D49086034
:101E9000FFF718FC054606E0FFF714FC401B02287C
:101EA00001D90320F4E675486C300068C0F34000A7
:101EB0000028F1D1207800F00400042870D1002718
:101EC0006E483830006800F0805090B900BF0020A4
:101ED00000906A483830006840F0805067493831D7
:101EE00008600846006800F08050009000BF00BF06
:101EF00001276548006800F48070B0B96248006846
:101F000040F4807060490860FFF7DCFB054606E09E
:101F1000FFF7D8FB401B022801D90320B8E65A4836
:101F2000006800F480700028F2D000BFA06801288B
:101F300008D152486830006840F001004F496831CC
:101F400008601DE0A06805280DD14C486830006885
:101F500040F004004949683108600846006840F0D4
:101F6000010008600CE045486830006820F001007E
:101F70004249683108600846006820F004000860A3
:101F800000BFA068A8B1FFF79DFB054609E0FFF779
:101F900099FB401B41F28831884202D9032077E641
:101FA00026E0364868300068C0F340000028EED0D4
:101FB00013E0FFF787FB054608E0FFF783FB401BB4
:101FC00041F28831884201D9032061E62B4868300C
:101FD0000068C0F340000028EFD1012F07D1274847
:101FE0003830006820F0805024493831086000BF44
:101FF000A069002850D02148006800F00C00082893
:1020000060D0A069022848D100201D490866FFF76A
:1020100059FB054606E0FFF755FB401B022801D996
:10202000032035E6154808380068C0F340600028F2
:10203000F1D1D4E907010843616A40EA8111012224
:10204000A06AC2EB500041EA00412C20005D41EA49
:1020500000613020005D41EA00700849091F0860F6
:10206000012007490866FFF72DFB05460EE0FFF744
:1020700029FB401B022809D9032009E60838024041
:1020800000004742800E4742007000402848006828
:10209000C0F340600028EAD048E0002025490866E7
:1020A000FFF710FB054606E0FFF70CFB401B02287C
:1020B00001D90320ECE51E480068C0F34060002809
:1020C000F2D133E0A069012800D1E1E51848001DF4
:1020D0000668A069012827D006F48001E0698142E2
:1020E00022D106F03F01206A81421DD147F6C0701F
:1020F0003040616AB0EB811F16D106F440310122F5
:10210000A06AC2EB5000B1EB004F0DD106F0706138
:102110002C20005DB1EB006F06D106F0E0413020CD
:10212000005DB1EB007F01D00120B1E50020AFE5FB
:10213000003802400000474270B504462546681E3C
:10214000B0F1807F01D301200FE0681E4FF0E02145
:1021500048610F214FF0FF3000F054FD00204FF098
:10216000E021886107200861002070BD00BFFEE704
:1021700010B586B0044600200090B4F1006F02D381
:1021800004F0030018B14FF0FF3006B010BD18483E
:10219000844211D0174884420ED0174884420BD095
:1021A0001648844208D01648844205D01548844217
:1021B00002D01548844219D1FFF77EF90020019022
:1021C000204600F05DFB0390012004900220059062
:1021D000694601A8FFF7C4F810B16FF00100D4E719
:1021E00047F23050FEF770FBFFF710F90020CCE704
:1021F000004000080080000800C00008000001083E
:10220000000002080000040800000E08002303601C
:1022100043608260C16070474AF6AA20014909689C
:10222000086070473013002000B502460F48006870
:1022300090421AD30E48006800F4005040B10C4898
:102240000830006840F0005009490831086007E094
:1022500007480830006840F400500549083108601C
:10226000FFF7DAFF00200149086000BD10000020E0
:102270001008024000B58BB02A482B4908600A209C
:102280004860002128488160C1604FF4003101613D
:10229000002141610176417681760121C1760021DC
:1022A00001774177FEF706FF08B1FEF7D6F9012066
:1022B00009900020069001200790089000200590CA
:1022C00000F0DEFC40010190002002904FF6FF700C
:1022D0000390049001A91448FEF75AFC08B1FEF7D8
:1022E000BCF90120069000F0CBFC4001019001A94F
:1022F0000D48FEF74DFC08B1FEF7AFF90A48FEF7AE
:10230000E4FF08B1FEF7A9F902210748FEF780FBB8
:1023100008B1FEF7A2F9C82204490548FFF776FF85
:102320000BB000BD00640040081300203000002006
:102330002000002000B587B0142102A8FDF7AAFFF5
:1023400000BF002001905848006840F00400564942
:1023500008600846006800F00400019000BF00BF5C
:1023600000BF002001900846006840F0800008602F
:102370000846006800F08000019000BF00BF00BF69
:10238000002001900846006840F0010008600846FF
:10239000006800F00100019000BF00BF00BF0020F6
:1023A00001900846006840F0020008600846006896
:1023B00000F00200019000BF00BF00BF00200190AC
:1023C0000846006840F0080008600846006800F011
:1023D0000800019000BF00BF012251033348FFF7FE
:1023E0006BF900224FF2FF413148FFF765F90022F7
:1023F0004FF470712D48FFF75FF900224FF4104140
:102400002C48FFF759F94FF4005002900120039037
:1024100004900020059002A92448FFF767F84DF6C4
:102420002C40029000200390049002A91F48FFF75F
:102430005DF8F020029000200390049002A91D484E
:10244000FFF754F84FF2FF40029001200390022062
:1024500004900020059002A91548FFF747F84FF4B3
:1024600070700290012003900220049000200590DB
:1024700002A90E48FFF73AF84FF4104002900120ED
:102480000390022004900020059002A90948FFF75C
:102490002DF80420029000200390049002A9064821
:1024A000FFF724F807B000BD3038024000080240B2
:1024B0000004024000000240000C024010B5074832
:1024C000074908600620486040F6FF7104488160B3
:1024D000FFF7FEF808B1FEF7C0F810BD003000406D
:1024E0003013002000BFFEE700BFFEE72DE9FF41EB
:1024F00004460E460020029003906A4800780528A2
:102500007DD2DFE800F0031E2D525F000020029014
:1025100003903A208DF8080000F098FB07463A46F1
:10252000022102A8FDF72AFF5F48FFF721FE5F485E
:10253000019001A95C4800F0DAF9012059490870BE
:10254000ABE0FF224FF40071A01DFDF79CFE584840
:10255000C4F80C02002060800220524908709CE000
:102560003146204600F010F92078022805D10020DD
:10257000207003204B49087016E094F90000401CBD
:1025800090B900200290039001208DF808003D20B2
:102590008DF8090000F05AFB07463A46022102A8CE
:1025A000FDF7ECFE00F0CAF877E03F48FFF7E0FDEA
:1025B0004048019001A93C4800F099F904203949AC
:1025C00008706AE0B4F8081288B2694600F0EAFAC6
:1025D0000546BDF800108D4218D0002002900390EF
:1025E00003208DF808003D208DF8090000F02EFB37
:1025F00007463A46022102A8FDF7C0FE00E04BE084
:102600004FF4FA70FEF798FE00F098F800F0A0FA88
:102610002548FFF7ADFD2848019001A9224800F0A8
:1026200066F90020029003903E208DF8080000F02B
:102630000DFB07463A46022102A8FDF79FFE002047
:1026400002900390F0208DF80800C0208DF80A0059
:10265000AB208DF80E0001208DF80F0000F0F6FA87
:1026600007463A46082102A8FDF788FE002002909E
:10267000039001208DF809008DF80C0000F0E6FAB7
:1026800007463A46082102A8FDF778FE4FF4FA7093
:10269000FEF752FE00F052F800BF00BF002004B069
:1026A000BDE8F081150000200040000855AA50A0A8
:1026B000000004085A5A50A0AA5550A0704701467D
:1026C000D1E90002904201D1012070470020FCE7CF
:1026D00001464868401C8A68B0FBF2F302FB130015
:1026E0000A68904201D1012070470020FCE70000F9
:1026F0007CB50446207800F0010080B10DA103C92B
:10270000CDE9000100F0A2FA05462A4608216846F4
:10271000FDF734FE207820F00100207009E02078D9
:10272000C0F3400028B1207820F00200207000F0B3
:1027300005F87CBD0802098063000100012080F3D8
:10274000108800BF00BF00BF00BF00BF00BFBFF3C5
:102750004F8F00BF00BF00BF0948006800F4E06071
:1027600008490843001D0649086000BF00BF00BFBC
:10277000BFF34F8F00BF00BF00BF00BF00BFFDE72A
:102780000CED00E00000FA05F8B504460D46002007
:102790000090608841F28831884201DBFF20207080
:1027A00035480078C0F3C00028B933480078C0F33A
:1027B000001000285DD03048007820F008002E4935
:1027C000087000206080002626E005F11000B11C92
:1027D000415CA288A01D8154A088401CA080D4F830
:1027E0000802401CC4F80802A088B0F5007F12D18E
:1027F0000020A0804FF40072A11D2048FDF731FD9C
:102800001E4904F5037000F0B9F9FF224FF400717E
:10281000A01DFDF738FD761CE868801EB042D4D8B4
:1028200015480078C0F30010C0B14FF40072A11D2C
:102830001248FDF716FD114904F5037000F09EF9EA
:10284000FF224FF40071A01DFDF71DFD0A4800781E
:1028500020F0100008490870022020703D208DF8FB
:10286000000000F0F3F90646324602216846FDF703
:1028700085FD0020F8BD00001C0000206C15002024
:1028800001461248814201D200207047104881421F
:1028900001D20120F9E70F48814201D20220F4E77A
:1028A0000D48814201D20320EFE70C48814201D25A
:1028B0000420EAE70A48814201D20520E5E70948F9
:1028C000814201D20620E0E70B20DEE7004000084D
:1028D0000080000800C00008000001080000020895
:1028E000000004080000060801460868704770B53B
:1028F00004460D46B4F1006F02D304F0030000B1AA
:1029000070BDFEF7D9FD2E68324600232146022015
:10291000FEF786FD08B1FDF7A0FEFEF777FD00BFCC
:10292000EEE7704710B509480068401C0749086089
:1029300007480068401C0649086006484088401C5B
:1029400004494880FEF7F4FE10BD0000100000208E
:10295000180000205C13002000B593B0342106A8B5
:10296000FDF798FC142101A8FDF794FC00BF00209E
:1029700000902548006840F08050234908600846D0
:10298000006800F08050009000BF00BF00BF002032
:1029900000901E48006840F440401C49086008460A
:1029A000006800F44040009000BF00BF092006907E
:1029B0004FF48030079001200B9002200C904105CD
:1029C0000D9104210E9164210F910221109111911A
:1029D000129106A8FFF758F908B1FDF73EFE0F2047
:1029E000019002200290002003904FF48050049048
:1029F00000200590032101A8FEF770FF08B1FDF744
:102A00002CFE13B000BD00004038024000700040B2
:102A10000348006840F470000149086070470000F6
:102A200088ED00E070B5054600242846FFF75CFFFE
:102A300004460948844201D1002070BD0748844201
:102A400001D10220F9E70648844201D10120F4E7D0
:102A50004FF0FF30F1E7000000AA50A0AA5550A0A7
:102A60005A5A50A07CB500240020019030480068DC
:102A7000009030493048FDF7B3FD28B12D48FDF7EF
:102A8000F1FC2E48FFF734FE2D48007820B10128D4
:102A900047D002284AD141E02A48FFF7C3FF44B299
:102AA000601C58B900F0D2F805462A460221684653
:102AB000FDF764FC0220224908702EE0022C0AD1A6
:102AC00000F0C4F805462A4602216846FDF756FC88
:102AD000FDF762FF21E01CB90120194908701CE0D4
:102AE000012C1AD1FF208DF80000F5208DF801008F
:102AF00000F0ACF805462A4602216846FDF73EFC88
:102B000000F026F80F48FFF733FB0F48019001A9AA
:102B10000C48FFF7ECFEFFF711FE07E0FDF70AFF98
:102B200004E004490948FFF7E1FC00BF00BF7CBD99
:102B3000E82C00086C170020200000201C0000205A
:102B40001400002000400008AA5550A05C1300208B
:102B500070B50848FFF70CFB074D064C05E0294609
:102B60002046FFF7C4FE2D1D241D0348401E84424D
:102B7000F5D370BD000002080000040870B50446DB
:102B80000D462068FFF7F4FA002608E02946206881
:102B9000FFF7ADFE2068001D20602D1D761C802EE5
:102BA000F4DB70BD2DE9F04105460E460F48284480
:102BB000841F2078432811D1607852280ED1A07844
:102BC00043280BD1E078102808D120793080308854
:102BD000617940EA01203080A81F85B2034F294661
:102BE0003846FDF7EBFBBDE8F0810000000004086B
:102BF00000BFFEE702480068C0F3022070470000F3
:102C00000CED00E010B5002804DB0A07130E054A9E
:102C1000135406E00A07140E034A00F00F031B1FAB
:102C2000D45410BD00E400E018ED00E002E008C854
:102C3000121F08C1002AFAD170477047002001E036
:102C400001C1121F002AFBD17047000010B50024FB
:102C50004FF480410948FEF727FD04464FF4004138
:102C60000648FEF721FD44EA4004032C02D140F25D
:102C7000337400E000BF00BF204610BD00080240D2
:102C800070B504460025FFF7E1FF0546A5F2337055
:102C900008B9012500E000BF00BF14B140F2613067
:102CA00070BD05F26230FBE7FEF74EFDFFF754FE04
:102CB000FFF740FBFFF702FCFFF7DCFA6420FEF7AA
:102CC0003BFB04E06420FFF7AFFAFFF7CBFEF9E728
:102CD00000000000000000000102030406070809CC
:102CE00000000000010203043F0000000C2D00085A
:102CF00000000020200000002C2C00082C2D0008D3
:102D000020000020681B00003C2C00080000000090
:102D100010000000010000000024F400000000008A
:0C2D2000000000000000000000000000A7
:04000005080001C529
:00000001FF
