:020000040800F2
:10000000C8340020DD010008A52700084F220008A1
:10001000A12700086D040008132E0008000000004E
:10002000000000000000000000000000032900089C
:100030001905000800000000A92700085129000840
:10004000F7010008F7010008F7010008F7010008B0
:10005000F7010008F7010008F7010008F7010008A0
:10006000F7010008F7010008F7010008F701000890
:10007000F7010008F7010008F7010008F701000880
:10008000F7010008F7010008F7010008F701000870
:1000900071040008F7010008F7010008F7010008E3
:1000A000F7010008F7010008F7010008F92A000825
:1000B000F7010008F7010008F7010008F701000840
:1000C000F7010008F7010008F7010008F701000830
:1000D000F7010008F7010008F7010008F701000820
:1000E000F7010008F7010008F7010008F701000810
:1000F000F7010008F7010008F7010008F701000800
:1001000000000000F7010008F7010008F7010008EF
:100110000000000000000000F7010008F7010008DF
:10012000F7010008F7010008F7010008F7010008CF
:10013000F7010008F7010008F7010008F7010008BF
:10014000F7010008F7010008F7010008F7010008AF
:10015000F7010008F7010008F7010008F70100089F
:10016000F7010008F701000800000000000000008F
:10017000000000000000000000000000000000007F
:10018000F7010008F701000800000000000000006F
:10019000F7010008F701000800000000000000005F
:1001A000000000000000000000000000000000004F
:1001B000F70100080000000000000000F70100083F
:1001C000F7010008DFF810D000F08EF80048004773
:1001D000BD2E0008AFF30080C834002006488047D9
:1001E00006480047FEE7FEE7FEE7FEE7FEE7FEE71C
:1001F000FEE7FEE7FEE7FEE7312A0008C50100083A
:100200002DE9F05F0546002092469B46884606464B
:10021000814640241BE0284641464746224600F0DE
:1002200053F853465A46C01A914110D31146184606
:10023000224600F03AF82D1A67EB01084F46224695
:100240000120002100F031F817EB00094E41201E7B
:10025000A4F10104DFDC484631462A464346BDE8A6
:10026000F09F40EA01039B0703D009E008C9121F71
:1002700008C0042AFAD203E011F8013B00F8013B60
:10028000521EF9D27047D2B201E000F8012B491E8C
:10029000FBD270470022F6E710B513460A46044623
:1002A0001946FFF7F0FF204610BD202A04DB203A54
:1002B00000FA02F1002070479140C2F1200320FAB9
:1002C00003F3194390407047202A04DB203A21FAB7
:1002D00002F00021704721FA02F3D040C2F120025F
:1002E0009140084319467047064C074D06E0E06808
:1002F00040F0010394E8070098471034AC42F6D36D
:10030000FFF764FF002F0008202F000855494A68B6
:1003100022F440324A604A6843681A434A600268DD
:10032000526822F4807203685A6002685368026956
:1003300043EA022203685A600268526822F040725F
:1003400003685A600268526883681A4303685A60F7
:100350000268926822F4006203689A6002689268F8
:10036000C3681A4303689A603F4B826A9A4218D066
:100370000268926822F0706203689A60026892686C
:10038000836A1A4303689A600268926822F04052B6
:1003900003689A6002689268C36A1A4303689A60A5
:1003A0000BE00268926822F0706203689A6002684B
:1003B000926822F0405203689A600268926822F0C4
:1003C000020203689A6002689368027E43EA42026E
:1003D00003689A602022125CA2B10268526842F45B
:1003E000006203685A600268526822F4604203683F
:1003F0005A6002685368426A521E43EA42320368F6
:100400005A6005E00268526822F4006203685A608C
:100410000268D26A22F470020368DA620268D36A60
:10042000828B521E43EA02520368DA6202689268C3
:1004300022F4007203689A600268936890F8302092
:1004400043EA422203689A600268926822F480625A
:1004500003689A6002689368426943EA82220368EB
:100460009A607047002301400100000F00BFFEE7C3
:1004700000B58DB0002004900590154800684069D3
:1004800000F00200F8B11CE011480068C06800F0FC
:10049000030000B916E004AB06AA00210C4800F0E6
:1004A00042FA70B904AA0B4906A800F017F8094AE5
:1004B0000C3207CA8DE8070006480EC8064800F04F
:1004C0002CF8E1E700BF024800F0EAFA0DB000BDE9
:1004D000682F0020502F00206000002030B5134608
:1004E0000022846814B904680C6004E08468042C59
:1004F00001D144680C6084684C60C4688C600469F5
:10050000CC60002204E09D5C01F11004A554521C53
:1005100004699442F7D830BD70470FB410B5044653
:10052000204602F0DFF918B1002010BC5DF814FB82
:10053000626802EB4202E16801EBC200182203A9E3
:10054000FFF78FFE6068401CA168B0FBF1F201FB71
:10055000120060600120E8E772B600BFFEE700000D
:1005600038B502460020009000BF92F83C000128F8
:1005700001D1022038BD012082F83C0000BF08688C
:10058000092816D91068C0680C780A3C04EB4405A9
:100590000724AC40A0431468E0600C780A3C04EBEC
:1005A00044048868A0401468E46820431468E0604C
:1005B00013E0106800690C7804EB44050724AC4094
:1005C000A043146820610C7804EB44048868A040C0
:1005D000146824692043146820614868072817D2EA
:1005E0001068406B0C79641E04EB84051F24AC403A
:1005F000A04314686063088880B20C79641E04EB21
:100600008404A0401468646B20431468606331E084
:1006100048680D2817D21068006B0C79E41F04EBB2
:1006200084051F24AC40A04314682063088880B26E
:100630000C79E41F04EB8404A0401468246B20436D
:100640001468206316E01068C06A0C790D3C04EB56
:1006500084051F24AC40A0431468E062088880B27F
:100660000C790D3C04EB8404A0401468E46A204338
:100670001468E062194B1A4C1068A04206D1086851
:10068000122803D1586840F480005860144C106858
:10069000A0421CD10868102802D00868112816D181
:1006A000586840F400005860086810280FD10D48C1
:1006B00000680D4CB0FBF4F000EB800040000090AF
:1006C00002E00098401E009000980028F9D100BF79
:1006D000002082F83C0000BF00BF4BE70023014030
:1006E000002001401000002040420F0070B5044679
:1006F00000250CB9012070BD1549A06A884200D0C0
:1007000000BF206C30B9204600F024F8002060645F
:1007100084F83C00206C00F0100088B9206C20F4B4
:10072000885040F0020020642046FFF7EFFD0020D3
:100730006064206C20F0020040F00100206400E0C2
:10074000012500BF002084F83C0000BF2846D2E706
:100750000100000F10B586B00446142101A8FFF770
:1007600099FD1949206888422BD100BF00200090D4
:100770001648006840F48070144908600846006814
:1007800000F48070009000BF00BF00BF0020009008
:100790000E481438006840F004000C491439086011
:1007A0000846006800F00400009000BF00BF112060
:1007B0000190032002900020039001A9044800F05A
:1007C000D9FB06B010BD00000020014044380240B3
:1007D0000008024010B5024692F82030012B01D0EB
:1007E000022B06D11068406908431468606100203C
:1007F00010BD506A40F4802050620120F8E70000EC
:10080000F0B504460A46216894F82050012D01D025
:10081000022D7ED1424901F50071086840F00100C7
:100820000860086820F47C5008600868566A40EA4E
:1008300006200860107D00F01F06012000FA06F374
:10084000C8699843C861A1F50071D069C8B9D1F8E9
:100850000C029843C1F80C02908880B2968940EA55
:10086000064601F51070576940F83760108880B26D
:10087000168940EA064601F51070576900EBC7007B
:100880004660D069012819D1D1F80C021843C1F88B
:100890000C02908880B2168840EA064601F5107076
:1008A000576940F83760908980B2168940EA064659
:1008B00001F51070576900EBC7004660906928B9D0
:1008C000D1F804029843C1F8040204E0D1F804020C
:1008D0001843C1F80402106928B9D1F814029843EA
:1008E000C1F8140204E0D1F814021843C1F814024C
:1008F000106A012804D1D1F81C021843C1F81C0267
:10090000D1F8000220F00100C1F800020020F0BD83
:10091000FFE7606A40F4802060620120F7E7000092
:1009200000640040704770B5044694F82050012DD3
:1009300001D0022D7DD151B92068C06800F00300BC
:1009400080B9606A40F400106062012070BD2068C8
:10095000006900F0030028B9606A40F4001060628A
:100960000120F3E7206800F5D87000EB0110006863
:1009700000F004009060906840B9206800F5D870DD
:1009800000EB01100068400D106007E0206800F5E2
:10099000D87000EB01100068C0085060206800F5B6
:1009A000D87000EB0110006800F00200D0602068F1
:1009B00000F5D87000EB0110406800F00F001061E6
:1009C000206800F5D87000EB0110406800F47F400B
:1009D000000A9061206800F5D87000EB01104068B3
:1009E000000C5061206800F5D87000EB01108068A1
:1009F0001870206800F5D87000EB0110806800F4D2
:100A00007F40000A5870206800F5D87000EB011094
:100A1000806800F47F00000C9870206800F5D870A2
:100A200000EB01108068000ED870206800F5D870C7
:100A300000E02FE000EB0110C0681871206800F59D
:100A4000D87000EB0110C06800F47F40000A5871B4
:100A5000206800F5D87000EB0110C06800F47F003A
:100A6000000C9871206800F5D87000EB0110C06888
:100A7000000ED87131B92068C06840F020002668A7
:100A8000F06005E02068006940F0200026683061D1
:100A900000205BE7606A40F480206062012055E737
:100AA0002DE9F05F04460025206846692068D0F8EB
:100AB0000490206887682068D0F80CA02068D0F8DF
:100AC00010B02068D0F8188006F00100002855D03A
:100AD00007F00100C0B101202168886007F0020022
:100AE00018B1204600F03FFA0EE007F0040010B104
:100AF00045F4006508E007F0080010B145F48055A2
:100B000002E0204600F02EFA07F48070C8B14FF4DE
:100B100080702168886007F4007018B1204600F0EA
:100B200024FA0EE007F4806010B145F4005508E0A7
:100B300007F4006010B145F4804502E0204600F063
:100B400013FA07F48030C8B14FF480302168886010
:100B500007F4003018B1204600F009FA0EE007F45F
:100B6000802010B145F4004508E007F4002010B1E2
:100B700045F4803502E0204600F0F8F906F0080060
:100B800038B10AF0100020B145F40075102021683A
:100B9000C86006F0040040B10AF0080028B108203F
:100BA0002168C860204600F0A9F906F0020038B1BB
:100BB0002068C06800F0030010B1204600F09FF9E3
:100BC00006F0400038B10BF0100020B145F480650C
:100BD00010202168086106F0200040B10BF00800E9
:100BE00028B1082021680861204600F089F906F044
:100BF000100038B12068006900F0030010B12046F1
:100C000000F07FF906F4003040B109F0100028B17F
:100C1000102021684860204600F074F906F4803006
:100C200040B109F0080028B108202168486020463A
:100C300000F09EF906F4004088B309F0040078B390
:100C400006F4807020B108F0010008B145F00105FC
:100C500006F4007020B108F0020008B145F002056A
:100C600006F4806020B108F0040008B145F00405E6
:100C700006F40060A0B108F0700088B108F07000C0
:100C8000402817D006DC10280BD020280CD03028A4
:100C900019D10CE0502810D0602814D110E01DE0CC
:100CA00019E045F008050FE045F010050CE045F0AF
:100CB000200509E045F0400506E045F0800503E029
:100CC00045F4807500E000BF00BF2068806920F017
:100CD0007000216888610420216848602DB1606A35
:100CE000284360622046FFF71DFEBDE8F09F70B507
:100CF00004460CB9012070BD94F8200010B92046BC
:100D000000F0B0F82068006840F001002168086039
:100D100000F01CFA05460DE000F018FA401B0A2806
:100D200008D9606A40F400306062052084F8200031
:100D30000120E0E72068406800F001000028EBD0C7
:100D40002068006820F002002168086000F0FEF9C9
:100D500005460DE000F0FAF9401B0A2808D9606A40
:100D600040F400306062052084F820000120C2E7D2
:100D70002068406800F002000028EBD1207E0128A6
:100D800006D12068006840F080002168086005E016
:100D90002068006820F0800021680860607E0128DB
:100DA00006D12068006840F040002168086005E036
:100DB0002068006820F0400021680860A07E0128BB
:100DC00006D12068006840F020002168086005E036
:100DD0002068006820F0200021680860E07E01287B
:100DE00006D12068006820F010002168086005E046
:100DF0002068006840F0100021680860207F01280A
:100E000006D12068006840F008002168086005E00D
:100E10002068006820F0080021680860607F0128D1
:100E200006D12068006840F004002168086005E0F1
:100E30002068006820F0040021680860D4E90201FD
:100E4000084321690843616908436168491E0843F2
:100E50002168C86100206062012084F82000002021
:100E600049E7000010B586B00446142101A8FFF739
:100E700011FA1F492068884238D100BF0020009035
:100E80001C48006840F000701A4908600846006875
:100E900000F00070009000BF00BF00BF0020009075
:100EA00014481038006840F00200124910390860F8
:100EB0000846006800F00200009000BF00BF4FF439
:100EC00040700190022002900020039003200490C3
:100ED0000820059001A9084800F04CF800221146AE
:100EE000142000F0EDF9142000F0DAF906B010BD7E
:100EF00000640040403802400004024070477047E0
:100F000070477047704770B5044694F82000012878
:100F100022D1022084F820002068006820F001001F
:100F20002168086000F012F905460DE000F00EF9A6
:100F3000401B0A2808D9606A40F40030606205202E
:100F400084F82000012070BD2068406800F0010096
:100F50000028EBD16062F6E7606A40F4002060622E
:100F60000120F0E77047704770477047704770473F
:100F700070470000F8B503460A460025002400200B
:100F80000021C2E0012606FA01F5166806EA05040A
:100F9000AC4274D1167906F00306012E04D01679FE
:100FA00006F00306022E13D198684F000326BE40B8
:100FB000B0434F00D668BE40304398605868012661
:100FC0008E40B0431679C6F300168E403043586009
:100FD000167906F00306032E09D0D8684F000326C1
:100FE000BE40B0434F009668BE403043D86016798B
:100FF00006F00306022E13D1CF0803F1200656F89F
:1010000027004E07F70E0F26BE40B0434F07FF0ED6
:101010001669BE403043CF0803F1200646F827008A
:1010200018684F000326BE40B043167906F0030649
:101030004F00BE4030431860566806F44036002E1C
:1010400062D000BF00260096324E366846F48046D5
:10105000304F3E603E46366806F48046009600BF3C
:1010600000BF2D4E8F0856F827008E07370F0F262A
:10107000BE40B043294EB34202D1002610E043E007
:10108000274EB34201D101260AE0264EB34201D1D8
:10109000022605E0244EB34201D1032600E00726D4
:1010A0008F073F0FBE4030431B4E8F0846F8270086
:1010B0001E4E3068A043566806F4801606B12043E1
:1010C0001A4E3060361D3068A043566806F400168C
:1010D00006B12043154E361D3060144E361F306861
:1010E000A043566806F4003606B120430F4E361F63
:1010F0003060361F3068A043566806F4803606B16B
:1011000020430A4E083E3060491C1029FFF43AAFD4
:10111000F8BD000044380240083801400000024099
:101120000004024000080240000C0240083C01405C
:10113000024613690B400BB1012000E0002070470C
:101140000AB1816101E00B048361704701480068C6
:10115000704700000400002070B504460CB901205F
:1011600070BD4CF6CC402168086045F255502168AE
:101170000860D4E9001048602168A0688860FFF723
:10118000E5FF05460BE0FFF7E1FF401B312806D9DC
:101190002068C06800F0030008B10320E0E7206881
:1011A000C06800F003000028EDD14AF6AA202168AB
:1011B00008600020D4E7000003480068034909786C
:1011C0000844014908607047040000200C0000201A
:1011D00010B50D48006840F400700B4908600846DF
:1011E000006840F4806008600846006840F4807041
:1011F0000860032000F0A2F80F2000F007F800F0CC
:101200002BF8002010BD0000003C024070B50446E1
:101210000E4800784FF47A71B1FBF0F00C49096880
:10122000B1FBF0F5284600F00FFC08B1012070BDBD
:10123000102C07D200222146501E00F041F805482C
:10124000046001E00120F2E70020F0E70C0000203C
:10125000100000200800002008B500BF002000900A
:101260000E48006840F480400C4908600846006859
:1012700000F48040009000BF00BF00BF002000903D
:10128000081F006840F08050091F08600846006889
:1012900000F08050009000BF00BF08BD44380240FD
:1012A00001460846002809DB00F01F0301229A408E
:1012B00043099B0003F1E023C3F8002100BF7047FE
:1012C0002DE9F05F80460D461646002701F0A4FD8B
:1012D000074639462A46334601F00700C0F1070A9F
:1012E000BAF1040F02D94FF0040A01E0C0F1070A75
:1012F000D14600F1040ABAF1070F02D24FF0000AFA
:1013000001E0A0F1030AD4464FF0010A0AFA09FAF3
:10131000AAF1010A0AEA020A0AFA0CFA4FF0010BD2
:101320000BFA0CFBABF1010B0BEA030B4AEA0B04C3
:101330002146404601F078FDBDE8F09F00BF00F077
:101340000702064B19684FF6FF031940044B0B4385
:1013500043EA0221014B196000BF70470CED00E029
:101360000000FA0570B504460D460CB9012070BDA9
:101370005848006800F00700A84209D255490D708E
:101380000846006800F00700A84201D00120EEE7FF
:10139000207800F0020002281DD1207800F004001F
:1013A000042805D14C48006840F4E0504A490860E0
:1013B000207800F00800082805D14748006840F46C
:1013C0006040454908604448006820F0F000A1688A
:1013D000084341490860207800F00100A8B3606824
:1013E000012807D13C4808380068C0F34040B8B92C
:1013F0000120BCE76068022802D06068032807D19A
:10140000354808380068C0F3406048B90120AEE7AD
:10141000314808380068C0F3400008B90120A6E749
:101420002D48006820F00300616808432A490860DD
:10143000FFF78CFE064609E0FFF788FE801B41F2AD
:101440008831884202D9032091E707E022480068EA
:1014500000F00C006168B0EB810FEDD11D48006811
:1014600000F00700A84209D91A490D700846006823
:1014700000F00700A84201D0012078E7207800F0B2
:101480000400042807D11448006820F4E050E16803
:10149000084311490860207800F00800082808D1A6
:1014A0000D48006820F46040216940EAC1000A4903
:1014B000086000F019F808490968C1F30311074AE8
:1014C000515CC8400649086006480068FFF79EFE68
:1014D00000204CE7003C024008380240E82E00089B
:1014E00010000020080000202DE9F047002400250E
:1014F0000026A1462548006800F00C0020B1042811
:1015000005D008283AD105E0DFF8849039E0DFF80B
:10151000849036E01D48001F006800F03F041B481F
:10152000001F006800F4800078B11A481749091FAD
:101530000968C1F38811A0FB01700146224600230F
:101540003846FEF75DFE05460EE011480F49091FBB
:101550000968C1F38811A0FB0170014622460023EF
:101560003846FEF74DFE05460848001F0068C0F3E8
:101570000140401C4600B5FBF6F902E0DFF8109090
:1015800000BF00BF4846BDE8F087000008380240B1
:101590000024F40000127A00F8B504460CB90120CA
:1015A000F8BD207800F00100002874D0F7480068EA
:1015B00000F00C0004280DD0F448006800F00C0086
:1015C000082813D1F148001F006800F48000B0F52E
:1015D000800F0BD1ED4808380068C0F34040002868
:1015E00059D06068002856D10120D9E700BF606853
:1015F000B0F5803F08D1E5480838006840F48030F5
:10160000E249083908601EE06068B0F5A02F0DD1EE
:10161000DE480838006840F48020DC49083908605A
:101620000846006840F4803008600CE0D74808386D
:10163000006820F48030D549083908600846006801
:1016400020F48020086000BF606890B1FFF77EFD45
:10165000054606E0FFF77AFD401B642801D9032008
:101660009EE7CA4808380068C0F340400028F1D01F
:1016700011E0FFF76BFD054606E0FFF767FD401B35
:10168000642801D903208BE7C04808380068C0F3FC
:1016900040400028F1D1207800F0020002285FD1FC
:1016A000BA48006800F00C0058B1B848006800F073
:1016B0000C0008281CD1B548001F006800F4800009
:1016C000B0B9B24808380068C0F3400020B1E06803
:1016D000012801D0012063E7AC480838006820F0F9
:1016E000F800216940EAC100A8490839086037E0DC
:1016F000E06800B30120A6490860FFF727FD054612
:1017000006E0FFF723FD401B022801D9032047E72D
:101710009E4808380068C0F340000028F1D09B487C
:101720000838006820F0F800216940EAC1009749B4
:101730000839086014E0002095490860FFF706FDAD
:10174000054606E0FFF702FD401B022801D90320F1
:1017500026E78E4808380068C0F340000028F1D121
:10176000207800F0080008282CD16069A8B1012079
:1017700088490860FFF7EAFC054606E0FFF7E6FC4B
:10178000401B022801D903200AE780486C3000681A
:10179000C0F340000028F1D014E000207D4908602B
:1017A000FFF7D4FC054606E0FFF7D0FC401B0228FB
:1017B00001D90320F4E675486C300068C0F340009E
:1017C0000028F1D1207800F00400042870D100270F
:1017D0006E483830006800F0805090B900BF00209B
:1017E00000906A483830006840F0805067493831CE
:1017F00008600846006800F08050009000BF00BFFD
:1018000001276548006800F48070B0B9624800683C
:1018100040F4807060490860FFF798FC054606E0D8
:10182000FFF794FC401B022801D90320B8E65A4870
:10183000006800F480700028F2D000BFA068012882
:1018400008D152486830006840F001004F496831C3
:1018500008601DE0A06805280DD14C48683000687C
:1018600040F004004949683108600846006840F0CB
:10187000010008600CE045486830006820F0010075
:101880004249683108600846006820F0040008609A
:1018900000BFA068A8B1FFF759FC054609E0FFF7B3
:1018A00055FC401B41F28831884202D9032077E67B
:1018B00026E0364868300068C0F340000028EED0CB
:1018C00013E0FFF743FC054608E0FFF73FFC401B31
:1018D00041F28831884201D9032061E62B48683003
:1018E0000068C0F340000028EFD1012F07D127483E
:1018F0003830006820F0805024493831086000BF3B
:10190000A069002850D02148006800F00C00082889
:1019100060D0A069022848D100201D490866FFF761
:1019200015FC054606E0FFF711FC401B022801D913
:10193000032035E6154808380068C0F340600028E9
:10194000F1D1D4E907010843616A40EA811101221B
:10195000A06AC2EB500041EA00412C20005D41EA40
:1019600000613020005D41EA00700849091F0860ED
:10197000012007490866FFF7E9FB05460EE0FFF77F
:10198000E5FB401B022809D9032009E6083802407C
:1019900000004742800E474200700040284800681F
:1019A000C0F340600028EAD048E0002025490866DE
:1019B000FFF7CCFB054606E0FFF7C8FB401B0228FB
:1019C00001D90320ECE51E480068C0F34060002800
:1019D000F2D133E0A069012800D1E1E51848001DEB
:1019E0000668A069012827D006F48001E0698142D9
:1019F00022D106F03F01206A81421DD147F6C07016
:101A00003040616AB0EB811F16D106F440310122EB
:101A1000A06AC2EB5000B1EB004F0DD106F070612F
:101A20002C20005DB1EB006F06D106F0E0413020C4
:101A3000005DB1EB007F01D00120B1E50020AFE5F2
:101A4000003802400000474270B504462546681E33
:101A5000B0F1807F01D301200FE0681E4FF0E0213C
:101A600048610F214FF0FF3001F0DEF900204FF008
:101A7000E021886107200861002070BD7047704731
:101A800010B50346002200BF93F83C00012801D1A5
:101A9000022010BD012083F83C0000BF22F0FF00AF
:101AA000CC6840EA040222F440708C6840EA0402E8
:101AB00022F480604C6840EA040222F400600C6862
:101AC00040EA040222F480500C6940EA040222F445
:101AD00000504C6940EA040222F48040CC6940EA9C
:101AE00004021868426400BF002083F83C0000BF75
:101AF00000BFCEE730B502460B4600BF92F83C006F
:101B0000012801D1022030BD012082F83C0000BF35
:101B1000022082F83D00106844681068816824F053
:101B200070041868044310684460184D1068A84297
:101B30001BD01068B0F1804F17D0154D1068A84227
:101B400013D0144D1068A8420FD0134D1068A8424E
:101B50000BD0124D1068A84207D0114D1068A84252
:101B600003D0104D1068A84205D121F080015868BB
:101B7000014310688160012082F83D0000BF002011
:101B800082F83C0000BF00BFBDE70000000001403C
:101B90000004004000080040000C00400004014028
:101BA000004001400018004010B504460CB9012067
:101BB00010BD94F83D0028B9002084F83C00204670
:101BC00000F026F8022084F83D00211D206800F076
:101BD0009DFF012084F8460000BF84F83E000121EB
:101BE0003F200155402001554120015500BF00BF55
:101BF000012084F84200432001554420015545202E
:101C0000015500BF012084F83D000020D0E700000E
:101C100038B5044619492068884218D100BF002011
:101C200000901748006840F0010015490860084618
:101C3000006800F00100009000BF00BF00221146C4
:101C40001B20FFF73DFB1B20FFF72AFB15E0206858
:101C5000B0F1804F11D100BF002000900848001F54
:101C6000006840F001000649091F08600846006846
:101C700000F00100009000BF00BF38BD000001402F
:101C8000443802402DE9F04104460D46002700BFCC
:101C900094F83C00012802D10220BDE8F081012027
:101CA00084F83C0000BF022084F83D00206886686C
:101CB00026F0770626F47F4620688660286850283C
:101CC00033D00CDC202850D004DC00284BD0102866
:101CD00051D149E0302849D040284CD139E0602822
:101CE0002DD0702807D0B0F5805F03D0B0F5005F2D
:101CF00041D10DE041E0D5E902136A68206800F0A7
:101D000071FF2068866846F077062068866034E0B8
:101D1000D5E902136A68206800F064FF20688068D3
:101D200040F480402168886027E0EA68696820689C
:101D300001F048F85021206800F05FFF1DE0EA68DC
:101D40006968206801F051F86021206800F055FFB3
:101D500013E0EA686968206801F034F840212068DF
:101D600000F04BFF09E000BF00BF00BF29682068FA
:101D700000F043FF01E0012700BF00BF012084F80D
:101D80003D0000BF002084F83C0000BF384684E7D7
:101D9000704710B5044620680069C0F34000D8B110
:101DA0002068C068C0F34000B0B16FF00200216845
:101DB0000861012020772068806900F0030018B1D5
:101DC0002046FFF7E5FF05E0204600F039F9204600
:101DD00000F021FA0020207720680069C0F380001D
:101DE000D8B12068C068C0F38000B0B16FF00400C3
:101DF00021680861022020772068806900F4407023
:101E000018B12046FFF7C4FF05E0204600F018F99E
:101E1000204600F000FA0020207720680069C0F317
:101E2000C000D8B12068C068C0F3C000B0B16FF086
:101E3000080021680861042020772068C06900F04C
:101E4000030018B12046FFF7A3FF05E0204600F08D
:101E5000F7F8204600F0DFF90020207720680069BD
:101E6000C0F30010D8B12068C068C0F30010B0B152
:101E70006FF0100021680861082020772068C06991
:101E800000F4407018B12046FFF782FF05E02046BD
:101E900000F0D6F8204600F0BEF900202077206838
:101EA000006900F0010058B12068C06800F001002E
:101EB00030B16FF0010021680861204600F0ACF9F4
:101EC00020680069C0F3C01058B12068C068C0F332
:101ED000C01030B16FF08000216808612046FFF724
:101EE000CDFD20680069C0F3801058B12068C0683B
:101EF000C0F3801030B16FF04000216808612046C7
:101F000000F0A4F920680069C0F3401058B12068BF
:101F1000C068C0F3401030B16FF020002168086144
:101F20002046FFF7ACFD10BD10B586B00446142165
:101F300001A8FEF7AFF92349206888421DD100BFF0
:101F4000002000902048006840F001001E49086011
:101F50000846006800F00100009000BF00BF4FF489
:101F6000706001900220029003900490012005907F
:101F700001A91648FEF7FEFF21E02068B0F1804F6E
:101F80001DD100BF002000900F48006840F0010004
:101F90000D4908600846006800F00100009000BF8D
:101FA00000BF0F2001900220029000200390022029
:101FB00004900120059001A90448FEF7DBFF06B05C
:101FC00010BD000000000140303802400000024017
:101FD0002DE9F04104460E461546002700BF94F84F
:101FE0003C00012802D10220BDE8F081012084F8E4
:101FF0003C0000BF35B1042D09D0082D0CD00C2DAC
:1020000014D10EE03146206800F000FE10E03146A9
:10201000206800F033FE0BE03146206800F06CFED3
:1020200006E03146206800F0A3FE01E0012700BF72
:1020300000BF00BF002084F83C0000BF3846D3E753
:10204000704710B504460CB9012010BD94F83D004E
:1020500028B9002084F83C00204600F025F8022032
:1020600084F83D00211D206800F050FD012084F817
:10207000460000BF84F83E0001213F20015540206A
:1020800001554120015500BF00BF012084F84200E6
:1020900043200155442001554520015500BF012032
:1020A00084F83D000020D0E770472DE9F041044658
:1020B0000D461646002700BF94F83C00012802D1C7
:1020C0000220BDE8F081012084F83C0000BF36B159
:1020D000042E1BD0082E31D00C2E5ED145E02946AF
:1020E000206800F093FD2068806940F008002168B6
:1020F00088612068806920F0040021688861206878
:102100008069296908432168886148E02946206878
:1021100000F0B4FD2068806940F4006021688861A7
:102120002068806920F48060216888612068806967
:10213000296940EA01202168886130E02946206849
:1021400000F0DAFD2068C06940F008002168C8612D
:102150002068C06920F004002168C8612068C06957
:10216000296908432168C86119E02946206800F000
:10217000FFFD2068C06940F400602168C8612068E4
:10218000C06920F480602168C8612068C06929693D
:1021900040EA01202168C86101E0012700BF00BFBB
:1021A00000BF002084F83C0000BF384689E710B526
:1021B00004460CB9012010BD94F83D0028B9002058
:1021C00084F83C00204600F025F8022084F83D0009
:1021D000211D206800F09AFC012084F8460000BF11
:1021E00084F83E0001213F20015540200155412047
:1021F000015500BF00BF012084F842004320015573
:10220000442001554520015500BF012084F83D00C0
:102210000020D0E77047704770470246002031B178
:10222000042907D0082908D00C290CD108E013682C
:10223000586B09E01368986B06E01368D86B03E0ED
:102240001368186C00E000BF00BF7047704700BF04
:10225000FEE70023036043608260C16070470000B6
:102260004AF6AA200149096808607047902F0020AB
:1022700000B502460F48006890421AD30E48006825
:1022800000F4005040B10C480830006840F00050A5
:1022900009490831086007E007480830006840F441
:1022A0000050054908310860FFF7DAFF00200149B6
:1022B000086000BD14000020100802401FB5002077
:1022C00000900190029003901D481E4908604FF451
:1022D0008030486000211B4881600121016100219C
:1022E0000176012180F8201041620021C162164967
:1022F00081620021C1600221C161002180F830109B
:1023000001214161FEF7F2F908B1FEF725F90A2033
:102310000090012001900320029069460948FEF7D1
:102320001FF908B1FEF718F90E2000900220019065
:1023300069460448FEF714F908B1FEF70DF91FBD10
:1023400000200140180000200100000F00B58BB0F4
:102350002B482C4908600A204860002129488160E8
:10236000C1604FF400310161002141610176417685
:1023700081760121C176002101774177FEF7B7FC14
:1023800008B1FEF7E9F8012009900020069001202D
:10239000079008900020059000F07EFD400101901C
:1023A000002002904FF6FF700390049001A9154899
:1023B000FEF726FA08B1FEF7CFF80120069000F0EC
:1023C0006BFD4001019001A90E48FEF719FA08B112
:1023D000FEF7C2F80B48FEF796FD08B1FEF7BCF811
:1023E00002210848FEF7F6F908B1FEF7B5F84FF4F8
:1023F000FA7205490548FFF72CFF0BB000BD00003D
:1024000000640040682F0020700000206000002061
:1024100000B587B0142102A8FDF73CFF00BF0020E3
:1024200001905848006840F004005649086008468A
:10243000006800F00400019000BF00BF00BF002052
:1024400001900846006840F0800008600846006877
:1024500000F08000019000BF00BF00BF002001908D
:102460000846006840F0010008600846006800F077
:102470000100019000BF00BF00BF0020019008468E
:10248000006840F0020008600846006800F00200A2
:10249000019000BF00BF00BF002001900846006807
:1024A00040F0080008600846006800F0080001904D
:1024B00000BF00BF012251033348FEF741FE002256
:1024C0004FF2FF413148FEF73BFE00224FF470719E
:1024D0002D48FEF735FE00224FF410412C48FEF740
:1024E0002FFE4FF400500290012003900490002032
:1024F000059002A92448FEF73DFD4DF62C400290C0
:1025000000200390049002A91F48FEF733FDF0203D
:10251000029000200390049002A91D48FEF72AFDB6
:102520004FF2FF400290012003900220049000200F
:10253000059002A91548FEF71DFD4FF4707002903A
:1025400001200390022004900020059002A90E486B
:10255000FEF710FD4FF4104002900120039002207E
:1025600004900020059002A90948FEF703FD04200D
:10257000029000200390049002A90648FEF7FAFC9E
:1025800007B000BD3038024000080240000402409D
:1025900000000240000C024010B5074807490860DF
:1025A0000620486040F6FF7104488160FEF7D4FDC4
:1025B00008B1FDF7D1FF10BD00300040902F002082
:1025C00000B595B0002011901290139014900F90C8
:1025D00010901C2108A8FDF75DFE20216846FDF73C
:1025E00059FE38483849086040F2F310486000212D
:1025F000354881604FF6FF71C16000210161416182
:1026000080218161FFF7D0FA08B1FDF7A5FF4FF4F3
:102610008050119011A92C48FFF734FB08B1FDF749
:102620009BFF2948FFF70DFD08B1FDF795FF00203E
:102630000F9010900FA92448FFF75CFA08B1FDF73E
:102640008BFF30200890002009900A900B900C908E
:102650000D900E90002208A91B48FFF7B9FC08B1A5
:10266000FDF77AFF042208A91748FFF7B1FC08B16B
:10267000FDF772FF082208A91348FFF7A9FC08B16B
:10268000FDF76AFF0C2208A90F48FFF7A1FC08B16B
:10269000FDF762FF002000900190029003900490EB
:1026A0004FF4005005900020079069460648FFF758
:1026B000E7F908B1FDF750FF0348FFF735FC15B007
:1026C00000BD0000000001409C2F002000B58DB02F
:1026D000002009900A900B900C90079008901C2104
:1026E0006846FDF7D7FD4FF080402C490860002078
:1026F00048600021294881604FF4FA71C1600021CF
:10270000016180218161FFF74FFA08B1FDF724FFD5
:102710004FF48050099009A92048FFF7B3FA08B197
:10272000FDF71AFF1D48FFF742FD08B1FDF714FF42
:1027300000200790089007A91848FFF7DBF908B1B7
:10274000FDF70AFF602000900020019002900490A5
:10275000002269461148FFF7A8FC08B1FDF7FCFE0E
:10276000042269460D48FFF7A0FC08B1FDF7F4FE0E
:10277000082269460948FFF798FC08B1FDF7ECFE0E
:102780000C2269460548FFF790FC08B1FDF7E4FE0E
:102790000248FFF7C9FB0DB000BD0000E42F002088
:1027A00000BFFEE700BFFEE7704700002DE9F047DD
:1027B0002DED028B05460E4600240027A046A146BB
:1027C000A2469FED450AB0EE408A9FED430AF0EE27
:1027D000408A00EE105AB8EE400AF7EE000A80EE8A
:1027E000801AB0EE418A9FED3D0AC8EE000AF0EE75
:1027F000608ABCEEE80A10EE100A44080A2D04D2E2
:10280000781EBDEC028BBDE8F087052E5FD2DFE8B5
:1028100006F032030E1A260000213148FFF7FDFCB6
:102820000746381980B22E490968486350E00421F0
:102830002B48FFF7F2FC804608EB040080B22849E1
:102840000968886344E008212548FFF7E6FC8146D3
:1028500009EB040080B222490968C86338E00C2102
:102860001F48FFF7DAFC82460AEB040080B21C49DD
:10287000096808642CE000211948FFF7CEFC0746E0
:10288000381980B216490968486304211448FFF7D3
:10289000C4FC804608EB040080B2114909688863D3
:1028A00008210F48FFF7B9FC814609EB040080B20C
:1028B0000B490968C8630C210948FFF7AEFC824642
:1028C0000AEB040080B206490968086400E000BF12
:1028D00000BF002095E7000000000000ACC5A7364F
:1028E0009C2F002001464868401C8A68B0FBF2F328
:1028F00002FB13000A68904201D1012070470020BA
:10290000FCE7704710B5024600201CE0931D1B5CDD
:10291000012B02D0135C012B07D10C4B33F8103084
:102920005B1C9CB2094B23F810400B5C012B09D1B6
:1029300001F1240333F810305B1C9CB201F1240335
:1029400023F81040401C0628E0DB10BD8830002032
:1029500010B506480068401C044908600449054851
:10296000FFF7D0FFFEF728FC10BD00001400002088
:10297000943000207030002000B593B0342106A8B8
:10298000FDF788FC142101A8FDF784FC00BF00209E
:1029900000902548006840F08050234908600846B0
:1029A000006800F08050009000BF00BF00BF002012
:1029B00000901E48006840F440401C4908600846EA
:1029C000006800F44040009000BF00BF092006905E
:1029D0004FF48030079001200B9002200C904105AD
:1029E0000D9104210E9164210F91022110911191FA
:1029F000129106A8FEF7D0FD08B1FDF7ADFD0F203E
:102A0000019002200290002003904FF48050049027
:102A100000200590032101A8FEF7A4FC08B1FDF7F2
:102A20009BFD13B000BD0000403802400070004024
:102A30000348006840F470000149086070470000D6
:102A400088ED00E010B52A480068006900F0020037
:102A5000022809D127484068401C264948606FF089
:102A6000020023490968086121480068006900F0F4
:102A7000040004280ED11F488068401C1D4988604E
:102A8000022142F21070FFF791FE6FF00400184926
:102A90000968086116480068006900F00800082805
:102AA0000ED11448C068401C1249C860032142F28C
:102AB0001070FFF77BFE6FF008000D490968086190
:102AC0000B480068006900F0100010280DD109487B
:102AD0000069401C07490861086C0421FFF766FE85
:102AE0006FF01000024909680861002010BD000065
:102AF0009C2F00202C30002010B5FFF7A3FF0248C8
:102B0000FFF747F910BD00009C2F002010B50268A8
:102B1000294B98420ED0B0F1804F0BD0274B9842F2
:102B200008D0274B984205D0264B984202D0264B1E
:102B3000984203D122F070024B681A431E4B984210
:102B400020D0B0F1804F1DD01C4B98421AD01C4BA6
:102B5000984217D01B4B984214D01B4B984211D06F
:102B60001A4B98420ED01A4B98420BD0194B9842F0
:102B700008D0194B984205D0184B984202D0184BF8
:102B8000984203D122F44072CB681A4322F08003AA
:102B90004C6943EA040202608B68C3620B6883627B
:102BA000054B984202D0084B984201D10B69036350
:102BB0000123436110BD00000000014000040040FB
:102BC00000080040000C00400004014000400140AB
:102BD000004401400048014000180040001C004033
:102BE0000020004030B50C46816821F47F4142EA64
:102BF000032525432943816030BD0A46816821F0C1
:102C0000700142F0070319438160704730B5056ACF
:102C100025F001050562026A4368846924F07004A6
:102C200024F003040D682C4322F002028D682A432D
:102C3000104DA84200D103E00F4DA84206D100BFBD
:102C400022F00802CD682A4322F00402094DA8426E
:102C500002D0094DA84207D123F4807323F40073F6
:102C60004D692B438D692B43436084614D684563F7
:102C7000026230BD000001400004014030B5056A29
:102C800025F010050562026A4368846924F4E04473
:102C900024F440740D6844EA052422F020028D6873
:102CA00042EA0512124DA84200D103E0114DA8429C
:102CB00007D100BF22F08002CD6842EA051222F05F
:102CC00040020B4DA84202D00A4DA84209D123F47C
:102CD000806323F400634D6943EA85038D6943EA09
:102CE0008503436084614D688563026230BD0000E6
:102CF000000001400004014030B5056A25F48075EC
:102D00000562026A4368C46924F0700424F0030475
:102D10000D682C4322F400728D6842EA0522124DA0
:102D2000A84200D103E0114DA84207D100BF22F410
:102D30000062CD6842EA052222F480620A4DA84270
:102D400002D00A4DA84209D123F4805323F4005342
:102D50004D6943EA05138D6943EA05134360C46175
:102D60004D68C563026230BD0000014000040140AF
:102D700030B5056A25F480550562036A4468C26966
:102D800022F4E04222F440720D6842EA052223F464
:102D900000538D6843EA0533084DA84202D0084D20
:102DA000A84204D124F480444D6944EA8514446067
:102DB000C2614D680564036230BD0000000001403F
:102DC0000004014030B50B461446026A056A25F03E
:102DD00001050562816921F0F00141EA041122F048
:102DE0000A021A438161026230BD30B50B461446B7
:102DF000056A25F0100505628169026A21F47041B7
:102E000041EA043122F0A00242EA03128161026227
:102E100030BD00BFFEE7000002480068C0F302209A
:102E2000704700000CED00E010B5002804DB0A0735
:102E3000130E054A135406E00A07140E034A00F065
:102E40000F031B1FD45410BD00E400E018ED00E098
:102E500002E008C8121F08C1002AFAD17047704763
:102E6000002001E001C1121F002AFBD170470000C1
:102E700010B500244FF480410648FEF759F9044686
:102E80004FF400410348FEF753F944EA4004601C44
:102E900010BD00000008024010B50446FFF7E8FF2F
:102EA0000549086014B140F2613010BD0248006865
:102EB00000F26230F9E7000000000020FEF788F918
:102EC000FFF75AFDFFF7A4FAFFF766FBFFF73EFA9C
:102ED000FFF7F4F9FFF774FBFFF7F8FB03E04FF49B
:102EE000FA70FFF7C5F9FAE70000000000000000E3
:102EF00001020304060708090000000001020304A0
:102F0000202F00080000002018000000502E0008AC
:102F1000382F000818000020B0340000602E000890
:102F20000000000000000000100000000100000090
:082F30000024F4000000000081
:04000005080001C529
:00000001FF
