:020000040800F2
:10000000B0290020990100084F1B0008FB1A0008C6
:10001000291B0008D90300083F2400080000000045
:10002000000000000000000000000000AD1F0008FC
:10003000B1090008000000000D1C0008892000081C
:10004000432400080B1C0008E9200008A31F000837
:10005000B1100008ED1E0008750F0008850F00089C
:100060008D0F00088F0F0008910F000899090008F4
:100070009B0900089D0900089F090008A1090008C4
:10008000A3090008A5090008B50300082704000813
:10009000210400082304000825040008930F000829
:1000A000EB200008F1200008EF200008ED200008F8
:1000B000F3200008F5200008F7200008011B0008C5
:1000C000FF1A0008051B0008031B0008A71F0008F3
:1000D000A91F00080B2100081321000815210008A2
:1000E0007D0F0008A11F0008091C0008FF20000860
:1000F000052100080321000801210008A7090008C4
:100100001B120008A51F0008F9200008AB1F0008FB
:100110000721000809210008FB200008FD20000835
:10012000A9090008AB090008AD090008AF090008DB
:10013000B3010008B3010008B3010008B3010008CF
:10014000B3010008B3010008B3010008B3010008BF
:10015000B3010008B3010008B3010008B3010008AF
:10016000B3010008B3010008B3010008B30100089F
:10017000B3010008B3010008B3010008B30100088F
:10018000B3010008DFF80CD000F002F90048004786
:10019000C92B0008B02900200648804706480047C0
:1001A000FEE7FEE7FEE7FEE7FEE7FEE7FEE7FEE727
:1001B000FEE7FEE78D20000885010008421C10F8CC
:1001C000011B0029FBD1801A7047F0B480EA0102BC
:1001D000D40F4200B2EB410F02D20246084611464C
:1001E0004A0042D0C30DDDB2C1F3C752AD1A202D73
:1001F00035DAC1F3160141F4000204B15242C5F1EF
:10020000200602FA06F12A411044B3EBD05F23D056
:10021000C4B1012DA0EBC35009DCF0BC4FF000428B
:1002200002EAC352DBB200F5000000F083B84000E0
:1002300000F1807000EBC350A0F1807040EAD170F3
:10024000490009E0490841EAC071A0EBC35000F53C
:100250000000400800EBC350F0BC00F062B86142FF
:10026000012202EB4101001BF6E7F0BC704781F070
:100270000041AAE780F00040A7E780EA010210B53C
:1002800002F00043400022D04A001FD0010E01EBD3
:100290001261C0F35600C2F3560240F4000042F46B
:1002A0000002A0FB022000047F39140400D0401C8F
:1002B00050EA124001D44000491EC2B20C0604EBC1
:1002C000D010401C4008802A02D003E0002010BD5E
:1002D00020F00100002900DA0020184310BDC10FF2
:1002E00080EAE0700844CA079623002100F022B893
:1002F00000F0004220F00040C10DC0F3160040F4B1
:1003000000007F2901DA00207047962903DCC1F143
:100310009601C84001E096398840002AF4D0404256
:1003200070470029A8BF7047401C490008BF20F053
:100330000100704710B4B0FA80FC00FA0CF050EAEB
:10034000010404BF10BC704749B1CCF1200421FA6C
:1003500004F411FA0CF118BF012121430843A3EB67
:100360000C01CB1D4FEA00614FEA102042BF002074
:1003700010BC704700EBC35010440029A4BF10BC50
:100380007047401C490008BF20F0010010BC7047B6
:10039000064C074D06E0E06840F0010394E80700D2
:1003A00098471034AC42F6D3FFF7F0FEA4350008AE
:1003B000C435000870473EB504460D4602F0D0F83B
:1003C000F02141EA002000900194029500200422CF
:1003D000694602F013F93EBD00BFFEE710B50446C2
:1003E00000210D4800F0B9F908B9002010BD0B4AF2
:1003F0000021094800F0C0F954B10848807A042867
:1004000004DD0648D0F80F00206001E000202060E5
:1004100002480B30EAE70000006400409C01002025
:10042000704770477047704700B589B00121480692
:1004300001F00EFC2D4800F05DF805A800F0ECF985
:1004400000208DF81A008DF81B008DF81C008DF827
:100450001D008DF81E008DF81F008DF81700092073
:100460008DF8180003208DF819000220ADF8140053
:1004700005A91E4800F0E7F800208DF80E000120C5
:100480008DF80F008DF81000002002F0EBF84FF609
:10049000FF7101EA4010ADF804000020ADF806003D
:1004A0000846ADF80800ADF80A000020ADF80C00D1
:1004B00001208DF8110001A800F038F80022022177
:1004C0000A4800F0B7F814208DF8200000208DF8BD
:1004D00021008DF8220001208DF8230008A801F0EA
:1004E00043FB00200249086009B000BD00640040E1
:1004F0000800002010B504460B48844209D10121B0
:10050000480601F0B5FB00214FF0007001F0B0FB90
:1005100008E00121880601F0ABFB00214FF080606C
:1005200001F0A6FB10BD00000064004010B50021E2
:10053000837A012202FA03F13D4A126842F0010275
:100540003B4B1A603A4A1C3212688A43384B1C33C0
:100550001A60027BCAB9364A0C3212688A43344B9D
:100560000C331A604288C38842EA0343304A40325F
:10057000847A42F834300288838842EA03432C4A62
:100580004032847A02EBC4025360027B012A19D103
:10059000274A0C3212680A43254B0C331A604288F2
:1005A000038842EA0343224A4032847A42F83430D4
:1005B000C288838842EA03431D4A4032847A02EBB0
:1005C000C4025360C27A3AB9194A121D12688A43AA
:1005D000174B1B1D1A6006E0154A121D12680A43CC
:1005E000134B1B1D1A60028932B9114A143212686A
:1005F0008A430F4B14331A600289012A06D10C4A30
:10060000143212680A430A4B14331A60427B012ADF
:1006100006D1074A1C3212680A43054B1C331A6084
:10062000034A126822F00102014B1A6010BD00005B
:10063000006600401AB143690B43436102E043691D
:100640008B434361704730B5024600200023146895
:1006500024F002041460146844F00104146000E003
:100660005B1C546804F001041CB94FF6FF74A342EC
:10067000F6D1546804F001040CB900206CE08C79C8
:10068000012C04D1146844F08004146003E0146861
:1006900024F080041460CC79012C04D1146844F057
:1006A0004004146003E0146824F0400414600C7AE1
:1006B000012C04D1146844F02004146003E0146891
:1006C00024F0200414604C7A012C04D1146844F006
:1006D0001004146003E0146824F0100414608C7A91
:1006E000012C04D1146844F00804146003E0146879
:1006F00024F008041460CC7A012C04D1146844F06E
:100700000404146003E0146824F0040414608C787A
:10071000A407CD7844EA05640D7944EA05444D798F
:1007200044EA05540D886D1E2C43D461146824F0EE
:1007300001041460002300E05B1C546804F0010411
:100740001CB14FF6FF74A342F6D1546804F00104C3
:100750000CB1002000E0012030BD0246002019B994
:10076000D36803F0030006E0012903D1136903F005
:10077000030000E00020704710B500F5D87303EBCC
:1007800001131B6803F004031372137A53B900F5C5
:10079000D87303EB01131B6840F2FF7404EA535350
:1007A000136009E000F5D87303EB01131B686FF0C9
:1007B000604404EAD303536000F5D87303EB0113DC
:1007C0001B6803F00203537200F5D87303EB0113A7
:1007D0005B6803F00F03937200F5D87303EB01130A
:1007E0005B681B0AD37400F5D87303EB01139B6895
:1007F000C2F80B3000F5D87303EB0113DC680F234C
:100800009C5021B9C36843F02003C36003E003692F
:1008100043F02003036110BD00218171C171017299
:1008200041728172C1728170C17003210171022114
:10083000417101210180704710B502460020936884
:1008400003F08063B3F1806F00D110E0936803F090
:100850000063B3F1006F01D1012008E0936803F059
:100860008053B3F1805F01D1022000E0042004280E
:1008700074D002F5C07303EB00131B6803F001048E
:1008800002F5C07303EB00131C600B7A7BB94B7A43
:100890000C8843EA445302F5C07404EB0014246846
:1008A000234302F5C07404EB0014236010E00B7ABC
:1008B0004C6843EAC4034C7A234302F5C07404EB4A
:1008C00000142468234302F5C07404EB0014236071
:1008D0008B7A03F00F038B7202F5C07303EB0013E6
:1008E0005B6823F00F0402F5C07303EB00135C6038
:1008F00002F5C07303EB00135B688C7A234302F5A7
:10090000C07404EB001463608B7B1C064B7B44EAD1
:1009100003440B7B44EA0323CC7A234302F5C074DF
:1009200004EB0014A3608B7C1C064B7C44EA03445C
:100930000B7C44EA0323CC7B234302F5C07404EB15
:100940000014E36002F5C07303EB00131B6843F06F
:10095000010402F5C07303EB00131C6010BDF0B579
:10096000044698B213E014F8016B80EA06200025D3
:100970000BE000F400471FB182EA4007B8B203E081
:100980004FF6FF7707EA40006D1C082DF1DB0F1EC4
:10099000A1F10101E7D1F0BD704770477047704782
:1009A000704770477047704770477047704770478F
:1009B00070470000034606210622124801881248AB
:1009C0000288ABB1012B1BD13AB94EF6EE608142E1
:1009D00001D1002070470120FCE739B94EF6EE60E6
:1009E000824201D10120F5E70020F3E7AB20F1E7D7
:1009F00009B90020EEE70AB90120EBE7AB20E9E7EF
:100A00000020E7E700C000080000010810B5082436
:100A10000120104908600221182000F0D5FA044690
:100A2000082C01D0204610BD02200A490860002190
:100A3000094800F097FB0446082C01D02046F2E755
:100A40000120044908600221202000F0BDFA04467C
:100A50002046E8E76C00002000C000082DE9F05FA8
:100A60004FF0060B06260025A846A9464FF0FF3A90
:100A7000002705E0781D844921F81700781C87B20B
:100A8000642FF7DB8148B0F800B081480688012068
:100A900080490860BBF1000072D0A0F56E40EE38CE
:100AA00048B3A0F58850113800286AD116B34EF625
:100AB000EE60864217D1012008600221182000F064
:100AC00083FA0446082C02D02046BDE8F09F02209D
:100AD0007049086000216E4800F044FB0446082C71
:100AE00008D02046F1E7FFF791FF0446082C01D01B
:100AF0002046EAE7C2E0002E44D1002526E0634804
:100B0000C088614931F81510884201D10FFA85FA81
:100B1000554519D05C4931F815005F4900F060F97E
:100B20008146B9F1010F0FD002205A490860564999
:100B300031F815005849098800F08CF98046B8F161
:100B4000080F01D04046C0E7681C85B2642DD6DB93
:100B500002205049086000214C4800F003FB044685
:100B6000082C01D02046B0E701204A490860022144
:100B7000202000F029FA0446082C26D02046A4E7BD
:100B800024E073E04FF6FF70864217D101204149FF
:100B900008600221202000F017FA0446082C01D03A
:100BA000204692E702203B4908600021374800F0C8
:100BB000D9FA0446082C08D0204686E7FFF726FF1E
:100BC0000446082C01D020467FE757E036B9FFF7EE
:100BD0001DFF0446082C48D0204676E74FF6FF70EC
:100BE000864242D0002526E02948C088264931F8AF
:100BF0001510884201D10FFA85FA554519D02249BE
:100C000031F81500244900F0EBF88146B9F1010FE5
:100C10000FD002201F4908601B4931F815001E49FA
:100C2000098800F017F98046B8F1080F01D0404656
:100C30004BE7681C85B2642DD6DB0220154908609D
:100C40000021134800F08EFA0446082C01D02046FB
:100C50003BE701200F4908600221182000F0B4F999
:100C60000446082C01D020462FE707E0FFF7CEFE10
:100C70000446082C01D0204627E700BF00BF002013
:100C800004490860082020E7D200002000C00008C6
:100C9000000001086C000020040000202DE9F84F3E
:100CA00080468A460825374800904FF00009002406
:100CB00000264FF0000B0020FFF77CFE8146B9F1C3
:100CC000010F03D130480090202709E0B9F1000F4F
:100CD00003D12E480090182702E0AB20BDE8F88F22
:100CE00002202B4908604EF6EE61009800F03AFAB7
:100CF0000546082D01D02846F0E75146404600F051
:100D0000A9F80646082E01D03046E7E700241CE08B
:100D1000204830F81400404515D01E4931F8140021
:100D20001D4900F05DF88346BBF1010F0BD0194956
:100D300031F814001849098800F08CF80646082E8E
:100D400001D03046CAE7601C84B2642CE0DB01208D
:100D50000F4908600221384600F036F90546082D93
:100D600001D02846BAE7022009490860002100980E
:100D700000F0F8F90546082D01D02846AEE72846D0
:100D8000ACE70000FF03010800C0000800000108F4
:100D90006C000020D2000020040000202DE9F0416A
:100DA00005460F461646A819642802DDAF20BDE8A7
:100DB000F08100240DE007EB44012A19074B33F8BA
:100DC000120000F00DF8082802D04FF0FF30EEE7D7
:100DD000641CB442EFDB0020E9E70000D2000020F1
:100DE0002DE9F04706460F46002545F255584FF0CD
:100DF0000109154CA2460020FFF7DCFD0546AB2D8E
:100E000001D1BDE8F0871DB910490F4A521E06E016
:100E1000012D02D10C490E4A01E0AB20F1E78A46D0
:100E2000541E0AE0B4F80080B04505D134F8020C35
:100E300038804FF0080904E0241F0AF102008442C0
:100E4000F0D800BF4846DCE70000010800C00008F9
:100E5000FFFF01082DE9F0470646884608270025D0
:100E60001D4CDFF878900120FFF7A4FD0546AB2D5F
:100E700001D1BDE8F0871DB91949174A521E06E095
:100E8000012D02D11449174A01E0AB20F1E70C46CD
:100E9000A2F1010919E02068401CA8B902201249FA
:100EA00008604146204600F05DF90746082F01D052
:100EB0003846DEE702200C4908603146A01C00F0ED
:100EC00051F907463846D4E7241D4C45E3D30020AA
:100ED000054908608020CCE700000108FF070108F1
:100EE00000C00008FFFF01086C0000202DE9F04160
:100EF00005460F4616464FF00008A819642804DD81
:100F00004FF0AF084046BDE8F081012080F3108823
:100F100000BF00F05FF900240DE037F814102A1923
:100F20000A4B33F8120000F013F8082802D04FF0F3
:100F3000FF3802E0641CB442EFDB00BF00F0BAF8F7
:100F4000002080F3108800BF4046DCE7D20000207C
:100F500070B505460E46002431462846FFF77AFF55
:100F60000446802C04D131462846FFF797FE0446FC
:100F7000204670BD10B501F00FFE10BD10B501F098
:100F80000BFE10BD10B501F007FE10BD7047704795
:100F9000704710B501F000FE10BD38B5002000907C
:100FA0000025012269466220FFF7F8FE04460CB1D5
:100FB00000200090BDF8000038BD00000149086025
:100FC000704700000C3C024070B504460A460026FB
:100FD000082523480068012801D0012070BD0AB906
:100FE000002609E0012A01D1160205E0022A01D1FA
:100FF000160201E04FF4407600F0FEF80546082D99
:1010000028D11848006820F4407016490860084646
:101010000068304308600846006820F0F800086067
:101020000846006844F0020108430E49086008467B
:10103000006840F48030086000F0DEF8054609489A
:10104000006820F00200074908600846006820F0A8
:10105000F80008600020024908602846BEE700004A
:101060006C000020103C024008201049096801F47F
:101070008031B1F5803F01D1012015E00B490968AD
:1010800001F0100109B105200EE00849096801F0DE
:10109000EF0109B1062007E00449096801F00201E7
:1010A00009B1072000E00820704700000C3C024016
:1010B000704700000348006840F0004001490860A4
:1010C00070470000103C0240002004490978AA291A
:1010D00001D0012000E0002070470000153C0240D4
:1010E00000B508220548007840F002000349087066
:1010F00000F082F80246104600BD0000143C024099
:1011000010B50246082400F077F80446082C01D1F7
:101110000148027010BD0000153C024005480068FF
:1011200000F0010028B1044802490C390860034866
:1011300008607047143C02403B2A19087F6E5D4CE2
:1011400030B10749096841F48071054A116005E032
:101150000349096821F48071014A11607047000059
:10116000003C024030B502460C4608251448006891
:10117000022801D0012030BD00F03EF80546082DC0
:1011800019D11048006820F440700E4908600846E4
:10119000006840F4807008600846006840F0010074
:1011A0000860148000F028F805460648006820F022
:1011B0000100044908600020014908602846DAE778
:1011C0006C000020103C0240014A10707047000083
:1011D000003C02400548006800F0004028B1044887
:1011E00002490C390860034808607047103C02400F
:1011F00023016745AB89EFCD08B508200090FFF7C4
:1012000033FF009002E0FFF72FFF00909DF80000F1
:101210000128F8D09DF8000008BD704700B597B0D0
:101220000121084600F004FD0320019008200290EF
:101230000D200390002004900590022006900020CD
:1012400007900890099008200A9000200B900C90BD
:101250000E900F9010904FF480501190002012903B
:101260001390149001A81590169008A800F020F88B
:101270000121002000F002F817B000BD51B182003A
:10128000A2F1C042126842F001038200A2F1C04202
:10129000136009E08200A2F1C0421268034B1A40B9
:1012A0008300A3F1C0431A6070470000FEFF0F00E7
:1012B000D0E901121143C268114302691143426926
:1012C000114382691143C2691143026A1143426AA0
:1012D0001143826A1143C26A1143026B11430268CF
:1012E0009200A2F1C0421160816808290BD1016807
:1012F0008900A1F1C041096841F0400201688900FC
:10130000A1F1C0410A60416B0968426B526841EA31
:101310000211426B926841EA0221426B928941EAD2
:101320000241426B128A41EA0251426B127D41EA4C
:101330000261426B926911430268521C9200A2F151
:10134000C0421160C16AB1F5804F1BD1816B096841
:10135000826B526841EA0211826B926841EA022173
:10136000826B128A41EA0251826B127D41EA02616C
:10137000826B9269114302689200A2F1C042C2F8E6
:10138000041107E06FF0704201688900A1F1C041CB
:10139000C1F80421704700001CB501217F2000F036
:1013A00037FC09220B21F24800F0B6FA09220C2181
:1013B000EF4800F0B1FA4FF4C050009002208DF8D1
:1013C00004008DF8050000208DF8060001208DF83E
:1013D00007006946E64800F057FA07220921E44869
:1013E00000F09AFA07220A21E14800F095FA02205B
:1013F0008DF804008DF8050000208DF806008DF8AA
:1014000007004FF4007000906946D94800F03CFA9C
:101410004FF4806000906946D54800F035FA02220A
:101420000121D34800F078FA02221146D04800F09A
:1014300073FA02220321CE4800F06EFA0E200090CB
:1014400002208DF804008DF8050000208DF80600BC
:101450008DF807006946C64800F016FAF0200090A3
:1014600003208DF804006946C14800F00DFA4FF4DE
:101470000140009000208DF8040001208DF8070045
:101480006946BB4800F000FA032000908DF8040084
:1014900000208DF807006946B64800F0F5F94FF4D2
:1014A0006E60009001208DF8040000208DF8060089
:1014B0008DF8070002208DF805006946AD4800F060
:1014C000E3F902220821AB4800F026FA4FF48070BD
:1014D000009002208DF804008DF8050000208DF8A2
:1014E00006008DF807006946A24800F0CDF94FF4D8
:1014F0007040009000208DF804008DF807006946C8
:101500009C4800F0C1F93320009003208DF80400BE
:1015100000208DF807006946974800F0B5F94BF6B2
:101520000C40009000208DF8040001208DF8070089
:101530006946914800F0A8F94FF4707000900120BE
:101540008DF8040000208DF806008DF807000220B9
:101550008DF805006946884800F096F9442000900F
:1015600001208DF8040000208DF806008DF807009A
:1015700002208DF805006946804800F085F943F6A1
:101580000A70009000208DF8040001208DF80700FB
:1015900069467A4800F078F90C220E21774800F06D
:1015A000BBF90C220421754800F0B6F90C22052184
:1015B000724800F0B1F90C220721704800F0ACF934
:1015C00044F2B000009002208DF804008DF8050070
:1015D00000208DF806008DF807006946674800F086
:1015E00053F902220F21654800F096F94FF40040AC
:1015F000009002208DF804008DF8050000208DF881
:1016000006008DF8070069465C4800F03DF94FF48C
:101610000040009000208DF8040001208DF80700A4
:101620006946574800F030F941F28150009000209F
:101630008DF804008DF807006946514800F024F940
:1016400046F67E20009001208DF8040000208DF8E1
:1016500006008DF8070002208DF80500694648480D
:1016600000F012F90C220021464800F055F90C2236
:101670000121444800F050F90C220221414800F0B9
:101680004BF90C2203213F4800F046F90C220421BB
:101690003C4800F041F90C2205213A4800F03CF9A1
:1016A0000C221146374800F037F90C220D2135483D
:1016B00000F032F90C220E21324800F02DF947F2E9
:1016C0003F00009002208DF804008DF805000020F6
:1016D0008DF806008DF8070069462A4800F0D4F816
:1016E0004FF40C40009000208DF8040001208DF88C
:1016F00007006946234800F0C7F84FF44070009097
:1017000000208DF804008DF8070069461D4800F0A0
:10171000BBF88020009001208DF8040000208DF897
:1017200006008DF8070002208DF80500694615486F
:1017300000F0AAF84020009003208DF804006946CC
:10174000104800F0A1F84CF6FF70009000208DF8D2
:10175000040001208DF8070000208DF8070002200A
:101760008DF805006946084800F08EF81CBD0000A1
:10177000000002400004024000080240000C024049
:101780000010024000140240001802401CB5012164
:101790007F2000F03DFA4FF6FF70009000208DF89A
:1017A000040002208DF8050000208DF806000120BD
:1017B0008DF8070069460E4800F066F869460D4846
:1017C00000F062F869460C4800F05EF869460B4884
:1017D00000F05AF869460A4800F056F86946094888
:1017E00000F052F86946084800F04EF81CBD0000B1
:1017F000000002400004024000080240000C0240C9
:101800000010024000140240001802401CB50121E3
:10181000302000F0FDF91020009001208DF8040028
:1018200000208DF806008DF8070002208DF80500D5
:101830006946134800F028F80220009001208DF836
:10184000040000208DF806008DF8070002208DF8B6
:10185000050069460A4800F017F880200090012032
:101860008DF8040000208DF806008DF80700022096
:101870008DF805006946034800F006F81CBD00001D
:101880000010024000140240F0B50A460021002377
:10189000002400BF3DE0012505FA01F3156805EAC3
:1018A00003049C4234D105684F000326BE40B54373
:1018B000056015794E00B540066835430560157919
:1018C000012D02D01579022D16D185684F0003260F
:1018D000BE40B543856055794E00B54086683543B6
:1018E0008560456801268E40B54345604568967918
:1018F0008E40B6B235434560C5684F000326BE40F2
:10190000B543C560D5794E00B540C6683543C5605E
:10191000491C1029BFD3F0BDF0B5002300244D07AA
:10192000ED0E02FA05F3CE1000F1200555F8265011
:101930004E07F70E0F26BE40B543CF1000F120062C
:1019400046F82750CE1000F1200555F8265045EAFC
:101950000304CE1000F1200545F82640F0BD0246F4
:10196000002013690B400BB1012000E000207047FC
:10197000418370470183704710B5002404210D484E
:10198000FFF7EDFF04464FF480710B48FFF7E7FFC8
:1019900044EA400401210948FFF7E1FF44EA8004DA
:1019A0004FF480610648FFF7DAFF44EAC00420469E
:1019B00010BD00000018024000000240001002406C
:1019C000001402402DE9F0414EF29044002500261B
:1019D00000270D480088844201D00B480480FFF79F
:1019E000CBFF054609480088854201D0074805809D
:1019F00000F010F8064606480088864201D00448E8
:101A00000680BDE8F08100002E000020300000209C
:101A10003200002010B500244FF480610648FFF723
:101A20009EFF04464FF400610348FFF798FF44EA25
:101A30004004204610BD00000008024001460B296A
:101A40001DD2DFE801F006080A0C0E101214161859
:101A50001A00002015E0082013E0102011E01820E3
:101A60000FE020200DE028200BE0302009E0382096
:101A700007E0402005E0482003E0502001E0582026
:101A800000BF00BF7047000010B512A001F084FC39
:101A9000002007E0154A52F82010491C01B103E06C
:101AA00000BF401C0228F5DB00BF022800D110BD9A
:101AB0000E4840680E490860084600680D490860F5
:101AC0000A49086880F3088800BF0A480068804710
:101AD00000BFECE70D0A476F746F204170706C69AE
:101AE000636174696F6E0D0A000000000000020857
:101AF0004400002040000020704700BFFEE7704710
:101B000070477047704710B5FFF7DEFA58B9FFF716
:101B100061FBFFF703FB5120FFF750FA5520FFF759
:101B2000EFFAFFF7DDFA10BD00BFFEE72DE9FF4138
:101B300004460D4616461F460094019502960397EB
:101B400004226946012000F059FDBDE8FF8100BF75
:101B5000FEE710B54FF4A06000F042F800214FF00E
:101B6000006000F047F810BD70B5002100230F227F
:101B7000C4781CB3174C246804F4E064C4F5E06432
:101B8000C4F30721C1F10404E3B20A4144789C4044
:101B9000E1B28478144021430C07210E0E4C0578E5
:101BA0006155047804F01F050124AC4005786D11DF
:101BB000AD0005F1E025C5F8004109E0047804F026
:101BC0001F050124AC40054D0678761145F82640E6
:101BD00070BD00000CED00E000E400E080E100E0FA
:101BE00002490143024A1160704700000000FA05F3
:101BF0000CED00E0024A0A400243024B1A607047B3
:101C000080FFFF1F08ED00E070477047704700003D
:101C100029B1064A12680243044B1A6004E0034AE1
:101C200012688243014B1A6070470000303802404E
:101C300029B1064A12680243044B1A6004E0034AC1
:101C400012688243014B1A60704700003838024026
:101C500029B1064A12680243044B1A6004E0034AA1
:101C600012688243014B1A607047000040380240FE
:101C700029B1064A12680243044B1A6004E0034A81
:101C800012688243014B1A607047000020380240FE
:101C900029B1064A12680243044B1A6004E0034A61
:101CA00012688243014B1A607047000044380240BA
:101CB00029B1064A12680243044B1A6004E0034A41
:101CC00012688243014B1A607047000024380240BA
:101CD00038B500F037F8012000F000F900F044F9C1
:101CE0000446012C29D1FFF72BFA0320FFF76CFAE9
:101CF000002000F0E7F8200300F006F94FF4A050B0
:101D000000F0F6F805200223F02208210090C80414
:101D100000F00CF9012000F003F900BF392000F0B9
:101D2000A9F80028FAD0022000F012F900BF00F054
:101D3000C1F80221B1EBA00FF9D101210846FFF74C
:101D400077FF38BD0E48006840F001000C4908607C
:101D500000200B490831086009480068094908401B
:101D6000074908600848091D0860081F006820F43A
:101D70008020091F0860002001490C31086070476D
:101D800000380240FFFFF6FE10300024F0B50021BD
:101D900000220024022500260223324F3F6807F06C
:101DA0000C0121B1042905D0082937D105E02E4FB7
:101DB000076036E02D4F076033E02A4F3F1F3F6832
:101DC000C7F38056274F3F1F3F6807F03F036EB1B0
:101DD000264FB7FBF3F7DFF88CC0ACF1040CDCF84E
:101DE00000C0CCF3881C07FB0CF40CE01E4FB7FBC3
:101DF000F3F7DFF870C0ACF1040CDCF800C0CCF3F2
:101E0000881C07FB0CF4174F3F1F3F68C7F30147BF
:101E10007F1C7D00B4FBF5F7076002E0124F0760FE
:101E200000BF00BF0F4F3F6807F0F0010909104FD6
:101E30007A5C0768D74047600A4F3F6807F4E05173
:101E4000890A0B4F7A5C4768D7408760054F3F6827
:101E500007F46041490B064F7A5C4768D740C7607A
:101E6000F0BD0000083802400024F40000127A009F
:101E70007000002010B501460022002300204A1106
:101E8000012A02D10A4C236808E0022A03D1084C37
:101E90007034236802E0064C7434236801F01F029A
:101EA000012494401C400CB1012000E0002010BD32
:101EB000003802400248006800F00C007047000043
:101EC0000838024001460020034A106820F0F00064
:101ED0000843106070470000083802400021024AA1
:101EE00011701146087070470238024070470000B8
:101EF00001460020034A106820F4E05008431060B7
:101F0000704700000838024001460020034A10686C
:101F100020F4604040EAC100106070470838024079
:101F200001490866704700000000474270B5049CF4
:101F300041EA82150126C6EB530645EA06450543EC
:101F400045EA0465014E356070BD0000043802406A
:101F500001460020034A106820F003000843106087
:101F6000704700000838024038B500200090002477
:101F7000002500BF3120FFF77DFF05460098401C7B
:101F800000900098B0F5A06F01D0002DF2D0312064
:101F9000FFF770FF08B1012400E00024204638BD9F
:101FA000704770477047704770477047704701B57A
:101FB00001226946104600F021FB08BD0CB5002047
:101FC000019000902D48006840F480302B49086053
:101FD00000BF2A48006800F4003000900198401CBF
:101FE0000190009818B90198B0F5A06FF1D123487D
:101FF000006800F4003010B10120009001E00020E2
:1020000000900098012838D11C48083000681B490E
:10201000083108600846006840F40040086008463F
:10202000006840F4A05008601548091F0860081FA8
:10203000006840F08070091F086000BF0F4800680A
:1020400000F000700028F9D040F203700D490860DC
:102050000A480830006820F0030008490831086089
:102060000846006840F00200086000BF03480830DE
:10207000006800F00C000828F8D10CBD00380240C0
:10208000083C4005003C02407047000010B5124873
:10209000006840F001001049086000200E49083136
:1020A00008600D4800680D4908400B4908600C485D
:1020B000091D0860081F006820F48020091F0860BF
:1020C000002005490C310860FFF778FF4FF00060F1
:1020D0000449086010BD000000380240FFFFF6FE12
:1020E0001030002408ED00E07047704770477047DB
:1020F0007047704770477047704770477047704728
:102100007047704770477047704710B500F046FD44
:1021100010BD7047704710B50022002340F66A14C6
:10212000A14200D100BF0A1201249440A3B2DC43B3
:10213000048010BD21B1828942F40052828104E002
:1021400082894DF6FF731A408281704700B585B0D1
:1021500000211748FFF7EEFF154800F02BF801218A
:102160001020FFF795FD01A800F05DF94FF4E13074
:10217000019001A90E4800F0D3F8012240F2255148
:102180000B4800F0A8F825208DF8000003208DF8FA
:10219000010001208DF802008DF803006846FFF76A
:1021A000E3FC01210248FFF7C5FF05B000BD0000B8
:1021B0000010014010B504462548844208D1012191
:1021C0001020FFF775FD00211020FFF771FD3EE0A4
:1021D0002048844209D101214804FFF749FD00212C
:1021E0004FF40030FFF744FD31E01B48844209D131
:1021F00001218804FFF73CFD00214FF48020FFF708
:1022000037FD24E01548844209D10121C804FFF7B5
:102210002FFD00214FF40020FFF72AFD17E01048A2
:10222000844209D101210805FFF722FD00214FF466
:102230008010FFF71DFD0AE00A48844207D1012102
:102240002020FFF735FD00212020FFF731FD10BDD4
:10225000001001400044004000480040004C004095
:10226000005000400014014002460020B1F5007FFC
:1022700000D100BF13880B400BB1012000E000200B
:10228000704770B50246002400230025002040F668
:102290006A16B14200D100BFC1F3421501F01F031D
:1022A000012606FA03F3012D02D19689334006E098
:1022B000022D02D1168A334001E0968A33400C1277
:1022C000012606FA04F41688344013B10CB101203B
:1022D00000E0002070BDF0B5034600240026002574
:1022E000002040F66A17B94200D100BF1846C1F37A
:1022F000421401F01F06012707FA06F5012C01D14F
:102300000C3004E0022C01D1103000E014301AB17E
:1023100007682F43076002E00768AF430760F0BD1E
:102320002DE9FF4705460E460024A14600BFA04602
:10233000B08900B100BF2C8A24F44054F0880443D3
:102340002C82AC8941F20C608443B0883189084307
:10235000718908430443AC81AC8A24F44074B08989
:102360000443AC826846FFF711FD2048854202D045
:102370001F48854202D1DDF80C9001E0DDF808909D
:10238000A88900F4004040B109EBC90000EB091036
:1023900031684900B0FBF1F707E009EBC90000EB39
:1023A000091031688900B0FBF1F76420B7FBF0F049
:1023B00004012009642101FB1078A88900F4004081
:1023C00040B1322000EBC800B0FBF1F000F0070094
:1023D000044308E0322000EB08106421B0FBF1F068
:1023E00000F00F0004432C81BDE8FF87001001407E
:1023F0000014014010B5044600BF80210448FFF7D7
:1024000033FF0028F9D02146014800F008F810BD3C
:102410000010014001468888C0F308007047C1F3EE
:102420000802828070474FF41651016000218180BC
:10243000C18001810C21418100218181704700BF51
:10244000FEE7704702E008C8121F08C1002AFAD14F
:1024500070477047002001E001C1121F002AFBD124
:10246000704770B5002416E00CB9272500E06725F9
:1024700000214FF0C0404155642000F0C1FA012115
:102480004FF0C0404155642000F0BAFA00214FF0EF
:10249000C0404155641C022CE6D370BD00200CE006
:1024A000002207490A54064908310A5404494031B8
:1024B0000A54034948310A54401C0628F0DB70478F
:1024C0002000006010B500244FF480510D48FFF744
:1024D00046FA04464FF400510A48FFF740FA44EA2E
:1024E00040044FF480410748FFF739FA44EA80047A
:1024F0004FF400410348FFF732FA44EAC004204693
:1025000010BD00000004024010B500244FF48041CB
:102510000648FFF724FA04464FF400410348FFF74A
:102520001EFA44EA4004204610BD000000040240A8
:102530000A480088A0F56440753820B10B2805D002
:102540001B2809D105E048F20700704748F208004F
:10255000FBE748F20900F8E70020F6E72E0000202C
:1025600001480068704700002400002000B50021E9
:1025700017E000224FF0C040425400F04AFA002316
:102580000948435400F045FA0022074830304254CD
:1025900000F03FFA002304484030435400F039FA79
:1025A000491C1429E5DB00BD1000006010B50421B2
:1025B0000148FFF7DFF910BD000C024010B50421FF
:1025C0000148FFF7D5F910BD000C02400149086031
:1025D000704700001400002010B510210548FFF7D7
:1025E000C7F980210448FFF7C5F902210148FFF728
:1025F000C1F910BD00100240001402402DE9F04165
:1026000086B080460D46144614B906B0BDE8F08188
:1026100000208DF80D006006000E8DF80E000020E1
:102620008DF80C00FFF79CFF00F2337001900DF164
:102630000F0600BF35F8041B26F8021B601E041E9F
:10264000F8D100BF01A90648FEF7F6F807460428AE
:1026500004D14FF4FA7000F0DCF9F3E700BFD4E7DF
:1026600000640040014611B140F2613070470248F9
:10267000006800F26330F9E72400002001201349CC
:1026800008704FF0C04181F80401104940310870D2
:10269000091D08700D4908310870091D08700B49A3
:1026A00048310870091D0870084940390870091D33
:1026B0000870091D0870091D0870044980390870E8
:1026C0004FF0C04181F884007047000000010060B5
:1026D00008B504480090022269460020FEF706FC77
:1026E00008BD0000AA5550A038B504464FF6FF704B
:1026F0002080012269460520FEF750FB05467DB982
:10270000BDF800004CF6AA31884201D1012020809A
:10271000BDF800004CF6BB31884201D1002020807A
:1027200038BD08B5022269461046FEF737FB00980F
:1027300008BD70B50446012221460420FEF72EFB99
:1027400005460DB10020208070BD38B504461CB18F
:102750004CF6AA30009002E04CF6BB30009001220B
:1027600069460520FEF7C2FB38BD000008B50448E5
:102770000090022269460020FEF7B8FB08BD000069
:102780005A5A50A001B5022269461046FEF7AEFB28
:1027900008BD38B504460094012269460420FEF7BE
:1027A000A5FB38BD08B50448009002226946002008
:1027B000FEF79CFB08BD000055AA50A008B50222F8
:1027C00069460020FEF7EAFA03490098884201D1E1
:1027D000012008BD0020FCE75A5A50A008B502228B
:1027E00069460020FEF7DAFA03490098884201D1D1
:1027F000012008BD0020FCE700AA50A00048704757
:1028000000000208004870470000060815480078DC
:1028100000B17047012014490870C90581F8C10052
:102820001149891C0870491C0870491C0870491C12
:102830000870491C0870491C0870491C0870491C24
:102840000870491C0870491C0870491C0870491C14
:102850000870491C08704FF0C04181F8CF0000BFDC
:10286000D7E7000064000020C00000602DE9F041BF
:1028700080460D4616461C46002341F22102314691
:102880004046FEF76CF8074604B12780AF4202D1FC
:102890000120BDE8F0810020FBE700000146044A6A
:1028A0000868904201D1012070470020FCE7000039
:1028B0004352431010B5FFF70BFAFFF74AF9FEF742
:1028C00065FFFEF7A3FFFFF787FEFEF765FD4FF4F8
:1028D00000413448FFF743F808B9012000E0002028
:1028E0003149087008460078FFF706F9FFF75EFEE9
:1028F000FEF794FCFFF707F9FFF764F800202B4977
:1029000008602B480088A0F56440753820B10B287A
:1029100009D01B2815D10DE0FFF7D4FD00F00F0002
:102920002449086014E0FFF7EFFD00F0030021499F
:1029300008600DE0FFF7C6FD00F00F001D490860BC
:1029400006E0FFF7BFFD00F00F001A49086000BF66
:1029500000BFFDF769FDFFF7F9FB17A000F01CFDB4
:102960001C4801681CA000F017FD13A000F014FD26
:1029700020A000F011FDFFF781FEFFF772FDFFF7C9
:10298000F5FDFFF78BFDFFF741FFFEF723FCFEF798
:1029900065F8FEF702FB19490880FEF78BFBFFF78D
:1029A0000DFE10BD00000240640000202000002049
:1029B0002E000020240000200D0A203D3D3D3D3D1D
:1029C0003D3D3D3D3D3D3D3D3D3D3D3D3D3D3D3D37
:1029D00000000000207AFF1F0D0A203D3D2020202E
:1029E00020426F6F7420537461727420202564201C
:1029F0003D3D00000D0A0D0A0000000028000020E7
:102A00004FF47A6200FB02F100BF4A1E111EFCD196
:102A1000704708B50120009000BF0098401E00904C
:102A20000028FAD108BD0000164908600021164AA6
:102A30001160164A11604FF40031154A11601149B6
:102A40000968144A914206D13821134A11600721BE
:102A5000124A116014E00B490968114A914206D1EB
:102A600028210D4A116005210C4A116008E000215F
:102A7000094A1160094A11604FF48041044A11600B
:102A80007047000048000020540000205C00002037
:102A900058000020000006084C00002050000020D4
:102AA000000002082DE9F05F074688464FF0000954
:102AB00045464FF4003AFEF78DFB00BF554501D95E
:102AC000564600E02E462748006878B12648006840
:102AD00060B901202549086025490878FEF7AEFF56
:102AE000834602215846FEF76FFA00BF00240EE02D
:102AF00002201E49086009EB0402B95A1D4A1268F7
:102B0000194B1B681A441019FEF72CFBA41CB44285
:102B1000EED3B144144800683044134908600846B5
:102B2000006815490968884212D30F4800681249A5
:102B30000968401A0C4908600E4800680E49096887
:102B400008440C4908600A480068401C08490860AD
:102B5000AD1B4FF4003A002DB0D1FEF7ABFABDE843
:102B6000F09F00004C000020540000206C0000206A
:102B7000500000204800002058000020014629B1E4
:102B8000022901D1800670470148FCE70148FAE7B5
:102B900000000608000002087047000010B540F26F
:102BA00025510848FFF76DFB58B10648FFF732FC86
:102BB000C4B2204600F0D8FC40F225510148FFF78E
:102BC000AAFA10BD001001408AB0002008900990B8
:102BD000F84903C9CDE906014FF00009002703E0D9
:102BE000F54840F827707F1C042FF9DB0120F249DB
:102BF000086140F6B830FFF703FFFFF75BFE3220B5
:102C0000FFF7FEFEFFF7EAFD002870D0EBA000F012
:102C1000C3FB00BF0120FFF7B1FF8346FFF704FFAE
:102C20003A20FFF7C4F9FFF7BDFD00250020E84971
:102C30000860FFF7C3FCC5E00020FDF7CFFB0446AA
:102C400004B9BFE03D20FFF7B2F926784FF0030842
:102C50003C2E02D120884FEA102800BFA41C2288F5
:102C600028466D1CDB4921F81020D9480068FF2850
:102C700005D9D7480068B0F5827F00D200BFD4489C
:102C80000068401CD2490860B5F5805F15D1FFF798
:102C900095FC002008E0E91E0144CE4A32F81110EC
:102CA00006AA22F81010401C0328F4DB6900C9486A
:102CB000FFF7F8FEFFF77AFC0025A8F10100B0F15C
:102CC0000008CBD13C2E7CD18DB3FFF777FC032DD0
:102CD0000ED3002008E0E91E0144BE4A32F811106C
:102CE00006AA22F81010401C0328F4DB19E092E039
:102CF000002014E0C5F10301814206D906AA411C57
:102D000032F8111022F8101008E0C5F10301411A41
:102D1000B04A32F8111006AA22F81010401C0328FD
:102D2000E8DB6900AB48FFF7BDFEFFF73FFCA848B2
:102D300000684000A649086006A8FFF7AFFDC8B1CB
:102D4000FFF760FD8346A2480068821FBDF81C1093
:102D500005AB5846FFF78AFD58B9BDF81C10BDF801
:102D600014209DA000F018FB40F23D30FFF71FF942
:102D700035E000BF96480068FFF704FDFFF7F6FC5A
:102D8000BDF81C00FFF705FD0120FFF7DEFC00BFCA
:102D90000020FFF7F3FE8346FFF746FEFFF70EFC29
:102DA0000120FFF7EBFE8246894801685046FFF795
:102DB00079FEFFF7FBFBB9F1000F01D09BE100E0CA
:102DC00001E000BF38E700BF3E20FFF7F0F8FFF753
:102DD0007FFCFFF7EBFB8CA000F0DEFA00BF4FF4A6
:102DE0007A70FFF7F3FB15E04FF47A6B0021C020F7
:102DF000FDF7E1FA07E0ABF101001FFA80FBBBF140
:102E0000000F00D104E00020FDF7E8FA0028F2D01E
:102E100000BF77E0E8E7FFF7D1FCC0B180A000F089
:102E2000BBFA0020FFF7AAFE8346FFF7FDFDFFF780
:102E300078FC674908600120FFF7A0FE82466448DD
:102E400001685046FFF72EFEFFF742FC5AE04FF4B0
:102E50007A6B3F20FFF7ABF8FFF7B0FB1DE00020D7
:102E6000059005A8FDF7BAFA044634B9ABF10100A4
:102E7000B0F1000B00D111E00FE026783F2E0BD10E
:102E8000FFF756FB0599884202D0059800B105E08E
:102E900066A000F081FABDE600BFE0E700BFFFF7E3
:102EA00085FB00BF2DE00121FA20FDF784FA00BF69
:102EB0000020FDF793FA044604B9F9E7FFF77EFB1B
:102EC0002088A0F2071030B1A0F2011020B1B0F5B7
:102ED000806F11D109E0EBE700231A4648F209019F
:102EE0004FF40270FEF722FEE2E7A08848F20901E3
:102EF000884200D18EE600E000BF00BFFFF756FB1E
:102F0000D1E700BF05A8FFF714FCBDF814104DA0D1
:102F100000F042FABDF81400002849D0FFF701FC88
:102F200083462B48C0F800B059464BA000F034FA55
:102F3000ABF1060B02A8FFF7D7FBBDF808104CA0B9
:102F400000F02AFABDF80800012831D1FFF756FC3D
:102F500004AB5A460190BDF81410FFF787FC38BB4C
:102F6000BDF81020BDF8141046A000F015FAFFF7C8
:102F700049FC03AB5A460190BDF81410FFF776FCEC
:102F800080B9BDF80C20BDF8141045A000F004FA7B
:102F9000BDF81000BDF80C10884209D047A000F021
:102FA000FBF985E74FF001094BA000F0F5F9EFE6DA
:102FB000A0E000009C35000800F001205570677209
:102FC0006164652052756E6E696E670D0A000000BF
:102FD00060000020B00100205570677261646520B8
:102FE000554E7375636365737366756C28435243FE
:102FF0005F4552524F523A5B307825582D2D30782C
:1030000025585D290D0A00005570677261646520BE
:103010005375636365737366756C0D0A0000000079
:103020004275726E6E696E670D0A0000466F7263BC
:103030006520557067726164652053746172740D08
:103040000A0000004765745F4352435F4461746146
:1030500028255829200D0A004765745F4275726E55
:103060005F53697A6528256429200D0A0000000055
:103070004765745F4275665F5479706528256429D9
:10308000200D0A006170705F6372635F6661696C36
:1030900020282578213D257829200D0A00000000F0
:1030A000627566665F6372635F6661696C2028257E
:1030B00078213D257829200D0A000000676F746F84
:1030C000206765745F63616E5F646174615F6167EF
:1030D00061696E0D0A000000676F746F20636F7086
:1030E000795F627566665F746F5F617070200D0A4C
:1030F0000000000000BF04A000F04EF9FEF7C4FC81
:1031000005A000F049F9D3E6676F746F2061707015
:103110002829200D0A000000617070206973206565
:103120006D7074792829200D0A0000002DE9F747F9
:1031300085B081460C460026D0E02078252877D13E
:10314000641C0020054680460746207800B9C9E087
:103150002078252800D1BAE020782D2802D1641CDF
:103160004FF0010802E0641C48F002082078302883
:10317000F9D006E007EB8700470020783038074495
:10318000641C2078302802DB20783928F2DD207892
:103190002E280ED1641C06E005EB85004500207842
:1031A00030380544641C2078302802DB2078392828
:1031B000F2DD05B96D1E20786C2800D1641C2078E2
:1031C000732814D1079850F804AB07900020CDE97C
:1031D0000050BAF1000F01D0504600E048A001466F
:1031E00043463A46484600F053F9064475E02078D5
:1031F00064280ED16120CDE90078CDE90205079859
:1032000002C801230A220790484600F0D9F8064474
:1032100063E0207866280CD1079901C90791FDF772
:103220005EF882465146484600F06EF8064454E087
:103230004CE0207878280ED16120CDE90078CDE9E6
:103240000205079802C8002310220790484600F0A4
:10325000B7F8064441E0207858280ED14120CDE946
:103260000078CDE90205079802C8002310220790D4
:10327000484600F0A5F806442FE0207875280ED1C6
:103280006120CDE90078CDE90205079802C8002346
:103290000A220790484600F093F806441DE0207883
:1032A000632819D1079810F8041B0790C8B28DF84D
:1032B000100000208DF8110043463A4604A9CDE9DC
:1032C0000050484600F0E4F8064406E000BF2178CC
:1032D000484600F053F8761C00BF641C2078002894
:1032E0007FF42BAF00BFB9F1000F03D00020D9F855
:1032F0000010087000200790304608B0BDE8F08745
:10330000286E756C6C2900002DE9FF5F06460C469F
:103310002046FCF7EDFF074600200423CDE90030EE
:10332000029001230A2239460390304600F048F803
:1033300005462046FCF7DCFF8346FCF7D0FF8246BB
:103340002146FCF797FF81460B49FCF796FF804624
:10335000FCF7CEFF074600200423CDE900300290A1
:1033600003460A2239460390304600F029F8054406
:10337000284604B0BDE8F09F00007A4470B50446CA
:103380000D462CB121680D702068401C206002E0C1
:10339000E8B2FFF72FF870BD0FB408B50748006812
:1033A00018B1002001B05DF814FB03A800900020C4
:1033B000009A0299FFF7BAFEF4E70000000000202F
:1033C0002DE9FF4F85B00C4616469A46DDE9128B73
:1033D00000200490039027468CB930202B490870B8
:1033E00000204870012115985B464246CDE9000156
:1033F0002649059800F04CF809B0BDE8F08FBAF105
:10340000000F06D00A2E04D1002C02DA012004900D
:1034100067421E4D3F350020287011E0B7FBF6F0E3
:1034200006FB1079B9F10A0F02DB14983A3881448F
:1034300009F13000C1B2681E05460170B7FBF6F70E
:10344000002FEBD1049898B1B8F1000F0CD00BF01D
:10345000020048B12D210598FFF790FF0398401C0A
:103460000390A8F1010803E02D21681E05460170B4
:10347000012115985B464246CDE900012946059891
:1034800000F006F803990844B6E700008000002029
:103490002DE9FF4F81B00C4615469946DDE90E6BCC
:1034A000002720200090002D12DD0020214601E0A1
:1034B000401C491C0A78002AFAD1A84201DB0025E9
:1034C00000E02D1A09F002020AB13022009200BF7A
:1034D00009F0010040B905E0DDE90010FFF74EFFFB
:1034E0007F1C6D1E002DF7DCBBF1000F0BD106E039
:1034F00021780198FFF742FF7F1C641C761E16B1ED
:1035000020780028F4D1BBF1010F14D1002E12DD78
:103510002046FCF753FE8046B0450CDAA6EB080ABD
:1035200006E030210198FFF729FF7F1CAAF1010A6C
:10353000BAF1000FF5D106E021780198FFF71EFFE0
:103540007F1C641C761E16B120780028F4D105E09B
:10355000DDE90010FFF712FF7F1C6D1E002DF7DC68
:10356000384605B0BDE8F08F30B503460A4801780B
:1035700042780C464D1CE9B2851C2B55102900D110
:103580000021914205D1541CE4B22246102C00D1F6
:1035900000220170427030BDC0000020FFFFFFFF1D
:1035A000FFFF0000C435000800000020800000007C
:1035B0004424000844360008800000203029000020
:1035C000542400080100000000000000000000007A
:1035D00000000000000000000000000000000000EB
:1035E00000000000000000000000000000000000DB
:1035F0000000000000000000280500002805000071
:1036000000000000000000000000000000000208B0
:10361000280000000500000000000000000000007D
:103620000000000000000000000001000000000099
:103630000000000000000000010203040102030476
:043640000607080968
:040000050800018569
:020000040802F0
:10000000C83F002099010208C9970208B98F020869
:10001000F7920208B9120208F15F0308000000001D
:100020000000000000000000000000000DA5020814
:100030006B3F020800000000DB9D020839520308F4
:10004000FB5F0308D99D02089D52030867A10208BF
:10005000AD7B0208B1A00208F14C0208014D020874
:10006000094D0208114D0208194D0208A93C020869
:10007000AB3C0208AD3C0208AF3C0208B13C0208B0
:10008000B33C0208B53C020825100208CF12020852
:10009000C3120208CB120208CD1202081B4D02083F
:1000A0009F520308B1520308AF520308A752030836
:1000B000B9520308C1520308C9520308CF8F02087E
:1000C000CD8F0208D38F0208D18F0208E5A1020864
:1000D000E7A10208815C0308895C03088B5C0308C4
:1000E000F94C020865A10208359A0208D7520308A4
:1000F000E3520308E1520308D9520308B73C02084F
:10010000177D0208ADA10208CB520308E9A102083D
:100110007D5C03087F5C0308CD520308CF520308BF
:10012000B93C0208C13C0208C33C0208C53C0208B5
:10013000B3010208B3010208B3010208B3010208C7
:10014000B3010208B3010208B3010208B3010208B7
:10015000B3010208B3010208B3010208B3010208A7
:10016000B3010208B3010208B3010208B301020897
:10017000B3010208B3010208B3010208B301020887
:10018000B3010208DFF80CD000F0C0FB00480047C4
:1001900045BA0308C83F0020064880470648004784
:1001A000FEE7FEE7FEE7FEE7FEE7FEE7FEE7FEE727
:1001B000FEE7FEE7415203088501020840EA010319
:1001C0009B0703D009E008C9121F08C0042AFAD20D
:1001D00003E011F8013B00F8013B521EF9D27047D1
:1001E000D2B201E000F8012B491EFBD27047002279
:1001F000F6E710B513460A4604461946FFF7F0FF26
:10020000204610BD30B505462A460B4612F8010BB4
:1002100013F8014B08B1A042F8D01CB1002802D05D
:100220006D1CF1E7284630BD421C10F8011B002967
:10023000FBD1801A704730B504460020034600E029
:100240005B1C934203D2E05CCD5C401BF8D030BD18
:100250000FB400B58DB010A909900B9000914FF02C
:10026000FF300A9000200C90054806900548079042
:100270006A4609A80F9900F087FA0DB05DF814FBE3
:10028000A5070208C30702082DE9FF5F1D464FF0CE
:10029000FF3BD5E9014691465F464FF00008A9694A
:1002A0007F1C01988847296A824688470028F6D132
:1002B000BAF1FF3F0CD024F4C064002E19DD6006B3
:1002C00014D5BAF12B0F09D0BAF12D0F0ED103E0DE
:1002D000584604B0BDE8F09F44F48064A9697F1CCF
:1002E00001988847761E8246002E02DDBAF1300F53
:1002F00003D0B9F1000F26D032E0A969761E44F48C
:1003000000747F1C019888478246002E05DDBAF1F3
:10031000780F06D0BAF1580F03D0B9F1000F10D002
:100320001EE0B9F1000F02D0B9F1100F18D1A96980
:10033000761E24F400747F1C0198884782461020A2
:1003400002E0082000E00A20814609E008FB0908D5
:10035000A969761E44F400747F1C01988847824680
:10036000002E05DD4946504600F0F9F90028EDDA87
:10037000E96901988847A00502D46FF00100A8E759
:10038000E00725D1600613D5600502D5C8F100004D
:1003900000E0404629680A1D2A600968220501D547
:1003A000087015E0220701D5088011E008600FE011
:1003B0002868011D29600068210502D580F80080A9
:1003C00006E0210702D5A0F8008001E0C0F8008017
:1003D00038467EE72DE9FF5FD2E901A74FF000081C
:1003E000916999461446DDF838B046460198884729
:1003F000054659EA0B0005D009E0A169761C019871
:1004000088470546216A284688470028F5D1681C98
:1004100003D05FEACA7005D015E04FF0FF3004B09A
:10042000BDE8F09F2068011D2160D0F800800AE03F
:100430005FEACA7001D108F8015BA169761C7F1ED2
:10044000019888470546002F1ADD681C18D0B9F1BD
:10045000000F0DD0E81705EBD060421120F01F000F
:1004600059F822102A1A012090400142E0D107E0F9
:10047000BBF1000FDCD1216A284688470028D7D07D
:10048000E16901988847BBF1000F07D1002E05DD17
:100490005FEACA7002D1002188F80010A068B84253
:1004A00003DDBBF1000F03D017B16FF00100B6E719
:1004B0003046B4E7F0B480EA0102D40F4200B2EB58
:1004C000410F02D20246084611464A0042D0C30DEF
:1004D000DDB2C1F3C752AD1A202D35DAC1F31601D2
:1004E00041F4000204B15242C5F1200602FA06F1BD
:1004F0002A411044B3EBD05F23D0C4B1012DA0EB4F
:10050000C35009DCF0BC4FF0004202EAC352DBB238
:1005100000F5000000F06FB9400000F1807000EBC2
:10052000C350A0F1807040EAD170490009E0490849
:1005300041EAC071A0EBC35000F50000400800EB99
:10054000C350F0BC00F04EB96142012202EB410100
:10055000001BF6E7F0BC704781F00041AAE780F08D
:100560000040A7E780EA010210B502F00043400016
:1005700022D04A001FD0010E01EB1261C0F35600D9
:10058000C2F3560240F4000042F40002A0FB022035
:1005900000047F39140400D0401C50EA124001D4FA
:1005A0004000491EC2B20C0604EBD010401C4008AB
:1005B000802A02D003E0002010BD20F001000029B5
:1005C00000DA0020184310BD2DE9F04D81EA030444
:1005D00004F0004B21F0004514464FF0000A23F0D0
:1005E000004150EA050220D054EA01021DD0C5F3B3
:1005F0000A570246C5F31303C1F31300C1F30A56A9
:1006000040F4801543F48013A7EB0608101BD64670
:1006100008F2FD3873EB050002D308F1010801E090
:1006200092185B41B8F1000F03DA00200146BDE8E3
:10063000F08D00204FF48011064684460EE0171B13
:1006400073EB050705D3121B63EB050306434CEA66
:10065000010C49084FEA300092185B4150EA01074B
:10066000EDD152EA030012D082EA040083EA0501C8
:10067000084305D0101BAB4106D20122002306E03F
:1006800000224FF0004302E06FF0010253101AEB1A
:1006900006004CEB085110EB0A0041EB0B01BDE8E2
:1006A000F04D00F0D6B8C10F80EAE0700844CA07E8
:1006B0009623002100F09FB80EB5C10F80EAE070CC
:1006C0000844CA07002140F233438DE80E000A4671
:1006D0000B4600F0CDF803B000BD00F0004220F062
:1006E0000040C10DC0F3160040F400007F2901DA7C
:1006F00000207047962903DCC1F19601C84001E053
:1007000096398840002AF4D040427047C1F30A521B
:1007100010B5C1F3130140F2FF3341F480119A4246
:1007200001DA002010BD40F233439A42A2F2334274
:1007300003DC524200F003F810BD904010BD202AA7
:1007400004DB203A21FA02F00021704721FA02F37B
:10075000D040C2F1200291400843194670473A2820
:1007600000D2303820F02002412A01D3A2F1370014
:10077000884201D34FF0FF307047000002681144F7
:100780001378016018467047D160044951610449EB
:10079000116200211161114600F0DEB87D070208E8
:1007A0004F090208426842B1016811F8013B23B1C8
:1007B000521EC0E90012184670470121C160881E10
:1007C000704742685AB1C368016843B983688B4275
:1007D00005D0491E521CC0E90012002070474FF09E
:1007E000FF3070470029A8BF7047401C490008BF70
:1007F00020F00100704710B4B0FA80FC00FA0CF051
:1008000050EA010404BF10BC704749B1CCF1200488
:1008100021FA04F411FA0CF118BF01212143084315
:10082000A3EB0C01CB1D4FEA00614FEA102042BF41
:10083000002010BC704700EBC35010440029A4BF37
:1008400010BC7047401C490008BF20F0010010BCDC
:10085000704710B5141E73F1000408DA401C41F112
:10086000000192185B411A4301D120F0010010BD34
:100870002DE9F04D92469B4611B1B1FA81F202E0AA
:10088000B0FA80F22032904600F052F804460F464B
:1008900040EA0A0041EA0B0153465A46084313D086
:1008A000114653EA010019D0C8F140025046FFF743
:1008B00046FF05460E4650465946424600F038F877
:1008C000084305D0012004E020463946BDE8F08DFC
:1008D0000020054346EAE0762C4337430A98630537
:1008E000E40AA0EB08000022FD0A44EA47540A305B
:1008F00002D500200146E9E7010510196941DDE94B
:10090000084500196941BDE8F04DA2E7064C074DC6
:1009100006E0E06840F0010394E8070098471034CF
:10092000AC42F6D3FFF732FCB8C70308D8C70308B8
:10093000202A04DB203A00FA02F10020704791409F
:10094000C2F1200320FA03F3194390407047C0B26C
:100950004FF4F05100F096B92DE9F34F8BB04FF002
:10096000000801F10C000C464FF0010B46460DF15A
:10097000080A01906269012101989047051E2DD057
:10098000252D2CD0216A8847C0B1626901210198C8
:100990009047216A88470028F7D1411E6269019873
:1009A000904700E0761CA1690B988847216A884728
:1009B0000028F7D1E1690B988847DBE7A1690B981C
:1009C00088470746A84201D1761CD3E7E1690B9816
:1009D00088477F1C02D1B8F1000F6FD046E1002795
:1009E00062693D463946019890472A2804D16269D8
:1009F0000121019890470125DFF884926269012165
:100A000001989047A0F130010A290AD24F45E5DC50
:100A100007EB870100EB4107303FDFD445F01005BD
:100A2000ECE7E90601D46FF000476C280AD04C28A7
:100A300014D0682815D06A280DD074281CD07A28C4
:100A40001AD01DE062690121019890476C2802D0FC
:100A500045F0040514E045F002050DE045F02005E1
:100A60000AE06269012101989047682802D045F0A8
:100A7000080505E045F40065626901210198904789
:100A8000C4E9015765283DD019DC58287AD00CDC20
:100A9000452837D004DC252826D0412831D131E043
:100AA00046282FD047282CD12CE05B2877D061280E
:100AB00028D063287CD0642823D15AE0D0E06F2866
:100AC00048D008DC66281DD067281BD0692821D0B3
:100AD0006E2816D127E0702845D0732868D0752875
:100AE00047D078280DD14DE0A1690B98884705467D
:100AF00025283FF469AFE1690B9888476D1C3FF4E6
:100B00006AAFB3E023466A466FF001000B99AFF37A
:100B100000809EE045F040006060A80723464FF04B
:100B2000000236D43EE0E8077FF447AF2068011D9D
:100B300021600068290501D506701BE7290701D54A
:100B4000068017E7A90703D5F117C0E9006111E78F
:100B500006600FE745F040006060A80723464FF0AD
:100B6000080216D41EE040F60E0125EA010060607E
:100B700016E045F040006060A80723464FF00A02E7
:100B800007D40FE045F040006060A80708D5234671
:100B900010226FF001000B99AFF3008059E007E0DD
:100BA000234610226FF001000B99FFF76DFB50E018
:100BB0004FF000094F464B46632802D05B2806D011
:100BC00040E0E80601D40120A06001273AE0626914
:100BD0000121019890475E2805D14FF00109626913
:100BE000494601989047216939B900210A46534680
:100BF00043F82120491C0829FADBB0B3216969B9FF
:100C0000C11700EBD16253110AEB830122F01F02DE
:100C1000821A01200B68904003430B606269012136
:100C2000019890475D28E8D1B9F1000F09D0002064
:100C3000514651F82020D24341F82020401C08287A
:100C4000F7DB02AB224600976FF001000B99FFF72C
:100C5000C1FB00280CDA401C08D1BBF1000F05D005
:100C60004FF0FF300DB0BDE8F08FFFE74046F9E7E9
:100C7000E90701D108F1010806444FF0000B79E6BD
:100C8000CCCCCC0C7F2801D9002208E0064A02EB2C
:100C90005002C007127800D1120902F00F020120A1
:100CA000904008407047000064C3030870B58C187A
:100CB00010F8015B15F0070301D110F8013B2A1170
:100CC00006D110F8012B03E010F8016B01F8016B5D
:100CD0005B1EF9D12B0705D40023521E0DD401F859
:100CE000013BFAE710F8013BCB1A921C03E013F822
:100CF000015B01F8015B521EF9D5A142D8D3002057
:100D000070BD000010B5002414E00C4800EB041086
:100D1000037A601CC2B2094800EB0410017908484C
:100D200000F0ACF9074800EB4400044901EB041162
:100D3000C860641C032CE8D310BD0000BC03002075
:100D400000210140EC03002010B596B00121880578
:100D500009F044F8002404E00020394921F8140087
:100D6000641C032CF8D3374802F0D6FF01A803F027
:100D7000EBF84FF000700190334802903048039038
:100D80000020049003200590002006904FF480601E
:100D90000790400008908000099040110A9040029E
:100DA0000B9000200C9001200D9000200E900F90D1
:100DB00001A9244803F09CF80121224802F0A0FF79
:100DC0000121480209F04AF810A800F0B8F9002003
:100DD000109001208DF844008DF8450000201290FD
:100DE0001390149003208DF8540010A916484C3825
:100DF00000F01AF9FFF786FF012113484C3800F084
:100E000076F8012110484C3800F066F801210E48B0
:100E10004C3800F03DF8012210210A4803F04AF84E
:100E20003B208DF8000003208DF8010001208DF893
:100E300002008DF80300684608F0D6FC16B010BD1D
:100E4000EC030020586402404C21014010B50024FE
:100E500014E00C4800EB0410037A601CC2B209488D
:100E600000EB04100179084800F008F9074800EB8E
:100E70004400044901EB0411C860641C062CE8D34B
:100E800010BD00005C030020002001409C230020D6
:100E900021B1826842F00102826003E0826822F0A0
:100EA00001028260704700000021084A1168084A68
:100EB0001140D0E900231A4383681A43C3681A43D8
:100EC0001143044AC2F80413704700000423014090
:100ED000E030FCFF0020014021B1826842F48072C2
:100EE000826003E0826822F480728260704721B1E0
:100EF000826842F40072826003E0826822F4007229
:100F00008260704710B59AB00121880508F066FF2D
:100F1000002404E00020404921F81400641C302C17
:100F2000F8D33E4802F0F8FE05A803F00DF80020C3
:100F300005903B48069038480790002008903020E4
:100F4000099000200A904FF480600B9040000C90B4
:100F500080000D9040110E9040020F9000201090E4
:100F60000120119000201290139005A92B4802F047
:100F7000BFFF0121294802F0C3FE0121080208F049
:100F80006DFF0020019002900390049001A8FFF7EC
:100F90008BFF14A800F0D3F80020149001208DF8E6
:100FA00054008DF8550000201690179018900620D8
:100FB0008DF8640014A91A484C3800F035F8FFF792
:100FC00045FF012000F0C6F8012000F0D9F801210A
:100FD00013484C38FFF78BFF012111484C38FFF7BD
:100FE0007BFF01210E484C38FFF752FF01221021F0
:100FF0000A4802F05FFF38208DF8000003208DF8CA
:10100000010001208DF802008DF80300684608F009
:10101000EBFB1AB010BD00003C230020106402401E
:101020004C2001407047000030B5024600200023EC
:101030005068104C20400D790C6844EA0524204388
:10104000506090680C4C2040D1E903542C438D68CB
:101050002C434D7944EA450420439060D06A20F443
:1010600070000C7D641EE4B2234340EA0350D0625A
:1010700030BD0000FFFEFFFCFDF7FFC0F0B50446E9
:101080000D4600200021092D11DDE068A5F10A06BA
:1010900006EB4607072606FA07F18843A5F10A067C
:1010A00006EB460603FA06F10843E0600CE020690F
:1010B00005EB4507072606FA07F1884305EB4506C9
:1010C00003FA06F108432061072A0FDA606B561E07
:1010D00006EB86071F2606FA07F18843561E06EB25
:1010E000860605FA06F10843606322E00D2A0FDA4E
:1010F000206BD61F06EB86071F2606FA07F18843EA
:10110000D61F06EB860605FA06F10843206310E0B9
:10111000E06AA2F10D0606EB86071F2606FA07F124
:101120008843A2F10D0606EB860605FA06F1084390
:10113000E062F0BD816841F080418160704700212C
:101140000160017141718160C1600161012101751E
:101150007047000038B10849096841F40001074AA6
:10116000C2F8041306E00449096821F40001034AA7
:10117000C2F804137047000004230140002001401E
:1011800038B10849096841F48001074AC2F80413DC
:1011900006E00449096821F48001034AC2F80413F7
:1011A00070470000042301400020014010B50348AF
:1011B000FFF7C0FF0248FFF7BDFF10BD002101404F
:1011C000002001404FF6FF710F4A116000210F4AC5
:1011D0001160002012E000210D4A42F820100D4A53
:1011E00042F8201001210C4A42F8201000210B4A3D
:1011F00042F820100A4A42F82010401C0228EAD384
:101200000021084A11607047280000202C000020AF
:1012100098000020A0000020A8000020B8000020B6
:10122000B0000020C400002000B50648006840B1AE
:10123000054801680348006814F060FF0020014978
:10124000086000BD0C0000201000002010B51348FD
:10125000006800B110BD1248006800B1FAE71148FB
:10126000007800B9F6E710490D4814F0A9FF0446CC
:101270002CB10D4801680A48006808F0E9F809F047
:1012800067F9044644B10021204614F053FF18B911
:101290000021204614F0BEFF00BFDBE7180000204D
:1012A0000C000020B804002010000020012001499B
:1012B000087070473F000060042014F017FF00BF63
:1012C000FEE710B519F054FD10BD70477047704728
:1012D00000B589B00121480608F0A0FD3E4800F0A5
:1012E0007FF805A800F00AFA00208DF81A008DF8A2
:1012F0001B008DF81C008DF81D008DF81E000120CC
:101300008DF81F0000208DF8170009208DF81800B7
:1013100003208DF819000220ADF8140005A92E480D
:1013200000F012F900208DF80E0001208DF80F005A
:101330008DF81000002016F05FFC4FF6FF7101EAF7
:101340004010ADF804000020ADF806000846ADF8E6
:101350000800ADF80A000020ADF80C0001208DF85F
:10136000110001A800F058F801208DF80E008DF84A
:101370000F008DF8100016F03FFC4FF6FF7101EAE8
:101380004010ADF804000020ADF806000846ADF8A6
:101390000800ADF80A000020ADF80C0001208DF81F
:1013A000110001A800F038F8012202210A4800F0DB
:1013B000C2F814208DF8200000208DF821008DF84F
:1013C000220001208DF8230008A808F00DFA002063
:1013D0000249086009B000BD006400404C050020CF
:1013E00010B504460B48844209D10121480608F093
:1013F00025FD00214FF0007008F020FD08E00121DC
:10140000880608F01BFD00214FF0806008F016FDF3
:1014100010BD00000064004010B50021837A012255
:1014200002FA03F13D4A126842F001023B4B1A6096
:101430003A4A1C3212688A43384B1C331A60027BCA
:10144000CAB9364A0C3212688A43344B0C331A60DC
:101450004288C38842EA0343304A4032847A42F8E1
:1014600034300288838842EA03432C4A4032847A2B
:1014700002EBC4025360027B012A19D1274A0C32C5
:1014800012680A43254B0C331A604288038842EAEB
:101490000343224A4032847A42F83430C288838837
:1014A00042EA03431D4A4032847A02EBC40253608D
:1014B000C27A3AB9194A121D12688A43174B1B1D8A
:1014C0001A6006E0154A121D12680A43134B1B1DD1
:1014D0001A60028932B9114A143212688A430F4BDA
:1014E00014331A600289012A06D10C4A1432126898
:1014F0000A430A4B14331A60427B012A06D1074A79
:101500001C3212680A43054B1C331A60034A1268E6
:1015100022F00102014B1A6010BD0000006600407D
:10152000014600208A69C2F3074070470146002047
:101530008A69100E70471AB143690B43436102E098
:1015400043698B434361704730B502460020002356
:10155000146824F002041460146844F00104146058
:1015600000E05B1C546804F001041CB94FF6FF74E2
:10157000A342F6D1546804F001040CB900206CE0D9
:101580008C79012C04D1146844F08004146003E0C9
:10159000146824F080041460CC79012C04D1146800
:1015A00044F04004146003E0146824F04004146024
:1015B0000C7A012C04D1146844F02004146003E078
:1015C000146824F0200414604C7A012C04D11468AF
:1015D00044F01004146003E0146824F01004146054
:1015E0008C7A012C04D1146844F00804146003E0E0
:1015F000146824F008041460CC7A012C04D1146817
:1016000044F00404146003E0146824F0040414603B
:101610008C78A407CD7844EA05640D7944EA054442
:101620004D7944EA05540D886D1E2C43D46114682D
:1016300024F001041460002300E05B1C546804F0F3
:1016400001041CB14FF6FF74A342F6D1546804F0B4
:1016500001040CB1002000E0012030BD10B500F500
:10166000D87303EB01131B6803F004031372137A9E
:1016700053B900F5D87303EB01131B6840F2FF74F4
:1016800004EA5353136009E000F5D87303EB011328
:101690001B686FF0604404EAD303536000F5D8730D
:1016A00003EB01131B6803F00203537200F5D873B8
:1016B00003EB01135B6803F00F03937200F5D8731B
:1016C00003EB01135B681B0AD37400F5D87303EBBB
:1016D00001139B68C2F80B3000F5D87303EB0113BC
:1016E000DC680F239C5021B9C36843F02003C3601A
:1016F00003E0036943F02003036110BD0021817101
:10170000C171017241728172C1728170C170032115
:1017100001710221417101210180704710B502461B
:101720000020936803F08063B3F1806F00D110E074
:10173000936803F00063B3F1006F01D1012008E06A
:10174000936803F08053B3F1805F01D1022000E081
:101750000420042874D002F5C07303EB00131B6847
:1017600003F0010402F5C07303EB00131C600B7A55
:101770007BB94B7A0C8843EA445302F5C07404EBFE
:1017800000142468234302F5C07404EB00142360A2
:1017900010E00B7A4C6843EAC4034C7A234302F509
:1017A000C07404EB00142468234302F5C07404EBF6
:1017B000001423608B7A03F00F038B7202F5C07361
:1017C00003EB00135B6823F00F0402F5C07303EB17
:1017D00000135C6002F5C07303EB00135B688C7A46
:1017E000234302F5C07404EB001463608B7B1C067A
:1017F0004B7B44EA03440B7B44EA0323CC7A234328
:1018000002F5C07404EB0014A3608B7C1C064B7CB7
:1018100044EA03440B7C44EA0323CC7B234302F5D4
:10182000C07404EB0014E36002F5C07303EB001313
:101830001B6843F0010402F5C07303EB00131C6046
:1018400010BD000010B50B48007800B910BD0A4863
:1018500000684FF2FF31084050B10848007820B1CD
:1018600005480168FD2014F0D5FC002003490870EC
:1018700000BFEBE780040020100500208204002058
:1018800070B50446207800F0800050B12578667865
:1018900045EA0620A3896289218907F0C8FD012055
:1018A00070BD0020FCE7000010B50A48006838B1A0
:1018B00015F00AFE60B10021B82014F0ABFC07E07F
:1018C00015F002FE032803D00021B92014F0A2FC79
:1018D00010BD00006000002010B517F04DFE50B1A3
:1018E0000C48006844F62061884204D20948006828
:1018F000401C0849086017F04BFE50B106480068CC
:1019000044F62061884204D203480068401C024922
:10191000086010BDE4000020E800002010B5024679
:10192000074B1B689343064C23600846037803F07B
:1019300001031BB1038823F00103038010BD0000E5
:101940001005002070B5044604B970BD60780C28FD
:1019500075D2DFE800F0CC06212ACCCC3EC3C4C54A
:10196000C6C92046FFF78CFF00B1C1E0A078482827
:1019700011D1E07851280ED1207954280BD160790B
:10198000452808D1A079532805D1E079542802D1FF
:10199000012059490870ABE02046FFF771FF00B104
:1019A000A6E0002054490870A2E02046FFF768FF37
:1019B00000B19DE05048007850B163891AB2E378D5
:1019C0000BB1012300E000231946A0780FF0C0FA04
:1019D0008EE02046FFF754FF00B189E020890928F6
:1019E00079D2DFE800F005121F2D52565A5E6600CC
:1019F0002278657842EA0520404A1268131421894A
:101A00003E4A126807F013FD66E02278657842EAE4
:101A100005203B4A126813142189394A126807F0DD
:101A200006FD59E02278657842EA0520354A1268B9
:101A300013142189334A126807F0F9FC4CE056E090
:101A40002178627841EA02202C4909680B142B495D
:101A50000A68002107F0EBFC2178627841EA022055
:101A6000274909680B1426490A68012107F0DFFCA1
:101A70002178627841EA0220224909680B14214941
:101A80000A68022107F0D3FC26E000201B49086009
:101A900022E000201A4908601EE000201949086071
:101AA0001AE00020154908601549086015490860CA
:101AB00012E0608913490968884207D062890023CF
:101AC000104801684FF6F27007F0B1FC00200D4994
:101AD000086001E0FFE700BF00BF09E008E007E0A1
:101AE00006E008F01FFF03E008F0F4FE00E000BF8E
:101AF00000BF00BF29E700007B0000204C0500204C
:101B0000540500205805002070B5044604B970BD86
:101B10009F48007800B9FAE76078162871D2DFE8AC
:101B200000F0700B2C59626B8898A3ACADB7C2D192
:101B3000F1F070707070707C2046FFF7A1FE00B16C
:101B400023E194480078B8B1012017F093FC38B92C
:101B500003209149086000220121084615F078FF12
:101B6000002017F087FC38B903208B490860002259
:101B70000121104615F06CFF07E12046FFF780FEBB
:101B800000B102E1208920B101280FD002281ED126
:101B90000FE006F031FD05462178627841EA022027
:101BA000A3890022294607F042FC11E0FFF77CFEE2
:101BB0000EE07A48006838B17848006807F030FCD9
:101BC00000207649086001E003F0FEFE00E000BF5F
:101BD00000BFDAE02046FFF753FE00B1D5E02089D0
:101BE0006F490860D1E02046FFF74AFE00B1CCE023
:101BF000208907F021FFC8E02046FFF741FE08B129
:101C0000C3E0C1E0E278012A01DB012300E0002308
:101C10001946A0781AF02EFAB7E02046FFF730FEFA
:101C200000B1B2E02178627841EA02201AF064FA49
:101C3000ABE02046FFF724FE00B1A6E0A07818B97B
:101C4000E07805F03BFD03E06189E07805F0C8FC31
:101C500000BF2046FFF714FE00B196E0E178A078BF
:101C6000012205F053FD90E02046FFF709FE00B188
:101C70008BE0A07808F020FE87E086E02046FFF7A2
:101C8000FFFD00B181E06189208914F0E3F97CE077
:101C90002046FFF7F5FD00B177E02279E178A078E2
:101CA00005F034FD71E02046FFF7EAFD00B16CE07D
:101CB0002178627841EA0220A3890022012107F0FD
:101CC000B6FB62E02046FFF7DBFD00B15DE0208956
:101CD000642802DD2089334908606089642802DDB8
:101CE000608931490860A089322810DDA0892E4919
:101CF0000968884207D32C48006832382B490860AD
:101D000010E021E00FE0A089284908600AE0274898
:101D1000006825490968884204D32348006832389E
:101D20002249086031E02046FFF7AAFD00B12CE00F
:101D3000A07818B900201E49087004E0A078012896
:101D400001D11B49087020E0E07810B1012818D1BA
:101D50000BE0A07818B900201649087004E0A078BC
:101D6000012801D1134908700CE0A07818B90020AF
:101D70001149087004E0A078012801D10E490870CB
:101D800000E000BF00BF00E000BF00BF00BFBEE634
:101D900031000020B8040020BC0400200C0000200A
:101DA00028000020240500202C05002030050020FC
:101DB00004010020050100200601002070B5044642
:101DC00004B970BD2046FFF75BFD00B1F9E715F0DF
:101DD00091FB054635B1012009490870A800094961
:101DE00008600AE015F086FB217841EA0026A38905
:101DF00000221146304607F01AFB00BFE1E7000061
:101E0000400000204400002010B5044604B910BD75
:101E10001248007800B9FAE76078012802D0022859
:101E200018D10BE02046FFF72BFD00B113E00C4862
:101E3000018804F1080004F031FC0CE02046FFF7B3
:101E40001FFD00B107E00648018804F1080005F015
:101E5000C1FA00E000BF00BF00BFD8E7310000209A
:101E60004E00002070B5044604B970BD9448007857
:101E700000B9FAE76078082870D2DFE800F06F0454
:101E8000265077A1D7F52046FFF7FAFC00B114E100
:101E9000012017F0EFFA38B98A48007840F48071D1
:101EA000FE2014F0B7F908E1002017F0E3FA28B992
:101EB00084480178FE2014F0ADF9FEE0A389628920
:101EC000E178A07804F002FAF7E02046FFF7D8FCAA
:101ED00000B1F2E000250026A07800F0010018B162
:101EE00079488068C0B20543A07800F0020020B1B4
:101EF00075480068C0B245EA0025A07800F00400EB
:101F000018B171484068C0B206432178627841EA4E
:101F10000220A3893246294607F089FACDE02046FF
:101F2000FFF7AEFC00B1C8E0A07870B1E07810B166
:101F3000012808D103E060896449086004E06089F1
:101F40006349086000E000BF0FE0E07810B10128AD
:101F500009D104E060895F49086005E0ACE0608970
:101F60005D49086000E000BF00BFA6E02046FFF723
:101F700087FC00B1A1E00020A17821B1012906D0A1
:101F8000022909D105E0E17801F10C0005E0E078D3
:101F900003E0E178881D00E000BF00BF618939B12E
:101FA000012181404D4A126811434C4A116006E0FC
:101FB00001218140494A12688A4348490A607CE00D
:101FC0002046FFF75DFC00B177E00025444800782B
:101FD00010B1A07800B970E0A078022800DD6CE0B4
:101FE00006F06AFEA07810B1A078401E00E0022042
:101FF000354951F82000E17801F0070201219140B4
:10200000084008B9012000E000200546E178A078EA
:102010002A4604F079F9022032490870E178A07864
:1020200001EBC00020303049087046E02046FFF741
:1020300027FC00B141E06289E178A07804F00EF954
:102040000546A278E67842EA06212278667842EAD6
:102050000620628912B1012201E005E00022134648
:102060002A4607F0E4F928E02046FFF709FC00B112
:1020700023E000251A48007810B1A07800B91CE0D0
:10208000A078022800DD18E006F016FE608908B18D
:10209000012000E000200546E178A0782A4604F0FF
:1020A00033F901200F490870E178A07801EBC000F6
:1020B00020300D49087000E000BF00BF00BFD4E62B
:1020C0003100002050040020E00B00208C00002094
:1020D0009000002084000020880000209400002050
:1020E00032000020790000207A0000207CB50446F0
:1020F00004B97CBDF748007800B9FAE76078202879
:102100007BD2DFE800F07A1054AFE0F1F0EFEEEDB3
:102110007A7A7A7A7AEC7A7A7A7AEBEA7A7A7A7ACC
:102120007AE9E8E7E6E52046FFF7AAFB00B110E20E
:10213000012017F09FF938B9E748007840F4807122
:10214000FE2014F067F804E22089022811D003DC95
:1021500038B1012828D108E003280ED0FF2823D168
:102160001BE0A07908F092FD1FE0A0790CF04EFD75
:102170001BE0A0790CF078FD17E0608906F02AFCDE
:1021800000B112E060890EF011FE0546A079C0F39F
:10219000001128460CF022FA07E0A279C2F30011E0
:1021A00060890CF01BFA00E000BF00BFD1E12046BF
:1021B000FFF766FB00B1CCE1608906F00BFC00B1D3
:1021C000C7E1A07805284AD2DFE800F0030405271C
:1021D000350000BF00BFE07880B16289A07801219E
:1021E00006F0A8FB05462178627841EA0220A3891F
:1021F0000022294607F01BF90EE0A9E1A078012191
:1022000006F0FAFA05462178627841EA0220A389AD
:102210000022294607F00BF922E0608908F0D0FF80
:1022200005462178627841EA0220A38900222946E6
:1022300007F0FDF814E0E07878B16289A078012118
:1022400006F078FB05462178627841EA0220A389EE
:102250000022294607F0EBF800E001E000E000BFB3
:1022600000BF76E12046FFF70BFB00B171E1A078DB
:1022700006F0B0FB00B16CE1012017F0FBF838B9B3
:102280009548007840F48071FE2013F0C3FF60E1B0
:10229000E07840B1A178012088409049096808435E
:1022A0008E49086007E0A178012088408B490968C1
:1022B00081438A480160A389628911B2A078012212
:1022C0000EF01AFE45E12046FFF7DAFA68B140E168
:1022D00022E120E113E108E1F7E0EDE0DAE0CCE013
:1022E000CAE0A3E098E027E015E0E07806F072FB92
:1022F00000B12EE1E0780EF059FD0546A07828B136
:10230000608901B228460CF00BFD03E06189284684
:102310000CF0EEFC1DE12046FFF7B2FA00B118E127
:10232000208920B9608901210CF058FD03E0608903
:1023300001210CF08FFD0CE12046FFF7A1FA00B15E
:1023400007E12089072850D007DC072861D2DFE8A1
:1023500000F0172129333D42470040F20112811A53
:1023600090421BD007DC082849D009284CD0B0F592
:10237000807F4ED109E0012919D0022949D120E0FE
:10238000608900210CF084FF44E0608901210CF099
:102390007FFF3FE060890CF087FF3BE060890DF034
:1023A0001FF837E0608900210CF08CFC32E0608976
:1023B00001210CF087FC2DE0608900210CF0A0FDCC
:1023C00028E0608901210CF09BFD23E06189012058
:1023D0000FF014FE1EE0618901200DF059F819E09C
:1023E000618901200CF0C6FD14E0608908B101206C
:1023F00000E00020014601200CF0BCFE0AE06189EB
:1024000001200CF053FE05E0608901210CF0CAFDAB
:1024100000E000BF00BF9CE02046FFF731FA00B1AA
:1024200097E0618920890CF0BFFC92E02046FFF71D
:1024300027FA00B18DE0012017F01CF838B92648C2
:10244000007840F48071FE2013F0E4FE81E0E07833
:1024500000F07F000090E57805F0800515B14FF49D
:10246000007500E0002545F00103A289658929B2C5
:10247000A0780EF056FD6CE06BE02046FFF700FA06
