:020000040802F0
:1000000050470020990102087DA70208659F020859
:10001000ABA20208050E02082577030800000000C5
:10002000000000000000000000000000EDB6020823
:100030005B4602080000000001AE020809660308E2
:100040002F770308BDAD02086D6603088FB1020863
:10005000C1880208D9B0020859540208695402083C
:100060007154020879540208815402089943020825
:100070009B4302089D4302089F430208A1430208D4
:10008000A3430208A5430208710B02084F0E0208A1
:100090003D0E0208450E0208470E0208835402086E
:1000A0006F660308816603087F66030877660308A6
:1000B0008966030891660308996603087B9F020816
:1000C000799F02087F9F02087D9F02080DB20208F7
:1000D0000FB2020839710308417103084371030824
:1000E000615402088DB1020801AA0208AD66030836
:1000F000B9660308B7660308AF660308A74302089A
:10010000CB890208D5B10208A166030811B2020822
:100110003571030837710308A3660308A566030851
:10012000A9430208B1430208B3430208B5430208D9
:10013000B3010208B3010208B3010208B3010208C7
:10014000B3010208B3010208B3010208B3010208B7
:10015000B3010208B3010208B3010208B3010208A7
:10016000B3010208B3010208B3010208B301020897
:10017000B3010208B3010208B3010208B301020887
:10018000B3010208DFF80CD000F0B4FA00480047D1
:1001900091D403085047002006488047064800478E
:1001A000FEE7FEE7FEE7FEE7FEE7FEE7FEE7FEE727
:1001B000FEE7FEE7116603088501020840EA010335
:1001C0009B0703D009E008C9121F08C0042AFAD20D
:1001D00003E011F8013B00F8013B521EF9D27047D1
:1001E000421C10F8011B0029FBD1801A7047C10F77
:1001F00080EAE0700844CA079623002100F0EEB9B7
:10020000EECCDDAA99400000D2B201E000F8012B4B
:10021000491EFBD270470022F6E710B513460A4686
:1002200004461946FFF7F0FF204610BD30B50446DE
:100230000020034600E05B1C934203D2E05CCD5CEF
:10024000401BF8D030BD70B5064617F09DFA046823
:1002500005460A220021304600F07FF92C6070BD6F
:10026000F0B480EA0102D40F4200B2EB410F02D297
:100270000246084611464A0042D0C30DDDB2C1F322
:10028000C752AD1A202D35DAC1F3160141F4000230
:1002900004B15242C5F1200602FA06F12A41104487
:1002A000B3EBD05F23D0C4B1012DA0EBC35009DC68
:1002B000F0BC4FF0004202EAC352DBB200F500008E
:1002C00000F08CB9400000F1807000EBC350A0F149
:1002D000807040EAD170490009E0490841EAC071E4
:1002E000A0EBC35000F50000400800EBC350F0BC89
:1002F00000F06BB96142012202EB4101001BF6E7FD
:10030000F0BC704781F00041AAE780F00040A7E709
:1003100080EA010210B502F00043400022D04A00FA
:100320001FD0010E01EB1261C0F35600C2F356025A
:1003300040F4000042F40002A0FB022000047F39D8
:10034000140400D0401C50EA124001D44000491E61
:10035000C2B20C0604EBD010401C4008802A02D028
:1003600003E0002010BD20F00100002900DA002089
:10037000184310BD2DE9F04D81EA030404F0004B51
:1003800021F0004514464FF0000A23F0004150EAE6
:10039000050220D054EA01021DD0C5F30A570246D7
:1003A000C5F31303C1F31300C1F30A5640F48015DB
:1003B00043F48013A7EB0608101BD64608F2FD385D
:1003C00073EB050002D308F1010801E092185B41CC
:1003D000B8F1000F03DA00200146BDE8F08D0020DF
:1003E0004FF48011064684460EE0171B73EB050799
:1003F00005D3121B63EB050306434CEA010C4908C5
:100400004FEA300092185B4150EA0107EDD152EA01
:10041000030012D082EA040083EA0501084305D0F4
:10042000101BAB4106D20122002306E000224FF050
:10043000004302E06FF0010253101AEB06004CEB90
:10044000085110EB0A0041EB0B01BDE8F04D00F044
:10045000F3B80EB5C10F80EAE0700844CA07002166
:1004600040F233438DE80E000A460B4600F0F3F8E5
:1004700003B000BD00F0004220F00040C10DC0F309
:10048000160040F400007F2901DA00207047962909
:1004900003DCC1F19601C84001E096398840002A8A
:1004A000F4D040427047C1F30A5210B5C1F31301B2
:1004B00040F2FF3341F480119A4201DA002010BD6E
:1004C00040F233439A42A2F2334203DC524200F03C
:1004D00034F810BD904010BD2DE9F05F05460020B6
:1004E00092469B4688460646814640241BE02846A5
:1004F00041464746224600F020F853465A46C01A65
:10050000914110D311461846224600F005F92D1AE4
:1005100067EB01084F4622460120002100F0FCF85D
:1005200017EB00094E41201EA4F10104DFDC484610
:1005300031462A464346BDE8F09F202A04DB203A94
:1005400021FA02F00021704721FA02F3D040C2F1F3
:10055000200291400843194670472DE9F047914623
:100560000F4680460446002614F8015B2DB100F0CA
:10057000E3F80068405DC007F6D12B2D02D02D2D89
:1005800018D0641E4A463946204600F0D9F827B1F3
:100590003968A14201D1C7F8008071054FF002040B
:1005A0000BD54042002803DD17F0EEF80460A007E9
:1005B000BDE8F08746F48066E4E70028F8DA17F033
:1005C000E3F804606FF00040F2E70029A8BF70472D
:1005D000401C490008BF20F00100704710B4B0FA79
:1005E00080FC00FA0CF050EA010404BF10BC704714
:1005F00049B1CCF1200421FA04F411FA0CF118BF2E
:10060000012121430843A3EB0C01CB1D4FEA0061FC
:100610004FEA102042BF002010BC704700EBC350CF
:1006200010440029A4BF10BC7047401C490008BFFB
:1006300020F0010010BC704710B5141E73F10004C7
:1006400008DA401C41F1000192185B411A4301D1C4
:1006500020F0010010BD2DE9F04D92469B4611B1EE
:10066000B1FA81F202E0B0FA80F22032904600F056
:1006700053F804460F4640EA0A0041EA0B0153468C
:100680005A46084313D0114653EA010019D0C8F165
:1006900040025046FFF751FF05460E465046594668
:1006A000424600F039F8084305D0012004E0204616
:1006B0003946BDE8F08D0020054346EAE0762C433C
:1006C00037430A986305E40AA0EB08000022FD0AFC
:1006D00044EA47540A3002D500200146E9E7010503
:1006E00010196941DDE9084500196941BDE8F04D7F
:1006F000A2E70000064C074D06E0E06840F0010369
:1007000094E8070098471034AC42F6D3FFF73EFD5B
:10071000A8DF0308C8DF0308202A04DB203A00FA18
:1007200002F1002070479140C2F1200320FA03F348
:10073000194390407047000000487047CCDE030822
:100740002DE9F05F82460078002715468B460AF1B6
:100750000104B946302801D09DB113E014F8010B13
:100760000127782803D0582801D045B10AE00DB1FF
:10077000102D07D10027102514F8010B02E00825E1
:1007800000E00A250026B0460EE005FB080005FB48
:1007900006F1012701EB10461FFA80F8B6F5803FFD
:1007A00000D3B94614F8010B294600F018F80028C8
:1007B000EBDABBF1000F05D00FB1641E00E0544628
:1007C000CBF80040B9F1000F06D016F0DDFF022192
:1007D0000160C81EBDE8F09F48EA0640FAE73A28E3
:1007E00000D2303820F02002412A01D3A2F1370094
:1007F000884201D34FF0FF30704770B58C1810F865
:10080000015B15F0070301D110F8013B2A1106D155
:1008100010F8012B03E010F8016B01F8016B5B1E6F
:10082000F9D12B0705D40023521E0DD401F8013B4A
:10083000FAE710F8013BCB1A921C03E013F8015BB6
:1008400001F8015B521EF9D5A142D8D3002070BD3A
:1008500010B5002414E00C4800EB0410037A601C6F
:10086000C2B2094800EB04100179084800F0ACF965
:10087000074800EB4400044901EB0411C860641C04
:10088000032CE8D310BD00006004002000210140CB
:100890009004002010B596B0012188050AF0B2FA44
:1008A000002404E00020394921F81400641C032CC2
:1008B000F8D3374803F0A8FD01A803F0BDFE4FF0C0
:1008C000007001903348029030480390002004905B
:1008D00003200590002006904FF4806007904000B0
:1008E00008908000099040110A9040020B9000206F
:1008F0000C9001200D9000200E900F9001A924482B
:1009000003F06EFE0121224803F072FD012148022E
:100910000AF0B8FA10A800F0B8F9002010900120F1
:100920008DF844008DF8450000201290139014902B
:1009300003208DF8540010A916484C3800F01AF91D
:10094000FFF786FF012113484C3800F076F80121AB
:1009500010484C3800F066F801210E484C3800F081
:100960003DF8012210210A4803F01CFE3B208DF8BF
:10097000000003208DF8010001208DF802008DF8A1
:100980000300684609F00AFF16B010BD900400206D
:10099000586402404C21014010B5002414E00C487A
:1009A00000EB0410037A601CC2B2094800EB04108B
:1009B0000179084800F008F9074800EB44000449B1
:1009C00001EB0411C860641C062CE8D310BD0000C4
:1009D0000004002000200140B829002021B18268D5
:1009E00042F00102826003E0826822F0010282602C
:1009F000704700000021084A1168084A1140D0E9F8
:100A000000231A4383681A43C3681A431143044AF4
:100A1000C2F804137047000004230140E030FCFFDB
:100A20000020014021B1826842F48072826003E0BC
:100A3000826822F480728260704721B1826842F439
:100A40000072826003E0826822F400728260704764
:100A500010B59AB0012188050AF0D4F9002404E009
:100A60000020404921F81400641C302CF8D33E4883
:100A700003F0CAFC05A803F0DFFD002005903B4809
:100A800006903848079000200890302009900020F8
:100A90000A904FF480600B9040000C9080000D9005
:100AA00040110E9040020F900020109001201190F4
:100AB00000201290139005A92B4803F091FD01210D
:100AC000294803F095FC012108020AF0DBF9002017
:100AD000019002900390049001A8FFF78BFF14A8E7
:100AE00000F0D3F80020149001208DF854008DF808
:100AF0005500002016901790189006208DF864007D
:100B000014A91A484C3800F035F8FFF745FF0120CA
:100B100000F0C6F8012000F0D9F8012113484C3844
:100B2000FFF78BFF012111484C38FFF77BFF0121B4
:100B30000E484C38FFF752FF012210210A4803F0FB
:100B400031FD38208DF8000003208DF801000120D0
:100B50008DF802008DF80300684609F01FFE1AB0F8
:100B600010BD000058290020106402404C200140B4
:100B70007047000030B50246002000235068104C3A
:100B800020400D790C6844EA0524204350609068A9
:100B90000C4C2040D1E903542C438D682C434D79F3
:100BA00044EA450420439060D06A20F470000C7D34
:100BB000641EE4B2234340EA0350D06230BD00001B
:100BC000FFFEFFFCFDF7FFC0F0B504460D46002018
:100BD0000021092D11DDE068A5F10A0606EB4607A4
:100BE000072606FA07F18843A5F10A0606EB460632
:100BF00003FA06F10843E0600CE0206905EB4507C5
:100C0000072606FA07F1884305EB450603FA06F1C5
:100C100008432061072A0FDA606B561E06EB860731
:100C20001F2606FA07F18843561E06EB860605FACC
:100C300006F10843606322E00D2A0FDA206BD61F0D
:100C400006EB86071F2606FA07F18843D61F06EB38
:100C5000860605FA06F10843206310E0E06AA2F177
:100C60000D0606EB86071F2606FA07F18843A2F158
:100C70000D0606EB860605FA06F10843E062F0BDB4
:100C8000816841F0804181607047002101600171FD
:100C900041718160C16001610121017570470000EF
:100CA00038B10849096841F40001074AC2F8041341
:100CB00006E00449096821F40001034AC2F804135C
:100CC00070470000042301400020014038B108496A
:100CD000096841F48001074AC2F8041306E0044998
:100CE000096821F48001034AC2F804137047000028
:100CF000042301400020014010B50348FFF7C0FF66
:100D00000248FFF7BDFF10BD002101400020014057
:100D10004FF6FF710F4A116000210F4A1160002049
:100D200012E000210D4A42F820100D4A42F820102E
:100D300001210C4A42F8201000210B4A42F82010F1
:100D40000A4A42F82010401C0228EAD30021084A2F
:100D500011607047280000202C000020C4000020F3
:100D6000CC000020D4000020E4000020DC000020A3
:100D7000F000002000B50648006840B10548016851
:100D80000348006816F0CAFE00200149086000BD53
:100D90000C0000201000002010B51348006800B1BE
:100DA00010BD1248006800B1FAE71148007800B998
:100DB000F6E710490D4816F013FF04462CB10D4814
:100DC00001680A48006809F01DFB0AF0B1FC0446FE
:100DD00044B10021204616F0BDFE18B9002120467E
:100DE00016F028FF00BFDBE7180000200C000020F1
:100DF000780500201000002001200149087070478C
:100E00003F000060042016F081FE00BFFEE70000F6
:100E100010B504460021074800F0F4FA08B9002094
:100E200010BD054A0021034800F0FBFA02480B30D0
:100E3000F6E7000000640040003B002010B51BF006
:100E4000E3FB10BD704710B51BF082FB10BD70476F
:100E5000B1F5007F3AD00FDC202928D006DC01292B
:100E60001CD004291DD0082940D11DE0402921D0E3
:100E7000B1F5807F3AD126E0B1F5004F31D006DCE4
:100E8000B1F5806F25D0B1F5006F2FD124E0B1F519
:100E9000803F12D0B1F5003F28D111E0154A8260A1
:100EA00025E00822C26022E01022C2601FE0082272
:100EB00002611CE01022026119E00822426016E083
:100EC0001022426013E00422426010E004224260DB
:100ED0000DE0042242600AE00022826104224260A6
:100EE00005E0002282610422426000E000BF00BFF2
:100EF000704700000101010000B589B001214806DA
:100F000009F0A0FF534800F0A9F805A800F0D9FAAD
:100F100000208DF81A008DF81B008DF81C008DF84C
:100F20001D008DF81E0001208DF81F0000208DF897
:100F3000170009208DF8180003208DF819000220F1
:100F4000ADF8140005A9434800F0D2F900208DF84F
:100F50000E0001208DF80F008DF81000002017F012
:100F6000DDFF4FF6FF7101EA4010ADF804000020EC
:100F7000ADF806000846ADF80800ADF80A000020FC
:100F8000ADF80C0001208DF8110001A800F082F8E6
:100F900001208DF80E008DF80F008DF8100017F06D
:100FA000BDFF4FF6FF7101EA4010ADF804000020CC
:100FB000ADF806000846ADF80800ADF80A000020BC
:100FC000ADF80C0001208DF8110001A800F062F8C6
:100FD000012202211F4800F082F9012211021D485E
:100FE00000F07DF9012251021A4800F078F901223F
:100FF0009102184800F073F90122D102154800F05F
:101000006EF90122D103134800F069F914208DF81C
:10101000200001208DF8210000208DF82200012001
:101020008DF8230008A809F0B9FB16208DF82000E0
:1010300003208DF8210000208DF8220001208DF87A
:10104000230008A809F0AAFB00200349086009B0A2
:1010500000BD0000006400406806002010B5044692
:101060000B48844209D10121480609F0FBFE00210A
:101070004FF0007009F0F6FE08E00121880609F043
:10108000F1FE00214FF0806009F0ECFE10BD000081
:101090000064004010B50021837A012202FA03F1B6
:1010A0003D4A126842F001023B4B1A603A4A1C3238
:1010B00012688A43384B1C331A60027BCAB9364A1D
:1010C0000C3212688A43344B0C331A604288C3884E
:1010D00042EA0343304A4032847A42F8343002888C
:1010E000838842EA03432C4A4032847A02EBC402EA
:1010F0005360027B012A19D1274A0C3212680A4335
:10110000254B0C331A604288038842EA0343224A83
:101110004032847A42F83430C288838842EA0343FA
:101120001D4A4032847A02EBC4025360C27A3AB953
:10113000194A121D12688A43174B1B1D1A6006E0DC
:10114000154A121D12680A43134B1B1D1A600289AF
:1011500032B9114A143212688A430F4B14331A60A1
:101160000289012A06D10C4A143212680A430A4B3A
:1011700014331A60427B012A06D1074A1C321268D6
:101180000A43054B1C331A60034A126822F001021D
:10119000014B1A6010BD00000066004070B50446A7
:1011A0000D46002660692840002871D0B5F5807F83
:1011B0005CD010DC082D35D006DC012D20D0022DAE
:1011C00024D0042D72D127E0102D31D0202D35D020
:1011D000402D6BD138E0B5F5004F60D009DCB5F596
:1011E000007F49D0B5F5806F4CD0B5F5006F5DD16B
:1011F0004FE0B5F5803F2DD0B5F5003F56D12FE03B
:10120000A0682D4900F040FA064651E0E06803214D
:1012100000F03AFA06464BE0E068082100F034FAA4
:10122000064645E0E068102100F02EFA06463FE051
:101230002069032100F028FA064639E020690821D8
:1012400000F022FA064633E02069102100F01CFA73
:1012500006462DE06068082100F016FA064627E0F1
:101260006068102100F010FA064621E0A069012113
:1012700000F00AFA06461BE0A069022100F004FA19
:10128000064615E0A069042100F0FEF906460FE0CD
:101290000FE0A069702100F0F7F9064608E06068E9
:1012A000042100F0F1F9064602E0FFE7002600BF46
:1012B00000E00026304670BD01010100014600201B
:1012C0008A69C2F307407047014600208A6902F02C
:1012D00070007047014600208A69100E70471AB1ED
:1012E00043690B43436102E043698B4343617047A9
:1012F00030B5024600200023146824F00204146074
:10130000146844F00104146000E05B1C546804F0AD
:1013100001041CB94FF6FF74A342F6D1546804F0DF
:1013200001040CB900206CE08C79012C04D1146804
:1013300044F08004146003E0146824F08004146016
:10134000CC79012C04D1146844F04004146003E00B
:10135000146824F0400414600C7A012C04D1146841
:1013600044F02004146003E0146824F020041460A6
:101370004C7A012C04D1146844F01004146003E08A
:10138000146824F0100414608C7A012C04D11468C1
:1013900044F00804146003E0146824F008041460A6
:1013A000CC7A012C04D1146844F00404146003E0E6
:1013B000146824F0040414608C78A407CD7844EAFF
:1013C00005640D7944EA05444D7944EA05540D88D5
:1013D0006D1E2C43D461146824F0010414600023B2
:1013E00000E05B1C546804F001041CB14FF6FF746C
:1013F000A342F6D1546804F001040CB1002000E0CF
:10140000012030BD0246002019B9D36803F0030063
:1014100006E0012903D1136903F0030000E0002076
:10142000704710B500F5D87303EB01131B6803F088
:1014300004031372137A53B900F5D87303EB011345
:101440001B6840F2FF7404EA5353136009E000F58F
:10145000D87303EB01131B686FF0604404EAD303F5
:10146000536000F5D87303EB01131B6803F002030C
:10147000537200F5D87303EB01135B6803F00F039D
:10148000937200F5D87303EB01135B681B0AD374E6
:1014900000F5D87303EB01139B68C2F80B3000F51D
:1014A000D87303EB0113DC680F239C5021B9C36888
:1014B00043F02003C36003E0036943F020030361AA
:1014C00010BD00218171C171017241728172C172BE
:1014D0008170C170032101710221417101210180DC
:1014E000704710B502460020936803F08063B3F1A3
:1014F000806F00D110E0936803F00063B3F1006FD8
:1015000001D1012008E0936803F08053B3F1805FBC
:1015100001D1022000E00420042874D002F5C07339
:1015200003EB00131B6803F0010402F5C07303EB27
:1015300000131C600B7A7BB94B7A0C8843EA445346
:1015400002F5C07404EB00142468234302F5C07450
:1015500004EB0014236010E00B7A4C6843EAC403E8
:101560004C7A234302F5C07404EB0014246823432F
:1015700002F5C07404EB001423608B7A03F00F03B0
:101580008B7202F5C07303EB00135B6823F00F044A
:1015900002F5C07303EB00135C6002F5C07303EB4C
:1015A00000135B688C7A234302F5C07404EB0014CB
:1015B00063608B7B1C064B7B44EA03440B7B44EA51
:1015C0000323CC7A234302F5C07404EB0014A36018
:1015D0008B7C1C064B7C44EA03440B7C44EA0323CB
:1015E000CC7B234302F5C07404EB0014E36002F5E6
:1015F000C07303EB00131B6843F0010402F5C073D2
:1016000003EB00131C6010BDF0B5044698B213E064
:1016100014F8016B80EA062000250BE000F4004777
:101620001FB182EA4007B8B203E04FF6FF7707EA3E
:1016300040006D1C082DF1DB0F1EA1F10101E7D167
:10164000F0BD000070B507F0B5FD044607F0BAFD27
:1016500005462246294602A016F086F870BD000015
:101660000D0A43616E5F6572726F723D2578202CA2
:101670004C617374206572726F7220636F64653D94
:101680002578200D0A0000000246002002EA01032E
:101690000BB1012000E00020704700000A480068FC
:1016A00080B10A480068401C084908600846006884
:1016B00005490968884205D30120054908600020D2
:1016C0000249086070470000F0040020F404002084
:1016D000F804002010B50B48007800B910BD0A4886
:1016E00000684FF2FF31084050B10848007820B13F
:1016F00005480168FD2016F09DFA00200349087096
:1017000000BFEBE740050020D00500204205002087
:1017100070B50446207800F0800050B125786678D6
:1017200045EA0620A3896289218908F05AFE012032
:1017300070BD0020FCE7000010B50A4800780A4997
:10174000096888420DD00849096811B140F2E731B3
:1017500000E06321084617F07DFA0348006801495C
:10176000087010BD7C0600206C06002010B50A48E9
:10177000006838B116F024FF60B10021B82016F0DF
:1017800059FA07E016F01CFF032803D00021B92006
:1017900016F050FA10BD00007C00002010B519F0C2
:1017A000ABF950B10C48006844F62061884204D27D
:1017B00009480068401C0849086019F0A9F950B1AF
:1017C0000648006844F62061884204D20348006855
:1017D000401C0249086010BD180100201C010020B7
:1017E00010B504460C480068A0B10C48006888B1E8
:1017F0000020094908600A480068030C084800688E
:1018000082B20021204608F0ECFD05480068401C2B
:101810000349086010BD0000F8040020F004002017
:10182000FC04002010B50246074B1B689343064C8E
:1018300023600846037803F001031BB1038823F0FB
:101840000103038010BD0000D00500202DE9F04108
:1018500004460CB9BDE8F0816078102877D2DFE843
:1018600000F0E008232CE0E040CACBCCCDD0E0E093
:10187000E0D32046FFF74CFF00B1D3E0A078482822
:1018800011D1E07851280ED1207954280BD16079FC
:10189000452808D1A079532805D1E079542802D1F0
:1018A000012062490870BDE02046FFF731FF00B11A
:1018B000B8E000205D490870B4E02046FFF728FF3B
:1018C00000B1AFE05948007850B163891AB2E378AB
:1018D0000BB1012300E000231946A07810F0B2FFFD
:1018E000A0E02046FFF714FF00B19BE02089092803
:1018F0007ED2DFE800F005121F2D52565A5E6600B8
:101900002278657842EA0520494A12681314218931
:10191000474A126808F065FD6BE02278657842EA74
:101920000520444A126813142189424A126808F0BB
:1019300058FD5EE02278657842EA05203E4A12684A
:10194000131421893C4A126808F04BFD51E068E00D
:101950002178627841EA0220354909680B1434493C
:101960000A68002108F03DFD2178627841EA0220F2
:10197000304909680B142F490A68012108F031FD2C
:101980002178627841EA02202B4909680B142A4920
:101990000A68022108F025FD2BE000202449086098
:1019A00027E000202349086023E000202249086046
:1019B0001FE000201E4908601E4908601E4908609B
:1019C00017E01D4800681D490968451A6089A8424A
:1019D00007D062891948036829464FF6F27008F06B
:1019E00000FD0020144908601449086001E0FFE789
:1019F00000BF00BF16E015E014E013E00AF084F821
:101A000010E00AF059F80DE04FF6AA752E4623783B
:101A1000677843EA0720320C3146002308F0E1FCE6
:101A200000E000BF00BF00BF14E70000A0000020DE
:101A30006806002070060020740600208400002044
:101A400070B5044604B970BDAD48007800B9FAE736
:101A50006078162870D2DFE800F06F0B34616A748A
:101A600090A0ABB4B5BFCAD9FAF96FF86F6F6F84A5
:101A70002046FFF74DFE00B13EE1A2480078B8B124
:101A8000012018F061FF38B903209F490860002247
:101A90000121084617F06EF9002018F055FF38B9FB
:101AA00003209949086000220121104617F062F9CD
:101AB0009648007820B116F0B1F9002093490870DB
:101AC0001AE12046FFF724FE00B115E1208920B17C
:101AD00001280FD002281ED10FE007F0D5FB0546E4
:101AE0002178627841EA0220A3890022294608F081
:101AF00078FC11E0FFF73AFE0EE08548006838B147
:101B00008348006808F066FC00208149086001E015
:101B100004F08CFB00E000BF00BFEDE02046FFF7C3
:101B2000F7FD00B1E8E020897A490860E4E020464A
:101B3000FFF7EEFD08B1DFE0DDE0208908F062FF8D
:101B4000DAE02046FFF7E4FD00B1D5E0E278012AB3
:101B500001DB012300E000231946A0781BF0D0FF31
:101B6000CAE02046FFF7D4FD00B1C5E021786278D5
:101B700041EA02201CF006F8BEE02046FFF7C8FD4F
:101B800000B1B9E0A07818B9E07806F029FB03E0CD
:101B90006189E07806F0B6FA00BF2046FFF7B8FD8D
:101BA00000B1A9E0E178A078012206F041FBA3E0B2
:101BB0002046FFF7ADFD00B19EE0A07809F06EFF72
:101BC0009AE099E02046FFF7A3FD00B194E0618917
:101BD000208915F04FFF8FE02046FFF799FD00B1F7
:101BE0008AE02279E178A07806F022FB84E02046A2
:101BF000FFF78EFD00B17FE02178627841EA022094
:101C0000A3890022012108F0ECFB75E02046FFF7D4
:101C10007FFD00B170E02089642802DD20893E4903
:101C200008606089642802DD60893C490860A089F9
:101C3000322811DDA08939490968884208D337481C
:101C4000006832383649086011E047E021E00FE0D3
:101C5000A089334908600AE0314800682F490968C3
:101C6000884204D32D48006832382D49086043E08B
:101C70002046FFF74DFD00B13EE0A07818B90020E6
:101C80002849087004E0A078012801D1254908708E
:101C900032E02046FFF73CFD00B12DE0E07810B1C6
:101CA000012818D10BE0A07818B900201E4908704F
:101CB00004E0A078012801D11B4908700CE0A0784D
:101CC00018B900201949087004E0A078012801D152
:101CD0001649087000E000BF00BF0DE02046FFF786
:101CE00017FD00B108E0A07808B1012000E0002055
:101CF0000F49087000E000BF00BF00BFA3E600006E
:101D000031000020780500207C0500202400002000
:101D10000C00002028000020EC050020F405002025
:101D2000F80500204C0100204D0100204E0100204C
:101D30006800002070B5044604B970BD2046FFF766
:101D4000E7FC00B1F9E716F051FC054635B101207A
:101D500009490870A800094908600AE016F046FC25
:101D6000217841EA0026A38900221146304608F076
:101D700038FB00BFE1E700004400002048000020DD
:101D800010B5044604B910BD1248007800B9FAE74E
:101D90006078012802D0022818D10BE02046FFF716
:101DA000B7FC00B113E00C48018804F1080005F00D
:101DB000D3F90CE02046FFF7ABFC00B107E0064882
:101DC000018804F1080006F099F800E000BF00BFA8
:101DD00000BFD8E7310000205200002070B5044653
:101DE00004B970BD9C48007800B9FAE7607808280B
:101DF00070D2DFE800F06F04265077A1DFFD2046A7
:101E0000FFF786FC00B124E1012018F09DFD38B9F0
:101E10009248007840F48071FE2015F00BFF18E125
:101E2000002018F091FD28B98C480178FE2015F0AB
:101E300001FF0EE1A3896289E178A07804F0F2FE47
:101E400007E12046FFF764FC00B102E1002500260F
:101E5000A07800F0010018B181488068C0B2054345
:101E6000A07800F0020020B17D480068C0B245EAC9
:101E70000025A07800F0040018B179484068C0B28D
:101E800006432178627841EA0220A3893246294636
:101E900008F0A7FADDE02046FFF73AFC00B1D8E0F1
:101EA000A07870B1E07810B1012808D103E0608912
:101EB0006C49086004E060896B49086000E000BF7D
:101EC0000FE0E07810B1012809D104E0608967498A
:101ED000086005E0BCE060896549086000E000BF7B
:101EE00000BFB6E02046FFF713FC00B1B1E00020D0
:101EF000A17821B1012906D0022909D105E0E178B4
:101F000001F10C0005E0E07803E0E178881D00E0D5
:101F100000BF00BF618939B101218140554A126873
:101F20001143544A116006E001218140514A126870
:101F30008A4350490A608CE02046FFF7E9FB00B174
:101F400087E000254C48007810B1A07800B980E007
:101F5000A078022800DD7CE007F0EAFDE07940107F
:101F600008B1E07900E0002044490870A07810B181
:101F7000A078401E00E00220394951F82000E178A5
:101F800001F0070201219140084008B9012000E05A
:101F900000200546E178A0782A4604F061FE022080
:101FA00037490870E178A07801EBC000203035494E
:101FB00008704EE02046FFF7ABFB00B149E06289B4
:101FC000E178A07804F0F6FD0546A278E67842EACA
:101FD00006212278667842EA0620628912B101223F
:101FE00001E005E0002213462A4608F0FAF930E045
:101FF0002046FFF78DFB00B12BE000251E4800783E
:1020000010B1A07800B924E0A078022800DD20E01B
:1020100007F08EFDE079401008B1E07900E0002083
:1020200016490870608908B1012000E000200546CB
:10203000E178A0782A4604F013FE012010490870C8
:10204000E178A07801EBC00020300E49087000E074
:1020500000BF00BF00BFC4E6310000201005002013
:10206000940F0020B8000020BC000020B000002029
:10207000B4000020C0000020320000209E0000209C
:102080009D0000209F0000207CB5044604B97CBD63
:10209000F848007800B9FAE7607821287CD2DFE8B8
:1020A00000F07B1155B0F3F1F0EFEEED7B7B7B7B25
:1020B0007BEC7B7B7B7BEBEA7B7BE9E8E7E6E5E49B
:1020C000E3E2E1002046FFF723FB00B14EE20120EE
:1020D00018F03AFC38B9E848007840F48071FE20E6
:1020E00015F0A8FD42E22089022811D003DC38B1A6
:1020F000012828D108E003280ED0FF2823D11BE0B7
:10210000A07909F0F7FE1FE0A0790EF00DF81BE0B2
:10211000A0790EF035F817E0608907F031FB00B1C7
:1021200012E0608910F00AFA0546A079C0F30011A8
:1021300028460DF07BFC07E0A279C2F3001160890C
:102140000DF074FC00E000BF00BF0FE22046FFF777
:10215000DFFA00B10AE2608907F012FB00B105E284
:10216000A07805284AD2DFE800F0030405273500EF
:1021700000BF00BFE07880B16289A078012107F03C
:10218000A3FA05462178627841EA0220A389002259
:10219000294608F026F90EE0E7E1A078012107F0D2
:1021A000EFF905462178627841EA0220A3890022EE
:1021B000294608F016F922E060890AF0FBF8054686
:1021C0002178627841EA0220A3890022294608F09A
:1021D00008F914E0E07878B16289A078012107F06D
:1021E00073FA05462178627841EA0220A389002229
:1021F000294608F0F6F800E001E000E000BF00BF6B
:10220000B4E12046FFF784FA00B1AFE1A07807F00F
:10221000B7FA00B1AAE1012018F096FB38B9964848
:10222000007840F48071FE2015F004FD9EE1E07816
:1022300040B1A178012088409049096808438F493E
:10224000086007E0A178012088408C490968814333
:102250008A480160A389628911B2A078012210F036
:10226000C5FA83E153E136E134E127E11CE111E1F4
:1022700006E163E154E1F4E0E1E0D3E0D1E0AAE07B
:102280009FE02DE01BE0FFE72046FFF741FA00B199
:102290006CE1E07807F074FA00B167E1E07810F0E3
:1022A0004DF90546A07828B1608901B228460DF0A5
:1022B000E9FF03E0618928460DF0CEFF56E1204694
:1022C000FFF726FA00B151E1208920B96089012188
:1022D0000EF032F803E0608901210EF069F845E163
:1022E0002046FFF715FA00B140E12089072850D0B9
:1022F00007DC072862D2DFE800F0172129333D42CE
:10230000470040F20112811A90421BD007DC0828D6
:102310004AD009284DD0B0F5807F4FD109E001297E
:1023200019D002294AD120E0608900210EF0DEFA9E
:1023300045E0608901210EF0D9FA40E060890EF095
:10234000E1FA3CE060890EF085FB38E0608900210D
:102350000DF06CFF33E0608901210DF067FF2EE086
:10236000608900210EF082F829E0608901210EF0D9
:102370007DF824E06189012011F02CFB1FE06189C8
:1023800001200EF0BDFB1AE0618901200EF0CAF8B1
:1023900015E0608908B1012000E00020024600211C
:1023A00001200EF0EBF90AE0618901200EF084F9BA
:1023B00005E0608901210EF0CDF800E000BF00BF0C
:1023C000D4E02046FFF7A4F900B1CFE0618920896D
:1023D0000DF09AFFCAE02046FFF79AF900B1C5E078
:1023E000012018F0B1FA38B92348007840F4807120
:1023F000FE2015F01FFCB9E0E07800F07F000090AF
:10240000E57805F0800515B14FF4007500E0002572
:1024100045F00103A289658929B2A07810F0FBF983
:10242000A4E0A3E02046FFF773F900B19EE0A07896
:1024300020B96289E17801200DF0F2FF96E0204694
:10244000FFF766F900B191E0E07800F003026079EF
:1024500008B1207900E0FF200146012005F074FC5E
:1024600084E02046FFF754F900B17FE0208905F0B1
:102470000FF87BE03100002010050020AC010020A7
:102480002046FFF745F900B170E06189012008F0AE
:1024900029F96BE02046FFF73BF900B166E061895E
:1024A000012008F045F961E02046FFF731F900B15D
:1024B0005CE0A178012008F0E7F857E02046FFF73C
:1024C00027F900B152E0628911B2228910B208F0F6
:1024D000FFF84BE000BF2046FFF71AF900B145E0D6
:1024E00061781F2901D1012100E0002108466946D9
:1024F00008F088F82578667845EA0620BDF80430AB
:10250000BDF80220BDF8001007F06BFF2EE020465A
:10251000FFF7FEF800B129E020890DF05DFE25E00F
:102520002046FFF7F5F800B120E0A08903B26089EA
:1025300002B2A178012010F069FA17E02046FFF7F7
:10254000E7F800B112E0A1786B4601AA012010F073
:1025500035FA2278637842EA03202189BDF90030F8
:10256000BDF9042007F03DFF00E000BF00BF00BF41
:102570008DE5000001B588B0089808B909B000BD24
:10258000F848007800B9F9E708988078062808DC50
:1025900008988078052804D008988078F249085C6B
:1025A00007900898407842287DD2DFE810F07C0040
:1025B00042009900CA00170136014F0164017901F8
:1025C000B901C801E1017C007C007C005C02900242
:1025D0007C007C007C0075027C007C00A202B602BC
:1025E000CD02ED02FA02070325033303140340036F
:1025F000510367036A036D03700371037403F403EB
:102600007C007C007C007C007C007C0001041404C5
:10261000430028047D0033044404550462047C0014
:102620007C007C007C007C007C007C007C007C00CA
:10263000440000BF00BF0898FFF76AF800B111E23C
:10264000012018F081F948B9C848007840F480703A
:1026500001460690FE2015F0EDFAF0E70898C078E4
:102660000690079907F0AEF800B1E8E708984078BF
:10267000412801D1012100E0002100220898C07901
:10268000CDE901210090089880790690089840894A
:1026900000B205900898C0780490DDE906320599EB
:1026A0000EF0DCFBF8E3F5E30898FFF731F800B132
:1026B000F2E3002101220898C079CDE901210090C0
:1026C0000898807906900898408900B2059008988B
:1026D000C0780490DDE9063205990EF0BFFBDBE31C
:1026E0000898FFF715F800B1D6E3012018F02CF98F
:1026F00048B99E48007840F4807001460690FE205C
:1027000015F098FAC8E30898408990B10898C07805
:102710000690079907F056F800B1BDE30898807954
:1027200006900898C0780590DDE906210EF051FB6F
:1027300006E0089880790146069007980EF05AFB4B
:10274000AAE30898FEF7E4FF00B1A5E30020069095
:102750000898C07805282FD2DFE800F00304051C94
:102760001D0000BF00BF0898407958B10898007953
:1027700005900898C0780490059A079906F0A4FF80
:10278000069006E00898C0780590079906F0F8FED4
:10279000069012E000BF0898407958B10898007977
:1027A00005900898C0780490059A079906F08CFF68
:1027B000069000E001E000E000BF00BF089801784B
:1027C000407841EA0020049008988089034600225E
:1027D00005900699049807F004FE5DE30898FEF75B
:1027E00097FF00B158E3FF2006900898C078014693
:1027F0000590079807F032F906900898017840781C
:1028000041EA002004900898808903460022059040
:102810000699049807F0E5FD3EE30898FEF778FF77
:1028200000B139E30898C0780690079906F0CAFF0E
:1028300000B131E30898408900B206900898C0784A
:102840000590DDE906120EF0F9FA25E30898FEF787
:102850005FFF00B120E30898408906900898C0788F
:10286000059008988078801CC0B20490DDE90512BC
:102870000DF088F810E30898FEF74AFF00B10BE36B
:102880000898C07806900898408905900898807844
:10289000801CC0B20490DDE905120DF0DDFEFBE204
:1028A0000898FEF735FF00B1F6E20898807850B935
:1028B0000898408906900898C078801CC0B205909E
:1028C000069911F087F808988078012809D10898AE
:1028D000408906900898C078801C059006990EF0F3
:1028E0000FF90898807802280AD108984089069044
:1028F0000898C078801CC0B2059006990DF082F847
:102900000898807803280AD108984089069008988A
:10291000C078801CC0B2059006990DF043F8BBE268
:102920000898FEF7F5FE00B1B6E2089840890690D7
:1029300008980089059006990DF0B8FFACE2089858
:10294000FEF7E6FE00B1A7E2089880890690089895
:1029500040890590089800890490DDE9051205F08A
:1029600005FB99E2310000207C01002010050020C9
:102970000898FEF7CDFE00B18EE208988078012815
:1029800006D0022820D003284ED0042868D166E063
:10299000012017F0D9FF48B9F748007840F480705B
:1029A00001460690FE2015F045F95AE00898808906
:1029B00006900898408905900898C0780490DDE951
:1029C000051205F015FA4CE008984089002815DD3D
:1029D0000898C07805900EF097F90690089801784D
:1029E000407841EA0020049008988089034600223C
:1029F00005900699049807F0F4FC14E00898C07854
:102A000005900EF08CF9069008980178407841EA1C
:102A100000200490089880890346002205900699BA
:102A2000049807F0DEFC1CE00898808900280ADD85
:102A30000898408900B206900898C07805900699D9
:102A400009F01EFA0AE00898807A00F00300069068
:102A50000898C078059006990EF095F901E000E01D
:102A600000BF00BF18E20898FEF752FE00B113E263
:102A70000898807806280EDA089840890690089809
:102A8000C078059008988078801CC0B20490DDE979
:102A900005120DF0C5FCFFE10898FEF739FE00B104
:102AA000FAE10898C07800F0030006900898407991
:102AB00010B10898007900E0FF2005900898807810
:102AC000801C0490DDE9051205F03EF9E4E1089868
:102AD000FEF71EFE00B1DFE10798042808D1089830
:102AE000408906900898C0780590069909F0D4FAB4
:102AF000D2E10898FEF70CFE00B1CDE1079803285B
:102B00000AD10898408900B206900898C0780590CC
:102B1000DDE9061210F0DEFFBEE10898FEF7F8FDD1
:102B200000B1B9E10898808900B206900898408900
:102B300000B205900898C07804900146DDE90523AD
:102B400007980FF063FFA7E10898FEF7E1FD00B1D9
:102B5000A2E10898C07805AB06AA01460490079840
:102B60000FF02CFF08980178407841EA002003908C
:102B7000089800890490BDF91430BDF91820014669
:102B8000039807F02EFC87E10898FEF7C1FD00B11D
:102B900082E10898408901460690079807F0A2FD57
:102BA0007AE10898FEF7B4FD00B175E10898408914
:102BB00001460690079807F0BBFD6DE10898FEF707
:102BC000A7FD00B168E10898408901460690079882
:102BD0000DF0A8FC60E10898FEF79AFD00B15BE1FA
:102BE0000898408906900898C07805900146DDE96C
:102BF00006200DF0C3FD4FE10898FEF789FD00B1F6
:102C00004AE10898408900B20146069007980DF005
:102C100097FC41E10898FEF77BFD00B13CE1089884
:102C200040890146069007980DF046FD34E108986A
:102C3000FEF76EFD00B12FE10898408906900898D4
:102C4000C07805900146DDE906200DF041FD23E145
:102C50000898FEF75DFD00B11EE10898808900B27A
:102C600006900898007905900898C078049001466D
:102C7000DDE90523079809F06DF80DE102200790C2
:102C80000CE00320079009E00420079006E000BF55
:102C90000520079002E00620079000BF0898FEF785
:102CA00037FD00B1F8E015F0A1FCC0B20590059821
:102CB000072868D2DFE800F0041424673444540085
:102CC0000798052808D108984078252803D1089846
:102CD0000089069003E05DE008988078069053E054
:102CE0000798052808D108984078252803D1089826
:102CF0004089069003E04DE00898C078069043E0D4
:102D00000798052808D108984078252803D1089805
:102D10008089069003E03DE008980079069033E052
:102D20000798052808D108984078262803D10898E4
:102D30000089069003E02DE008984079069023E092
:102D40000798052808D108984078262803D10898C4
:102D50004089069003E01DE008988079069013E012
:102D6000079805280BD108984078262806D108989E
:102D70008089069006E006E0100500200AE0089829
:102D8000C079069000E000BF00BFDDE9061008F042
:102D9000AFFF00BF80E00898FEF7BAFC00B17BE00F
:102DA0000898C0780146069007980DF08FFB73E0F5
:102DB0000898FEF7ADFC00B16EE00898C07838B90D
:102DC0000898408901460690079808F005FF00E042
:102DD00000BF00BF60E00898FEF79AFC00B15BE01E
:102DE00008980178407841EA00200590089880789A
:102DF00006900146079A05980DF062FF4CE008988E
:102E0000FEF786FC00B147E008984089069010F074
:102E1000A3F941E00898FEF77BFC00B13CE008987C
:102E2000007906900898C07805900146DDE90620F3
:102E30000FF0A8FC30E00898FEF76AFC00B12BE028
:102E40000898007906900898C07805900146DDE959
:102E500006200EF071F91FE00898FEF759FC00B14A
:102E60001AE00898C0780146069007980DF00AFB12
:102E700012E00898FEF74CFC00B10DE008980079CC
:102E800006900898C07805900146DDE9062010F00C
:102E90006DF901E0FFE700BF00BF00BFFFF76EBBA9
:102EA0002DE9F04104460CB9BDE8F081D84800781E
:102EB00000B9F9E760781B2871D2DFE800F0700EE6
:102EC000233F51636B91B2BBC4D170E0E1FAFBF0D8
:102ED000EFEEEDEC70707070EB002046FEF718FC22
:102EE00000B192E106F03CFB054606F0F1FC064617
:102EF0002178677841EA07202B0CAAB2314607F007
:102F000070FA82E12046FEF703FC00B17DE106F095
:102F100027FB064615F03CFB6189884201D1658993
:102F200002E015F01DFB05462178677841EA07208D
:102F3000330CB2B2294607F054FA66E12046FEF798
:102F4000E7FB00B161E106F0D1F90546217862782E
:102F500041EA0220A3890022294607F042FA54E1FF
:102F60002046FEF7D5FB00B14FE12178657841EAB4
:102F70000520A389A74909680A0CA649096807F032
:102F800030FA42E12046FEF7C3FB00B13DE10EF00E
:102F900037F93AE12046FEF7BBFB08B135E133E1F2
:102FA0002089102800DB30E1608990B115F0F0FA3B
:102FB0006189884206D116F0A7F915F07BFE14F05E
:102FC00057FA22E115F0CCFA80B26189884200D02C
:102FD0001BE116F099F915F06DFE14F087FB14E172
:102FE0002046FEF795FB00B10FE1A07801280AD139
:102FF0002278657842EA0520A3892189864A1288C9
:1030000007F0EFF90CE0A078022809D12278657862
:1030100042EA0520A3892189804A128807F0E1F954
:10302000F3E02046FEF774FB00B1EEE0A07806F076
:103030008FFDEAE02046FEF76BFB00B1E5E0A078EB
:1030400006F006FCE1E02046FEF762FB00B1DCE0A2
:103050002278637842EA0320A17806F053F9D4E09D
:103060002046FEF755FB00B1CFE02178627841EAB7
:103070000220A3890022012107F0B3F9C5E000BFB7
:103080002046FEF745FB00B1BFE060780D2809D06F
:10309000012008E0ACE09DE090E056E043E041E034
:1030A00008E006E00020014604F1080005F050FBAE
:1030B000ABE000BF2046FEF72BFB00B1A5E0607837
:1030C0000F2801D0012000E00020014604F1080093
:1030D00004F07EFE2278637842EA03200F2B01D0B1
:1030E000012200E00022114604F0BCF960780F28AC
:1030F00001D0012100E000210120884048490978E1
:103100000843474908700846007800F00300032888
:1031100007D104F06BFE4248007820F003004049DC
:10312000087072E000BF2046FEF7F2FA00B16CE0D2
:103130002278637842EA0320112B01D0012200E0BB
:103140000022114603F016FE5FE02046FEF7E0FA8B
:1031500000B15AE0002533480068042804D2002159
:10316000FA2014F067FD50E0A2896189208905F0FA
:1031700087F898B9A089012804DC022104F10C0029
:1031800005F0E6FAA089022801D1012000E0002024
:103190000146002005F038F9012500E00025A0894E
:1031A00002280AD1A68946EA05232678677846EAE6
:1031B00007206289218907F014F926E02046FEF7EE
:1031C000A7FA00B121E02178627841EA022003F0F9
:1031D000BDFD1AE02046FEF79BFA00B115E004F1B0
:1031E000080004F0E1FD1048008808F0D1FD0CE073
:1031F0002046FEF78DFA00B107E06189A28941EA15
:10320000024008F0D7FD00E000BF00BF00BF4BE662
:1032100031000020F8000020980500209A050020C9
:10322000AC000020EC000020000500202DE9FC414E
:1032300004460CB9BDE8FC81F848007818B96078FC
:103240000C2800D0F6E7607827286FD2DFE800F07E
:10325000141A3340526F9E9FD3F4F2F1F0EFEEED6B
:10326000ECEBEAE9E8E7E6E5E4E3C8E2B5A0AB6E3B
:103270006EE16EE0DF87DE002046FEF749FA00B11E
:103280002AE329E32046FEF743FA00B124E320892C
:1032900070B115F037FDE248007858B9E148008870
:1032A00008F076FDDE480078401CDD49087001E03A
:1032B00015F000FD10E32046FEF72AFA00B10BE3FB
:1032C000208910B116F0DAF801E016F01DF803E3DA
:1032D0002046FEF71DFA00B1FEE215F071F9054631
:1032E0002178627841EA0220A3890022294607F06A
:1032F00078F8F1E22046FEF70BFA00B1ECE2208903
:10330000C94908600020C94908700120C8490870EF
:10331000FF20C8490870C848008830B1C7480088F5
:1033200018B10021FB2014F085FCD5E2D3E2204641
:10333000FEF7EEF900B1CFE2218909B1012100E0E9
:103340000021084606F0DCFA05462178627841EA59
:103350000220A3890022294607F043F8BCE2204658
:10336000FEF7D6F900B1B7E2012006F021FB0546D1
:10337000002006F01DFB06462178627841EA022013
:10338000A3892A46314607F02CF8A5E2A4E2A3E27D
:103390002046FEF7BDF900B19EE2628911B2208994
:1033A00002F086FD98E22046FEF7B2F900B193E202
:1033B0006189208902F0A6FD8EE22046FEF7A8F979
:1033C00000B189E2208902F0B1FA054622786678D8
:1033D00042EA0620A38921892A4607F002F87BE207
:1033E0002046FEF795F900B176E2208902F084FAD2
:1033F0000CF0F8FE70E22046FEF78AF900B16BE2AD
:10340000208902F05BFA0CF0EDFE65E25AE250E230
:1034100046E239E29EE07CE070E05CE051E033E0BF
:1034200025E219E2EAE1DCE1B7E1A9E1F1E0DBE064
:10343000CDE09CE013E0FFE72046FEF769F900B11C
:103440004AE2FF2002F064FC05462178627841EAF6
:103450000220A3890022294606F0C3FF3CE2204651
:10346000FEF756F900B137E220896A4601A902F059
:1034700043FE05B22178627841EA02202B46DDE95D
:10348000002106F0AEFF27E22046FEF741F900B129
:1034900022E2608918B9208902F078FE10E0608984
:1034A000012805D1A1892089002202F0ADFD07E0A5
:1034B0006089022804D1A1892089012202F0A4FD9B
:1034C0000AE22046FEF724F900B105E2618920896D
:1034D00002F06CFF00E22046FEF71AF900B1FBE1B2
:1034E000208902F023FE05462178627841EA022015
:1034F000A3890022294606F074FFEDE12046FEF77D
:1035000007F900B1E8E161892089012202F0DEFEBD
:10351000E2E12046FEF7FCF800B1DDE1608920B968
:103520002089012102F056FE13E06089012809D1AB
:103530002089FF2802D102F04DFD0AE0208902F027
:1035400007FD06E06089022803D1A189208902F0E5
:1035500003FFC1E12046FEF7DBF800B1BCE12278B1
:10356000637842EA0320A17802F0EEF9B4E1204644
:10357000FEF7CEF800B1AFE1208930B9608930495B
:103580000860608900F0C6FE1DE02089012806D190
:1035900060892B498860608900F0D2FE13E02089A1
:1035A000022810D16089264948612648007818B160
:1035B000608906F05FFE06E023480078022802D109
:1035C000608907F009FE01202049087084E1204647
:1035D000FEF79EF800B17FE1208908B1012000E0EC
:1035E00000200E49087077E12046FEF791F800B1FF
:1035F00072E105F021FF05462678677846EA072044
:10360000A3894FF6FF7606EA1542A9B206F0E9FE55
:1036100062E12046FEF77CF8D0B15DE13100002088
:1036200034010020000500207C00002080000020E4
:10363000890000208A000020E4040020E204002029
:10364000F0250020330000209D01002030000020E4
:103650002078617840EA0120ADF80000A078ADF84C
:103660000600A07830B1012833D0022849D00328C1
:1036700079D15AE09A48006885B240F2726085427A
:103680000CDB05EB850044F27401C1EB40003721EF
:1036900090FBF1F080B2ADF8020002E00020ADF83E
:1036A00002009048006885B240F2726085420CDBEF
:1036B00005EB850044F27401C1EB4000372190FB1B
:1036C000F1F080B2ADF8040002E00020ADF8040093
:1036D0004AE085480068C0EBC00000EB4000642170
:1036E000B0FBF1F080B2ADF8020080480068C0EB9A
:1036F000C00000EB4000B0FBF1F080B2ADF8040078
:1037000032E07B480068D721484340F2DC51B0FBEF
:10371000F1F080B2ADF80200764800684FF6FF7114
:1037200001EA4000ADF804001EE07348006880B272
:10373000ADF802007148006885B2C5F53E7064219D
:103740004843192190FBF1F0C0F1FA0080B2ADF8C6
:103750000400BDF806006A49097840EA0120ADF886
:10376000060001E0FFE700BF00BFBDF80630BDF86E
:103770000420BDF80210BDF8000006F032FEABE0F8
:103780002046FDF7C5FF00B1A6E0A07800F00F00CD
:103790005C49087006F0CCF99EE02046FDF7B8FFC2
:1037A00000B199E0002519E0002606EB4506012747
:1037B00007EB450746EA07232678677846EA07209D
:1037C000012606EB4506504F57F82620002606EB4B
:1037D000450657F8261006F004FE6D1C282DE3DB85
:1037E0007AE02046FDF794FF00B175E0A07808B1BB
:1037F000012000E00020454908706DE02046FDF7FB
:1038000087FF00B168E0208940F20122811A9042CE
:1038100014D006DC60B101280CD0A0F2011098B9D8
:103820000AE0B1F5807F0BD0B1F5007F0CD109E043
:1038300001250BE0022509E0032507E0042505E04A
:10384000052503E0062501E0002500BF00BF6189D2
:10385000284603F027FE3FE02046FDF759FF00B160
:103860003AE0E178A0782B2215F084FA34E0204683
:10387000FDF74EFF00B12FE0E07800F00302FF21DA
:10388000084604F061FA27E02046FDF741FF00B149
:1038900022E0A3896289E178A07804F0D3F81BE0E4
:1038A0002046FDF735FF00B116E0208908F0A6F9A3
:1038B00012E02046FDF72CFF00B10DE020891449ED
:1038C000088009E02046FDF723FF00B104E02089CD
:1038D0001049088000E000BF00BF00BFAAE400005C
:1038E000980400209C040020A0040020A4040020D0
:1038F000A8040020AC040020B0040020B404002080
:10390000F00500209C000020A4350020500000207D
:10391000520000205400002070B5044604B970BD68
:103920005D48007800B9FAE76078152873D2DFE8BF
:1039300000F0AE0B14244D6CAE6D30AEAEAEAEAE3C
:10394000AEAE778390A33A002046FDF7E1FE00B1CA
:103950009EE02089514908609AE02046FDF7D8FE94
:1039600000B195E0E078062806DCE3784C4DEA5C8F
:103970002179A07811F05EF98AE02046FDF7C8FEB3
:1039800000B185E0E37862792179A07811F0AAF995
:103990007EE02046FDF7BCFE00B179E0E178A0783A
:1039A00011F0E2F974E02046FDF7B2FE00B16FE0DD
:1039B000A07808F06DFD05B22178667841EA06200E
:1039C000A3892289294606F00CFD61E02046FDF717
:1039D0009FFE00B15CE0A07810B9E0780CF0C6FD65
:1039E000A07801280BD111F0DDF905462178627825
:1039F00041EA022000231A46294606F0F2FCA0788C
:103A0000022801D105F00CFF42E041E02046FDF71D
:103A10007FFE08B13CE03AE020892249088037E087
:103A20002046FDF775FE00B132E0A279C2F3001125
:103A3000A0780BF0FBFF2BE02046FDF769FE00B1FC
:103A400026E0A389628911B2A07801220EF0CEFE91
:103A50001EE02046FDF75CFE00B119E0A07808F0FA
:103A6000A9FC05462178627841EA0220A389002258
:103A7000294606F0B6FC0BE02046FDF749FE00B1F2
:103A800006E0628911B2A0780CF0FCFB00E000BFF8
:103A900000BF00BF43E70000310000202C000020E1
:103AA0007C0100208E00002000B97047024909788F
:103AB00001B9FAE700BFF8E7310000202DE9F04135
:103AC00004460CB9BDE8F081FA48007800B9F9E77E
:103AD00060780D286FD00ADC0D286DD2DFE800F089
:103AE0006C2028B2D5F1EFEEEDECEBEAE9001428FA
:103AF0007BD008DCA0F10E000628EED2DFE800F053
:103B0000F8F7F6F5F4F3172870D004DC15286ED01A
:103B1000162851D152E118286AD08228F9D108E03C
:103B20002046FDF7F5FD00B192E206F00DFB8FE2B5
:103B300000BF2046FDF7ECFD00B189E214F056FD10
:103B4000C7B26078C009DC490870DC480068DC490D
:103B50000968884203D3D9480068D9490860D74822
:103B6000006820B1D5480068401ED4490860012093
:103B700016F0EAFE38B9D348007840F48071FE2090
:103B800014F058F864E2002016F0DEFE28B9CD48A3
:103B90000178FE2014F04EF85AE2CB480068B0B12C
:103BA000062F12D2DFE807F0030A0E04090D00BF4A
:103BB000A578E6780AE0BFE149E200BF2579667999
:103BC00004E000BFA579E67900E000BF31E0072FEF
:103BD0002DD2DFE807F0040E142C1A202600A0785E
:103BE00000F00F05A078060922E0E6E01BE2A8E05D
:103BF00022E2E07800F00F05E078060918E020796D
:103C000000F00F052079060912E0607900F00F0539
:103C1000607906090CE0A07900F00F05A07906098B
:103C200006E0E07900F00F05E079060900E000BF4A
:103C300000BFF1B2E8B218F08DF83146284606F020
:103C4000FDFD05E22046FDF763FD00B100E2012025
:103C500016F07AFE38B99B48007840F48071FE2057
:103C600013F0E8FFF4E1002016F06EFE28B9954845
:103C70000178FE2013F0DEFFEAE16289A38942EABF
:103C80000341208903F0B4F8E2E12046FDF740FD4E
:103C900000B1DDE12278657842EA0520A389227A25
:103CA00002F00702894D55F82210002206F099FB18
:103CB000CEE132E11AE1E9E0DFE0BCE02CE018E01F
:103CC000FFE72046FDF724FD00B1C1E106F032FA1E
:103CD00005462178627841EA0220A389002229461C
:103CE00006F07FFBB4E12BE097E18BE164E026E096
:103CF0006CE12046FDF70CFD00B1A9E1208906F03A
:103D00001FFA05462178627841EA0220A389002241
:103D1000294606F066FB9BE12046FDF7F9FC00B161
:103D200096E16089217A01F00701694A42F8210091
:103D3000A189227A02F0070006F034FA88E100BF78
:103D400000BF2046FDF7E4FC00B181E114F04EFC19
:103D500006460027042E2DD226B1012E04D0022EB5
:103D600006D103E0278904E0678902E0A78900E023
:103D700021E000BF00251BE0A80047FA00F000F09A
:103D80000F0005F00701524A42F8210062780F2A1D
:103D900001D1002206E06278152A02D145F2AA522A
:103DA00000E00122114605F0070006F0FBF96D1C4A
:103DB000042DE1DB00BF4BE100BF00BF2046FDF753
:103DC000A7FC00B144E114F011FC06460027082EC0
:103DD0002FD2042E2DD304D0052E04D0062E06D1CA
:103DE00003E0278904E0678902E0A78900E021E079
:103DF00000BF00251BE0A80047FA00F000F00F000C
:103E000005F00701324A42F821006278102A01D1F8
:103E1000002206E06278152A02D145F2AA5200E09B
:103E20000122114605F0070006F0BCF96D1C042DB7
:103E3000E1DB00BF0CE12046FDF76AFC00B107E1C1
:103E40002089C8B9A08988B1A08942F2107188423E
:103E500012DCA089322801DC012004E0A08919309D
:103E6000322190FBF1F01B49086005E0207900EB5E
:103E70008000400017490860EAE02046FDF748FC52
:103E800000B1E5E0208906F0BFF9E1E02046FDF74A
:103E90003FFC00B1DCE02089401C0F4908600A4863
:103EA0000068D8B10846006805281ED905200860BA
:103EB0001BE00000310000208800002020010020CD
:103EC00024010020100500204C000020640E00207A
:103ED0007C0B002070000020600000205E4800681D
:103EE0000A2802D90A205C490860B1E02046FDF7A3
:103EF0000FFC00B1ACE0208908B1012000E00020F7
:103F0000564908600846006818B1082054490870EE
:103F100002E00420524908709AE02046FDF7F8FBC1
:103F200000B195E02089012802D02089022802D121
:103F300020894C4908808BE02046FDF7E9FB00B161
:103F400086E0002505F0F4FDA07800F00300464966
:103F500051F82000E17801F00F0201219140084062
:103F600008B1012000E000200546E079401008B1CA
:103F7000E07900E000203D4908700846007820B153
:103F80000DB9012000E000200546A379E178A07872
:103F90002A4602F0D3FF022035490870E07808284D
:103FA0000BDBA07800F00300482101EB4000E17832
:103FB000084408382F49087007E0A07800F0030192
:103FC000E07861F3DF002B49087041E02046FDF7FF
:103FD0009FFB00B13CE0E178A07802F0DFFE0546EF
:103FE000A278E67842EA06212278667842EA06203C
:103FF00062890AB1012200E0002213462A4606F037
:10400000F0F925E02046FDF783FB00B120E022799E
:10401000E178A07806F008F91AE02046FDF778FB71
:1040200000B115E014E02046FDF772FB00B10FE08F
:10403000A078114908700BE02046FDF769FB00B13C
:1040400006E020890D4908806089488000E000BFB3
:1040500000BF00BF36E50000600000204C000020DB
:1040600079050020F4000020640E00209E0000204E
:104070009D0000209F000020E00400203800002068
:104080007FB567480068401C65490860C4E006F0D9
:1040900035F9044604B9C0E020788DF80000A07816
:1040A0008DF80100A088ADF80800E088ADF80A009E
:1040B0002089ADF80C00BDF80800C0B28DF80200F0
:1040C000BDF80800000A8DF80300BDF80A00C0B270
:1040D0008DF80400BDF80A00000A8DF80500BDF84F
:1040E0000C00C0B28DF80600BDF80C00000A8DF877
:1040F00007004C48006810B12088803820809DF867
:10410000000000F07F00172871D2DFE800F00C10EB
:1041100014181C20686C717579818181817D818181
:104120008181818124006846FFF7BEFC71E068460A
:10413000FFF77CF86DE06846FFF7EEFB69E0684644
:10414000FDF7A2FF65E06846FEF714FA61E06846F5
:10415000FDF744FE5DE09DF80100C0F30215002666
:104160009DF8000000F0800088BB2F48007818B947
:1041700001202D4908701CE02C480078A8420DD180
:104180002B480068401C2A4908602848007840EA0B
:1041900005219A2013F04EFD01260AE025480078FB
:1041A000A84206D02348007840EA05219A2013F05F
:1041B00041FD1E4805700078401C1E4908700846E5
:1041C0000078072801DD0020087006B121E0FFE734
:1041D0009DF8010000F08F008DF8010000BF6846D7
:1041E000FFF76CFC15E06846FDF72AFC11E00FE0D4
:1041F0006846FEF755FE0CE06846FDF79BFD08E0BB
:104200006846FDF7BDFD04E06846FDF71FFB00E0D2
:1042100000BF00BFFCF7AEFD39E700BF7FBD000067
:10422000A40000202C00002080000020810000203D
:10423000840000208200002039B1084A126801235E
:1042400083401A43054B1A6006E0044A12680123B2
:1042500083409A43014B1A6070470000007400408D
:104260001FB50121480706F0EDFD3C20009000201D
:1042700001904FF4007002900220039069460020E4
:1042800000F00EF86946102000F00AF80121002025
:10429000FFF7D2FF01211020FFF7CEFF1FBD000066
:1042A00030B5002200230A4C226840F6FE74844098
:1042B000A243D1E900452C438D682C43CD6844EAE4
:1042C000050303FA00F42243014C226030BD0000D4
:1042D0000074004008B500220092054A009200F1E7
:1042E0000802009B1A440092009A116008BD000069
:1042F0000074004008B500220092054A009200F1C7
:104300001402009B1A440092009A116008BD00003C
:104310000074004070B50446204616F069FE04465D
:10432000E000C0EB003048F2E80190FBF1F5A9B2E3
:104330000020FFF7CFFF0121002000F017F870BD2B
:1043400070B50446204616F053FE0446E000C0EB6C
:10435000003048F2E80190FBF1F5A9B20020FFF728
:10436000C9FF0121102000F001F870BD10B541B166
:10437000084A126804090123A3401A43054B1A6036
:1043800007E0044A126804090123A3409A43014B41
:104390001A6010BD04740040704770477047704742
:1043A000704770477047704710B516F019F910BD87
:1043B0007047704710B516F04DF810BD0246094B16
:1043C0009A4201D2084801E00648103801F0005333
:1043D0001BB1064B0B40C36002E0044B0B408360F3
:1043E0007047000010640240006002407D0F7D0FA6
:1043F00021B1026842F00102026003E0026822F08B
:104400000102026070470000016821F001010160B3
:104410000021016041608160C16001612121416131
:104420004A49884204D13D21484A103A91608CE0C3
:1044300046491831884205D14FF47461434A103A15
:10444000916082E041493031884205D14FF47411C6
:104450003E4A103A916078E03C494831884205D1A3
:104460004FF07461394A103A91606EE0374960311B
:10447000884204D13649354A103AD16065E0334963
:104480007831884204D13349304A103AD1605CE037
:104490002E499031884204D12F492C4A103AD160DC
:1044A00053E02A49A831884205D14FF03D51274AAF
:1044B000103AD16049E02949884204D13D21274A78
:1044C000083A116041E025491831884205D14FF47E
:1044D0007461224A083A116037E02049303188423D
:1044E00005D14FF474111D4A083A11602DE01B49A3
:1044F0004831884205D14FF07461184A083A11607A
:1045000023E016496031884204D11149134A121F31
:1045100011601AE011497831884204D10D490F4ADF
:10452000121F116011E00D499031884204D10A49EF
:104530000A4A121F116008E00849A831884204D1D4
:104540004FF03D51054A121F116070471060024044
:104550003D000020400F002000003D20106402407C
:1045600030B503460A46002000240B4DAB4201D271
:104570000A4901E00849103902F000550DB14C68B4
:1045800000E00C68064D2C4004EA02050DB1012044
:1045900000E0002030BD00001064024000600240D6
:1045A0007D0F7D0F10B501F080034BB122B143693F
:1045B00043F08003436103E0436923F080034361D8
:1045C00080290BD02AB1036801F01E042343036045
:1045D00004E0036801F01E04A343036010BD000063
:1045E00010B500220268134B1A40CC680B682343B5
:1045F0004C6923438C692343CC6923430C6A2343CE
:104600004C6A23438C6A23434C6B23438C6B2343B8
:104610001A430260426922F00702D1E90B342343B6
:104620001A4342610B6943604B6883608B68C360C7
:1046300010BD00003F801CF00021016041608160DE
:10464000C160016141618161C16101624162816258
:10465000C16201634163816370477047F3B50646E9
:10466000358801A804F076FE0746002F60D10021AE
:10467000002415E004F10800BDF80420024102F016
:10468000010028B145FA04F0012222EA000003E00B
:1046900045FA04F000F00100A040084381B2641C18
:1046A000082CE7DB00241BE004F10800BDF804201F
:1046B000024102F0010038B104F1080045FA00F0AF
:1046C000012222EA000005E004F1080045FA00F0AA
:1046D00000F0010004F108029040084381B2641C1C
:1046E000082CE1DB0D46BDF80400C0F30310C0F157
:1046F000100005FA00F081B2BDF80400C0F3031009
:1047000005410D43002100240DE0A20045FA02F00E
:10471000BDF80420801A001B00F00F00A20090409A
:10472000084381B2641C042CEFDB31800020FCBD07
:104730004FF0FF30FBE7FCB505460E460027286822
:104740000090A888ADF804008EB14FF6FF70864245
:104750000DD0002409E0694601EB44003146FFF723
:104760007DFF08B1012722E0641C032CF3DBBDF8B8
:104770000400B0B1BDF804004FF6FF71884210D0BC
:10478000BDF804100DF10200FFF768FF08B1022721
:104790000DE0BDF804106846FFF760FF08B103277D
:1047A00005E000982860BDF80400A88000BF3846E6
:1047B000FCBD00002DE9F84381460C46208820F01E
:1047C000020020802088C0F34310062873D2DFE85F
:1047D00000F0720330688FF6A08C07F05FFB208B2F
:1047E0006082A08C012200210BF096F86088C0F353
:1047F000002010B1A08AC83006E0A08AC0EB0010EB
:10480000C000642190FBF1F00FFA80F800200090C6
:10481000A08C00231A4641460CF01CFDA08C4FF4DE
:104820007A710EF0FBFB208820F4F070403020807D
:10483000F5E0218B608A00F005F90646002E02DDC6
:10484000208B60822CE0A08C07F00CFE00B1E6E02B
:10485000608A20826088C0F3002008B1A08A06E048
:10486000A08AC0EB0010C000642190FBF1F00FFAA9
:1048700080F8A08C012241460BF04EF800200090F9
:10488000A08C00231A4619460CF0E4FCA08C4FF4CF
:104890007A710EF0C3FB208820F4F0706030208025
:1048A000BDE0218B208A00F0CDF80646002E03DA09
:1048B000208B20821BE0ADE0A08C07F0D3FD00B17F
:1048C000ADE0A08C012200210BF026F86088C0F337
:1048D000002038B900200090A08C00231A46052142
:1048E0000CF0B8FC208820F4F0708030208096E036
:1048F000A08C07F0B7FD00B191E0208820F4F070A3
:104900002080A08C0EF0A8F8608A218A451A002D1C
:1049100001DA05F58055218901FB05F0C11700EB8F
:104920001151C1F30F3161840095238A628A49468F
:104930003CA018F093FF238A628A0121484600F0C8
:1049400099F80746E08AC8B1E08AB0F5487F01D0FF
:10495000E08A07E0A08A00EB001000EB80006421F1
:1049600090FBF1F0B84209DD0DB16D4201E04FF06E
:10497000FF352946484600F08FFC45E0A078C0F39B
:10498000401068B96088C0F3002008B1258A23E090
:1049900020894FF47041B1FBF0F0218A45181BE0EB
:1049A0006D10208A0544B4F92000002808DDB4F910
:1049B000200000032189B0FBF1F005440CE024E065
:1049C000B4F92000002801DB014600E04142090360
:1049D0002289B1FBF2F16D1AC5F30B0565812088C0
:1049E00020F001002080608820F00200801C6080A0
:1049F0002946484600F050FC208820F4F070A03092
:104A000020804FF4C870A08309E0A08C00210BF037
:104A10000DF800BF208820F4F070208000BF00BF98
:104A2000BDE8F8835B25645D2063775B25645D20CA
:104A30002D206363775B25645D203D205B25645DED
:104A40000D0A000010B502460B46991A09B900205C
:104A500010BD081E01DB044600E04442B4F5006FBF
:104A600006D9002902DA01F5805101E0A1F5805153
:104A70000846EDE7F0B504460D4604EB0416DFF8F2
:104A800038C00CEB860637894FF48051012D02D1D6
:104A9000D61A314401E09E1A3144B1F5805F01D34A
:104AA000A1F5805101FB07F64FEAE67C06EB1C5CA2
:104AB0004FEA2C30F0BD0000103D002070B50646D6
:104AC0000C466389228B01213046FFF7D3FF054650
:104AD000A078C0F3401030B9B4F84000A84208DA1A
:104AE00020892D1A05E0B4F84000A84201DA208997
:104AF0002D1A284670BD2DE9F04782460F46904694
:104B00001C462078C0F3400010B90020BDE8F087B3
:104B1000B4F80890618BB4F9060001F017FB08B1F6
:104B20000020F3E7380390FBF9F660890644C6F3EA
:104B30000B06002E01DA06F58056218B3046FFF772
:104B400081FF0546281E01DB014600E041420D467B
:104B5000A089F8B1A089A8421CDAE08B401CE08350
:104B6000E08B404501DA0120D0E7608820F010009A
:104B7000103060802078C0F3C00028B100220121ED
:104B8000504600F04BFC13E0AAB20221504600F060
:104B900045FC0DE02088C00B38B1208820F4F0409F
:104BA0002080208820F40040208020460EF0B6FFB0
:104BB0000020E0832088C00B18B9208820F008006E
:104BC0002080208820F002002080208820F0100023
:104BD000208000209AE700000346062106221248A2
:104BE000018812480288ABB1012B1BD13AB94EF6AD
:104BF000EE60814201D1002070470120FCE739B905
:104C00004EF6EE60824201D10120F5E70020F3E785
:104C1000AB20F1E709B90020EEE70AB90120EBE784
:104C2000AB20E9E70020E7E700C00008000001082A
:104C300010B508240120104908600221182003F053
:104C4000CBFD0446082C01D0204610BD02200A49A5
:104C500008600021094803F05DFE0446082C01D0DD
:104C60002046F2E70120044908600221202003F0D9
:104C7000B3FD04462046E8E77C08002000C0000899
:104C80002DE9F05F4FF0060B06260025A846A94641
:104C90004FF0FF3A002705E0781D844921F81700FE
:104CA000781C87B2642FF7DB8148B0F800B08148E8
:104CB0000688012080490860BBF1000072D0A0F591
:104CC0006E40EE3848B3A0F58850113800286AD1FC
:104CD00016B34EF6EE60864217D10120086002211D
:104CE000182003F079FD0446082C02D02046BDE8C8
:104CF000F09F02207049086000216E4803F00AFE10
:104D00000446082C08D02046F1E7FFF791FF04463F
:104D1000082C01D02046EAE7C2E0002E44D100254D
:104D200026E06348C088614931F81510884201D1F6
:104D30000FFA85FA554519D05C4931F815005F49DD
:104D400000F060F98146B9F1010F0FD002205A49F5
:104D50000860564931F815005849098800F08CF967
:104D60008046B8F1080F01D04046C0E7681C85B204
:104D7000642DD6DB02205049086000214C4803F026
:104D8000C9FD0446082C01D02046B0E701204A495D
:104D900008600221202003F01FFD0446082C26D0C5
:104DA0002046A4E724E073E04FF6FF70864217D157
:104DB0000120414908600221202003F00DFD044636
:104DC000082C01D0204692E702203B4908600021D0
:104DD000374803F09FFD0446082C08D0204686E79C
:104DE000FFF726FF0446082C01D020467FE757E056
:104DF00036B9FFF71DFF0446082C48D0204676E759
:104E00004FF6FF70864242D0002526E02948C08830
:104E1000264931F81510884201D10FFA85FA554517
:104E200019D0224931F81500244900F0EBF88146E9
:104E3000B9F1010F0FD002201F4908601B4931F85A
:104E400015001E49098800F017F98046B8F1080FCF
:104E500001D040464BE7681C85B2642DD6DB0220AA
:104E6000154908600021134803F054FD0446082C3E
:104E700001D020463BE701200F490860022118209D
:104E800003F0AAFC0446082C01D020462FE707E0D7
:104E9000FFF7CEFE0446082C01D0204627E700BFCE
:104EA00000BF002004490860082020E7F43B0020F0
:104EB00000C00008000001087C080020A4060020B3
:104EC0002DE9F84F80468A460825374800904FF074
:104ED0000009002400264FF0000B0020FFF77CFEA5
:104EE0008146B9F1010F03D130480090202709E035
:104EF000B9F1000F03D12E480090182702E0AB2033
:104F0000BDE8F88F02202B4908604EF6EE6100984C
:104F100003F000FD0546082D01D02846F0E7514674
:104F2000404600F0A9F80646082E01D03046E7E7D3
:104F300000241CE0204830F81400404515D01E49DC
:104F400031F814001D4900F05DF88346BBF1010FF4
:104F50000BD0194931F814001849098800F08CF871
:104F60000646082E01D03046CAE7601C84B2642C85
:104F7000E0DB01200F4908600221384603F02CFCD9
:104F80000546082D01D02846BAE7022009490860E5
:104F90000021009803F0BEFC0546082D01D02846EC
:104FA000AEE72846ACE70000FF03010800C0000898
:104FB000000001087C080020F43B0020A40600202B
:104FC0002DE9F04105460F461646A819642802DD72
:104FD000AF20BDE8F08100240DE007EB44012A1961
:104FE000074B33F8120000F00DF8082802D04FF0FC
:104FF000FF30EEE7641CB442EFDB0020E9E700007D
:10500000F43B00202DE9F04706460F46002545F207
:1050100055584FF00109154CA2460020FFF7DCFD62
:105020000546AB2D01D1BDE8F0871DB910490F4AE7
:10503000521E06E0012D02D10C490E4A01E0AB20C0
:10504000F1E78A46541E0AE0B4F80080B04505D165
:1050500034F8020C38804FF0080904E0241F0AF1EC
:1050600002008442F0D800BF4846DCE70000010897
:1050700000C00008FFFF01082DE9F04706468846FA
:10508000082700251D4CDFF878900120FFF7A4FDCC
:105090000546AB2D01D1BDE8F0871DB91949174A66
:1050A000521E06E0012D02D11449174A01E0AB203F
:1050B000F1E70C46A2F1010919E02068401CA8B9EB
:1050C0000220124908604146204603F023FC0746AF
:1050D000082F01D03846DEE702200C49086031462F
:1050E000A01C03F017FC07463846D4E7241D4C45A6
:1050F000E3D30020054908608020CCE700000108C8
:10510000FF07010800C00008FFFF01087C0800201D
:105110002DE9F04105460F4616464FF00008A81944
:10512000642804DD4FF0AF084046BDE8F08101205F
:1051300080F3108800BF03F025FC00240DE037F851
:1051400014102A190A4B33F8120000F013F808283B
:1051500002D04FF0FF3802E0641CB442EFDB00BF26
:1051600003F0B0FB002080F3108800BF4046DCE76E
:10517000F43B002070B505460E4600243146284613
:10518000FFF77AFF0446802C04D131462846FFF70A
:1051900097FE0446204670BD0021144A1160152177
:1051A000134A1160134A11600021134A1160134A17
:1051B0001160134A1160002004E00021114A42F8F6
:1051C0002010401C1428F8DB002004E000210E4AC7
:1051D00042F82010401C0328F8DB00210B4A116024
:1051E0004FF6FF71084A916070470000C000002030
:1051F000B0000020B4000020B8000020BC00002057
:1052000094000020440F0020940F002098000020FC
:1052100010B500241D480068002836D000BF0120CA
:10522000A0401A490968084038B30120A040184935
:105230000968084000B121E0164850F8240000B980
:105240001CE0144850F82400401E124941F8240084
:10525000084650F8240080B90C2C03D2204612F0E6
:1052600039FE03E0A4F10C0014F018FF0120A04067
:105270000649096881430548016000BF601C044677
:1052800002490968C1400029C9D110BD9800002019
:10529000C0000020440F002070B504460D460023D6
:1052A0002246294641F2015005F09BF870BD0000EE
:1052B0002DE9F84306460C464FF0FF3700BFA078B3
:1052C00000F0010000B9A2E02088C0F3402010B92E
:1052D000608E401C608604F11A036A46A11D3046A8
:1052E00006F026F80746002F40D1BDF800002083C5
:1052F000A06A08B10020A062608820F00800083091
:10530000608015F019FC444941F82600A078C0F3EC
:10531000800020B1208B40F6FF71081A208320887E
:10532000C0F34020E0B9208E4FF6FF71884201D1D2
:10533000208B2086608F218B884201DA208B60874A
:10534000A08F218B884201DD208BA087E08E38B1B1
:10535000208FE18E884201DAE08E20870020E086EF
:1053600094F82400002106F039FD50E0A078C0F345
:10537000C00020B115F0E0FBA062002505E04FF46D
:105380007A71304600F048FA05462088C0F3402084
:1053900028B9A08E401CA086E08E401CE086608864
:1053A00020F00800608094F82400012106F016FD2A
:1053B00041F28831304600F055FA20B12088C0F320
:1053C000402000B923E0304605F0A6FF47F23051F7
:1053D000884200DD00BFCDB16420A08315F0ACFB96
:1053E000A062A078C0F3001078B9608820F01000A7
:1053F00010306080618BB4F9060000F0A7FE804693
:1054000042460021304600F009F800E000BF00BF2E
:105410003846BDE8F8830000303F00202DE9F04118
:1054200007460C4616460025E2200A490860254634
:105430000CB945EA0625022C03D1304665F31F302E
:1054400005460449096841EA0720294612F0F2FBA3
:10545000BDE8F0815C08002010B517F019F910BD07
:1054600010B517F015F910BD10B517F011F910BDF2
:1054700010B517F00DF910BD10B517F009F910BDF2
:10548000704710B517F004F910BD10B5002400F0F6
:1054900005F804460CB1FCF71DF910BD002070475B
:1054A0000149086070470000143C01400EB501211D
:1054B000880305F0E7FC0B21052006F019F915F02B
:1054C00089FD70B90821052006F012F90C2104208D
:1054D00006F00EF97F48007818B90721042006F07D
:1054E00007F90321022006F003F90221084606F01D
:1054F000FFF80121062006F0FBF80021062006F047
:10550000F7F84FF40060009000208DF804000C20A4
:105510008DF8050001208DF80600684600F00CF9B2
:105520004FF4006000F0D8F815F054FDC8BB4FF4FC
:105530008070009000208DF804000C208DF805008C
:1055400001208DF80600684600F0F6F84FF48070F0
:1055500000F0C2F84FF48050009000208DF8040055
:105560000C208DF8050001208DF80600684600F03B
:10557000E3F84FF4805000F0AFF85648007880B957
:105580008020009000208DF804000C208DF805008C
:1055900001208DF80600684600F0CEF8802000F06B
:1055A0009BF80820009000208DF804000C208DF856
:1055B000050001208DF80600684600F0BDF80820BF
:1055C00000F08AF80420009000208DF804000C20E0
:1055D0008DF8050001208DF80600684600F0ACF853
:1055E000042000F079F80220009000208DF80400DB
:1055F0000C208DF8050001208DF80600684600F0AB
:105600009BF8022000F068F80120009000208DF83F
:1056100004000C208DF8050001208DF80600684676
:1056200000F08AF8012000F057F806208DF80800F5
:1056300000208DF8090001208DF80A008DF80B007C
:1056400002A805F0ABF807208DF8080000208DF8BF
:10565000090001208DF80A008DF80B0002A805F062
:105660009DF808208DF8080000208DF80900012021
:105670008DF80A008DF80B0002A805F08FF80920BC
:105680008DF8080000208DF8090001208DF80A002F
:105690008DF80B0002A805F081F817208DF808009E
:1056A00000208DF8090001208DF80A008DF80B000C
:1056B00002A805F073F828208DF8080000208DF866
:1056C000090001208DF80A008DF80B0002A805F0F2
:1056D00065F80EBD32000020054909688143044A7F
:1056E0001160111D09688143121D1160704700008F
:1056F000003C014010B504462046FFF7D1FE0348A8
:10570000006820430149086010BD0000003C0140D2
:10571000014600200022074B1B6803EA0102054BEB
:1057200014331B680B4013B10AB1012000E00020C4
:1057300070470000003C0140002123498279002A83
:105740003AD00A46126803689A430B461A600A1D4B
:10575000126803689A430B1D1A60027911440A68A3
:1057600003681A430A60184A0832126803689A43A9
:10577000154B08331A601A1D126803689A43124BBE
:105780000C331A604279102A0ED11A1F126803686E
:105790001A430D4B08331A601A1D126803681A4326
:1057A000094B0C331A600DE00749427911440A682D
:1057B00003681A430A6005E0027911440A68036825
:1057C0009A430A6070470000003C014070470000A7
:1057D00070B504460E46304615F00AFC06463046C3
:1057E00016F0ECFD0546B5F5757F02DD4FF47575D5
:1057F00002E0142D00DC142524B92946054811F0D7
:10580000EEFA05E0012C03D12946024811F0E9FA2D
:1058100070BD00000008004070B505460E460F48F8
:105820000078854201DB002070BD15F085F9044643
:105830000B4850F82500241A201E01DB014600E029
:1058400041420C46B4F1004F01D3C4F1FF34B6EB32
:10585000940F01D20120E7E70020E5E7600800206F
:10586000303F00202DE9F04105460E4611480078F2
:10587000854202DB0020BDE8F08105EB05100E49F2
:1058800001EB800715F058F90446F86A241A201E27
:1058900001DB014600E041420C46B4F1004F01D368
:1058A000C4F1FF34B6EB940F01D20120E3E70020EE
:1058B000E1E7000060080020103D002010B501461F
:1058C00009B1012200E00022114600200EE000EBA9
:1058D0000012084B03EB8202528861F3000200EBD6
:1058E0000013044C04EB83035A80401C0828EEDBB1
:1058F00010BD0000103D002010B5014600200FE053
:1059000041FA00F200EB0013074C04EB83035B88C1
:1059100062F3000300EB001204EB82025380401C90
:105920000828EDDB10BD0000103D002010B5014639
:105930000020082905DA01EB0113024C04EB830275
:10594000508C10BD103D00202DE9F04781460E46D9
:105950004FF00008FF2E16D1002411E004EB0410D4
:10596000154901EB8005698BB5F9060000F0EEFBE7
:10597000074604EB440007FA00F040EA0808641CFC
:10598000082CEBDB0CE0082E07DA06EB06100A49C0
:1059900001EB8005B5F81A8002E00120BDE8F08730
:1059A0004FF6FF7000EA18431FFA88F23146484666
:1059B00004F017FD0020F1E7103D00202DE9F04133
:1059C000064645490E70082E05DD08200870314650
:1059D00042A017F043FF002570E0062D03DBA81D51
:1059E00000F0FF0801E005F0FF0808EB88004149DE
:1059F00001EB40178420C05BC0F34310A84207D0DE
:105A00008420C05BC0F343112A463BA017F026FF59
:105A100005EB0510414901EB8004A4F82480002027
:105A200020806080E08097F89400C0F3C0010022DD
:105A3000284600F04BFCB8F1030F04DD608820F02D
:105A4000200020306080608820F04000403060807E
:105A5000608820F0080008306080608820F0010035
:105A6000608002206081002020844FF448702081F3
:105A70000020E0833220A0831920A0810520E0814E
:105A80004FF43970A0824FF44870E082A08A60849D
:105A90000020A062208820F4007020800020E062B6
:105AA000A078C0F3401020B14FF4C870A4F84000B3
:105AB00003E020894638A4F840006D1C082D8CDBDB
:105AC00000231A461946184605F032FCFF2000F064
:105AD0001FF90020BDE8F08160080020452D4E75BB
