:020000040802F0
:100000008051002099010208BD9D020865930208F5
:100010003F960208B10D0208F95B030800000000DA
:1000200000000000000000000000000045AB0208D6
:10003000B74302080000000071A30208454A030804
:10004000015C03083BA302089D4A030885A6020839
:10005000017D0208E5A50208B94F0208C14F020858
:10006000C54F0208C94F0208CD4F0208BD40020823
:10007000BF400208C1400208C3400208C540020850
:10008000C7400208C94002082D0B0208EF0D020804
:10009000E50D0208E90D0208EB0D0208CF4F02083A
:1000A000134B03081D4B03081B4B0308174B030896
:1000B000214B0308254B0308BD4B03087793020827
:1000C000759302087B93020879930208DDA6020863
:1000D000DFA60208775603087B5603087D560308FF
:1000E000BD4F020883A6020809A00208C94B0308F5
:1000F000D34B0308D14B0308CD4B0308CB40020878
:10010000F57D0208ADA60208C14B0308E1A602086E
:100110007356030875560308C34B0308C54B030801
:10012000CD400208D1400208D3400208D540020861
:10013000B3010208B3010208B3010208B3010208C7
:10014000B3010208B3010208B3010208B3010208B7
:10015000B3010208B3010208B3010208B3010208A7
:10016000B3010208B3010208B3010208B301020897
:10017000B3010208B3010208B3010208B301020887
:10018000B3010208DFF80CD000F0B4FA00480047D1
:1001900059B50308805100200648804706480047AB
:1001A000FEE7FEE7FEE7FEE7FEE7FEE7FEE7FEE727
:1001B000FEE7FEE7494A03088501020840EA010319
:1001C0009B0703D009E008C9121F08C0042AFAD20D
:1001D00003E011F8013B00F8013B521EF9D27047D1
:1001E000421C10F8011B0029FBD1801A7047C10F77
:1001F00080EAE0700844CA079623002100F0EEB9B7
:10020000EECCDDAA99580000D2B201E000F8012B33
:10021000491EFBD270470022F6E710B513460A4686
:1002200004461946FFF7F0FF204610BD30B50446DE
:100230000020034600E05B1C934203D2E05CCD5CEF
:10024000401BF8D030BD70B5064615F001FD0468BE
:1002500005460A220021304600F07FF92C6070BD6F
:10026000F0B480EA0102D40F4200B2EB410F02D297
:100270000246084611464A0042D0C30DDDB2C1F322
:10028000C752AD1A202D35DAC1F3160141F4000230
:1002900004B15242C5F1200602FA06F12A41104487
:1002A000B3EBD05F23D0C4B1012DA0EBC35009DC68
:1002B000F0BC4FF0004202EAC352DBB200F500008E
:1002C00000F08CB9400000F1807000EBC350A0F149
:1002D000807040EAD170490009E0490841EAC071E4
:1002E000A0EBC35000F50000400800EBC350F0BC89
:1002F00000F06BB96142012202EB4101001BF6E7FD
:10030000F0BC704781F00041AAE780F00040A7E709
:1003100080EA010210B502F00043400022D04A00FA
:100320001FD0010E01EB1261C0F35600C2F356025A
:1003300040F4000042F40002A0FB022000047F39D8
:10034000140400D0401C50EA124001D44000491E61
:10035000C2B20C0604EBD010401C4008802A02D028
:1003600003E0002010BD20F00100002900DA002089
:10037000184310BD2DE9F04D81EA030404F0004B51
:1003800021F0004514464FF0000A23F0004150EAE6
:10039000050220D054EA01021DD0C5F30A570246D7
:1003A000C5F31303C1F31300C1F30A5640F48015DB
:1003B00043F48013A7EB0608101BD64608F2FD385D
:1003C00073EB050002D308F1010801E092185B41CC
:1003D000B8F1000F03DA00200146BDE8F08D0020DF
:1003E0004FF48011064684460EE0171B73EB050799
:1003F00005D3121B63EB050306434CEA010C4908C5
:100400004FEA300092185B4150EA0107EDD152EA01
:10041000030012D082EA040083EA0501084305D0F4
:10042000101BAB4106D20122002306E000224FF050
:10043000004302E06FF0010253101AEB06004CEB90
:10044000085110EB0A0041EB0B01BDE8F04D00F044
:10045000F3B80EB5C10F80EAE0700844CA07002166
:1004600040F233438DE80E000A460B4600F0F3F8E5
:1004700003B000BD00F0004220F00040C10DC0F309
:10048000160040F400007F2901DA00207047962909
:1004900003DCC1F19601C84001E096398840002A8A
:1004A000F4D040427047C1F30A5210B5C1F31301B2
:1004B00040F2FF3341F480119A4201DA002010BD6E
:1004C00040F233439A42A2F2334203DC524200F03C
:1004D00034F810BD904010BD2DE9F05F05460020B6
:1004E00092469B4688460646814640241BE02846A5
:1004F00041464746224600F020F853465A46C01A65
:10050000914110D311461846224600F005F92D1AE4
:1005100067EB01084F4622460120002100F0FCF85D
:1005200017EB00094E41201EA4F10104DFDC484610
:1005300031462A464346BDE8F09F202A04DB203A94
:1005400021FA02F00021704721FA02F3D040C2F1F3
:10055000200291400843194670472DE9F047914623
:100560000F4680460446002614F8015B2DB100F0CA
:10057000E3F80068405DC007F6D12B2D02D02D2D89
:1005800018D0641E4A463946204600F0D9F827B1F3
:100590003968A14201D1C7F8008071054FF002040B
:1005A0000BD54042002803DD15F052FB0460A00784
:1005B000BDE8F08746F48066E4E70028F8DA15F035
:1005C00047FB04606FF00040F2E70029A8BF7047C6
:1005D000401C490008BF20F00100704710B4B0FA79
:1005E00080FC00FA0CF050EA010404BF10BC704714
:1005F00049B1CCF1200421FA04F411FA0CF118BF2E
:10060000012121430843A3EB0C01CB1D4FEA0061FC
:100610004FEA102042BF002010BC704700EBC350CF
:1006200010440029A4BF10BC7047401C490008BFFB
:1006300020F0010010BC704710B5141E73F10004C7
:1006400008DA401C41F1000192185B411A4301D1C4
:1006500020F0010010BD2DE9F04D92469B4611B1EE
:10066000B1FA81F202E0B0FA80F22032904600F056
:1006700053F804460F4640EA0A0041EA0B0153468C
:100680005A46084313D0114653EA010019D0C8F165
:1006900040025046FFF751FF05460E465046594668
:1006A000424600F039F8084305D0012004E0204616
:1006B0003946BDE8F08D0020054346EAE0762C433C
:1006C00037430A986305E40AA0EB08000022FD0AFC
:1006D00044EA47540A3002D500200146E9E7010503
:1006E00010196941DDE9084500196941BDE8F04D7F
:1006F000A2E70000064C074D06E0E06840F0010369
:1007000094E8070098471034AC42F6D3FFF73EFD5B
:100710001CC003083CC00308202A04DB203A00FA6E
:1007200002F1002070479140C2F1200320FA03F348
:1007300019439040704700000048704740BF0308CD
:100740002DE9F05F82460078002715468B460AF1B6
:100750000104B946302801D09DB113E014F8010B13
:100760000127782803D0582801D045B10AE00DB1FF
:10077000102D07D10027102514F8010B02E00825E1
:1007800000E00A250026B0460EE005FB080005FB48
:1007900006F1012701EB10461FFA80F8B6F5803FFD
:1007A00000D3B94614F8010B294600F018F80028C8
:1007B000EBDABBF1000F05D00FB1641E00E0544628
:1007C000CBF80040B9F1000F06D015F041FA022134
:1007D0000160C81EBDE8F09F48EA0640FAE73A28E3
:1007E00000D2303820F02002412A01D3A2F1370094
:1007F000884201D34FF0FF30704770B58C1810F865
:10080000015B15F0070301D110F8013B2A1106D155
:1008100010F8012B03E010F8016B01F8016B5B1E6F
:10082000F9D12B0705D40023521E0DD401F8013B4A
:10083000FAE710F8013BCB1A921C03E013F8015BB6
:1008400001F8015B521EF9D5A142D8D3002070BD3A
:100850002DE9F04100240B4EDFF82C80A6F5E0775F
:1008600006EB0415601CC2B22B7A2979404600F0D1
:100870008BF907EB4400E860641C032CF0D3BDE85F
:10088000F08100008404002000210140F0B597B001
:100890000121880509F06EFD0020334D002425F864
:1008A0001040401C0328FAD3304E304603F038FC89
:1008B00001A803F06FFD4FF0007001902C480290EA
:1008C00003950494032705970694001507904000AC
:1008D00008908000099040110A9040020B900C94FF
:1008E00001250D950E940F9401A9304603F014FDD7
:1008F0000121304603F008FC0121480209F072FD95
:1009000010A800F08EF910948DF844508DF84550E1
:100910001294139414948DF85470164C10A9204618
:1009200000F006F9FFF794FF0121204600F070F86F
:100930000121204600F060F80121204600F03AF83D
:1009400001221021304603F0CBFC3B208DF8000043
:100950008DF801708DF802508DF80350684609F04B
:100960003DFA17B0F0BD0000C402002058640240F8
:100970004C210140002101402DE9F04100240A4EA4
:10098000DFF828800A4F06EB0415601CC2B22B7AF0
:100990002979404600F0F8F807EB4400E860641C51
:1009A000062CF0D3BDE8F081240400200020014093
:1009B000A8340020002904D0816841F00101816041
:1009C0007047816821F0010181607047084A116811
:1009D000084B1940D0F804C0036843EA0C03D0F870
:1009E00008C0C0684CEA0000184308431060704714
:1009F00004230140E030FCFF002904D0816841F469
:100A0000807181607047816821F4807181607047D6
:100A1000002904D0816841F40071816070478168C9
:100A200021F400718160704770B59CB00121880588
:100A300009F0A0FC0020394D002425F81040401C8E
:100A40003028FAD3364E304603F06AFB07A803F08D
:100A5000A1FC07943348089009950A9430200B9024
:100A60000C9430150D9040000E9080000F904011B6
:100A7000109040021190129401251395149415942E
:100A800007A9304603F048FC0121304603F03CFB47
:100A90000121080209F0A6FC029403940494059431
:100AA00002A8FFF793FF16A800F0BBF816948DF884
:100AB0005C508DF85D50189419941A9406208DF8A6
:100AC0006C00194C16A9204600F032F8FFF754FFCD
:100AD000012000F0B1F8012000F0C2F80121204609
:100AE000FFF796FF01212046FFF786FF01212046F0
:100AF000FFF760FF01221021304603F0F1FB3820A0
:100B00008DF8040003208DF805008DF806508DF84F
:100B1000075001A809F062F91CB070BD48340020EC
:100B2000106402404C20014000200140704700004A
:100B300010B4426822F4807222F0407291F804C02E
:100B40000B6842EA0C221A43426082680D4B1A403D
:100B5000D1F80CC00B694C7943EA0C03D1F808C0FA
:100B60004CEA440C43EA0C031A438260C26A22F442
:100B70007002097D491EC9B242EA0151C16210BC2E
:100B800070470000FDF7FFC030B4072509290CD9D4
:100B9000C468A1F10A0C0CEB4C0C05FA0CF5AC4343
:100BA00003FA0CF32343C36009E0046901EB410C31
:100BB00005FA0CF5AC4303FA0CF3234303614FF041
:100BC0001F0C072A0CD2436B521E02EB82020CFA56
:100BD00002FC23EA0C0391401943416330BC704787
:100BE0000D2A0CD2036BD21F02EB82020CFA02FC1C
:100BF00023EA0C0391401943016330BC7047C36A78
:100C00000D3A02EB82020CFA02FC23EA0C0391403B
:100C10001943C16230BC7047816841F080418160F6
:100C2000704700210160017141718160C160016103
:100C300001210175704700000849002806D0D1F84D
:100C4000040340F40000C1F804037047D1F8040322
:100C500020F40000C1F804037047000000200140A8
:100C60000849002806D0D1F8040340F48000C1F8F8
:100C700004037047D1F8040320F48000C1F8040392
:100C8000704700000020014010B50448FFF7C4FF82
:100C9000BDE810400248FFF7BFBF0000002101403F
:100CA00000200140F0B4114C4FF6FF702065002188
:100CB0006165002004F1B00303F10805012203F18E
:100CC000100C03F1200603F1180743F8201045F833
:100CD00020104CF8202046F8201047F82010401C27
:100CE0000228F2D3C4F89C10F0BC7047200000200A
:100CF00010B5064C2069002806D06169206915F0FE
:100D000061F900202061606010BD0000000000203B
:100D100003494868002801D0401E48607047000021
:100D200000000020014948607047000000000020DA
:100D300010B5194CE06900282DD1206958B16068C0
:100D4000002828D16169206908F030FDBDE8104015
:100D50000820FFF7E7BF1148007800281BD0104992
:100D6000081F15F07BF930B16169206908F01EFD9C
:100D70000520FFF7D7FF09F0FDFE044620000AD04A
:100D8000002115F037F9002805D12046BDE81040B4
:100D9000002115F089B910BD00000020CD0400200D
:100DA0001400002001490120087070473F000060D6
:100DB000042015F003F9FEE710B5074C002120468A
:100DC00000F0CAFA30B1054A0021204600F0D2FAFC
:100DD000034810BD002010BD00640040F044002016
:100DE000FB44002019F0B4BC704719F05BBC70479D
:100DF00010B4102304224FF0080CB1F5007F3FD04F
:100E000013DC202931D008DC012926D0042928D080
:100E1000082900D1C36010BC7047402929D0B1F522
:100E2000807FF8D1426010BC70470024B1F5004FBC
:100E30002CD009DCB1F5806F25D0B1F5006FF2D16F
:100E40008461426010BC7047B1F5803F14D0B1F5A9
:100E5000003FF7D1436010BC70470E49816010BC61
:100E60007047C0F80CC010BC7047C0F810C010BC70
:100E70007047036110BC7047C0F804C010BC7047D5
:100E8000426010BC7047426010BC70478461426091
:100E900010BC7047010101002DE9F04188B001212B
:100EA000480609F083FADFF82C81404600F096F8F6
:100EB00004A800F09CFA00248DF816408DF8174025
:100EC0008DF818408DF819408DF81A4001258DF8DD
:100ED0001B508DF8134009208DF8140003278DF85E
:100EE00015700220ADF8100004A9404600F0ABF9DF
:100EF0008DF80A408DF80B508DF80C50002016F03C
:100F00002FF94FF6FF7606EA4010ADF80000ADF875
:100F10000240ADF80460ADF80660ADF808408DF809
:100F20000D50684600F076F88DF80A508DF80B5099
:100F30008DF80C50012016F013F906EA4010ADF8B8
:100F40000000ADF80240ADF80460ADF80660ADF801
:100F500008408DF80D50684600F05CF8012202212F
:100F6000404600F065F901221102404600F060F9A8
:100F700001225102404600F05BF9012291024046F5
:100F800000F056F90122D102404600F051F9012249
:100F9000D103404600F04CF914208DF81C008DF868
:100FA0001D508DF81E408DF81F5007A808F016FF41
:100FB00016208DF81C008DF81D708DF81E408DF8E0
:100FC0001F5007A808F00AFF0348046108B0BDE8F5
:100FD000F081000000640040B805002010B5A0F1C9
:100FE0008041B1F5C8410AD00121880609F0ECF929
:100FF000BDE8104000214FF0806009F0E5B9012103
:10100000480609F0E1F9BDE8104000214FF00070FA
:1010100009F0DAB930B4827A01219140364B1A686E
:1010200042F001021A60DFF8D4C0DCF800208A43E5
:10103000CCF80020047B324A002C1AD114688C436F
:1010400014604488C58844EA0544857AED0005F1BA
:10105000804505F5C045C5F840460588848845EAC1
:101060000445847AE40004F1804404F5C044C4F8E3
:101070004456047B012C1AD114680C431460428836
:10108000048842EA0442847AE40004F1804404F5CE
:10109000C044C4F84026C288848842EA0442847A64
:1010A000E40004F1804404F5C044C4F84426C47A42
:1010B000144A34B114680C4314600489124A24B1F0
:1010C00006E014688C431460F7E714688C431460DE
:1010D0000489012C02D114680C431460407B012860
:1010E00004D1DCF800000843CCF80000186820F0B8
:1010F0000100186030BC7047006600401C6600406C
:101100000C660040046600401466004010B50022E2
:1011100043690B427CD0B1F5807F5CD010DC08299C
:1011200035D006DC012920D0022924D004296FD132
:1011300027E0102931D0202935D0402968D138E066
:10114000B1F5004F5FD009DCB1F5007F49D0B1F5B2
:10115000806F4CD0B1F5006F5AD14EE0B1F5803FB1
:101160002DD0B1F5003F53D12FE08068294900F020
:1011700001FA02464CE0C068032100F0FBF9024688
:1011800046E0C068082100F0F5F9024640E0C0687A
:10119000102100F0EFF902463AE00069032100F067
:1011A000E9F9024634E00069082100F0E3F902465B
:1011B0002EE00069102100F0DDF9024628E04068C9
:1011C000082100F0D7F9024622E04068102100F023
:1011D000D1F902461CE08069012100F0CBF90246FA
:1011E00016E08069022100F0C5F9024610E080692E
:1011F000042100F0BFF902460AE08069702100F086
:10120000B9F9024604E04068042100F0B3F902464F
:10121000104610BD010101008069C0F3074070470E
:101220008069C0F30210000170478069000E7047AA
:10123000002A03D04269114341617047426922EAA2
:101240000101416170470022036823F0020303603B
:10125000036843F0010303604FF6FF7300E0521C84
:10126000D0F804C01CF0010F01D19A42F7D14268B6
:1012700012F0010F41D08A79012A40D0026822F091
:1012800080020260CA79012A3ED0026822F0400240
:1012900002600A7A012A3CD0026822F02002026031
:1012A0004A7A012A3AD0026822F0100202608A7A51
:1012B000012A38D0026822F008020260CA7A012AA4
:1012C00036D0026822F0040202608A7891F803C0E6
:1012D000920742EA0C6291F804C042EA0C4291F88B
:1012E00005C0098842EA0C52491E1143C1610168D8
:1012F00021F001010160002120E000207047026818
:1013000042F080020260BDE7026842F040020260E3
:10131000BFE7026842F020020260C1E7026842F0C3
:1013200010020260C3E7026842F008020260C5E7EB
:10133000026842F004020260C7E7491C426812F0EA
:10134000010F01D09942F8D1406810F0010F01D08F
:10135000002070470120704702460020002905D078
:10136000012902D1106900F003007047D06800F035
:101370000300704700EB0113D3F8B0C10CF0040C6C
:1013800082F808C0BCF1000F25D0D3F8B0C14FEAF5
:10139000DC0CC2F804C0D3F8B0C10CF0020C82F827
:1013A00009C0D3F8B4C10CF00F0C82F80AC0D3F80E
:1013B000B4C14FEA1C2C82F813C0D3F8B8C1C2F8EC
:1013C0000BC0D3F8BC31C2F80F3059B1016941F0FC
:1013D000200101617047D3F8B0C14FEA5C5CC2F8EC
:1013E00000C0D8E7C16841F02001C160704700210A
:1013F0008171C171017241728172C1728170C1705B
:10140000032101710221417101210180704710B453
:1014100002460020936813F0806F0CD1906810F0A2
:10142000006F01D0012006E0906810F0805F01D0CD
:10143000022000E0042004284FD002EB0012D2F872
:10144000803103F00103C2F880310B7AE3B3D2F8A4
:1014500080C14C684CEA030391F809C04CEAC40C03
:1014600043EA0C03C2F880318B7A03F00F038B72CE
:10147000D2F8843123F00F03C2F88431D2F88431DA
:1014800091F80AC043EA0C03C2F88431CB7A91F890
:101490000EC00C7B43EA0C6391F80DC04FEA0C4C74
:1014A0004CEA042C43EA0C03C2F88831CB7B91F858
:1014B00012C043EA0C6391F811C0097C4FEA0C4C4E
:1014C0004CEA0121194300E009E0C2F88C11D2F87E
:1014D000801141F00101C2F8801110BC7047D2F8B0
:1014E000803191F809C043EA0C03B1F800C043EA27
:1014F0004C53C2F88031B7E730B4844698B24B1EE3
:1015000014D34FF6FF741CF8011B80EA0120002160
:1015100010F4004F03D082EA400080B201E004EAF8
:101520004000491C0829F3DB5B1EECD230BC70473D
:1015300010B507F035F8044607F038F822460146A2
:10154000BDE8104001A014F073BB00000D0A436118
:101550006E5F6572726F723D2578202C4C617374DA
:10156000206572726F7220636F64653D2578200D6F
:101570000A000000024600200A4200D00120704705
:101580000748416B00290AD0816B491C8163816B3C
:10159000426B914203D30121C163002181637047F3
:1015A000C404002010B50A4CA07900280ED0D4F84D
:1015B0008C004FF2FF31084208D0E07920B1D4F816
:1015C0008C10FD2014F070FD0020E07110BD0000B3
:1015D000C404002010B5017811F0800F0AD04278C1
:1015E000838941EA022C42890189604608F0D1F8DA
:1015F000012010BD002010BD10B5084C6078A16816
:10160000884209D0A06810B140F2E73000E06320C2
:1016100015F06AFCA068607010BD0000B8050020DD
:1016200010B50C48006F002809D015F06FF900289C
:101630000FD00021BDE81040B82014F035BD15F0E2
:1016400065F9032805D00021BDE81040B92014F049
:101650002BBD10BD2000002070B517F073FC0D4CA1
:1016600044F6206540B1D4F8A800A84204D2D4F8CA
:10167000A800401CC4F8A80017F070FC002808D08F
:10168000D4F8AC00A84204D2D4F8AC00401CC4F892
:10169000AC0070BD200000200021082807D20549B9
:1016A00000EB001001EB80004088C0F340210846A9
:1016B0007047000040470020014800787047000054
:1016C000F805002009490968081A002800DA404294
:1016D000B0F1004F00D3C0430721B1EB900F01D808
:1016E00000207047A1EB9000704700001C0500200F
:1016F00010B50A4CE16B00290ED0616B00290BD0AC
:101700000021E163216C0B0C216C8AB2002108F0EE
:1017100040F8206C401C206410BD0000C404002070
:10172000074AD2F88C3023EA0000C2F88C000888FF
:1017300010F0010F02D020F0010008807047000077
:10174000C404002070B50446002C27D0607811280E
:1017500024D2DFE800F02309242C23234123232370
:10176000BCC0232323C4CF002046FFF733FF00284B
:1017700014D1A078482811D1E07851280ED12079D1
:1017800054280BD16079452808D1A079532805D178
:10179000E079542802D15A490120C87470BD20460E
:1017A000FFF718FF0028F9D15549C87470BD2046CD
:1017B000FFF710FF0028F9D15148C07C0028F5D070
:1017C000B4F90A20E07808B1012100E00021A078F6
:1017D000BDE8704010F09CB82046FFF7FBFE0028E3
:1017E000E4D121890929E1D2DFE801F005111D29A1
:1017F0004C50545860002078627840EA0220414AF8
:10180000136812681B14BDE8704007F0C2BF20784F
:10181000627840EA02203C4A136812681B14BDE853
:10182000704007F0B6BF2078627840EA0220374A5D
:10183000136812681B14BDE8704007F0AABF207837
:10184000617840EA01202F490A6813140A680021D0
:1018500007F09FFF2078617840EA01202A490A6852
:1018600013140A68012107F094FF2078617840EA98
:10187000012026490A6813140A68BDE87040022155
:1018800007F087BF1F490020086070BD1E49002077
:10189000086070BD1D490020086070BD1949002016
:1018A0000860194908601949086070BD174E306812
:1018B000134DA96B411A62898A4204D0AB6B4FF673
:1018C000F27007F066FF00203060A86370BDBDE8CD
:1018D000704009F0F1BABDE8704009F0CBBA207849
:1018E000BDE87040002240F470604FF6AA711346C4
:1018F00007F04FBFA078BDE8704009F06DBC000054
:1019000020000020C8050020CC050020C4050020D0
:1019100010B50446002C50D0A448407800284CD084
:101920006078162849D2DFE800F0480B365F68720D
:101930008E99A948B3BECADAF7F648F548484881F7
:101940002046FFF747FE002837D199480078B8B104
:10195000012017F013FA38B99648032101600121DC
:101960000022084615F03AFB002017F007FA38B9B4
:1019700090490320086000220121104615F02EFB3B
:101980008A4C207818B114F058FC00202070BDE873
:101990001040FFF7ADB92046FFF71CFE00280CD120
:1019A000208958B1012817D0022806D1824C20681E
:1019B000B0B107F0E7FE0020206010BD06F066FE23
:1019C00022786378014642EA032CA389BDE81040DF
:1019D0000022604607F0DDBEBDE81040FFF720BEE4
:1019E000BDE8104004F072B92046FFF7F3FD00286F
:1019F000E3D16E492089086510BD2046FFF7EAFD56
:101A00000028F9D12089BDE8104008F0FFBA20462F
:101A1000FFF7E0FD0028EFD1E2780AB1012100E0F4
:101A20000021A078BDE810401AF0A2B82046FFF7C8
:101A3000D1FD0028E0D120786178BDE8104040EA6F
:101A400001201AF0D5B82046FFF7C4FD0028D3D1F5
:101A5000A07878B16189E07805F010FE2046FFF7A4
:101A6000B9FD0028C8D1E178A078BDE81040012276
:101A700005F08EBEE07805F067FEEFE72046FFF741
:101A8000A9FD0028B8D1A078BDE8104009F0E6B95A
:101A90002046FFF79FFD0028AED161892089BDE86F
:101AA000104014F049BA2046FFF794FD0028A3D156
:101AB0002279E178A078BDE8104005F069BE2046A3
:101AC000FFF788FD002897D120786178A38940EA44
:101AD00001200022BDE81040012107F05ABE204637
:101AE000FFF778FD002887D12089642801D9334980
:101AF00008606089642801D931490860A0893228CA
:101B00000ED92F490A68904207D308682D49323808
:101B1000086010BD3DE01DE00CE02A49086010BDE2
:101B20002848026826490B689A42F8D30968323976
:101B3000016010BD2046FFF74DFD0028F9D1A078C7
:101B400020B10128F5D12049087010BD1E490020A0
:101B5000087010BD2046FFF73DFD0028F9D1E07860
:101B600040B10128F5D1A07878B10128F1D1174909
:101B7000087010BDA07820B10128FAD1144908706E
:101B800010BD13490020087010BD104900200870D6
:101B900010BD2046FFF71EFD0028F9D1A07808B13E
:101BA000012000E000200149487210BD2000002003
:101BB000CD0400207005002010000020B405002096
:101BC000580500205C0500201401002016010020AB
:101BD0001501002010B50446002C0CD02046FFF75C
:101BE000F9FC002807D114F0A7FE28B1084901220A
:101BF000CA718000086310BD14F09EFE2178A3898D
:101C000041EA00200022BDE81040114607F0C1BDA6
:101C10002000002070B50446002C20D0104D6878BC
:101C200000281CD0607801280DD0022817D120464A
:101C3000FFF7D0FC002812D1698B04F10800BDE841
:101C4000704005F00DBC2046FFF7C4FC002806D10B
:101C5000698B04F10800BDE8704004F001BE70BD5E
:101C6000200000202DE9F0410446002C64D08B4D6B
:101C70006878002860D060780126894F4FF02008EE
:101C8000082859D2DFE800F05804284A6D95C6E4C8
:101C90002046FFF79FFC00284ED1012017F06EF878
:101CA000804D58B1002017F069F878B1A389628996
:101CB000E178A078BDE8F04104F0D2BB2878BDE817
:101CC000F04140F48071FE2014F0EEB92978BDE8AF
:101CD000F041FE2014F0E8B92046FFF77BFC002815
:101CE0002AD100210022A07810F0010F01D0B9689C
:101CF000C9B210F0020F03D03B68DBB241EA032106
:101D000010F0040F01D07868C2B22078637840EAFE
:101D10000320A389BDE8F04107F03BBD2046FFF753
:101D200059FC002808D1A07868B1E07830B10128CA
:101D300002D16089C5F89000BDE8F0816089C5F8DE
:101D40008C00BDE8F081E07830B10128F9D16089DC
:101D5000C5F88800BDE8F0816089C5F88400BDE859
:101D6000F0812046FFF736FC0028F8D1A17821B198
:101D7000012905D0022907D104E0E0780C3003E006
:101D8000E07801E0E078801D618941B1D5F89410D8
:101D900006FA00F00843C5F89400BDE8F081D5F8D4
:101DA000941006FA00F021EA0000C5F89400BDE89E
:101DB000F0812046FFF70EFC0028F8D1A87810B17A
:101DC000A0780028F3D0A0780228F0D807F054F8C3
:101DD000E079410800D100206874A07808B1411E64
:101DE00000E0022157F82120E17801F0070306FA0C
:101DF00003F31A4201D1012200E0002204F042FB69
:101E000002202874A178E07808EBC1010844A87486
:101E1000BDE8F0812046FFF7DDFB0028F8D162899C
:101E2000E178A07804F0ECFAA178E278237841EA2E
:101E3000022194F801C0628943EA0C2C0AB1012303
:101E400000E00023BDE8F0410246604607F0A1BC77
:101E50002046FFF7BFFB0028DAD1A87810B1A078A0
:101E60000028D5D0A0780228D2D807F005F8E0796C
:101E7000410800D100206874608908B1012200E0A7
:101E80000022E178A07804F0FDFA2E74A178E078C1
:101E900008EBC1010844A874BDE8F08120000020CF
:101EA000A00E0020C904002030B583B00446002CE9
:101EB00053D0FE48407800284FD06078012518287C
:101EC00000F003830EDC162847D2DFE800F0465E00
:101ED000A7FDFCFBFAF9F8464646464646F7464655
:101EE0004648F6F51F2800F0C98208DCA0F1190069
:101EF000062832D2DFE800F0EEEDECEBEAE9382814
:101F000000F0368211DC202800F0D482282811D07D
:101F10002F2822D12046FFF75DFB00281DD1208904
:101F200003B0BDE830400CF0D5BE402800F03B8245
:101F3000A82812D12046FFF74DFB00280DD160786C
:101F4000A82800F0138200200090A078E2784309CE
:101F5000618900F01F0009F0BBF903B030BD2046D5
:101F6000FFF738FB0028F8D1B4F90C000090B4F961
:101F70000A30E278A178CD4C208C00F1010CA4F855
:101F800020C007F0FBFD03B030BD2046FFF722FB69
:101F90000028F8D1012016F0F1FE60B12089022856
:101FA00026D012DCF0B10128EDD1A07903B0BDE854
:101FB00030400CF0EFBDBE48007803B040F48071B3
:101FC000BDE83040FE2014F06FB8032816D0FF287B
:101FD000D9D1A079C0F30011608903B0BDE83040C9
:101FE0000CF07CBAA07903B0BDE8304009F04AB9E2
:101FF000A07903B0BDE830400CF0F6BD608906F072
:102000008BFD0028BFD160890FF020FBA17903B0C0
:10201000C1F30011BDE830400CF060BA2046FFF774
:10202000D9FA0028AFD1608906F076FD0028AAD140
:10203000A0780528A7D2DFE800F0030303263600C6
:10204000E17881B16289012106F010FD2278637880
:10205000014642EA032CA38903B00022BDE83040C8
:10206000604607F096BB012106F082FC2278637877
:10207000014642EA032CA38903B00022BDE83040A8
:10208000604607F086BB608909F0C6FB227863785A
:10209000014642EA032CA38903B00022BDE8304088
:1020A000604607F076BBE17800293FF46CAF6289A7
:1020B000012106F0DBFC0EE0A3E18FE17EE12AE1E5
:1020C0001CE187E070E051E012E0D7E1C8E1BBE13C
:1020D000AEE1A1E109E222786378014642EA032CED
:1020E000A38903B00022BDE83040604607F051BB31
:1020F0002046FFF76FFA00287FF445AFA07806F07E
:102100000BFD00287FF43FAF012016F037FE48B1E9
:10211000E07888B1A07805FA00F1664802681143BA
:10212000016011E06248007803B040F48071BDE8BE
:102130003040FE2013F0B8BFA07805FA00F15D48EA
:10214000026822EA01010160A0780FF07FFA07F02F
:1021500023FE00287FF417AFA389B4F90A10A078F2
:1021600003B00122BDE830400FF0B2BB2046FFF7BC
:1021700031FA00287FF407AFE07806F0CDFC0028A4
:102180007FF401AFE0780FF061FAA17831B1B4F9D2
:102190000A1003B0BDE830400CF0ACBD618903B05B
:1021A000BDE830400CF084BD2046FFF713FA00284C
:1021B0007FF4E9AE208930B1608903B00121BDE828
:1021C00030400CF019BE608903B00121BDE83040F9
:1021D0000CF0E2BD2046FFF7FDF900287FF4D3AEF6
:1021E0002089072870D008DC0728BFF4CCAEDFE8D0
:1021F00000F0262D39474E555C0040F20112A0F246
:102200000111904228D00EDC082869D009286ED030
:10221000B0F5807F7FF4B7AE608903B00121BDE8DF
:1022200030400DF04BB8012923D002297FF4ABAE2A
:10223000608903B00121BDE830400CF02BBE6089FD
:1022400003B00021BDE830400DF038B8608903B01C
:10225000BDE830400DF038B8608903B0BDE83040CB
:102260000DF0CAB8608903B00021BDE830400CF021
:102270000FBD608903B00121BDE830400CF008BDFE
:10228000608903B00021BDE830400CF003BE6189D5
:1022900003B00120BDE8304010F050B9618903B0AF
:1022A0000120BDE830400DF0F5B806E02000002028
:1022B000C90400209801002006E0618903B00120D4
:1022C000BDE830400CF040BE608908B1012200E05A
:1022D000002203B00021BDE8304001200CF02EBFE9
:1022E000618903B00120BDE830400CF0C5BE6089B3
:1022F00003B00121BDE830400CF03CBE2046FFF7A2
:1023000069F900287FF43FAE6189208903B0BDE8F8
:1023100030400CF02DBD2046FFF75CF900287FF41B
:1023200032AE012016F02AFD58B1E078002200F00C
:102330007F0110F0800F019200910CD04FF40070DB
:102340000AE07648007803B040F48071BDE8304080
:10235000FE2013F0A9BE002040F00103A289B4F9C9
:102360000A10A0780FF0C2FA03B030BD0120EBE5EF
:102370002046FFF72FF90028F6D1E078019500F00C
:102380007F0110F0800F009102D04FF4007000E048
:10239000002040F00103A289B4F90A10A0780FF0E0
:1023A000A5FA03B030BD2046FFF714F90028F8D194
:1023B000208903B0BDE830400FF08EBC2046FFF707
:1023C00009F90028EDD1A0780028EAD16289E178E6
:1023D00003B00120BDE830400CF03ABD2046FFF7C5
:1023E000F9F80028DDD1E07800F00302607908B147
:1023F000217900E0FF2103B00120BDE8304004F066
:1024000073BF2046FFF7E6F80028CAD1208903B041
:10241000BDE8304004F086BB2046FFF7DBF800281B
:10242000BFD1618903B00120BDE8304007F05EBB39
:102430002046FFF7CFF80028B3D1618903B001200F
:10244000BDE8304007F076BB2046FFF7C3F8002810
:10245000A7D1A17803B00120BDE8304007F01EBB32
:102460002046FFF7B7F800289BD1B4F90A10B4F959
:10247000080003B0BDE8304007F032BB2046FFF74C
:10248000A9F800288DD160781F2811D0002001A95B
:1024900007F0CEFA20786178BDF8083040EA0120D4
:1024A000BDF80620BDF8041007F073F903B030BD85
:1024B0000120ECE72046FFF78DF80028F6D12089AF
:1024C00003B0BDE830400CF0B9BB2046FFF782F8FE
:1024D0000028EBD1B4F90C30B4F90A20A17803B08C
:1024E0000120BDE830400FF0D1BA2046FFF772F866
:1024F0000028DBD1A17801AB02AA01200FF0A8FAD5
:1025000020786178BDF9043040EA01202189BDF9C5
:10251000082007F03EF903B030BD0000C9040020D8
:1025200030B583B00446002C5DD0FE4840780028CA
:1025300059D0A078082803D2052801D0FA490D5CAB
:10254000607842284FD2DFE800F04E2179A3D0FE18
:10255000FDFCFBFAF9F84E4E4EF7F64E4E4EF54E98
:102560004EF4F3F2F1F0EFEEEDECEBEAE9E8E7E63A
:10257000E6E5E44E4E4E4E4E4EE3E221E15CE0DFF6
:10258000DEDD4E4E4E4E4E4E4E4E4E212046FFF755
:1025900021F8002827D1032D0BD1608948B9E148E3
:1025A000C16B4A1CC2631314E17849F6991007F015
:1025B000F0F8012016F0E2FBB8B1E078294606F009
:1025C000CBFA00280FD16078412818D00020E1799B
:1025D0000022019200910290A379B4F90A10E078E8
:1025E0002A460DF0CDF803B030BDD048007803B0D6
:1025F00040F48071BDE83040FE2013F055BD01204D
:10260000E5E72046FEF7E6FF0028ECD1E07901225D
:102610000021019202910090A379B4F90A10E078A8
:102620002A460DF0ADF8BF48E178C26B03B0131431
:10263000BDE830404AF6AA2007F0ABB82046FEF7C6
:10264000C9FF0028CFD1012016F098FB78B160892E
:10265000B8B1E078294606F07FFA0028C3D1A27904
:10266000E07803B02946BDE830400DF051B8AF48DE
:10267000007803B040F48071BDE83040FE2013F0D4
:1026800013BDA17903B02846BDE830400DF04AB82B
:102690002046FEF79FFF0028A5D10021E0780528FD
:1026A00018D2DFE800F0030303101000617929B1AC
:1026B0002279294606F0DAF901460BE0294606F0B0
:1026C00057F9014606E0627922B12279294606F0DF
:1026D000CDF9014620786278A38903B040EA022050
:1026E000BDE83040002207F054B82046FEF772FFE4
:1026F00000287FF478AFE178284606F057FB22786F
:10270000637821E0A3E295E286E277E26AE258E2AA
:1027100046E238E2E4E1E1E1DEE1DBE1D8E1C8E113
:10272000BAE193E1ACE19EE184E177E16AE150E155
:102730003EE12BE105E119E1E9E08DE07EE070E0AA
:1027400043E032E021E00AE042EA032CA38903B02F
:102750000146BDE830400022604607F01AB8204626
:10276000FEF738FF00287FF43EAFE078294606F0F8
:10277000F3F900287FF437AFB4F90A10E07803B01A
:102780002A46BDE830400CF0F1BF2046FEF722FF9C
:1027900000287FF428AFA0786289E17803B0801C1C
:1027A000BDE83040C0B20BF04FBE2046FEF712FF2E
:1027B00000287FF418AFA078E278618903B0801C0C
:1027C000BDE83040C0B20CF02DBC2046FEF702FF41
:1027D00000287FF408AFA07828B9E0786189801CD0
:1027E000C0B20FF0ABFEA078012804D1E078618977
:1027F000801C0CF04FFEA078022805D1E07861899A
:10280000801CC0B20BF05AFEA07803287FF4EBAE18
:10281000E078618903B0801CBDE83040C0B20BF0A5
:102820001DBE2046FEF7D6FE00287FF4DCAE61898F
:10283000208903B0BDE830400CF022BD2046FEF7F1
:10284000C9FE00287FF4CFAEA2896189208903B038
:10285000BDE8304004F032BE2046FEF7BBFE002843
:102860007FF4C1AEA07801280ED0022822D0032820
:102870007FF4B9AEA089E0B3B4F90A10E07803B0F0
:10288000BDE8304008F0CCBC012016F077FA38B132
:10289000A2896189E07803B0BDE8304004F072BDE0
:1028A0002248007803B040F48071BDE83040FE203B
:1028B00013F0FABB608978B1E0780CF0DBFE227887
:1028C0006378014642EA032CA38903B00022BDE8E5
:1028D0003040604606F05DBFE0780CF0D3FE227811
:1028E0006378014642EA032CA3890022604603B0C4
:1028F00000E003E0BDE8304006F04BBFA07A00F0F6
:102900000301E07803B0BDE830400CF0E5BE20469E
:10291000FEF760FE00287FF466AEA0780728BFF4BB
:1029200062AE05E020000020C1010020C9040020A3
:102930006289E17803B0801CBDE83040C0B20CF081
:1029400087BA2046FEF746FE00287FF44CAEE078BA
:1029500000F00302607908B1217900E0FF21A0783E
:1029600003B0801CBDE8304004F0BEBC2046FEF73A
:1029700031FE00287FF437AE042D7FF434AE618938
:10298000E07803B0BDE8304008F00CBE2046FEF70A
:1029900021FE00287FF427AE032D7FF424AEB4F986
:1029A0000A10E07803B02A46BDE830400FF044BE7C
:1029B0002046FEF70FFE00287FF415AEB4F90C3068
:1029C000B4F90A20E17803B02846BDE830400FF0A2
:1029D0005DB82046FEF7FEFD00287FF404AEE178E6
:1029E00001AB02AA28460FF033F820786178BDF9D0
:1029F000043040EA01202189BDF9082006F0C9FE13
:102A000003B030BD2046FEF7E5FD0028F8D161890E
:102A100003B02846BDE8304007F068B82046FEF70E
:102A2000D9FD0028ECD1618903B02846BDE83040CB
:102A300007F080B82046FEF7CDFD0028E0D161897F
:102A400003B02846BDE830400CF07EBA2046FEF7C1
:102A5000C1FD0028D4D16289E17803B02846BDE8E1
:102A600030400CF06BBB2046FEF7B4FD0028C7D108
:102A7000B4F90A1003B02846BDE830400CF070BA33
:102A80002046FEF7A7FD0028BAD1618903B0284689
:102A9000BDE830400CF0F0BA2046FEF79BFD002860
:102AA000AED16289E17803B02846BDE830400CF031
:102AB000EDBA2046FEF78EFD0028A1D1B4F90C3006
:102AC0002279E17803B02846BDE8304008F026BB03
:102AD000022506E0032504E0042502E0052500E0C8
:102AE00006252046FEF776FD002889D113F024FF45
:102AF000C0B207283AD2DFE800F0040E1839222CC1
:102B00003600052D01D0A47830E0607825287FF4C8
:102B100077AF24892AE0052D01D0E47826E060789B
:102B200025287FF46DAF648920E0052D01D024793C
:102B30001CE0607825287FF463AFA48916E0052D9A
:102B400001D0647912E0607826287FF459AF248997
:102B50000CE0052D01D0A47908E0607826287FF4E8
:102B60004FAF648902E0052D07D0E47903B0214618
:102B70002846BDE8304008F09DBA607826287FF4EA
:102B80003FAFA489F2E72046FEF724FD00287FF43A
:102B900037AFE17803B02846BDE830400CF0A6B965
:102BA0002046FEF717FD00287FF42AAFE0780028C2
:102BB0007FF426AF618903B02846BDE8304008F0B5
:102BC00003BA2046FEF706FD00287FF419AF2078EF
:102BD00061782A4640EA0120A17803B0BDE8304080
:102BE0000CF02ABD2046FEF7F5FC00287FF408AF64
:102BF000608903B0BDE830400FF064B82046FEF7AE
:102C0000E9FC00287FF4FCAE2279E17803B0284685
:102C1000BDE830400EF028BE2046FEF7DBFC002861
:102C20007FF4EEAE2279E17803B02846BDE830406B
:102C30000CF0F0BE2046FEF7CDFC00287FF4E0AE9D
:102C4000E17803B02846BDE830400CF029B92046B1
:102C5000FEF7C0FC00287FF4D3AE2279E17803B000
:102C60002846BDE830400FF067B8000070B5044654
:102C7000002C7DD0D8484078002879D060781B2877
:102C800076D2DFE800F0750E233F52666F96B8C229
:102C9000CCDA75EAEAFAFAF9F9F8F7F675757575A6
:102CA000F5002046FEF796FC002861D105F052FEA3
:102CB000054605F0D3FF0146227860782B0C42EAE6
:102CC0000020AAB2BDE8704006F063BD2046FEF7C2
:102CD00081FC00284CD105F03DFE054613F0FEFDB9
:102CE00001466089814201D013F0E0FD22786378CB
:102CF000014642EA032C2B0CAAB2BDE870406046A4
:102D000006F047BD2046FEF765FC002830D105F0EF
:102D1000EFFC22786378014642EA032CA389BDE8E0
:102D200070400022604606F034BD2046FEF752FC9B
:102D300000281DD120786178A38940EA0120A649A6
:102D4000D1F8A020D1F8A010120CBDE8704006F018
:102D500020BD2046FEF73EFC002809D1BDE87040AA
:102D60000CF014BF2046FEF735FC002800D100E02F
:102D70007DE0208910287AD2608990B113F0AEFDF1
:102D80006189884207D114F0EDFB14F0CDF8BDE85D
:102D9000704012F0F3BD13F089FD618980B2884262
:102DA00065D114F0DFFB14F0BFF8BDE8704012F0FD
:102DB00007BF2046FEF70EFC002858D1A078012856
:102DC0000DD0022853D120786178844A40EA01204E
:102DD000A38921891288BDE8704006F0DABC20780A
:102DE00061787F4A40EA0120A38921891288BDE8E1
:102DF000704006F0CEBC2046FEF7ECFB002877D1F1
:102E0000A078BDE8704006F047B82046FEF7E2FB28
:102E100000286DD1A078BDE8704005F0DFBE2046E7
:102E2000FEF7D8FB002863D12078617840EA0120C2
:102E3000A178BDE8704005F063BC2046FEF7CAFBF0
:102E4000002855D120786178A389BDE8704040EA18
:102E500001200022012106F09CBC2046FEF7BAFBAF
:102E6000002845D160780D2808D0012107E03FE017
:102E7000A5E095E087E04EE03BE006E0002104F1AC
:102E80000800BDE8704004F09DBE2046FEF7A2FB9E
:102E900000282DD160780F2801D0012100E0002109
:102EA00004F1080004F05CFA607821780F2841EA08
:102EB000002201D0012100E00021104603F01CFE99
:102EC00060780F2801D0012000E00020424C012151
:102ED00001FA00F0217D08432075207D032131EAAD
:102EE000000005D104F04CFA207D20F0030020758D
:102EF00070BD2046FEF76EFB0028F9D1617820787E
:102F0000112940EA012001D0012100E00021BDE8A3
:102F1000704003F02FBB2046FEF75CFB0028E7D192
:102F200000252D48D0F89800042805D2BDE870404F
:102F30000021FA2013F0B8B8A2896189208904F031
:102F40004FFC78B9A089012804D8022104F10C00B3
:102F500004F038FEA089022813D00021002004F0DC
:102F6000B9FC0125A0890228C2D140EA05232078B6
:102F70006178628940EA01202189BDE8704006F04D
:102F800008BC0121EAE72046FEF724FB0028AFD168
:102F900020786178BDE8704040EA012003F0DCBA97
:102FA0002046FEF717FB0028A2D104F1080004F028
:102FB000C9F90C480088BDE8704008F0C5B8204643
:102FC000FEF708FB002893D16089A189BDE8704015
:102FD00040EA014008F0C6B820000020DA040020D2
:102FE000D8040020EA040020F0B583B00446002C89
:102FF00038D0F748407810B960780C2832D1607822
:1030000028282FD2DFE800F0141A37485C792E2EDA
:10301000FDFCFBFAF9F8F7F6F5F4F3F2F1F0EFEE58
:10302000EDECDCEBC6ABB92E2EEA2EE9E892E7E632
:1030300003B02046BDE8F040FEF7CCBA2046FEF7CC
:10304000C9FA00280ED1208970B113F097FFE04C27
:10305000607D002806D1DF48008808F075F8607DA3
:10306000401C607503B0F0BD13F05EFF03B0BDE817
:10307000F04014F077BA2046FEF7ACFA0028F1D100
:10308000208920B103B0BDE8F04014F01FBB03B0AD
:10309000BDE8F04014F066BA2046FEF79BFA00281F
:1030A000E0D113F033FC22786378014642EA032C26
:1030B000A38903B00022BDE8F040604606F069BB7A
:1030C0002046FEF787FA0028CCD1C1482189016744
:1030D0000021817201210176FF218173BE480088A1
:1030E0000028BFD0BD4800880028BBD003B0002115
:1030F000BDE8F040FB2012F0D7BF2046FEF76AFA89
:103100000028AFD1208908B1012000E0002005F09F
:10311000BDFD22786378014642EA032CA38903B0FF
:103120000022BDE8F040604606F033BB2046FEF7C3
:1031300051FA002896D1012005F0F0FD0546002047
:1031400005F0ECFD22786378014642EA032CA3895E
:1031500003B02A46BDE8F040604606F01ABB2046A0
:10316000FEF738FA00287FF47DAFB4F90A10208901
:1031700003B0BDE8F04002F015BC2046FEF72AFA85
:1031800000287FF46FAF6189208903B0BDE8F0406B
:1031900002F02EBC2046FEF71DFA00287FF462AF35
:1031A000208902F05BF921786378024641EA032C1A
:1031B000A389218903B06046BDE8F04006F0E9BA72
:1031C0002046FEF707FA00287FF44CAF208902F072
:1031D0002FF917E094E289E27EE272E263E2DBE03B
:1031E000B4E0A6E090E083E061E04DE23FE210E26F
:1031F00001E2E2E1D1E139E124E115E1DBE040E087
:1032000029E00FE00BF020FD208900283FF42AAFD1
:10321000FEF752FA00283FF425AF03B0BDE8F040B6
:1032200002F06EB82046FEF7D5F900287FF41AAFF9
:10323000208902F0E5F80BF007FD208900283FF413
:1032400011AFFEF739FA00283FF40CAF03B0BDE828
:10325000F04002F055B82046FEF7BCF900287FF494
:1032600001AFFF2002F0E0FA22786378014642EADB
:10327000032CA38903B00022BDE8F040604606F0AD
:1032800088BA2046FEF7A6F900287FF4EBAE208925
:103290006A4601A902F096FC03B220786178009A90
:1032A00040EA0120019906F074FA03B0F0BD20460F
:1032B000FEF790F90028F8D1608958B101280FD0A5
:1032C0000228F2D1A189208903B00122BDE8F04093
:1032D00002F018BC208903B0BDE8F04002F0B4BC95
:1032E000A189208903B00022BDE8F04002F00ABCA9
:1032F0002046FEF76FF90028D7D16189208903B0F5
:10330000BDE8F04002F05CBD2046FEF763F90028FE
:10331000CBD1208902F06CFC22786378014642EA26
:10332000032CA38903B00022BDE8F040604606F0FC
:1033300030BA2046FEF74EF90028B6D161892089BF
:1033400003B00122BDE8F04002F0EEBC2046FEF7DB
:1033500041F90028A9D1608950B101280FD0022875
:10336000A3D1A189208903B0BDE8F04002F00ABDD5
:10337000208903B00121BDE8F04002F07DBC208926
:10338000FF2804D003B0BDE8F04002F053BB03B007
:10339000BDE8F04002F08ABB2046FEF71BF900288A
:1033A00083D12078617840EA0120A17803B0BDE89C
:1033B000F04002F061B82046FEF70CF900287FF4D7
:1033C00074AF208960B1012811D0022816D026E000
:1033D00020000020EA040020D4040020E80400209B
:1033E000CD4960890860608900F02EFE17E0CA4967
:1033F00060898860608900F03BFE10E0C649608902
:103400004861C648C07818B1608906F001F906E045
:10341000C3480078022802D1608907F049F9BF4902
:103420000120C87503B0F0BD2046FEF7D3F8002890
:10343000F8D1208908B1012000E00020B749487088
:1034400003B0F0BD2046FEF7C5F80028F8D105F01E
:10345000DDF921786278A38903B041EA022CBDE846
:10346000F040020C81B2604606F093B92046FEF7A8
:10347000B1F80028E4D12078617840EA012CADF859
:1034800000C0A078ADF8060030B1012833D0022882
:1034900049D0032875D159E0A248006880B240F2B3
:1034A000726188420DD3A04A00EB800002EB40001D
:1034B0009E4A82FB00204210A2EBE070ADF80200B1
:1034C00002E00020ADF802009948006880B288420E
:1034D0000DD3954900EB800001EB4000934981FB3F
:1034E00000104110A1EBE070ADF8040049E00020AD
:1034F000ADF8040045E08F4800688F49C0EBC0007C
:1035000000EB4000A1FB00204009ADF802008B4811
:103510000068C0EBC00000EB4000A1FB00104009B8
:10352000ADF804002DE086480068D721484340F2FA
:10353000DC51B0FBF1F0ADF80200824800684FF6B4
:10354000FF7101EA4000ADF804001AE07E49096805
:10355000ADF802107D49096889B2C1F53E71642257
:103560005143754A82FB0121CA10A2EBE171C1F1FE
:10357000FA01ADF804107649097840EA0120ADF867
:103580000600BDF80630BDF80420BDF8021003B0F7
:103590006046BDE8F04006F0FCB82046FEF71AF899
:1035A00000287FF44DAFA0785C4900F00F00C8738D
:1035B00003B0BDE8F04005F05FBC2046FEF70AF816
:1035C00000287FF43DAF0025624E012707EB450040
:1035D000010241EA45032178627841EA022C56F85B
:1035E000202056F83510604606F0D3F86D1C282DC3
:1035F000ECDB03B0F0BD2046FDF7ECFF0028F8D16E
:10360000A07808B1012000E000204449087203B00E
:10361000F0BD2046FDF7DEFF0028F8D1208940F2FA
:103620000122A0F2012190421BD007DC98B10128B1
:1036300013D0A0F58070013806D110E0B1F5807F7D
:1036400011D0B1F5007F10D00020618903B0BDE832
:10365000F04003F06FBA0120F7E70220F5E70320FE
:10366000F3E70420F1E70520EFE70620EDE7204629
:10367000FDF7B0FF0028CAD1E178A07803B02B2273
:10368000BDE8F04013F0AABC2046FDF7A3FF0028D8
:10369000BDD1E07803B000F00302BDE8F040FF21A7
:1036A000084603F021BE2046FDF794FF0028AED166
:1036B000A3896289E178A07803B0BDE8F04003F007
:1036C000C1BC2046FDF786FF0028A0D1208903B0A9
:1036D000BDE8F04007F088BC2046FDF77BFF0028DE
:1036E00095D10E492089488303B0F0BD2046FDF7EF
:1036F00071FF0028F8D109492089888303B0F0BD03
:103700002046FDF767FF0028F8D1E178A07803B0E4
:10371000BDE8F04001F01CBE183100202000002060
:1037200048010020980200208CBFFFFF95204F0920
:103730009C020020A00200201F85EB51A402002063
:10374000A8020020AC020020B0020020B402002039
:10375000D10400209440002010B50446002C1BD05A
:103760005D484078002817D06078152814D2DFE82B
:1037700000F0130B14244F13136F3113131313138F
:103780001313788593A73C002046FDF723FF0028FC
:1037900002D151492089486510BD2046FDF71AFF26
:1037A0000028F9D1E0780828F6D24C490A5C217942
:1037B000A078BDE810400FF0E1BD2046FDF70AFFFC
:1037C0000028E9D1E37862792179A078BDE810403A
:1037D0000FF01CBE2046FDF7FDFE0028DCD1E1788D
:1037E000A078BDE810400FF049BE2046FDF7F2FE7C
:1037F0000028D1D1A07808F073F801B2207862785F
:10380000A38940EA02202289BDE8104005F0C1BF2B
:103810002046FDF7DFFE0028BED1A07810B9E07881
:103820000BF0B2FBA07801280BD10FF041FE2278FB
:103830006378014642EA032C00231A46604605F0ED
:10384000A8FFA0780228A7D1BDE8104005F0AEB9C6
:103850002046FDF7BFFE00289ED11F492089C8835E
:1038600010BD2046FDF7B6FE0028F9D1A079C0F3BF
:103870000011A078BDE810400AF030BE2046FDF7E8
:10388000A9FE0028ECD1A389B4F90A10A078BDE8FC
:10389000104001220EF01CB82046FDF79BFE0028C8
:1038A000DED1A07807F0B8FF22786378014642EABB
:1038B000032CA389BDE810400022604605F069BFD3
:1038C0002046FDF787FE0028CAD1B4F90A10A07877
:1038D000BDE810400BF00EBA20000020C10100200E
:1038E000002801D0014840787047000020000020E7
:1038F0002DE9F0410446002C59D0F74F7878002884
:1039000055D06078DFF8D883F44DA8F53A760D28C5
:1039100000F0FC810ADC0D2849D2DFE800F0487590
:103920004FC5EAFEFDFCFBFAF9F8F700142812D0A7
:1039300008DCA0F10E00062839D2DFE800F0F2F131
:103940000CF0EFF1172800F04A8232DC152800F065
:10395000328116282BD12046FDF73CFE002826D1C7
:1039600012F0EAFF011F042921D2042800F0578138
:10397000052800F05681062819D1A7890025A8003E
:1039800027FA00F005F0070100F00F0046F82100CB
:103990006078102800F04781152800F04681012149
:1039A00005F0070005F0CAFD6D1C042DE7DBBDE83E
:1039B000F081182800F01D828228F8D12046FDF7FA
:1039C00009FE0028F3D112F0B7FF00F0FF0860787D
:1039D000C0097873796C386C884200D3786408B178
:1039E000401E3864012015F0C9F9B0B1002015F06F
:1039F000C5F9D0B1B86D38B3B8F1060F4AD2DFE8D7
:103A000008F01A1D201A1D202046FDF7E3FD0028AE
:103A1000CDD1BDE8F04105F05BBD2878BDE8F041AF
:103A200040F48071FE2012F03FBB2978BDE8F041E0
:103A3000FE2012F039BBA578E6782BE0257966796F
:103A400028E0A579E67925E0B8F1070F22D2DFE872
:103A500008F004090E2113181D00A07800F00F05CE
:103A6000060917E0E07800F00F05060912E020795A
:103A700000F00F0506090DE0607900F00F0506095A
:103A800008E0A07900F00F05060903E0E07900F0F6
:103A90000F050609F1B2E8B216F092FA314628464F
:103AA000BDE8F04106F0E8B92046FDF793FD002897
:103AB0007FF47DAF012015F061F960B1002015F0B1
:103AC0005DF980B16089A18940EA01412089BDE8A2
:103AD000F04102F085BD2878BDE8F04140F48071E6
:103AE000FE2012F0E1BA2978BDE8F041FE2012F084
:103AF000DBBA2046FDF76EFD00287FF458AF217831
:103B00006078A38941EA0020217A0BE0F2E0D2E05C
:103B1000B9E0AEE08CE037E021E00CE05AE14DE1A5
:103B200049E02EE101F0070158F82110BDE8F0410D
:103B3000002205F02EBE2046FDF74CFD00287FF444
:103B400036AF05F0BDFC22786378014642EA032CCB
:103B5000A389BDE8F0410022604605F01ABE204668
:103B6000FDF738FD00287FF422AF208905F0AEFC78
:103B700022786378014642EA032CA389BDE8F0412C
:103B80000022604605F005BE2046FDF723FD002813
:103B90007FF40DAF208903F0EFFE217A608901F0F8
:103BA000070146F82100207AA189BDE8F04100F024
:103BB000070005F0C3BC2046FDF70CFD00287FF48C
:103BC000F6AE12F0B9FE0428BFF4F1AEF0B1012850
:103BD0001ED002287FF4EBAEA7890025A80027FAA3
:103BE00000F005F0070100F00F0046F821006078B2
:103BF0000F280FD015280FD0012105F0070005F080
:103C00009DFC6D1C042DE9DBBDE8F0812789E4E70C
:103C10006789E2E70021F0E745F2AA51EDE727893D
:103C2000ACE66789AAE60021BAE645F2AA51B7E6F2
:103C30002046FDF7CFFC0028E6D120890028E3D1FB
:103C4000A08978B142F210718842DDD8322801D8BB
:103C5000012004E023491930A1FB00100009B866D7
:103C6000BDE8F081207900EB80004000B866BDE837
:103C7000F0812046FDF7AEFC0028F8D12089BDE890
:103C8000F04105F08DBC2046FDF7A4FC0028EED1E4
:103C90002089401CF865B86D30B1F86D0528E6D96B
:103CA0000520F865BDE8F081F86D0A28FAD90A20E8
:103CB000F865BDE8F0812046FDF78CFC0028F8D1BE
:103CC000208900B10120B865B86D78B10649082097
:103CD0000870BDE8F081000020000020C904002029
:103CE000700D00201F85EB51CE04002047490420B1
:103CF0000870EEE72046FDF76DFC0028E9D1208929
:103D0000012801D00228E4D1B884E2E72046FDF77B
:103D100061FC0028DDD105F0AFF894F802C00CF08A
:103D2000030058F82000E178012201F00F039A40C7
:103D3000104201D0012200E00022E079430800D1C6
:103D400000207874787C08B192B10022A379604693
:103D500002F0A6FC02203874E07808280AD3A17883
:103D6000402201F0030102EB41010844B874B0E7BE
:103D70000122EBE7A17801F0030161F3DF00B874E1
:103D8000A7E72046FDF726FC0028A2D1E178A0781D
:103D900002F000FCA178E278237841EA022194F84D
:103DA00001C0628943EA0C2C0AB1012300E0002320
:103DB000BDE8F0410246604605F0EBBC2046FDF749
:103DC00009FC002885D12279E178A078BDE8F0418E
:103DD00005F0F8BB2046BDE8F041FDF7FBBB2046EF
:103DE000FDF7F8FB00287FF474AF0949A07808704C
:103DF0006FE72046FDF7EEFB00287FF46AAF054829
:103E0000218901806189418063E70000CE040020A0
:103E1000C40400204600002070B584B0564ED6F889
:103E20008000401CC6F8800005F044FC00287DD0CE
:103E300001788DF8001081788DF801108188ADF837
:103E40000810C288ADF80A200389ADF80C308DF84F
:103E50000210090A8DF803108DF80420110A8DF85C
:103E600005108DF80630190A8DF80710716D11B123
:103E70000188803901809DF8000000F07F0017283C
:103E800074D2DFE800F00C1014181C205C60646829
:103E90006C737373737073737373737324006846F6
:103EA000FFF71EFD62E06846FFF79EF85EE0684699
:103EB000FFF752FC5AE06846FDF7F6FF56E0684609
:103EC000FEF72EFB52E06846FDF7CCFE4EE09DF873
:103ED0000100C0F3021400259DF8000010F0800FCF
:103EE00027D1B07A68B1F07AA0420DD1B06B401CF6
:103EF000B063F07A40EA04219A2012F0D5F8012547
:103F00000BE00120B07208E0307BA04205D0307B8E
:103F100040EA04219A2012F0C7F8F472F07A401CAB
:103F20003073307B072803D9002000E021E0307394
:103F300045B99DF8010000F08F008DF8010068463A
:103F4000FFF7D6FC12E06846FDF7E2FC0EE068469B
:103F5000FEF78CFE0AE06846FDF73CFE06E0684688
:103F6000FDF758FE02E06846FDF7ECFBFCF7C0FEEB
:103F70005AE704B070BD0000200000200123074A6A
:103F800003FA00F0002903D011680843106070475D
:103F9000116821EA000010607047000000740040C2
:103FA00000B585B00121480706F000FA3C200090DA
:103FB000002001904FF400700290022003906946A7
:103FC000002000F00FF86946102000F00BF80121E6
:103FD0000020FFF7D3FF01211020FFF7CFFF05B02E
:103FE00000BD000010B40C4B1A6840F6FE7C0CFAC1
:103FF00000FC22EA0C02D1F800C04C684CEA040C28
:104000008C68C96821434CEA010101FA00F01043B1
:10401000186010BC704700000074004081B000F1CF
:10402000804000F5E840083000900098016001B041
:10403000704781B000F1804000F5E84014300090F6
:104040000098016001B0704710B515F0CDF9C0EBD4
:104050000030C00048F2E80190FBF1F081B200208E
:10406000FFF7DCFF0121BDE81040002000F014B88C
:1040700010B515F0B9F9C0EB0030C00048F2E80106
:1040800090FBF1F081B20020FFF7D3FF0121BDE8E2
:1040900010401020AFF3008000090123064A03FA04
:1040A00000F0002903D011680843106070471168C0
:1040B00021EA0000106070470474004070477047A8
:1040C00070477047704770477047704714F0BEBC28
:1040D0007047704714F006BC074A904201D2074867
:1040E00000E00748074A11F0005F01EA020101D031
:1040F000C1607047816070471064024000600240F8
:10410000006402407D0F7D0F002904D0016841F05A
:10411000010101607047016821F0010101607047F1
:104120002DE9F003016821F0010101600021016027
:1041300041608160C160016121214161444A45497A
:104140004FF03D08904204D1C1F80880BDE8F0036B
:104150007047414A4FF47464904203D18C60BDE8CB
:10416000F00370473D4A4FF47415904203D18D60BF
:10417000BDE8F00370473A4A4FF07466904203D1AD
:104180008E60BDE8F0037047364B374A984203D142
:10419000CA60BDE8F0037047DFF8D0C0344B60451B
:1041A00003D1CB60BDE8F0037047324FDFF8C8C0E1
:1041B000B84204D1C1F80CC0BDE8F0037047DFF885
:1041C000BC904FF03D57484503D1CF60BDE8F003A8
:1041D0007047DFF8AC902B49484504D1C1F8008006
:1041E000BDE8F0037047DFF8A080404503D10C60C4
:1041F000BDE8F0037047254CA04203D10D60BDE837
:10420000F0037047224CA04203D10E60BDE8F003DA
:104210007047204C2049A04203D10A60BDE8F0035A
:1042200070471E4A904203D10B60BDE8F00370470F
:104230001B4A904204D1C1F800C0BDE8F0037047AA
:10424000184A9042F9D10F60BDE8F00370470000B2
:10425000106002400060024028600240406002405E
:1042600058600240706002403D00002088600240BB
:10427000400F0020A060024000003D20B8600240D6
:104280001064024008640240286402404064024016
:1042900058640240706402400C640240886402402A
:1042A000A0640240B864024002460020084B9A42D3
:1042B00001D2084A00E0084A11F0005F01D05268BC
:1042C00000E01268054B1A400A4200D001207047F6
:1042D0001064024000600240006402407D0F7D0FC8
:1042E00011F0800F09D022B1436943F0800343618C
:1042F00003E0436923F080034361802905D001F086
:104300001E011AB10268114301607047026822EA77
:10431000010101607047000010B402681C4B1A4094
:10432000D1F80CC00B688C6943EA0C03D1F814C0B7
:104330004CEA040C43EA0C03D1F81CC043EA0C031A
:10434000D1F820C043EA0C03D1F824C043EA0C039F
:10435000D1F828C043EA0C03D1F834C043EA0C0377
:10436000D1F838C043EA0C031A430260426922F0D4
:104370000702D1F830C0CB6A43EA0C031A4342610A
:104380000A6942604A6882608968C16010BC7047EF
:104390003F801CF00021016041608160C1600161CB
:1043A00041618161C161016241628162C1620163F7
:1043B000416381637047704773B505462C8801A837
:1043C00004F0BEF918B102B04FF0FF3070BD00220A
:1043D0000021BDF80430012601F1080023FA00F0A5
:1043E00010F0010F04D024FA01F026EA000003E0E7
:1043F00024FA01F000F001008840104382B2491C09
:104400000829E9DB002101F1080C23FA0CF010F077
:10441000010F04D024FA0CF026EA000003E024FA8D
:104420000CF000F0010000FA0CF0104382B2491CBD
:104430000829E8DBC3F30310C0F1100102FA01F10F
:1044400089B222FA00F040EA010C002000218A0023
:104450002CFA02F4E41A641A103404F00F0404FA7B
:1044600002F2104380B2491C0429F0DB288002B01C
:10447000002070BD2DE9F04382B006460F460025AE
:1044800030680090B088ADF804004FF6FF79E84638
:10449000002F0DD04F450BD0002408EB44003946C7
:1044A000FFF78AFF08B101251BE0641C032CF4DB35
:1044B000BDF8041081B149450ED008F10200FFF7A4
:1044C0007BFF08B102250CE0BDF804106846FFF739
:1044D00073FF08B1032504E000983060BDF80400C4
:1044E000B08002B02846BDE8F0830000F8B506466B
:1044F0000C46208820F002002080C0F343100025E5
:104500008A4F062880F00C81DFE800F0FD032D6162
:1045100085FCE08C06F08EFE208B6082E08C012210
:10452000002109F063FF608810F4807F02D0A08A28
:10453000C83006E0A08AC0EB0010C000A7FB001046
:10454000400901B200950023E08C1A460BF048FBAD
:10455000E08C4FF47A710DF023FB208820F4F0708A
:1045600040302080F8BD218B608A00F0F1F80028EF
:1045700002DD208B6082F8BDE08C07F09DF90028F9
:10458000F9D1608A2082608810F4807F01D0A08AEF
:1045900006E0A08AC0EB0010C000A7FB0010400995
:1045A00001B2E08C012209F021FF00230095E08C8C
:1045B0001A4619460BF014FBE08C4FF47A710DF09B
:1045C000EFFA208820F4F07060302080F8BD218B55
:1045D000208A00F0BDF8002802DA208B2082F8BD86
:1045E000E08C07F069F90028F9D1E08C0122002164
:1045F00009F0FCFE608810F4807F06D1009500234E
:10460000E08C1A4605210BF0EBFA208820F4F070BC
:1046100080302080F8BDE08C07F04EF90028F9D1F9
:10462000208820F4F0702080E08C0DF049FA628A36
:10463000238AD51A002D01DA05F5805520896843B3
:10464000C11700EB1150000BA084314638A0009533
:1046500017F046F9238A628A0121304600F08AF871
:104660000246E18AB1B1B1F5487F07D1A08A00EBDB
:10467000001000EB8000A7FB00104109914209DD0A
:104680000DB1694201E04FF0FF313046BDE8F8401E
:1046900000F0CCBB628812F0200F0DD06810218A88
:1046A0000844B4F92210002913DD23894FEA0131AF
:1046B000B1FBF3F1014416E012F4807F01D0218AAE
:1046C00011E020894FF47041B1FBF0F0218A0144E0
:1046D00009E001DAC1F1000123894FEA0131B1FBA0
:1046E000F3F1A0EB0101C1F30B016181208820F0FF
:1046F0000100208042F002006080304600F096FB0E
:10470000208801E008E00BE020F4F070A030208069
:104710004FF4C870E083F8BDE08C002109F0DEFEA4
:10472000208820F4F0702080F8BD00001F85EB5138
:104730005B25645D2063775B25645D202D206363CA
:10474000775B25645D203D205B25645D0D0A0000DC
:10475000081A002809D000F50061B1F5805F03D97F
:10476000002804DA00F58050704700207047A0F55B
:1047700080507047DFF838C000EB00100CEB800071
:10478000B0F808C001290ED0981A00F58050B0F595
:10479000805F01D3A0F5805000FB0CF0C11700EB47
:1047A000115000137047D01A00F58050EFE7000059
:1047B0004047002010B50C4601216389228BFFF78A
:1047C000D9FFA17811F0200F06D0B4F84010814233
:1047D00001DA2189401A10BDB4F840108142FADA9A
:1047E0002189401A10BD2DE9F04106460F461546B5
:1047F0001C46207810F0020F09D02289618BB4F991
:10480000060001F003FA28B10020BDE8F081002085
:10481000BDE8F081380390FBF2F061890844C0F3F1
:104820000B00002801DA00F58050218BFFF790FF84
:10483000002800DA4042A18911B3814220DA218C9C
:10484000491C89B22184A94202DA0120BDE8F08125
:10485000618841F010016180217811F0080F05D0C6
:1048600000220121304600F08FFB04E082B20221D9
:10487000304600F089FB208820F0020020800FE005
:10488000208810F4004F04D020F4F04020F40040C1
:10489000208020460DF0F0FE208820F002002080CD
:1048A00000202084208810F4004F02D120F008005E
:1048B0002080208820F0100020800020BDE8F081BA
:1048C00011490988114A1288002815D0012801D001
:1048D000002070474EF6EE6012B139B1AB20704740
:1048E000814201D10020704701207047824201D1EE
:1048F000012070470020704711B11AB1AB207047FA
:10490000002070470120704700C000080000010827
:1049100070B50C4C012525600221182003F092F996
:1049200008280ED1022020600021074803F00CFA6D
:10493000082806D12560BDE870400221202003F040
:1049400081B970BDF807002000C000082DE9F05FB4
:104950004FF0FF3500206549421D21F81020401C12
:1049600080B26428F8D3DFF888A1BAF80020614F3C
:104970003888614E4FF00109C6F80090DFF87CB12D
:104980004FF6FF734FF00208002A71D0A2F56E4275
:10499000EE3A26D0A2F58851113908D0FFF7B8FFBA
:1049A000082802D1002030600820BDE8F09F0028D0
:1049B000F8D0A0F56E41EE3904D0FFF7A9FF082822
:1049C000F3D1EFE70221182003F03CF90828ECD1DD
:1049D000C6F800800021384603F0B6F90828E4D173
:1049E000E0E780B198423DD10221202003F02AF96E
:1049F0000828DAD1C6F800800021504603F0A4F957
:104A00000828D2D1CEE700240F46BAF8061037F8AE
:104A10001400814200D125B2AC420ED0374900F0DB
:104A2000F1F8012809D0C6F8008037F81400BBF867
:104A3000001000F019F90828B7D1601C84B2642C6A
:104A4000E3D3C6F800800021504603F07DF9082822
:104A5000ABD1C6F800900221202003F0F3F808281B
:104A6000A3D19FE7FFF754FF08289ED19AE7FFE7FD
:104A7000A0B3984296D00024BA460F46BAF8061062
:104A800037F81400814200D125B2AC420FD01B4947
:104A900000F0B8F801280AD0C6F8008037F81400F2
:104AA000BBF8001000F0E0F808287FF47EAF601C2F
:104AB00084B2642CE2D3C6F800800021504603F093
:104AC00043F908287FF471AFC6F80090022118203E
:104AD00003F0B8F808287FF468AF63E7FFE7FFF753
:104AE00017FF08283FF45EAFBDE8F09FE4450020C3
:104AF00000C0000800000108F8070020F4050020AD
:104B00002DE9F05F06460D4600240020FFF7D8FE91
:104B1000012803D030B1AB20BDE8F09F214F4FF00A
:104B2000200802E0204F4FF01808DFF880904FF087
:104B3000020AC9F800A04EF6EE61384603F004F907
:104B40000828E9D12946304600F08EF80828E3D13C
:104B5000174DDFF860B035F81400B0420CD015499D
:104B600000F050F8012807D035F81400BBF8001009
:104B700000F07AF80828CFD1601C84B2642CEAD304
:104B80000120C9F800000221404603F05BF8082824
:104B9000C2D1C9F800A03846BDE8F05F002103F09B
:104BA000D3B8000000C0000800000108F80700208A
:104BB000E4450020F40500202DE9F04106460F46AB
:104BC00015467019642802DDAF20BDE8F08100248D
:104BD000002D11DDDFF82880301907EB440138F88B
:104BE000100000F00FF8082803D04FF0FF30BDE8A8
:104BF000F081641CAC42EFDB0020BDE8F0810000D6
:104C0000E44500202DE9F04104460E460125124FEF
:104C10000020FFF755FEAB2805D038B1012808D099
:104C2000AB20BDE8F081AB20BDE8F0810B4F0C4814
:104C300000E00C48421EB81C82420AD91388A342E5
:104C400004D132F8020C3080082502E0121F8242A3
:104C5000F4D82846BDE8F0810000010800C0000833
:104C6000FFFF0008FFFF01082DE9F04106460F464F
:104C70001A4C0120FFF724FEAB2805D038B10128DB
:104C800008D0AB20BDE8F081AB20BDE8F081144C2A
:104C9000144800E01448401E144D844206D2216896
:104CA000B1F1FF3F07D0241D8442F8D300202860D3
:104CB0008020BDE8F0814FF00208C5F80080394639
:104CC000204603F041F80828F3D1C5F800803146AA
:104CD000A01CBDE8F04103F037B800000000010857
:104CE00000C00008FFFF0008FFFF0108F8070020D0
:104CF0002DE9F04706460F4615464FF0000870199B
:104D0000642802DDAF20BDE8F087012080F3108821
:104D100003F048F80024002D10DDDFF83090301942
:104D200037F8141039F8100000F012F8082802D0F3
:104D30004FF0FF3802E0641CAC42F0DB02F0E2FF0F
:104D4000002080F310884046BDE8F087E44500204D
:104D500070B504460D4629462046FFF785FF80289A
:104D600005D129462046BDE87040FFF7C9BE70BD99
:104D7000104B0021C3F894101520C3F88400C3F829
:104D80008800C3F88C10C3F89010996700200A4A75
:104D900042F82010401C1428FADB0020074A42F891
:104DA0002010401C0328FADBD9674FF6FF70906093
:104DB0007047000020000020500E0020A00E0020B0
:104DC0002DE9F0410024174FF86F002827D0164E28
:104DD0004FF00108F86F08FA04F505421BD0D7F828
:104DE0009400054217D156F82400A0B156F82400CB
:104DF000401E46F8240056F8240060B90C2C03D25B
:104E0000204611F065FA03E0A4F10C0013F0D6FB84
:104E1000F86FA843F867F86F641CE040DAD1BDE88A
:104E2000F081000020000020500E002002460023E8
:104E300041F2015004F0ADBCF8B507460C464FF006
:104E4000FF35A07810F0010F52D0208810F4007FB9
:104E500002D1608E401C608604F11A036A46A11DCF
:104E6000384605F09DFC0546002D02D04FF00100AC
:104E700001E04FF00000A0833BD1BDF8000020838B
:104E8000A06A4FF0000600B1A662608840F00800FA
:104E9000608014F075F83B4941F82700A07810F0C5
:104EA000040F05D0208B40F6FF71A1EB000020839A
:104EB000208810F4007F16D1208EA0F57F41FF39A5
:104EC00001D1208B2086618F208B814200D26087A8
:104ED000A18F814200D9A087E08E20B1218F81422D
:104EE00000D22087E68694F82600002106F054F9C7
:104EF00045E0A07810F0080F04D014F041F8A0624B
:104F0000002605E04FF47A71384600F033FA064681
:104F1000208810F4007F05D1A08E401CA086E08E72
:104F2000401CE086608820F00800608094F826002D
:104F3000012106F031F941F28831384600F03CFA9F
:104F400018B1208810F4007F19D0384605F01EFCF7
:104F5000AEB16420E08314F013F8A062608810F012
:104F6000100F0CD140F010006080618BB4F9060086
:104F700000F04CFE02460021384600F005F82846B5
:104F8000F8BD0000604900200B460A494FF0E20CD2
:104F9000C1F808C01946002B01D141EA0221022BB9
:104FA00003D10B46114663F31F314CEA002011F088
:104FB0007BB80000CC07002015F004BC15F002BC43
:104FC00015F000BC15F0FEBB15F0FCBB704715F0EA
:104FD000F9BB10B500F007F8002803D0BDE8104079
:104FE000FCF7E0BA10BD00207047000001490860DE
:104FF00070470000143C0140F0B583B001218803E4
:1050000005F0F0F90B21052005F09DFD14F0DCF909
:10501000704F68B90821052005F095FD0C2104208A
:1050200005F091FD387818B90721042005F08BFDB3
:105030000321022005F087FD0221084605F083FDCB
:105040000121062005F07FFD0021062005F07BFDF3
:105050004FF40060009000258DF804500C268DF868
:10506000056001248DF80640684600F0DFF8E00294
:1050700000F0B2F814F0A8F958BB200200908DF8A7
:1050800004508DF805608DF80640684600F0CEF8B3
:10509000200200F0A1F8200300908DF804508DF854
:1050A00005608DF80640684600F0C0F8200300F067
:1050B00093F8387868B9802000908DF804508DF806
:1050C00005608DF80640684600F0B0F8802000F0DA
:1050D00083F8082700978DF804508DF805608DF847
:1050E0000640684600F0A2F8082000F075F8042099
:1050F00000908DF804508DF805608DF806406846E4
:1051000000F094F8042000F067F8022000908DF879
:1051100004508DF805608DF80640684600F086F86A
:10512000022000F059F800948DF804508DF80560C5
:105130008DF80640684600F079F8012000F04CF840
:1051400006208DF808008DF809508DF80A408DF87A
:105150000B4002A804F042FE07208DF808008DF8ED
:1051600009508DF80A408DF80B4002A804F036FE75
:105170008DF808708DF809508DF80A408DF80B40B5
:1051800002A804F02BFE09208DF808008DF80950C4
:105190008DF80A408DF80B4002A804F01FFE17207E
:1051A0008DF808008DF809508DF80A408DF80B40F5
:1051B00002A804F013FE28208DF808008DF809508D
:1051C0008DF80A408DF80B4002A804F007FE03B0EA
:1051D000F0BD00002200002004490A6882430A60F2
:1051E000091D0A6822EA000008607047003C01407F
:1051F00010B504462046FFF7F9FE03490A6842EA63
:105200000400086010BD0000003C01400021054A78
:1052100012680240044B1B68034201D002B1012115
:1052200008467047003C0140143C0140214A837904
:105230000168002B34D0136823EA01011160111DAD
:105240000A6803689A430A60017901F1804101F517
:105250009E310A6803681A430A60174B196802688E
:10526000914319601A1D1168D0F800C021EA0C01A1
:1052700011604179102908D001F1804101F59E317A
:105280000A6800681043086070471968D0F800C0C9
:1052900041EA0C011960116800680843106070470A
:1052A000007900F1804000F59E30026822EA010199
:1052B00001607047003C0140083C0140704700001D
:1052C00010B50446084614F08FF815F045F901466C
:1052D000B1F5757F02DD4FF4757102E0142900DC31
:1052E000142106482CB1012C07D1BDE8104010F064
:1052F00041B8BDE8104010F03BB810BD00080040B8
:1053000010B50021104B114C0022E078082800D382
:10531000E270E07800EB001C03EB8C0C9CF802C000
:105320001CF0010F08D0E1786170012100F010F845
:10533000E078401CE07010BD401CE0700846491C3D
:10534000C9B20828E1D310BD40470020CC07002097
:1053500010B50C46002C01D0012100E0002105F021
:10536000E3FB002C03D0BDE8104005F0F9BD10BDF3
:1053700005F004BB70B504460D460D4840798442E3
:1053800001DB002070BD13F0FBFD0A4951F8241029
:10539000401A002800DA4042B0F1004F00D3C04369
:1053A000B5EB900F01D2012070BD002070BD000050
:1053B000CC0700206049002070B50D460E494979A0
:1053C000884201DB002070BD0C4900EB001001EBAE
:1053D000800413F0D5FDE16A401A002800DA40424B
:1053E000B0F1004F00D3C043B5EB900F01D20120C4
:1053F00070BD002070BD0000CC0700204047002099
:10540000002801D0012100E000210020074B8AB2D2
:1054100000EB001103EB8101B1F802C062F3000C54
:10542000A1F802C0401C0828F2DB7047404700206A
:1054300010B40021084B01EB011203EB820240FA89
:1054400001F4B2F802C064F3000CA2F802C0491CD7
:105450000829F0DB10BC70474047002000210828D5
:1054600005DA044900EB001001EB8000818C08464E
:10547000704700004047002070B506460D460024E6
:10548000124BFF2D07D0082D1ED205EB051003EBA4
:105490008000448B10E0002202EB021003EB80003E
:1054A000418BB0F9060000F0B1FB02EB42018840ED
:1054B0000443521C082AEFDB230CA2B229463046D3
:1054C00004F067F9002070BD012070BD4047002046
:1054D0002DE9F05F3F494871082805DD08224A712F
:1054E00001463DA016F0FCF90025A8464FF4487986
:1054F0004FF4397A40F2DA2B062D02DBA81DC6B232
:1055000000E0EEB23A4806EB860100EB8117B7F8EF
:105510009000C0F34311A94203D02A4635A016F0EB
:10552000DFF93D4805EB051100EB8104E684A4F8A2
:105530000080A4F80280A4F8068097F834010022C5
:10554000C0F3C001284600F0EFFB032E03D96088AA
:1055500040F020006080608840F0400040F008008B
:1055600020F00100608002206081A4F82280A4F86D
:105570000890A4F820803220E0831920A081052023
:10558000E081A4F814A0A4F81690A4F824A0C4F80C
:105590002880208820F400702080C4F82C80A07817
:1055A00010F0200F04D04FF4C870A4F8400001E0C0
:1055B000A4F840B06D1C082D9EDB00231A46194646
:1055C000184605F0EDF8FF2000F02EF90020BDE8A8
:1055D000F09F0000CC070020452D4E756D20746FA4
:1055E0006F206C617267655B25645D0D0A000000C9
:1055F000181D0020537465706E6F5F656E69647866
:105600005B25645D213D456E636F64655F69647809
:105610005B25645D0D0A0000404700202DE9F0473E
:1056200000267F4FB878401C00F00700B8707D4915
:1056300000EB001001EB8004A07810F0010F10D0F7
:10564000E08C06F039F905464FF6FF79B04625B1F2
:10565000208810F4007F30D068E0E08B18B1401E45
:10566000E083BDE8F0870A20E083208810F4007F03
:1056700064D013F085FCE062208820F40070208064
:105680000126A4F83090A4F83E80A4F83A80A4F84B
:105690003C90A4F83280A4F83480A4F83680A4F8B2
:1056A0003880FCF709F8002848D00820A4F8420008
:1056B000608820F40070608040E0A07810F0080F4F
:1056C00002D0208BE08701E0A4F83E90608FA18F8C
:1056D000401A00D5404280B2A18E21B9153840F65B
:1056E000D771884219D2E28F218EE08C04F084F9C0
:1056F000E08CA28F618F40F4807004F07DF9E08C23
:10570000A28E618E40F4007004F076F9E08C228F56
:10571000E18E40F4407004F06FF9FBF7CDFF28B143
:10572000A4F84280608820F400706080208840F4F3
:1057300000702080E06A08B1C4F82C802146B87857
:10574000FFF77AFB002805DA002E8AD0A4F81E8025
:10575000BDE8F087208810F4F07F05D02146B878A6
:10576000BDE8F047FEF7C2BE10F0010F0DD020F0EB
:1057700001002080608840F002006080208B608102
:105780000022E08C114608F031FE7DB9608810F0EF
:10579000020F0BD0217811F0040F27D0FBF78CFFFC
:1057A00088B1608810F4007F11D10CE0002DCFD0BB
:1057B000A07810F0020FCBD1B878BDE8F0470022F6
:1057C0000421FFF7E1BBFBF777FF0028C0D121469A
:1057D000B878FEF7EFFF01B2E08C012208F006FE78
:1057E000208820F004002080BDE8F08710F0100F22
:1057F000FAD1FBF761FF18B1608810F4007F03D184
:10580000FBF75AFF0028EFD1E08C06F02DF8014697
:105810002346B878BDE8F0470122FEF7E4BF000058
:10582000CC070020404700202DE9F84F0026274FE5
:10583000082817DA00EB001107EB81042146FFF777
:10584000FBFA10F1640F06D0608840F00800608019
:10585000608B46082EE0608820F0080060804FF6DC
:10586000FF7627E0FF2825D10025DFF8648098F82F
:10587000050000281EDD4FF0010905EB051007EBC0
:10588000800421462846FFF7D7FA8246608B0090B5
:10589000238B2A4651460FA016F022F8BAF1000FCA
:1058A0000BD0608820F0080060806D1C98F805001F
:1058B0008542E2DB3046BDE8F88F09FA05F0064381
:1058C000608840F008006080EFE70000404700205B
:1058D000CC0700205353495F526561643D20256425
:1058E000202E2E2E2564205B636F6465723A25643A
:1058F00020737461743A307825785D0D0A000000D9
:1059000070B50D4612494979884219DAC5B1114A74
:1059100000EB001102EB8104618811F0010F12D03D
:1059200021F01001618011F0080F0ED02146FEF722
:1059300041FF2860208840F008002080012070BDD1
:105940004FF0FF3070BD002070BD002070BD000022
:10595000CC0700204047002010B50C4600230F491B
:105960004979884217DA0E4A00EB001102EB8101F7
:105970000A8812F4F07F0ED14A8812F0100F02D07C
:1059800022F010024A808A7812F0080F03D0FEF746
:1059900011FF20800123184610BD0000CC07002015
:1059A0004047002001F1C802B2F5C87F01D90020AC
:1059B0007047082805D2044A00EB001002EB800073
:1059C000418401207047000040470020B1F5487F26
:1059D00001DD00207047082806DA044A00EB0010B9
:1059E00002EB8000A0F840100120704740470020E3
:1059F000B1F5487F01D900207047082805DA044A2C
:105A000000EB001002EB8000C18201207047000013
:105A100040470020082801DB00207047044900EBC4
:105A2000001001EB8000807800F00100704700005A
:105A300040470020F8B50546082D02DB4FF0FF3047
:105A4000F8BD194905EB051001EB8004608810F0E2
:105A5000020F09D020F010006080207810F0100FA5
:105A600005D04FF0FF30F8BD4FF0FF30F8BD0026F5
:105A70001020208013F084FAE062E08C0CF086F9AC
:105A8000E08C05F0F1FE07460096E08C0023012231
:105A900039460AF0A5F800233A46294641F6011096
:105AA00003F077FE0020F8BD4047002070B50024C9
:105AB000124D687900281FDD114E04EB041006EB2F
:105AC0008000418811F0010F12D0828B52B1418BBE
:105AD000B0F9060000F09AF8024600212046FFF7D0
