:020000040802F0
:10000000504800209901020825AA0208FDA1020813
:1000100043A50208050E0208058103080000000040
:10002000000000000000000000000000ADBA02085F
:100030009F46020800000000A9B00208656D030891
:100040000F81030865B00208C96D030837B40208C0
:10005000718A020881B30208A5540208B554020847
:10006000BD540208C5540208CD540208DD430208FD
:10007000DF430208E1430208E3430208E5430208C4
:10008000E7430208E9430208710B02084F0E020819
:100090003D0E0208450E0208470E0208CF54020822
:1000A000556E0308676E0308656E03085D6E0308EE
:1000B0006F6E0308776E0308156F030813A202081A
:1000C00011A2020817A2020815A20208B5B402087C
:1000D000B7B40208197B0308217B0308237B0308BC
:1000E000AD54020835B40208A9AC0208296F030810
:1000F0003B6F0308396F0308316F0308EB430208B5
:100100007B8B02087DB402081D6F0308B9B4020896
:10011000157B0308177B03081F6F0308216F030873
:10012000ED430208F5430208F7430208F9430208C9
:10013000B3010208B3010208B3010208B3010208C7
:10014000B3010208B3010208B3010208B3010208B7
:10015000B3010208B3010208B3010208B3010208A7
:10016000B3010208B3010208B3010208B301020897
:10017000B3010208B3010208B3010208B301020887
:10018000B3010208DFF80CD000F0B4FA00480047D1
:10019000B1DF030850480020064880470648004762
:1001A000FEE7FEE7FEE7FEE7FEE7FEE7FEE7FEE727
:1001B000FEE7FEE76D6D03088501020840EA0103D2
:1001C0009B0703D009E008C9121F08C0042AFAD20D
:1001D00003E011F8013B00F8013B521EF9D27047D1
:1001E000421C10F8011B0029FBD1801A7047C10F77
:1001F00080EAE0700844CA079623002100F0EEB9B7
:10020000EECCDDAAFFFF0000D2B201E000F8012B26
:10021000491EFBD270470022F6E710B513460A4686
:1002200004461946FFF7F0FF204610BD30B50446DE
:100230000020034600E05B1C934203D2E05CCD5CEF
:10024000401BF8D030BD70B5064617F08DFF04682E
:1002500005460A220021304600F07FF92C6070BD6F
:10026000F0B480EA0102D40F4200B2EB410F02D297
:100270000246084611464A0042D0C30DDDB2C1F322
:10028000C752AD1A202D35DAC1F3160141F4000230
:1002900004B15242C5F1200602FA06F12A41104487
:1002A000B3EBD05F23D0C4B1012DA0EBC35009DC68
:1002B000F0BC4FF0004202EAC352DBB200F500008E
:1002C00000F08CB9400000F1807000EBC350A0F149
:1002D000807040EAD170490009E0490841EAC071E4
:1002E000A0EBC35000F50000400800EBC350F0BC89
:1002F00000F06BB96142012202EB4101001BF6E7FD
:10030000F0BC704781F00041AAE780F00040A7E709
:1003100080EA010210B502F00043400022D04A00FA
:100320001FD0010E01EB1261C0F35600C2F356025A
:1003300040F4000042F40002A0FB022000047F39D8
:10034000140400D0401C50EA124001D44000491E61
:10035000C2B20C0604EBD010401C4008802A02D028
:1003600003E0002010BD20F00100002900DA002089
:10037000184310BD2DE9F04D81EA030404F0004B51
:1003800021F0004514464FF0000A23F0004150EAE6
:10039000050220D054EA01021DD0C5F30A570246D7
:1003A000C5F31303C1F31300C1F30A5640F48015DB
:1003B00043F48013A7EB0608101BD64608F2FD385D
:1003C00073EB050002D308F1010801E092185B41CC
:1003D000B8F1000F03DA00200146BDE8F08D0020DF
:1003E0004FF48011064684460EE0171B73EB050799
:1003F00005D3121B63EB050306434CEA010C4908C5
:100400004FEA300092185B4150EA0107EDD152EA01
:10041000030012D082EA040083EA0501084305D0F4
:10042000101BAB4106D20122002306E000224FF050
:10043000004302E06FF0010253101AEB06004CEB90
:10044000085110EB0A0041EB0B01BDE8F04D00F044
:10045000F3B80EB5C10F80EAE0700844CA07002166
:1004600040F233438DE80E000A460B4600F0F3F8E5
:1004700003B000BD00F0004220F00040C10DC0F309
:10048000160040F400007F2901DA00207047962909
:1004900003DCC1F19601C84001E096398840002A8A
:1004A000F4D040427047C1F30A5210B5C1F31301B2
:1004B00040F2FF3341F480119A4201DA002010BD6E
:1004C00040F233439A42A2F2334203DC524200F03C
:1004D00034F810BD904010BD2DE9F05F05460020B6
:1004E00092469B4688460646814640241BE02846A5
:1004F00041464746224600F020F853465A46C01A65
:10050000914110D311461846224600F005F92D1AE4
:1005100067EB01084F4622460120002100F0FCF85D
:1005200017EB00094E41201EA4F10104DFDC484610
:1005300031462A464346BDE8F09F202A04DB203A94
:1005400021FA02F00021704721FA02F3D040C2F1F3
:10055000200291400843194670472DE9F047914623
:100560000F4680460446002614F8015B2DB100F0CA
:10057000E3F80068405DC007F6D12B2D02D02D2D89
:1005800018D0641E4A463946204600F0D9F827B1F3
:100590003968A14201D1C7F8008071054FF002040B
:1005A0000BD54042002803DD17F0DEFD0460A007F4
:1005B000BDE8F08746F48066E4E70028F8DA17F033
:1005C000D3FD04606FF00040F2E70029A8BF704738
:1005D000401C490008BF20F00100704710B4B0FA79
:1005E00080FC00FA0CF050EA010404BF10BC704714
:1005F00049B1CCF1200421FA04F411FA0CF118BF2E
:10060000012121430843A3EB0C01CB1D4FEA0061FC
:100610004FEA102042BF002010BC704700EBC350CF
:1006200010440029A4BF10BC7047401C490008BFFB
:1006300020F0010010BC704710B5141E73F10004C7
:1006400008DA401C41F1000192185B411A4301D1C4
:1006500020F0010010BD2DE9F04D92469B4611B1EE
:10066000B1FA81F202E0B0FA80F22032904600F056
:1006700053F804460F4640EA0A0041EA0B0153468C
:100680005A46084313D0114653EA010019D0C8F165
:1006900040025046FFF751FF05460E465046594668
:1006A000424600F039F8084305D0012004E0204616
:1006B0003946BDE8F08D0020054346EAE0762C433C
:1006C00037430A986305E40AA0EB08000022FD0AFC
:1006D00044EA47540A3002D500200146E9E7010503
:1006E00010196941DDE9084500196941BDE8F04D7F
:1006F000A2E70000064C074D06E0E06840F0010369
:1007000094E8070098471034AC42F6D3FFF73EFD5B
:1007100040EB030860EB0308202A04DB203A00FAD0
:1007200002F1002070479140C2F1200320FA03F348
:1007300019439040704700000048704764EA03087E
:100740002DE9F05F82460078002715468B460AF1B6
:100750000104B946302801D09DB113E014F8010B13
:100760000127782803D0582801D045B10AE00DB1FF
:10077000102D07D10027102514F8010B02E00825E1
:1007800000E00A250026B0460EE005FB080005FB48
:1007900006F1012701EB10461FFA80F8B6F5803FFD
:1007A00000D3B94614F8010B294600F018F80028C8
:1007B000EBDABBF1000F05D00FB1641E00E0544628
:1007C000CBF80040B9F1000F06D017F0CDFC0221A4
:1007D0000160C81EBDE8F09F48EA0640FAE73A28E3
:1007E00000D2303820F02002412A01D3A2F1370094
:1007F000884201D34FF0FF30704770B58C1810F865
:10080000015B15F0070301D110F8013B2A1106D155
:1008100010F8012B03E010F8016B01F8016B5B1E6F
:10082000F9D12B0705D40023521E0DD401F8013B4A
:10083000FAE710F8013BCB1A921C03E013F8015BB6
:1008400001F8015B521EF9D5A142D8D3002070BD3A
:1008500010B5002414E00C4800EB0410037A601C6F
:10086000C2B2094800EB04100179084800F0ACF965
:10087000074800EB4400044901EB0411C860641C04
:10088000032CE8D310BD00006404002000210140C7
:100890009404002010B596B0012188050AF006FCEA
:1008A000002404E00020394921F81400641C032CC2
:1008B000F8D3374803F0CAFD01A803F0DFFE4FF07C
:1008C000007001903348029030480390002004905B
:1008D00003200590002006904FF4806007904000B0
:1008E00008908000099040110A9040020B9000206F
:1008F0000C9001200D9000200E900F9001A924482B
:1009000003F090FE0121224803F094FD01214802EA
:100910000AF00CFC10A800F0B8F90020109001209B
:100920008DF844008DF8450000201290139014902B
:1009300003208DF8540010A916484C3800F01AF91D
:10094000FFF786FF012113484C3800F076F80121AB
:1009500010484C3800F066F801210E484C3800F081
:100960003DF8012210210A4803F03EFE3B208DF89D
:10097000000003208DF8010001208DF802008DF8A1
:10098000030068460AF05EF816B010BD940400201B
:10099000586402404C21014010B5002414E00C487A
:1009A00000EB0410037A601CC2B2094800EB04108B
:1009B0000179084800F008F9074800EB44000449B1
:1009C00001EB0411C860641C062CE8D310BD0000C4
:1009D0000404002000200140742A002021B1826814
:1009E00042F00102826003E0826822F0010282602C
:1009F000704700000021084A1168084A1140D0E9F8
:100A000000231A4383681A43C3681A431143044AF4
:100A1000C2F804137047000004230140E030FCFFDB
:100A20000020014021B1826842F48072826003E0BC
:100A3000826822F480728260704721B1826842F439
:100A40000072826003E0826822F400728260704764
:100A500010B59AB0012188050AF028FB002404E0B3
:100A60000020404921F81400641C302CF8D33E4883
:100A700003F0ECFC05A803F001FE002005903B48C4
:100A800006903848079000200890302009900020F8
:100A90000A904FF480600B9040000C9080000D9005
:100AA00040110E9040020F900020109001201190F4
:100AB00000201290139005A92B4803F0B3FD0121EB
:100AC000294803F0B7FC012108020AF02FFB00209F
:100AD000019002900390049001A8FFF78BFF14A8E7
:100AE00000F0D3F80020149001208DF854008DF808
:100AF0005500002016901790189006208DF864007D
:100B000014A91A484C3800F035F8FFF745FF0120CA
:100B100000F0C6F8012000F0D9F8012113484C3844
:100B2000FFF78BFF012111484C38FFF77BFF0121B4
:100B30000E484C38FFF752FF012210210A4803F0FB
:100B400053FD38208DF8000003208DF801000120AE
:100B50008DF802008DF80300684609F073FF1AB0A3
:100B600010BD0000142A0020106402404C200140F7
:100B70007047000030B50246002000235068104C3A
:100B800020400D790C6844EA0524204350609068A9
:100B90000C4C2040D1E903542C438D682C434D79F3
:100BA00044EA450420439060D06A20F470000C7D34
:100BB000641EE4B2234340EA0350D06230BD00001B
:100BC000FFFEFFFCFDF7FFC0F0B504460D46002018
:100BD0000021092D11DDE068A5F10A0606EB4607A4
:100BE000072606FA07F18843A5F10A0606EB460632
:100BF00003FA06F10843E0600CE0206905EB4507C5
:100C0000072606FA07F1884305EB450603FA06F1C5
:100C100008432061072A0FDA606B561E06EB860731
:100C20001F2606FA07F18843561E06EB860605FACC
:100C300006F10843606322E00D2A0FDA206BD61F0D
:100C400006EB86071F2606FA07F18843D61F06EB38
:100C5000860605FA06F10843206310E0E06AA2F177
:100C60000D0606EB86071F2606FA07F18843A2F158
:100C70000D0606EB860605FA06F10843E062F0BDB4
:100C8000816841F0804181607047002101600171FD
:100C900041718160C16001610121017570470000EF
:100CA00038B10849096841F40001074AC2F8041341
:100CB00006E00449096821F40001034AC2F804135C
:100CC00070470000042301400020014038B108496A
:100CD000096841F48001074AC2F8041306E0044998
:100CE000096821F48001034AC2F804137047000028
:100CF000042301400020014010B50348FFF7C0FF66
:100D00000248FFF7BDFF10BD002101400020014057
:100D10004FF6FF710F4A116000210F4A1160002049
:100D200012E000210D4A42F820100D4A42F820102E
:100D300001210C4A42F8201000210B4A42F82010F1
:100D40000A4A42F82010401C0228EAD30021084A2F
:100D500011607047280000202C000020C4000020F3
:100D6000CC000020D4000020E4000020DC000020A3
:100D7000F000002000B50648006840B10548016851
:100D80000348006817F0BAFB00200149086000BD65
:100D90000C0000201000002010B51348006800B1BE
:100DA00010BD1248006800B1FAE71148007800B998
:100DB000F6E710490D4817F003FC04462CB10D4826
:100DC00001680A48006809F069FC0AF091FE0446CF
:100DD00044B10021204617F0ADFB18B90021204690
:100DE00017F018FC00BFDBE7180000200C00002003
:100DF0007C05002010000020012001490870704788
:100E00003F000060042017F071FB00BFFEE7000008
:100E100010B504460021074800F0F4FA08B9002094
:100E200010BD054A0021034800F0FBFA02480B30D0
:100E3000F6E7000000640040BC3B002010B51CF049
:100E4000DFF810BD704710B51CF07EF810BD70477C
:100E5000B1F5007F3AD00FDC202928D006DC01292B
:100E60001CD004291DD0082940D11DE0402921D0E3
:100E7000B1F5807F3AD126E0B1F5004F31D006DCE4
:100E8000B1F5806F25D0B1F5006F2FD124E0B1F519
:100E9000803F12D0B1F5003F28D111E0154A8260A1
:100EA00025E00822C26022E01022C2601FE0082272
:100EB00002611CE01022026119E00822426016E083
:100EC0001022426013E00422426010E004224260DB
:100ED0000DE0042242600AE00022826104224260A6
:100EE00005E0002282610422426000E000BF00BFF2
:100EF000704700000101010000B589B001214806DA
:100F00000AF0F4F8534800F0A9F805A800F0D9FA5F
:100F100000208DF81A008DF81B008DF81C008DF84C
:100F20001D008DF81E0001208DF81F0000208DF897
:100F3000170009208DF8180003208DF819000220F1
:100F4000ADF8140005A9434800F0D2F900208DF84F
:100F50000E0001208DF80F008DF81000002018F011
:100F6000CDFC4FF6FF7101EA4010ADF804000020FF
:100F7000ADF806000846ADF80800ADF80A000020FC
:100F8000ADF80C0001208DF8110001A800F082F8E6
:100F900001208DF80E008DF80F008DF8100018F06C
:100FA000ADFC4FF6FF7101EA4010ADF804000020DF
:100FB000ADF806000846ADF80800ADF80A000020BC
:100FC000ADF80C0001208DF8110001A800F062F8C6
:100FD000012202211F4800F082F9012211021D485E
:100FE00000F07DF9012251021A4800F078F901223F
:100FF0009102184800F073F90122D102154800F05F
:101000006EF90122D103134800F069F914208DF81C
:10101000200001208DF8210000208DF82200012001
:101020008DF8230008A809F00DFD16208DF820008A
:1010300003208DF8210000208DF8220001208DF87A
:10104000230008A809F0FEFC00200349086009B04D
:1010500000BD0000006400406C06002010B504468E
:101060000B48844209D1012148060AF04FF80021BB
:101070004FF000700AF04AF808E0012188060AF0F3
:1010800045F800214FF080600AF040F810BD0000E4
:101090000064004010B50021837A012202FA03F1B6
:1010A0003D4A126842F001023B4B1A603A4A1C3238
:1010B00012688A43384B1C331A60027BCAB9364A1D
:1010C0000C3212688A43344B0C331A604288C3884E
:1010D00042EA0343304A4032847A42F8343002888C
:1010E000838842EA03432C4A4032847A02EBC402EA
:1010F0005360027B012A19D1274A0C3212680A4335
:10110000254B0C331A604288038842EA0343224A83
:101110004032847A42F83430C288838842EA0343FA
:101120001D4A4032847A02EBC4025360C27A3AB953
:10113000194A121D12688A43174B1B1D1A6006E0DC
:10114000154A121D12680A43134B1B1D1A600289AF
:1011500032B9114A143212688A430F4B14331A60A1
:101160000289012A06D10C4A143212680A430A4B3A
:1011700014331A60427B012A06D1074A1C321268D6
:101180000A43054B1C331A60034A126822F001021D
:10119000014B1A6010BD00000066004070B50446A7
:1011A0000D46002660692840002871D0B5F5807F83
:1011B0005CD010DC082D35D006DC012D20D0022DAE
:1011C00024D0042D72D127E0102D31D0202D35D020
:1011D000402D6BD138E0B5F5004F60D009DCB5F596
:1011E000007F49D0B5F5806F4CD0B5F5006F5DD16B
:1011F0004FE0B5F5803F2DD0B5F5003F56D12FE03B
:10120000A0682D4900F040FA064651E0E06803214D
:1012100000F03AFA06464BE0E068082100F034FAA4
:10122000064645E0E068102100F02EFA06463FE051
:101230002069032100F028FA064639E020690821D8
:1012400000F022FA064633E02069102100F01CFA73
:1012500006462DE06068082100F016FA064627E0F1
:101260006068102100F010FA064621E0A069012113
:1012700000F00AFA06461BE0A069022100F004FA19
:10128000064615E0A069042100F0FEF906460FE0CD
:101290000FE0A069702100F0F7F9064608E06068E9
:1012A000042100F0F1F9064602E0FFE7002600BF46
:1012B00000E00026304670BD01010100014600201B
:1012C0008A69C2F307407047014600208A6902F02C
:1012D00070007047014600208A69100E70471AB1ED
:1012E00043690B43436102E043698B4343617047A9
:1012F00030B5024600200023146824F00204146074
:10130000146844F00104146000E05B1C546804F0AD
:1013100001041CB94FF6FF74A342F6D1546804F0DF
:1013200001040CB900206CE08C79012C04D1146804
:1013300044F08004146003E0146824F08004146016
:10134000CC79012C04D1146844F04004146003E00B
:10135000146824F0400414600C7A012C04D1146841
:1013600044F02004146003E0146824F020041460A6
:101370004C7A012C04D1146844F01004146003E08A
:10138000146824F0100414608C7A012C04D11468C1
:1013900044F00804146003E0146824F008041460A6
:1013A000CC7A012C04D1146844F00404146003E0E6
:1013B000146824F0040414608C78A407CD7844EAFF
:1013C00005640D7944EA05444D7944EA05540D88D5
:1013D0006D1E2C43D461146824F0010414600023B2
:1013E00000E05B1C546804F001041CB14FF6FF746C
:1013F000A342F6D1546804F001040CB1002000E0CF
:10140000012030BD0246002019B9D36803F0030063
:1014100006E0012903D1136903F0030000E0002076
:10142000704710B500F5D87303EB01131B6803F088
:1014300004031372137A53B900F5D87303EB011345
:101440001B6840F2FF7404EA5353136009E000F58F
:10145000D87303EB01131B686FF0604404EAD303F5
:10146000536000F5D87303EB01131B6803F002030C
:10147000537200F5D87303EB01135B6803F00F039D
:10148000937200F5D87303EB01135B681B0AD374E6
:1014900000F5D87303EB01139B68C2F80B3000F51D
:1014A000D87303EB0113DC680F239C5021B9C36888
:1014B00043F02003C36003E0036943F020030361AA
:1014C00010BD00218171C171017241728172C172BE
:1014D0008170C170032101710221417101210180DC
:1014E000704710B502460020936803F08063B3F1A3
:1014F000806F00D110E0936803F00063B3F1006FD8
:1015000001D1012008E0936803F08053B3F1805FBC
:1015100001D1022000E00420042874D002F5C07339
:1015200003EB00131B6803F0010402F5C07303EB27
:1015300000131C600B7A7BB94B7A0C8843EA445346
:1015400002F5C07404EB00142468234302F5C07450
:1015500004EB0014236010E00B7A4C6843EAC403E8
:101560004C7A234302F5C07404EB0014246823432F
:1015700002F5C07404EB001423608B7A03F00F03B0
:101580008B7202F5C07303EB00135B6823F00F044A
:1015900002F5C07303EB00135C6002F5C07303EB4C
:1015A00000135B688C7A234302F5C07404EB0014CB
:1015B00063608B7B1C064B7B44EA03440B7B44EA51
:1015C0000323CC7A234302F5C07404EB0014A36018
:1015D0008B7C1C064B7C44EA03440B7C44EA0323CB
:1015E000CC7B234302F5C07404EB0014E36002F5E6
:1015F000C07303EB00131B6843F0010402F5C073D2
:1016000003EB00131C6010BDF0B5044698B213E064
:1016100014F8016B80EA062000250BE000F4004777
:101620001FB182EA4007B8B203E04FF6FF7707EA3E
:1016300040006D1C082DF1DB0F1EA1F10101E7D167
:10164000F0BD000070B507F08DFE044607F092FE75
:1016500005462246294602A016F076FD70BD000020
:101660000D0A43616E5F6572726F723D2578202CA2
:101670004C617374206572726F7220636F64653D94
:101680002578200D0A0000000246002002EA01032E
:101690000BB1012000E00020704700000A480068FC
:1016A00080B10A480068401C084908600846006884
:1016B00005490968884205D30120054908600020D2
:1016C0000249086070470000F4040020F80400207C
:1016D000FC04002010B50B48007800B910BD0A4882
:1016E00000684FF2FF31084050B10848007820B13F
:1016F00005480168FD2016F08DFF002003490870A1
:1017000000BFEBE744050020D4050020460500207B
:1017100070B50446207800F0800050B125786678D6
:1017200045EA0620A3896289218908F0A6FF0120E5
:1017300070BD0020FCE7000010B50A4800780A4997
:10174000096888420DD00849096811B140F2E731B3
:1017500000E06321084617F06DFF03480068014967
:10176000087010BD800600207006002010B50A48E1
:10177000006838B117F014FC60B10021B82016F0F1
:1017800049FF07E017F00CFC032803D00021B92023
:1017900016F040FF10BD00007C00002010B519F0CD
:1017A000ABFE50B10C48006844F62061884204D278
:1017B00009480068401C0849086019F0A9FE50B1AA
:1017C0000648006844F62061884204D20348006855
:1017D000401C0249086010BD180100201C010020B7
:1017E0000148007870470000B406002010B5044698
:1017F0000C480068A0B10C48006888B10020094975
:1018000008600A480068030C0848006882B200219A
:10181000204608F032FF05480068401C0349086074
:1018200010BD0000FC040020F4040020000500208E
:1018300010B50246074B1B689343064C23600846CD
:10184000037803F001031BB1038823F00103038035
:1018500010BD0000D40500202DE9F04104460CB96C
:10186000BDE8F0816078102877D2DFE800F0E0086A
:10187000232CE0E040CACBCCCDD0E0E0E0D3204642
:10188000FFF746FF00B1D3E0A078482811D1E078F7
:1018900051280ED1207954280BD16079452808D1E0
:1018A000A079532805D1E079542802D1012062495A
:1018B0000870BDE02046FFF72BFF00B1B8E0002024
:1018C0005D490870B4E02046FFF722FF00B1AFE0A9
:1018D0005948007850B163891AB2E3780BB10123FB
:1018E00000E000231946A07811F010FBA0E020468C
:1018F000FFF70EFF00B19BE0208909287ED2DFE8C8
:1019000000F005121F2D52565A5E66002278657847
:1019100042EA0520494A126813142189474A12688D
:1019200008F0ABFE6BE02278657842EA0520444A75
:10193000126813142189424A126808F09EFE5EE084
:101940002278657842EA05203E4A126813142189FC
:101950003C4A126808F091FE51E068E02178627814
:1019600041EA0220354909680B1434490A6800210C
:1019700008F083FE2178627841EA02203049096844
:101980000B142F490A68012108F077FE217862784C
:1019900041EA02202B4909680B142A490A680221EE
:1019A00008F06BFE2BE000202449086027E00020AF
:1019B0002349086023E00020224908601FE000203E
:1019C0001E4908601E4908601E49086017E01D484E
:1019D00000681D490968451A6089A84207D06289D4
:1019E0001948036829464FF6F27008F046FE0020B9
:1019F000144908601449086001E0FFE700BF00BF18
:101A000016E015E014E013E00AF05EFA10E00AF0C8
:101A100033FA0DE04FF6AA752E462378677843EA2D
:101A20000720320C3146002308F027FE00E000BFFB
:101A300000BF00BF14E70000A00000206C060020DB
:101A400074060020780600208400002070B504464B
:101A500004B970BDAD48007800B9FAE7607816287F
:101A600070D2DFE800F06F0B34616A7490A0ABB401
:101A7000B5BFCAD9FAF96FF86F6F6F842046FFF7C8
:101A800047FE00B13EE1A2480078B8B1012019F04C
:101A90005BFC38B903209F490860002201210846F9
:101AA00017F058FE002019F04FFC38B9032099496F
:101AB000086000220121104617F04CFE964800787D
:101AC00020B116F09BFE0020934908701AE12046D1
:101AD000FFF71EFE00B115E1208920B101280FD0CB
:101AE00002281ED10FE007F0CBFC05462178627872
:101AF00041EA0220A3890022294608F0BEFD11E038
:101B0000FFF734FE0EE08548006838B1834800686E
:101B100008F0ACFD00208149086001E004F01CFCE5
:101B200000E000BF00BFEDE02046FFF7F1FD00B18F
:101B3000E8E020897A490860E4E02046FFF7E8FD04
:101B400008B1DFE0DDE0208909F0B0F8DAE02046F6
:101B5000FFF7DEFD00B1D5E0E278012A01DB0123C9
:101B600000E000231946A0781CF06EFDCAE0204674
:101B7000FFF7CEFD00B1C5E02178627841EA02208E
:101B80001CF0A4FDBEE02046FFF7C2FD00B1B9E0A5
:101B9000A07818B9E07806F0F5FB03E06189E078F9
:101BA00006F082FB00BF2046FFF7B2FD00B1A9E0BE
:101BB000E178A078012206F00DFCA3E02046FFF7B3
:101BC000A7FD00B19EE0A0780AF048F99AE099E0FC
:101BD0002046FFF79DFD00B194E06189208916F051
:101BE00039FC8FE02046FFF793FD00B18AE02279AF
:101BF000E178A07806F0EEFB84E02046FFF788FD50
:101C000000B17FE02178627841EA0220A3890022B6
:101C1000012108F032FD75E02046FFF779FD00B1A3
:101C200070E02089642802DD20893E4908606089CF
:101C3000642802DD60893C490860A089322811DDF2
:101C4000A08939490968884208D337480068323882
:101C50003649086011E047E021E00FE0A0893349F0
:101C600008600AE0314800682F490968884204D3B7
:101C70002D48006832382D49086043E02046FFF7C0
:101C800047FD00B13EE0A07818B90020284908704F
:101C900004E0A078012801D12549087032E02046EF
:101CA000FFF736FD00B12DE0E07810B1012818D122
:101CB0000BE0A07818B900201E49087004E0A07855
:101CC000012801D11B4908700CE0A07818B9002048
:101CD0001949087004E0A078012801D1164908705C
:101CE00000E000BF00BF0DE02046FFF711FD00B18E
:101CF00008E0A07808B1012000E000200F4908703A
:101D000000E000BF00BF00BFA3E6000031000020DC
:101D10007C05002080050020240000200C0000200D
:101D200028000020F0050020F8050020FC05002018
:101D30004C0100204D0100204E01002068000020D1
:101D400070B5044604B970BD2046FFF7E1FC00B150
:101D5000F9E717F03BF9054635B10120094908704C
:101D6000A800094908600AE017F030F9217841EA33
:101D70000026A38900221146304608F07EFC00BFF1
:101D8000E1E70000440000204800002010B50446B0
:101D900004B910BD1248007800B9FAE7607801284C
:101DA00002D0022818D10BE02046FFF7B1FC00B1A9
:101DB00013E00C48018804F1080005F065FA0CE016
:101DC0002046FFF7A5FC00B107E00648018804F1B2
:101DD000080006F05DF900E000BF00BF00BFD8E7D3
:101DE000310000205200002070B5044604B970BDD7
:101DF0009C48007800B9FAE76078082870D2DFE8DC
:101E000000F06F04265077A1DFFD2046FFF780FC2D
:101E100000B124E1012019F097FA38B9924800780E
:101E200040F48071FE2016F0F5FB18E1002019F057
:101E30008BFA28B98C480178FE2016F0EBFB0EE1F6
:101E4000A3896289E178A07804F082FF07E1204647
:101E5000FFF75EFC00B102E100250026A07800F04B
:101E6000010018B181488068C0B20543A07800F035
:101E7000020020B17D480068C0B245EA0025A07884
:101E800000F0040018B179484068C0B206432178D8
:101E9000627841EA0220A3893246294608F0EDFB28
:101EA000DDE02046FFF734FC00B1D8E0A07870B147
:101EB000E07810B1012808D103E060896C4908601E
:101EC00004E060896B49086000E000BF0FE0E07843
:101ED00010B1012809D104E060896749086005E074
:101EE000BCE060896549086000E000BF00BFB6E063
:101EF0002046FFF70DFC00B1B1E00020A17821B130
:101F0000012906D0022909D105E0E17801F10C0090
:101F100005E0E07803E0E178881D00E000BF00BF45
:101F2000618939B101218140554A12681143544AEF
:101F3000116006E001218140514A12688A435049EC
:101F40000A608CE02046FFF7E3FB00B187E0002544
:101F50004C48007810B1A07800B980E0A078022841
:101F600000DD7CE007F0E6FEE079401008B1E079A2
:101F700000E0002044490870A07810B1A078401E0D
:101F800000E00220394951F82000E17801F0070211
:101F900001219140084008B9012000E000200546D9
:101FA000E178A0782A4604F0F1FE02203749087053
:101FB000E178A07801EBC0002030354908704EE090
:101FC0002046FFF7A5FB00B149E06289E178A078DF
:101FD00004F086FE0546A278E67842EA06212278D9
:101FE000667842EA0620628912B1012201E005E02A
:101FF000002213462A4608F040FB30E02046FFF757
:1020000087FB00B12BE000251E48007810B1A078B6
:1020100000B924E0A078022800DD20E007F08AFE65
:10202000E079401008B1E07900E00020164908701E
:10203000608908B1012000E000200546E178A07821
:102040002A4604F0A3FE012010490870E178A07828
:1020500001EBC00020300E49087000E000BF00BF57
:1020600000BFC4E63100002014050020C80F002086
:10207000B8000020BC000020B0000020B400002008
:10208000C0000020320000209E0000209D000020A3
:102090009F0000207CB5044604B97CBDF848007858
:1020A00000B9FAE7607821287CD2DFE800F07B11E4
:1020B00055B0F3F1F0EFEEED7B7B7B7B7BEC7B7B34
:1020C0007B7BEBEA7B7BE9E8E7E6E5E4E3E2E10042
:1020D0002046FFF71DFB00B14EE2012019F034F954
:1020E00038B9E848007840F48071FE2016F092FA82
:1020F00042E22089022811D003DC38B1012828D11E
:1021000008E003280ED0FF2823D11BE0A0790AF0B5
:1021100037F91FE0A0790EF0DFFA1BE0A0790EF08E
:1021200009FB17E0608907F029FC00B112E0608923
:1021300010F056FD0546A079C0F3001128460DF0B9
:102140004FFF07E0A279C2F3001160890DF048FF4C
:1021500000E000BF00BF0FE22046FFF7D9FA00B150
:102160000AE2608907F00AFC00B105E2A0780528C0
:102170004AD2DFE800F003040527350000BF00BFA6
:10218000E07880B16289A078012107F09BFB0546C9
:102190002178627841EA0220A3890022294608F0CA
:1021A0006CFA0EE0E7E1A078012107F0E7FA0546B6
:1021B0002178627841EA0220A3890022294608F0AA
:1021C0005CFA22E060890AF045FB054621786278D6
:1021D00041EA0220A3890022294608F04EFA14E0C1
:1021E000E07878B16289A078012107F06BFB0546A1
:1021F0002178627841EA0220A3890022294608F06A
:102200003CFA00E001E000E000BF00BFB4E120467E
:10221000FFF77EFA00B1AFE1A07807F0AFFB00B1A5
:10222000AAE1012019F090F838B99648007840F4F6
:102230008071FE2016F0EEF99EE1E07840B1A178C1
:10224000012088409049096808438F49086007E0E9
:10225000A178012088408C49096881438A4801603F
:10226000A389628911B2A078012210F023FE83E1D4
:1022700053E136E134E127E11CE111E106E163E1DC
:1022800054E1F4E0E1E0D3E0D1E0AAE09FE02DE00A
:102290001BE0FFE72046FFF73BFA00B16CE1E07876
:1022A00007F06CFB00B167E1E07810F099FC05469F
:1022B000A07828B1608901B228460EF0C3FA03E085
:1022C000618928460EF0A6FA56E12046FFF720FA6B
:1022D00000B151E1208920B9608901210EF010FB85
:1022E00003E0608901210EF047FB45E12046FFF73E
:1022F0000FFA00B140E12089072850D007DC0728F9
:1023000062D2DFE800F0172129333D42470040F256
:102310000112811A90421BD007DC08284AD00928F4
:102320004DD0B0F5807F4FD109E0012919D00229A5
:102330004AD120E0608900210EF0D8FD45E0608997
:1023400001210EF0D3FD40E060890EF0DBFD3CE0A2
:1023500060890EF081FE38E0608900210EF044FAB9
:1023600033E0608901210EF03FFA2EE06089002100
:102370000EF060FB29E0608901210EF05BFB24E098
:102380006189012011F0BAFE1FE0618901200EF081
:10239000BBFE1AE0618901200EF0ACFB15E06089FC
:1023A00008B1012000E000200246002101200EF0CB
:1023B000E3FC0AE0618901200EF066FC05E060891B
:1023C00001210EF0AFFB00E000BF00BFD4E02046CB
:1023D000FFF79EF900B1CFE0618920890EF076FA0F
:1023E000CAE02046FFF794F900B1C5E0012018F0DB
:1023F000ABFF38B92348007840F48071FE2016F016
:1024000009F9B9E0E07800F07F000090E57805F088
:10241000800515B14FF4007500E0002545F001037B
:10242000A289658929B2A07810F059FDA4E0A3E043
:102430002046FFF76DF900B19EE0A07820B96289CF
:10244000E17801200EF0D0FA96E02046FFF760F91F
:1024500000B191E0E07800F00302607908B12079E2
:1024600000E0FF200146012005F034FD84E0204615
:10247000FFF74EF900B17FE0208905F0B5F87BE069
:102480003100002014050020B00100202046FFF795
:102490003FF900B170E06189012008F073FA6BE048
:1024A0002046FFF735F900B166E06189012008F0A8
:1024B00091FA61E02046FFF72BF900B15CE0A178CA
:1024C000012008F02FFA57E02046FFF721F900B16C
:1024D00052E0628911B2228910B208F049FA4BE049
:1024E00000BF2046FFF714F900B145E061781F29CD
:1024F00001D1012100E000210846694608F0CEF92B
:102500002578667845EA0620BDF80430BDF802203B
:10251000BDF8001008F0B1F82EE02046FFF7F8F8FB
:1025200000B129E020890EF033F925E02046FFF7BD
:10253000EFF800B120E0A08903B2608902B2A1786F
:10254000012010F0CBFD17E02046FFF7E1F800B1C5
:1025500012E0A1786B4601AA012010F095FD2278C7
:10256000637842EA03202189BDF90030BDF90420D7
:1025700008F083F800E000BF00BF00BF8DE5000059
:1025800001B588B0089808B909B000BDF8480078CE
:1025900000B9F9E708988078082808DA0898807860
:1025A000052804D008988078F249085C07900898BC
:1025B000407842287DD2DFE810F07C00420099008C
:1025C000CA00170136014F0164017901B901C80140
:1025D000E1017C007C007C005C0290027C007C00BD
:1025E0007C0075027C007C00A202B602CD02ED02E6
:1025F000FA0207032503330314034003510367035F
:102600006A036D03700371037403F4037C007C00A0
:102610007C007C007C007C0001041404430028043E
:102620007D0033044404550462047C007C007C007B
:102630007C007C007C007C007C007C00440000BFAF
:1026400000BF0898FFF764F800B111E2012018F00C
:102650007BFE48B9C848007840F480700146069077
:10266000FE2015F0D7FFF0E70898C078069007998C
:1026700007F0A8F900B1E8E708984078412801D1AF
:10268000012100E0002100220898C079CDE9012154
:1026900000900898807906900898408900B20590CB
:1026A0000898C0780490DDE9063205990EF0E0FE46
:1026B000F8E3F5E30898FFF72BF800B1F2E3002107
:1026C00001220898C079CDE901210090089880790D
:1026D00006900898408900B205900898C078049048
:1026E000DDE9063205990EF0C3FEDBE30898FFF73B
:1026F0000FF800B1D6E3012018F026FE48B99E4835
:10270000007840F4807001460690FE2015F082FFAC
:10271000C8E30898408990B10898C0780690079956
:1027200007F050F900B1BDE3089880790690089849
:10273000C0780590DDE906210EF053FE06E008980A
:1027400080790146069007980EF05CFEAAE308988F
:10275000FEF7DEFF00B1A5E3002006900898C078E0
:1027600005282FD2DFE800F00304051C1D0000BF80
:1027700000BF0898407958B10898007905900898EA
:10278000C0780490059A079907F09CF8069006E037
:102790000898C0780590079906F0F0FF069012E0BF
:1027A00000BF0898407958B10898007905900898BA
:1027B000C0780490059A079907F084F8069000E025
:1027C00001E000E000BF00BF08980178407841EACE
:1027D00000200490089880890346002205900699FD
:1027E000049807F04AFF5DE30898FEF791FF00B1F7
:1027F00058E3FF2006900898C07801460590079896
:1028000007F02EFA069008980178407841EA0020F7
:102810000490089880890346002205900699049840
:1028200007F02BFF3EE30898FEF772FF00B139E393
:102830000898C0780690079907F0C4F800B131E312
:102840000898408900B206900898C0780590DDE9A4
:1028500006120EF0FDFD25E30898FEF759FF00B1C2
:1028600020E30898408906900898C0780590089859
:102870008078801CC0B20490DDE905120DF05AFB8F
:1028800010E30898FEF744FF00B10BE30898C07806
:10289000069008984089059008988078801CC0B2FE
:1028A0000490DDE905120EF0BFF9FBE20898FEF78F
:1028B0002FFF00B1F6E20898807850B90898408957
:1028C00006900898C078801CC0B20590069911F057
:1028D00015FC08988078012809D10898408906904D
:1028E0000898C078801C059006990EF00DFC089899
:1028F000807802280AD10898408906900898C07804
:10290000801CC0B2059006990DF056FB089880789F
:1029100003280AD10898408906900898C078801C3E
:10292000C0B2059006990DF015FBBBE20898FEF7C2
:10293000EFFE00B1B6E20898408906900898008939
:10294000059006990EF0B2FAACE20898FEF7E0FEA8
:1029500000B1A7E208988089069008984089059000
:10296000089800890490DDE9051205F0C9FB99E299
:10297000310000207D010020140500200898FEF79A
:10298000C7FE00B18EE208988078012806D00228A0
:1029900020D003284ED0042868D166E0012018F02A
:1029A000D3FC48B9F748007840F48070014606909F
:1029B000FE2015F02FFE5AE00898808906900898AE
:1029C000408905900898C0780490DDE9051205F06B
:1029D000D7FA4CE008984089002815DD0898C0789F
:1029E00005900EF099FC069008980178407841EA2D
:1029F00000200490089880890346002205900699DB
:102A0000049807F03AFE14E00898C07805900EF09C
:102A10008EFC069008980178407841EA00200490E6
:102A2000089880890346002205900699049807F0CB
:102A300024FE1CE00898808900280ADD0898408957
:102A400000B206900898C0780590069909F05CFCE1
:102A50000AE00898807A00F0030006900898C07891
:102A6000059006990EF097FC01E000E000BF00BF62
:102A700018E20898FEF74CFE00B113E2089880783F
:102A800007280EDA0898408906900898C0780590C3
:102A900008988078801CC0B20490DDE905120DF022
:102AA000A3FFFFE10898FEF733FE00B1FAE10898B2
:102AB000C07800F0030006900898407910B108989B
:102AC000007900E0FF20059008988078801C049031
:102AD000DDE9051205F0FEF9E4E10898FEF718FEBD
:102AE00000B1DFE10798042808D1089840890690D2
:102AF0000898C0780590069909F018FDD2E1089869
:102B0000FEF706FE00B1CDE1079803280AD1089828
:102B1000408900B206900898C0780590DDE9061259
:102B200011F06CFBBEE10898FEF7F2FD00B1B9E1CF
:102B30000898808900B206900898408900B20590F4
:102B40000898C07804900146DDE90523079810F045
:102B5000C5FAA7E10898FEF7DBFD00B1A2E10898ED
:102B6000C07805AB06AA01460490079810F08CFACD
:102B700008980178407841EA00200390089800897D
:102B80000490BDF91430BDF918200146039807F0F0
:102B900074FD87E10898FEF7BBFD00B182E108985B
:102BA000408901460690079807F0ECFE7AE1089804
:102BB000FEF7AEFD00B175E1089840890146069028
:102BC000079807F007FF6DE10898FEF7A1FD00B137
:102BD00068E1089840890146069007980DF08AFF41
:102BE00060E10898FEF794FD00B15BE10898408928
:102BF00006900898C07805900146DDE906200EF0A1
:102C0000BBF84FE10898FEF783FD00B14AE1089850
:102C1000408900B20146069007980DF079FF41E126
:102C20000898FEF775FD00B13CE10898408901461F
:102C3000069007980EF028F834E10898FEF768FD32
:102C400000B12FE10898408906900898C078059057
:102C50000146DDE906200EF023F823E10898FEF78F
:102C600057FD00B11EE10898808900B206900898CF
:102C7000007905900898C07804900146DDE90523A5
:102C8000079809F097FA0DE1022007900CE0032065
:102C9000079009E00420079006E000BF0520079098
:102CA00002E00620079000BF0898FEF731FD00B152
:102CB000F8E016F08BF9C0B205900598072868D2A5
:102CC000DFE800F004142467344454000798052812
:102CD00008D108984078252803D1089800890690E3
:102CE00003E05DE008988078069053E00798052897
:102CF00008D108984078252803D108984089069083
:102D000003E04DE00898C078069043E00798052856
:102D100008D108984078252803D108988089069022
:102D200003E03DE008980079069033E00798052815
:102D300008D108984078262803D108980089069081
:102D400003E02DE008984079069023E007980528D5
:102D500008D108984078262803D108984089069021
:102D600003E01DE008988079069013E00798052895
:102D70000BD108984078262806D1089880890690BB
:102D800006E006E0140500200AE00898C0790690E5
:102D900000E000BF00BFDDE9061009F0D9F900BF6F
:102DA00080E00898FEF7B4FC00B17BE00898C0789A
:102DB0000146069007980DF06FFE73E00898FEF745
:102DC000A7FC00B16EE00898C07838B9089840892F
:102DD00001460690079809F02FF900E000BF00BFF8
:102DE00060E00898FEF794FC00B15BE00898017879
:102DF000407841EA002005900898807806900146C6
:102E0000079A05980EF064FA4CE00898FEF780FCEB
:102E100000B147E008984089069010F027FD41E096
:102E20000898FEF775FC00B13CE008980079069020
:102E30000898C07805900146DDE9062010F004F8F6
:102E400030E00898FEF764FC00B12BE008980079A8
:102E500006900898C07805900146DDE906200EF03E
:102E600079FC1FE00898FEF753FC00B11AE00898BF
:102E7000C0780146069007980DF0E8FD12E008982A
:102E8000FEF746FC00B10DE008980079069008981E
:102E9000C07805900146DDE9062010F0F1FC01E064
:102EA000FFE700BF00BF00BFFFF76EBB2DE9F04199
:102EB00004460CB9BDE8F081D848007800B9F9E7BC
:102EC00060781B2871D2DFE800F0700E233F516359
:102ED0006B91B2BBC4D170E0E1FAFBF0EFEEEDEC28
:102EE00070707070EB002046FEF712FC00B192E1AA
:102EF00006F034FC054606F0EDFD064621786778BD
:102F000041EA07202B0CAAB2314607F0B6FB82E15A
:102F10002046FEF7FDFB00B17DE106F01FFC0646F2
:102F200016F026F86189884201D1658902E016F021
:102F300007F805462178677841EA0720330CB2B2DA
:102F4000294607F09AFB66E12046FEF7E1FB00B157
:102F500061E106F0C7FA05462178627841EA02206D
:102F6000A3890022294607F088FB54E12046FEF79A
:102F7000CFFB00B14FE12178657841EA0520A389B4
:102F8000A74909680A0CA649096807F076FB42E1DF
:102F90002046FEF7BDFB00B13DE10EF043FC3AE1F7
:102FA0002046FEF7B5FB08B135E133E12089102852
:102FB00000DB30E1608990B115F0DAFF6189884269
:102FC00006D116F093FE16F065FB14F041FF22E1E6
:102FD00015F0B6FF80B26189884200D01BE116F07F
:102FE00085FE16F057FB15F071F814E12046FEF748
:102FF0008FFB00B10FE1A07801280AD12278657813
:1030000042EA0520A3892189864A128807F035FB08
:103010000CE0A078022809D12278657842EA0520E0
:10302000A3892189804A128807F027FBF3E0204614
:10303000FEF76EFB00B1EEE0A07806F08BFEEAE052
:103040002046FEF765FB00B1E5E0A07806F002FD42
:10305000E1E02046FEF75CFB00B1DCE0227863781B
:1030600042EA0320A17806F049FAD4E02046FEF7B0
:103070004FFB00B1CFE02178627841EA0220A389BA
:103080000022012107F0F9FAC5E000BF2046FEF753
:103090003FFB00B1BFE060780D2809D0012008E0B7
:1030A000ACE09DE090E056E043E041E008E006E05F
:1030B0000020014604F1080005F022FCABE000BF4F
:1030C0002046FEF725FB00B1A5E060780F2801D06F
:1030D000012000E00020014604F1080004F040FF58
:1030E0002278637842EA03200F2B01D0012200E00E
:1030F0000022114604F062FA60780F2801D0012105
:1031000000E00021012088404849097808434749E8
:1031100008700846007800F00300032807D104F087
:103120002DFF4248007820F003004049087072E00B
:1031300000BF2046FEF7ECFA00B16CE0227863781D
:1031400042EA0320112B01D0012200E000221146A7
:1031500003F0A8FE5FE02046FEF7DAFA00B15AE07D
:10316000002533480068042804D20021FA2015F015
:1031700051FA50E0A2896189208905F053F998B984
:10318000A089012804DC022104F10C0005F0B8FB41
:10319000A089022801D1012000E000200146002082
:1031A00005F004FA012500E00025A08902280AD1D3
:1031B000A68946EA05232678677846EA07206289C9
:1031C000218907F05AFA26E02046FEF7A1FA00B15D
:1031D00021E02178627841EA022003F04FFE1AE0F4
:1031E0002046FEF795FA00B115E004F1080004F05E
:1031F000A3FE1048008808F0FBFF0CE02046FEF715
:1032000087FA00B107E06189A28941EA024009F02A
:1032100001F800E000BF00BF00BF4BE63100002016
:10322000F80000209C0500209E050020AC00002036
:10323000EC000020040500202DE9FC4104460CB9F7
:10324000BDE8FC81F748007818B960780C2800D0F8
:10325000F6E76078282871D2DFE800F0141A3542CA
:103260005471A0A1F4F2F1F0EFEEEDECEBEAE9E835
:10327000E7E6E5E4E3E2CAE1B7A2AD7070E070DF33
:10328000DE89DDDC2046FEF743FA00B147E346E382
:103290002046FEF73DFA00B141E3208970B116F0F7
:1032A00021FAE148007868B9E048008808F0A0FFFA
:1032B000DD480078401CDC49087003E016F0EAF9AC
:1032C00016F014FD2BE32046FEF722FA00B126E3A8
:1032D000208910B116F0C4FD01E016F007FD1EE3D1
:1032E0002046FEF715FA00B119E315F059FE054620
:1032F0002178627841EA0220A3890022294607F05A
:10330000BCF90CE32046FEF703FA00B107E320897D
:10331000C74908600020C74908700120C6490870E5
:10332000FF20C6490870C648008830B1C5480088EB
:1033300018B10021FB2015F06DF9F0E2EEE2204615
:10334000FEF7E6F900B1EAE2218909B1012100E0C6
:103350000021084606F0D6FB05462178627841EA4E
:103360000220A3890022294607F087F9D7E22046E8
:10337000FEF7CEF900B1D2E2012006F01BFC0546B3
:10338000002006F017FC06462178627841EA022008
:10339000A3892A46314607F070F9C0E2BFE2BEE2D7
:1033A0002046FEF7B5F900B1B9E2628911B2208971
:1033B00002F0F0FDB3E22046FEF7AAF900B1AEE25A
:1033C0006189208902F010FEA9E22046FEF7A0F9EB
:1033D00000B1A4E2208902F019FB05462278667844
:1033E00042EA0620A38921892A4607F046F996E297
:1033F0002046FEF78DF900B191E2208902F0ECFA47
:103400000DF0CCF9208920B1FEF7EAF908B102F0FD
:1034100029FA84E278E26EE264E25AE24DE2B1E037
:103420008FE083E06FE064E046E039E22DE2FEE108
:10343000F0E1CBE1BDE11FE1EEE0E0E0AFE026E04E
:1034400012E0FFE72046FEF763F900B167E220894A
:1034500002F0A4FA0DF0A2F9208920B1FEF7C0F91C
:1034600008B102F0FFF95AE22046FEF751F900B127
:1034700055E2FF2002F0BEFC05462178627841EA61
:103480000220A3890022294607F0F7F847E22046E8
:10349000FEF73EF900B142E220896A4601A902F036
:1034A000C1FE05B22178627841EA02202B46DDE9AF
:1034B000002107F0E2F832E22046FEF729F900B1D8
:1034C0002DE2608918B9208902F0F6FE10E06089CB
:1034D000012805D1A1892089002202F02BFE07E0F6
:1034E0006089022804D1A1892089012202F022FEEC
:1034F00015E22046FEF70CF900B110E2618920893F
:1035000002F0EAFF0BE22046FEF702F900B106E204
:10351000208902F0A1FE05462178627841EA022066
:10352000A3890022294607F0A8F8F8E12046FEF713
:10353000EFF800B1F3E161892089012202F05CFF1C
:10354000EDE12046FEF7E4F800B1E8E1608920B93A
:103550002089012102F0D4FE13E06089012809D1FD
:103560002089FF2802D102F0A7FD0AE0208902F09D
:1035700061FD06E06089022803D1A189208902F05B
:1035800081FFCCE12046FEF7C3F800B1C7E1227805
:10359000637842EA0320A17802F046FABFE12046B0
:1035A000FEF7B6F800B1BAE1208930B96089264942
:1035B0000860608900F0D0FE1DE02089012806D156
:1035C000608921498860608900F0DCFE13E0208971
:1035D000022810D160891C4948611C48007818B144
:1035E000608906F093FF06E019480078022802D1AE
:1035F000608907F045FF0120164908708FE12046D9
:10360000FEF786F800B18AE1208908B1012000E0C8
:1036100000200449087082E12046FEF779F8D8B10D
:103620007DE100003100002034010020040500206D
:103630007C00002080000020890000208A000020FB
:10364000E8040020E6040020642600203300002067
:10365000A20100203000002005F0EAFF0546267890
:10366000677846EA0720A3894FF6FF7606EA1542F7
:10367000A9B207F002F852E12046FEF749F800B17E
:103680004DE12078617840EA0120ADF80000A07893
:10369000ADF80600A07830B1012833D0022849D017
:1036A000032879D15AE09F48006885B240F27260E1
:1036B00085420CDB05EB850044F27401C1EB400050
:1036C000372190FBF1F080B2ADF8020002E000205B
:1036D000ADF802009448006885B240F272608542FD
:1036E0000CDB05EB850044F27401C1EB400037218F
:1036F00090FBF1F080B2ADF8040002E00020ADF8DC
:1037000004004AE089480068C0EBC00000EB4000BC
:103710006421B0FBF1F080B2ADF80200844800688B
:10372000C0EBC00000EB4000B0FBF1F080B2ADF8A0
:10373000040032E07F480068D721484340F2DC5162
:10374000B0FBF1F080B2ADF802007B4800684FF6A4
:10375000FF7101EA4000ADF804001EE07748006800
:1037600080B2ADF802007648006885B2C5F53E70BB
:1037700064214843192190FBF1F0C0F1FA0080B2B6
:10378000ADF80400BDF806006E49097840EA012052
:10379000ADF8060001E0FFE700BF00BFBDF806304E
:1037A000BDF80420BDF80210BDF8000006F065FF6A
:1037B000B5E02046FDF7ACFF00B1B0E0A07800F026
:1037C0000F006149087006F0B5FAA8E02046FDF741
:1037D0009FFF00B1A3E0002519E0002606EB450697
:1037E000012707EB450746EA07232678677846EA6C
:1037F0000720012606EB4506544F57F826200026E1
:1038000006EB450657F8261006F037FF6D1C282DED
:10381000E3DB84E02046FDF77BFF00B17FE0A0788A
:1038200008B1012000E000204949087077E02046F7
:10383000FDF76EFF00B172E0208940F20122811A8B
:10384000904214D006DC60B101280CD0A0F2011027
:1038500098B90AE0B1F5807F0BD0B1F5007F0CD1AB
:1038600009E001250BE0022509E0032507E0042516
:1038700005E0052503E0062501E0002500BF00BFA7
:103880006189284603F0BAFE49E02046FDF740FF73
:1038900000B144E0E178A0782B2215F05BFF3EE018
:1038A0002046FDF735FF00B139E0E07800F0030273
:1038B000FF21084604F00EFB31E02046FDF728FF0B
:1038C00000B12CE0A3896289E178A07804F06CF95A
:1038D00025E02046FDF71CFF00B120E0208908F01C
:1038E000BDFB1CE02046FDF713FF00B117E0208967
:1038F0001849088013E02046FDF70AFF00B10EE0EA
:103900002089154908800AE02046FDF701FF00B133
:1039100005E0E178A07801F0DBFF00E000BF00BF28
:1039200000BF8DE49C040020A0040020A40400201B
:10393000A8040020AC040020B0040020B40400203F
:10394000B8040020F40500209C0000206036002010
:1039500050000020520000205400002070B50446A2
:1039600004B970BD5D48007800B9FAE760781528A1
:1039700073D2DFE800F0AE0B14244D6CAE6D30AEA8
:10398000AEAEAEAEAEAE778390A33A002046FDF762
:10399000BFFE00B19EE02089514908609AE02046B0
:1039A000FDF7B6FE00B195E0E078082806DAE37886
:1039B0004C4DEA5C2179A07811F0D4FC8AE02046D5
:1039C000FDF7A6FE00B185E0E37862792179A07861
:1039D00011F026FD7EE02046FDF79AFE00B179E069
:1039E000E178A07811F060FD74E02046FDF790FECC
:1039F00000B16FE0A07808F0A1FF05B221786678E9
:103A000041EA0620A3892289294606F036FE61E0B4
:103A10002046FDF77DFE00B15CE0A07810B9E078AB
:103A20000DF08CF8A07801280BD111F05DFD054652
:103A30002178627841EA022000231A46294606F0DE
:103A40001CFEA078022801D105F0ECFF42E041E025
:103A50002046FDF75DFE08B13CE03AE020892249AE
:103A6000088037E02046FDF753FE00B132E0A2792E
:103A7000C2F30011A0780CF0B3FA2BE02046FDF75A
:103A800047FE00B126E0A389628911B2A078012225
:103A90000FF010FA1EE02046FDF73AFE00B119E0E3
:103AA000A07808F0D7FE05462178627841EA022026
:103AB000A3890022294606F0E0FD0BE02046FDF731
:103AC00027FE00B106E0628911B2A0780CF0BAFEC0
:103AD00000E000BF00BF00BF43E70000310000204E
:103AE0002C0000207D0100208E00002000B97047CE
:103AF0000249097801B9FAE700BFF8E73100002070
:103B00002DE9F04104460CB9BDE8F081FA4800788F
:103B100000B9F9E760780D286FD00ADC0D286DD266
:103B2000DFE800F06C2028B2D5F1EFEEEDECEBEA27
:103B3000E90014287BD008DCA0F10E000628EED2A4
:103B4000DFE800F0F8F7F6F5F4F3172870D004DC9E
:103B500015286ED0162851D152E118286AD0822833
:103B6000F9D108E02046FDF7D3FD00B192E206F05E
:103B700037FC8FE200BF2046FDF7CAFD00B189E2A5
:103B800015F024FAC7B26078C009DC490870DC4837
:103B90000068DC490968884203D3D9480068D949DC
:103BA0000860D748006820B1D5480068401ED44955
:103BB0000860012017F0C8FB38B9D348007840F4FA
:103BC0008071FE2014F026FD64E2002017F0BCFB9B
:103BD00028B9CD480178FE2014F01CFD5AE2CB48EC
:103BE0000068B0B1062F12D2DFE807F0030A0E0416
:103BF000090D00BFA578E6780AE0BFE149E200BF01
:103C00002579667904E000BFA579E67900E000BF78
:103C100031E0072F2DD2DFE807F0040E142C1A2014
:103C20002600A07800F00F05A078060922E0E6E063
:103C30001BE2A8E022E2E07800F00F05E078060938
:103C400018E0207900F00F052079060912E060796C
:103C500000F00F05607906090CE0A07900F00F056F
:103C6000A079060906E0E07900F00F05E079060981
:103C700000E000BF00BFF1B2E8B218F05DFD3146D0
:103C8000284606F02FFF05E22046FDF741FD00B172
:103C900000E2012017F058FB38B99B48007840F447
:103CA0008071FE2014F0B6FCF4E1002017F04CFB0C
:103CB00028B995480178FE2014F0ACFCEAE162894D
:103CC000A38942EA0341208903F02AF9E2E1204670
:103CD000FDF71EFD00B1DDE12278657842EA05209E
:103CE000A389227A02F00702894D55F8221000229A
:103CF00006F0C3FCCEE132E11AE1E9E0DFE0BCE02E
:103D00002CE018E0FFE72046FDF702FD00B1C1E11D
:103D100006F05CFB05462178627841EA0220A3891F
:103D20000022294606F0A9FCB4E12BE097E18BE1E3
:103D300064E026E06CE12046FDF7EAFC00B1A9E171
:103D4000208906F049FB05462178627841EA022085
:103D5000A3890022294606F090FC9BE12046FDF74E
:103D6000D7FC00B196E16089217A01F00701694A28
:103D700042F82100A189227A02F0070006F05EFBDA
:103D800088E100BF00BF2046FDF7C2FC00B181E121
:103D900015F01CF906460027042E2DD226B1012E5F
:103DA00004D0022E06D103E0278904E0678902E0EF
:103DB000A78900E021E000BF00251BE0A80047FA2A
:103DC00000F000F00F0005F00701524A42F8210010
:103DD00062780F2A01D1002206E06278152A02D10A
:103DE00045F2AA5200E00122114605F0070006F054
:103DF00025FB6D1C042DE1DB00BF4BE100BF00BFC4
:103E00002046FDF785FC00B144E115F0DFF80646D9
:103E10000027082E2FD2042E2DD304D0052E04D037
:103E2000062E06D103E0278904E0678902E0A7890E
:103E300000E021E000BF00251BE0A80047FA00F0E9
:103E400000F00F0005F00701324A42F821006278C5
:103E5000102A01D1002206E06278152A02D145F22B
:103E6000AA5200E00122114605F0070006F0E6FA2A
:103E70006D1C042DE1DB00BF0CE12046FDF748FC82
:103E800000B107E12089C8B9A08988B1A08942F2B0
:103E90001071884212DCA089322801DC012004E084
:103EA000A0891930322190FBF1F01B49086005E030
:103EB000207900EB8000400017490860EAE02046C6
:103EC000FDF726FC00B1E5E0208906F0E9FAE1E023
:103ED0002046FDF71DFC00B1DCE02089401C0F49A5
:103EE00008600A480068D8B10846006805281ED94D
:103EF000052008601BE00000310000208800002041
:103F00002001002024010020140500204C00002086
:103F1000980E0020B00B00207000002060000020F0
:103F20005E4800680A2802D90A205C490860B1E0AE
:103F30002046FDF7EDFB00B1ACE0208908B101207F
:103F400000E00020564908600846006818B10820C3
:103F50005449087002E00420524908709AE0204653
:103F6000FDF7D6FB00B195E02089012802D0208919
:103F7000022802D120894C4908808BE02046FDF7B9
:103F8000C7FB00B186E0002505F0D4FEA07800F064
:103F90000300464951F82000E17801F00F020121A9
:103FA0009140084008B1012000E000200546E0797A
:103FB000401008B1E07900E000203D490870084653
:103FC000007820B10DB9012000E000200546A3795A
:103FD000E178A0782A4603F049F8022035490870B4
:103FE000E07808280BDBA07800F00300482101EB03
:103FF0004000E178084408382F49087007E0A078AD
:1040000000F00301E07861F3DF002B49087041E024
:104010002046FDF77DFB00B13CE0E178A07802F09E
:1040200055FF0546A278E67842EA062122786678AE
:1040300042EA062062890AB1012200E0002213460A
:104040002A4606F01AFB25E02046FDF761FB00B189
:1040500020E02279E178A07806F032FA1AE02046D2
:10406000FDF756FB00B115E014E02046FDF750FBCC
:1040700000B10FE0A078114908700BE02046FDF771
:1040800047FB00B106E020890D490880608948801F
:1040900000E000BF00BF00BF36E500006000002068
:1040A0004C0000207D050020F4000020980E002028
:1040B0009E0000209D0000209F000020E4040020BE
:1040C000380000207FB567480068401C65490860DB
:1040D000C4E006F05FFA044604B9C0E020788DF829
:1040E0000000A0788DF80100A088ADF80800E088F5
:1040F000ADF80A002089ADF80C00BDF80800C0B288
:104100008DF80200BDF80800000A8DF80300BDF824
:104110000A00C0B28DF80400BDF80A00000A8DF84C
:104120000500BDF80C00C0B28DF80600BDF80C000B
:10413000000A8DF807004C48006810B120888038CC
:1041400020809DF8000000F07F00172871D2DFE882
:1041500000F00C1014181C20686C71757981818135
:10416000817D81818181818124006846FFF7BEFCC9
:1041700071E06846FFF760F86DE06846FFF7EEFB18
:1041800069E06846FDF786FF65E06846FEF7F8F9E6
:1041900061E06846FDF728FE5DE09DF80100C0F390
:1041A000021500269DF8000000F0800088BB2F4813
:1041B000007818B901202D4908701CE02C480078BF
:1041C000A8420DD12B480068401C2A4908602848A5
:1041D000007840EA05219A2014F01CFA01260AE032
:1041E00025480078A84206D02348007840EA0521F7
:1041F0009A2014F00FFA1E4805700078401C1E49E2
:10420000087008460078072801DD0020087006B114
:1042100021E0FFE79DF8010000F08F008DF801001C
:1042200000BF6846FFF76CFC15E06846FDF70EFC22
:1042300011E00FE06846FEF739FE0CE06846FDF736
:104240007FFD08E06846FDF7A1FD04E06846FDF744
:1042500003FB00E000BF00BFFCF78CFD39E700BFA7
:104260007FBD0000A40000202C0000208000002062
:1042700081000020840000208200002039B1084A1B
:104280001268012383401A43054B1A6006E0044A72
:104290001268012383409A43014B1A607047000063
:1042A000007400401FB50121480706F01FFF3C20A5
:1042B0000090002001904FF40070029002200390C3
:1042C0006946002000F00EF86946102000F00AF858
:1042D00001210020FFF7D2FF01211020FFF7CEFFC0
:1042E0001FBD000030B5002200230A4C226840F6B2
:1042F000FE748440A243D1E900452C438D682C43D1
:10430000CD6844EA050303FA00F42243014C22601D
:1043100030BD00000074004008B500220092054A3C
:10432000009200F10802009B1A440092009A11606A
:1043300008BD00000074004008B500220092054A44
:10434000009200F11402009B1A440092009A11603E
:1043500008BD00000074004070B50446204617F008
:1043600045FB0446E000C0EB003048F2E80190FB5A
:10437000F1F5A9B20020FFF7CFFF0121002000F0E6
:1043800017F870BD70B50446204617F02FFB0446A1
:10439000E000C0EB003048F2E80190FBF1F5A9B273
:1043A0000020FFF7C9FF0121102000F001F870BDC7
:1043B00010B541B1084A126804090123A3401A4309
:1043C000054B1A6007E0044A126804090123A34060
:1043D0009A43014B1A6010BD047400407047704747
:1043E00070477047704770477047704710B516F0B8
:1043F000F7FD10BD7047704710B516F02BFD10BDCE
:104400000246094B9A4201D2084801E0064810389A
:1044100001F000531BB1064B0B40C36002E0044B9C
:104420000B4083607047000010640240006002404F
:104430007D0F7D0F21B1026842F00102026003E0AE
:10444000026822F00102026070470000016821F05A
:10445000010101600021016041608160C160016172
:10446000212141614A49884204D13D21484A103AFC
:1044700091608CE046491831884205D14FF474614F
:10448000434A103A916082E041493031884205D177
:104490004FF474113E4A103A916078E03C4948313B
:1044A000884205D14FF07461394A103A91606EE04C
:1044B00037496031884204D13649354A103AD160D3
:1044C00065E033497831884204D13349304A103AA3
:1044D000D1605CE02E499031884204D12F492C4AAA
:1044E000103AD16053E02A49A831884205D14FF0F3
:1044F0003D51274A103AD16049E02949884204D108
:104500003D21274A083A116041E025491831884287
:1045100005D14FF47461224A083A116037E020490E
:104520003031884205D14FF474111D4A083A1160A8
:104530002DE01B494831884205D14FF07461184A7B
:10454000083A116023E016496031884204D11149CC
:10455000134A121F11601AE011497831884204D1C0
:104560000D490F4A121F116011E00D499031884228
:1045700004D10A490A4A121F116008E00849A8310B
:10458000884204D14FF03D51054A121F1160704717
:10459000106002403D000020400F002000003D2040
:1045A0001064024030B503460A46002000240B4D3B
:1045B000AB4201D20A4901E00849103902F0005526
:1045C0000DB14C6800E00C68064D2C4004EA020571
:1045D0000DB1012000E0002030BD00001064024059
:1045E000006002407D0F7D0F10B501F080034BB1DC
:1045F00022B1436943F08003436103E0436923F040
:104600008003436180290BD02AB1036801F01E04A6
:104610002343036004E0036801F01E04A343036026
:1046200010BD000010B500220268134B1A40CC6880
:104630000B6823434C6923438C692343CC69234390
:104640000C6A23434C6A23438C6A23434C6B2343F9
:104650008C6B23431A430260426922F00702D1E9BE
:104660000B3423431A4342610B6943604B688360F8
:104670008B68C36010BD00003F801CF0002101600A
:1046800041608160C160016141618161C16101621C
:1046900041628162C1620163416381637047704717
:1046A000F3B50646358801A804F050FF0746002FF1
:1046B00060D10021002415E004F10800BDF80420B9
:1046C000024102F0010028B145FA04F0012222EA79
:1046D000000003E045FA04F000F00100A0400843A8
:1046E00081B2641C082CE7DB00241BE004F1080005
:1046F000BDF80420024102F0010038B104F10800C5
:1047000045FA00F0012222EA000005E004F1080069
:1047100045FA00F000F0010004F10802904008435F
:1047200081B2641C082CE1DB0D46BDF80400C0F327
:104730000310C0F1100005FA00F081B2BDF80400CA
:10474000C0F3031005410D43002100240DE0A20039
:1047500045FA02F0BDF80420801A001B00F00F009B
:10476000A2009040084381B2641C042CEFDB31802E
:104770000020FCBD4FF0FF30FBE7FCB505460E46C0
:10478000002728680090A888ADF804008EB14FF685
:10479000FF7086420DD0002409E0694601EB440019
:1047A0003146FFF77DFF08B1012722E0641C032C8E
:1047B000F3DBBDF80400B0B1BDF804004FF6FF71A3
:1047C000884210D0BDF804100DF10200FFF768FF19
:1047D00008B102270DE0BDF804106846FFF760FF3E
:1047E00008B1032705E000982860BDF80400A88000
:1047F00000BF3846FCBD00002DE9F84381460C4659
:10480000208820F0020020802088C0F34310062872
:1048100073D2DFE800F0720330688FF6E08C07F0A7
:1048200081FD208B6082E08C012200210BF04AFB8D
:104830006088C0F3002010B1A08AC83006E0A08ACA
:10484000C0EB0010C000642190FBF1F00FFA80F87B
:1048500000200090E08C00231A4641460DF00EF82F
:10486000E08C4FF47A710EF059FF208820F4F0703C
:1048700040302080F5E0218B608A00F005F9064683
:10488000002E02DD208B60822CE0E08C08F03EF8E8
:1048900000B1E6E0608A20826088C0F3002008B1A1
:1048A000A08A06E0A08AC0EB0010C000642190FB43
:1048B000F1F00FFA80F8E08C012241460BF002FB88
:1048C00000200090E08C00231A4619460CF0D6FF19
:1048D000E08C4FF47A710EF021FF208820F4F07004
:1048E00060302080BDE0218B208A00F0CDF80646A4
:1048F000002E03DA208B20821BE0ADE0E08C08F074
:1049000005F800B1ADE0E08C012200210BF0DAFAED
:104910006088C0F3002038B900200090E08C0023AC
:104920001A4605210CF0AAFF208820F4F070803090
:10493000208096E0E08C07F0E9FF00B191E020884C
:1049400020F4F0702080E08C0EF0F0FB608A218A69
:10495000451A002D01DA05F58055218901FB05F086
:10496000C11700EB1151C1F30F31A1840095238AC7
:10497000628A49463CA019F015FD238A628A01210A
:10498000484600F099F80746E08AC8B1E08AB0F5D9
:10499000487F01D0E08A07E0A08A00EB001000EB1E
:1049A0008000642190FBF1F0B84209DD0DB16D4249
:1049B00001E04FF0FF352946484600F08FFC45E006
:1049C000A078C0F3401068B96088C0F3002008B137
:1049D000258A23E020894FF47041B1FBF0F0218A51
:1049E00045181BE06D10208A0544B4F92200002808
:1049F00008DDB4F9220000032189B0FBF1F0054481
:104A00000CE024E0B4F92200002801DB014600E0BC
:104A1000414209032289B1FBF2F16D1AC5F30B057E
:104A20006581208820F001002080608820F002004D
:104A3000801C60802946484600F050FC208820F405
:104A4000F070A03020804FF4C870E08309E0E08C63
:104A500000210BF0C5FA00BF208820F4F070208000
:104A600000BF00BFBDE8F8835B25645D2063775B12
:104A700025645D202D206363775B25645D203D20E8
:104A80005B25645D0D0A000010B502460B46991ABD
:104A900009B9002010BD081E01DB044600E04442B5
:104AA000B4F5006F06D9002902DA01F5805101E062
:104AB000A1F580510846EDE7F0B504460D4604EB3C
:104AC0000416DFF838C00CEB860637894FF48051A6
:104AD000012D02D1D61A314401E09E1A3144B1F5BC
:104AE000805F01D3A1F5805101FB07F64FEAE67C18
:104AF00006EB1C5C4FEA2C30F0BD0000CC3D0020E2
:104B000070B506460C466389228B01213046FFF7BB
:104B1000D3FF0546A078C0F3401030B9B4F8400088
:104B2000A84208DA20892D1A05E0B4F84000A8420E
:104B300001DA20892D1A284670BD2DE9F0478246FA
:104B40000F4690461C462078C0F3400010B9002064
:104B5000BDE8F087B4F80890618BB4F9060001F065
:104B60008BFB08B10020F3E7380390FBF9F660896E
:104B70000644C6F30B06002E01DA06F58056218B9B
:104B80003046FFF781FF0546281E01DB014600E0A5
:104B900041420D46A089F8B1A089A8421CDA208CB8
:104BA000401C2084208C404501DA0120D0E7608839
:104BB00020F01000103060802078C0F3C00028B1D1
:104BC00000220121504600F04FFC13E0AAB202215E
:104BD000504600F049FC0DE02088C00B38B1208819
:104BE00020F4F0402080208820F4004020802046DF
:104BF0000FF02AFB002020842088C00B18B92088E1
:104C000020F008002080208820F0020020802088EA
:104C100020F01000208000209AE7000003460621C3
:104C200006221248018812480288ABB1012B1BD121
:104C30003AB94EF6EE60814201D100207047012062
:104C4000FCE739B94EF6EE60824201D10120F5E76A
:104C50000020F3E7AB20F1E709B90020EEE70AB93D
:104C60000120EBE7AB20E9E70020E7E700C0000800
:104C70000000010810B50824012010490860022135
:104C8000182003F081FE0446082C01D0204610BDF8
:104C900002200A4908600021094803F013FF044676
:104CA000082C01D02046F2E70120044908600221C7
:104CB000202003F069FE04462046E8E7B008002003
:104CC00000C000082DE9F05F4FF0060B0626002516
:104CD000A846A9464FF0FF3A002705E0781D844911
:104CE00021F81700781C87B2642FF7DB8148B0F8F1
:104CF00000B081480688012080490860BBF10000AF
:104D000072D0A0F56E40EE3848B3A0F58850113847
:104D100000286AD116B34EF6EE60864217D1012004
:104D200008600221182003F02FFE0446082C02D050
:104D30002046BDE8F09F02207049086000216E48BF
:104D400003F0C0FE0446082C08D02046F1E7FFF728
:104D500091FF0446082C01D02046EAE7C2E0002E6D
:104D600044D1002526E06348C088614931F8151018
:104D7000884201D10FFA85FA554519D05C4931F8BE
:104D800015005F4900F060F98146B9F1010F0FD0BD
:104D900002205A490860564931F8150058490988D7
:104DA00000F08CF98046B8F1080F01D04046C0E70A
:104DB000681C85B2642DD6DB0220504908600021B2
:104DC0004C4803F07FFE0446082C01D02046B0E793
:104DD00001204A4908600221202003F0D5FD044645
:104DE000082C26D02046A4E724E073E04FF6FF709D
:104DF000864217D10120414908600221202003F09A
:104E0000C3FD0446082C01D0204692E702203B490E
:104E100008600021374803F055FE0446082C08D0EE
:104E2000204686E7FFF726FF0446082C01D02046DF
:104E30007FE757E036B9FFF71DFF0446082C48D03E
:104E4000204676E74FF6FF70864242D0002526E0E6
:104E50002948C088264931F81510884201D10FFA37
:104E600085FA554519D0224931F81500244900F03A
:104E7000EBF88146B9F1010F0FD002201F490860FD
:104E80001B4931F815001E49098800F017F98046C2
:104E9000B8F1080F01D040464BE7681C85B2642D7D
:104EA000D6DB0220154908600021134803F00AFEF2
:104EB0000446082C01D020463BE701200F4908603A
:104EC0000221182003F060FD0446082C01D0204682
:104ED0002FE707E0FFF7CEFE0446082C01D020465E
:104EE00027E700BF00BF002004490860082020E732
:104EF000B03C002000C0000800000108B0080020FD
:104F0000A80600202DE9F84F80468A460825374834
:104F100000904FF00009002400264FF0000B002005
:104F2000FFF77CFE8146B9F1010F03D130480090B4
:104F3000202709E0B9F1000F03D12E48009018276F
:104F400002E0AB20BDE8F88F02202B4908604EF646
:104F5000EE61009803F0B6FD0546082D01D0284605
:104F6000F0E75146404600F0A9F80646082E01D069
:104F70003046E7E700241CE0204830F814004045A4
:104F800015D01E4931F814001D4900F05DF8834624
:104F9000BBF1010F0BD0194931F8140018490988E9
:104FA00000F08CF80646082E01D03046CAE7601C97
:104FB00084B2642CE0DB01200F49086002213846EE
:104FC00003F0E2FC0546082D01D02846BAE702208E
:104FD000094908600021009803F074FD0546082D7A
:104FE00001D02846AEE72846ACE70000FF030108E1
:104FF00000C0000800000108B0080020B03C0020FC
:10500000A80600202DE9F04105460F461646A819CE
:10501000642802DDAF20BDE8F08100240DE007EB3D
:1050200044012A19074B33F8120000F00DF8082844
:1050300002D04FF0FF30EEE7641CB442EFDB0020FB
:10504000E9E70000B03C00202DE9F04706460F4696
:10505000002545F255584FF00109154CA246002095
:10506000FFF7DCFD0546AB2D01D1BDE8F0871DB98A
:1050700010490F4A521E06E0012D02D10C490E4A7A
:1050800001E0AB20F1E78A46541E0AE0B4F8008044
:10509000B04505D134F8020C38804FF0080904E01F
:1050A000241F0AF102008442F0D800BF4846DCE722
:1050B0000000010800C00008FFFF01082DE9F047CB
:1050C00006468846082700251D4CDFF87890012009
:1050D000FFF7A4FD0546AB2D01D1BDE8F0871DB952
:1050E0001949174A521E06E0012D02D11449174AE8
:1050F00001E0AB20F1E70C46A2F1010919E02068BC
:10510000401CA8B90220124908604146204603F01D
:10511000D9FC0746082F01D03846DEE702200C49AB
:1051200008603146A01C03F0CDFC07463846D4E7A2
:10513000241D4C45E3D30020054908608020CCE7BE
:1051400000000108FF07010800C00008FFFF010878
:10515000B00800202DE9F04105460F4616464FF0F5
:105160000008A819642804DD4FF0AF084046BDE8E8
:10517000F081012080F3108800BF03F0DBFC0024E5
:105180000DE037F814102A190A4B33F8120000F01A
:1051900013F8082802D04FF0FF3802E0641CB44234
:1051A000EFDB00BF03F066FC002080F3108800BF37
:1051B0004046DCE7B03C002070B505460E460024B2
:1051C00031462846FFF77AFF0446802C04D1314649
:1051D0002846FFF797FE0446204670BD0021144A7A
:1051E00011601521134A1160134A11600021134AFE
:1051F0001160134A1160134A1160002004E000217D
:10520000114A42F82010401C1428F8DB002004E06A
:1052100000210E4A42F82010401C0328F8DB002130
:105220000B4A11604FF6FF71084A91607047000009
:10523000C0000020B0000020B4000020B800002012
:10524000BC00002094000020780F0020C80F002030
:105250009800002010B500241D480068002836D0B2
:1052600000BF0120A0401A490968084038B3012056
:10527000A04018490968084000B121E0164850F8DC
:10528000240000B91CE0144850F82400401E1249C4
:1052900041F82400084650F8240080B90C2C03D2B1
:1052A000204613F007FB03E0A4F10C0015F0ECFB23
:1052B0000120A0400649096881430548016000BFFC
:1052C000601C044602490968C1400029C9D110BDCB
:1052D00098000020C0000020780F002070B5044620
:1052E0000D4600232246294641F2015005F0C5F93A
:1052F00070BD00002DE9F84307460C464FF0FF361D
:1053000000BFA07800F0010000B9A7E02088C0F33A
:10531000402010B9608E401C608604F11A036A4672
:10532000A11D384606F058F906460EB1012000E0EE
:105330000020A083002E40D1BDF800002083A06A89
:1053400008B10020A062608820F00800083060806A
:1053500016F0F2F8434941F82700A078C0F3800026
:1053600020B1208B40F6FF71081A20832088C0F3FB
:105370004020E0B9208E4FF6FF71884201D1208B8A
:105380002086608F218B884201DA208B6087A08F76
:10539000218B884201DD208BA087E08E38B1208FE1
:1053A000E18E884201DAE08E20870020E08694F8C2
:1053B0002600002106F050FF50E0A078C0F3C000A6
:1053C00020B116F0B9F8A062002505E04FF47A711B
:1053D000384600F091FA05462088C0F3402028B9ED
:1053E000A08E401CA086E08E401CE086608820F0E5
:1053F0000800608094F82600012106F02DFF41F29C
:105400008831384600F09EFA20B12088C0F3402051
:1054100000B923E0384606F0D3F847F2305188420D
:1054200000DD00BFCDB16420E08316F085F8A062F6
:10543000A078C0F3001078B9608820F01000103018
:105440006080618BB4F9060000F016FF804642468A
:105450000021384600F008F800E000BF00BF3046E9
:10546000BDE8F883EC3F00202DE9F04107460C46EB
:1054700016460025E2200A49086025460CB945EA8F
:105480000625022C03D1304665F31F30054604493A
:10549000096841EA0720294613F0BCF8BDE8F0810D
:1054A0008408002010B517F0EFFD10BD10B517F0FF
:1054B000EBFD10BD10B517F0E7FD10BD10B517F0EE
:1054C000E3FD10BD10B517F0DFFD10BD704710B53E
:1054D00017F0DAFD10BD10B5002400F005F8044601
:1054E0000CB1FCF7F7F810BD0020704701490860C7
:1054F00070470000143C01400EB50121880305F0FF
:1055000015FE0B21052006F0D3FA16F061FA70B9EA
:105510000821052006F0CCFA0C21042006F0C8FA78
:105520007F48007818B90721042006F0C1FA03214A
:10553000022006F0BDFA0221084606F0B9FA012160
:10554000062006F0B5FA0021062006F0B1FA4FF465
:105550000060009000208DF804000C208DF80500FC
:1055600001208DF80600684600F00CF94FF4006049
:1055700000F0D8F816F02CFAC8BB4FF480700090F9
:1055800000208DF804000C208DF8050001208DF816
:105590000600684600F0F6F84FF4807000F0C2F89C
:1055A0004FF48050009000208DF804000C208DF8FE
:1055B000050001208DF80600684600F0E3F84FF47E
:1055C000805000F0AFF85648007880B980200090F5
:1055D00000208DF804000C208DF8050001208DF8C6
:1055E0000600684600F0CEF8802000F09BF8082006
:1055F000009000208DF804000C208DF8050001209B
:105600008DF80600684600F0BDF8082000F08AF822
:105610000420009000208DF804000C208DF8050077
:1056200001208DF80600684600F0ACF8042000F078
:1056300079F80220009000208DF804000C208DF8ED
:10564000050001208DF80600684600F09BF8022056
:1056500000F068F80120009000208DF804000C2074
:105660008DF8050001208DF80600684600F08AF8E4
:10567000012000F057F806208DF8080000208DF872
:10568000090001208DF80A008DF80B0002A805F032
:10569000D9F907208DF8080000208DF809000120B5
:1056A0008DF80A008DF80B0002A805F0CBF9082050
:1056B0008DF8080000208DF8090001208DF80A00FF
:1056C0008DF80B0002A805F0BDF909208DF808003F
:1056D00000208DF8090001208DF80A008DF80B00DC
:1056E00002A805F0AFF917208DF8080000208DF80A
:1056F000090001208DF80A008DF80B0002A805F0C2
:10570000A1F928208DF8080000208DF8090001205B
:105710008DF80A008DF80B0002A805F093F90EBD74
:1057200032000020054909688143044A1160111DB7
:1057300009688143121D116070470000003C014060
:1057400010B504462046FFF7D1FE03480068204309
:105750000149086010BD0000003C014001460020E6
:105760000022074B1B6803EA0102054B14331B6838
:105770000B4013B10AB1012000E000207047000087
:10578000003C0140002123498279002A3AD00A4690
:10579000126803689A430B461A600A1D1268036870
:1057A0009A430B1D1A60027911440A6803681A4370
:1057B0000A60184A0832126803689A43154B083386
:1057C0001A601A1D126803689A43124B0C331A6050
:1057D0004279102A0ED11A1F126803681A430D4B22
:1057E00008331A601A1D126803681A43094B0C33F8
:1057F0001A600DE00749427911440A6803681A43A8
:105800000A6005E0027911440A6803689A430A6055
:1058100070470000003C01407047000070B504462E
:105820000E46304616F0E2F80646304617F0C2FA49
:105830000546B5F5757F02DD4FF4757502E0142D50
:1058400000DC142524B92946054811F0A3FF05E022
:10585000012C03D12946024811F09EFF70BD0000C3
:105860000008004010B5002400BF16480078082842
:1058700002DB0020134908701248007800EB00108A
:10588000114901EB8000807800F0010070B10D48F3
:1058900000780E49087001210A48007800F018F8D5
:1058A00008480078401C0749087010BD054800787A
:1058B000401C044908702046611CCCB2082800DB5B
:1058C000F3E7D2E793080020CC3D002089080020B0
:1058D00070B505460C460CB1012000E000200146E1
:1058E000284606F0D1F80CB106F056FB70BD10B595
:1058F00005F068FF10BD000070B505460E460F4864
:105900000078854201DB002070BD15F015FE0446CD
:105910000B4850F82500241A201E01DB014600E048
:1059200041420C46B4F1004F01D3C4F1FF34B6EB51
:10593000940F01D20120E7E70020E5E78808002066
:10594000EC3F00202DE9F04105460E461148007855
:10595000854202DB0020BDE8F08105EB05100E4911
:1059600001EB800715F0E8FD0446F86A241A201EB2
:1059700001DB014600E041420C46B4F1004F01D387
:10598000C4F1FF34B6EB940F01D20120E3E700200D
:10599000E1E7000088080020CC3D002010B501465A
:1059A00009B1012200E00022114600200EE000EBC8
:1059B0000012084B03EB8202528861F3000200EBF5
:1059C0000013044C04EB83035A80401C0828EEDBD0
:1059D00010BD0000CC3D002010B5014600200FE0B6
:1059E00041FA00F200EB0013074C04EB83035B88E1
:1059F00062F3000300EB001204EB82025380401CB0
:105A00000828EDDB10BD0000CC3D002010B501469C
:105A10000020082905DA01EB0113024C04EB830294
:105A2000908C10BDCC3D00202DE9F04781460E46FC
:105A30004FF00008FF2E16D1002411E004EB0410F3
:105A4000154901EB8005698BB5F9060000F014FCDF
:105A5000074604EB440007FA00F040EA0808641C1B
:105A6000082CEBDB0CE0082E07DA06EB06100A49DF
:105A700001EB8005B5F81A8002E00120BDE8F0874F
:105A80004FF6FF7000EA18431FFA88F23146484685
:105A900004F0F3FD0020F1E7CC3D00202DE9F041BA
:105AA000064646490E70082E05DD0820087031466E
:105AB00043A018F077FC002572E0062D03DBA81D3B
:105AC00000F0FF0801E005F0FF0808EBC80000EB5C
:105AD0004810414901EB80078820C05BC0F34310A8
