:020000040802F0
:10000000E84600209901020805A30208E19A0208C7
:10001000279E0208A10D020871700308000000006D
:1000200000000000000000000000000075B202089F
:10003000DF4202080000000089A90208555F03089A
:100040007B70030845A90208B95F030817AD0208D1
:100050004184020861AC0208715002088150020814
:100060008950020891500208995002081D40020868
:100070001F400208214002082340020825400208D0
:1000800027400208294002080D0B0208E50D02086E
:10009000D90D0208E10D0208E30D02089B50020889
:1000A000BB5F0308CD5F0308CB5F0308C35F030892
:1000B000D55F0308DD5F0308E55F0308F79A0208D0
:1000C000F59A0208FB9A0208F99A020895AD02080F
:1000D00097AD0208856A03088D6A03088F6A0308D2
:1000E0007950020815AD020889A50208F95F0308D6
:1000F0000560030803600308FB5F03082B40020848
:100100004B8502085DAD0208ED5F030899AD02085A
:10011000816A0308836A0308EF5F0308F15F03083D
:100120002D400208354002083740020839400208D5
:10013000B3010208B3010208B3010208B3010208C7
:10014000B3010208B3010208B3010208B3010208B7
:10015000B3010208B3010208B3010208B3010208A7
:10016000B3010208B3010208B3010208B301020897
:10017000B3010208B3010208B3010208B301020887
:10018000B3010208DFF80CD000F082FA0048004703
:1001900009CA0308E8460020064880470648004789
:1001A000FEE7FEE7FEE7FEE7FEE7FEE7FEE7FEE727
:1001B000FEE7FEE75D5F03088501020840EA0103F0
:1001C0009B0703D009E008C9121F08C0042AFAD20D
:1001D00003E011F8013B00F8013B521EF9D27047D1
:1001E000421C10F8011B0029FBD1801A7047C10F77
:1001F00080EAE0700844CA079623002100F0BDB9E8
:10020000EECCDDAA993C0000D2B201E000F8012B4F
:10021000491EFBD270470022F6E710B513460A4686
:1002200004461946FFF7F0FF204610BD30B50446DE
:100230000020034600E05B1C934203D2E05CCD5CEF
:10024000401BF8D030BD70B5064616F033FF046889
:1002500005460A220021304600F04EF92C6070BDA0
:10026000F0B480EA0102D40F4200B2EB410F02D297
:100270000246084611464A0042D0C30DDDB2C1F322
:10028000C752AD1A202D35DAC1F3160141F4000230
:1002900004B15242C5F1200602FA06F12A41104487
:1002A000B3EBD05F23D0C4B1012DA0EBC35009DC68
:1002B000F0BC4FF0004202EAC352DBB200F500008E
:1002C00000F05BB9400000F1807000EBC350A0F17A
:1002D000807040EAD170490009E0490841EAC071E4
:1002E000A0EBC35000F50000400800EBC350F0BC89
:1002F00000F03AB96142012202EB4101001BF6E72E
:10030000F0BC704781F00041AAE780F00040A7E709
:1003100080EA010210B502F00043400022D04A00FA
:100320001FD0010E01EB1261C0F35600C2F356025A
:1003300040F4000042F40002A0FB022000047F39D8
:10034000140400D0401C50EA124001D44000491E61
:10035000C2B20C0604EBD010401C4008802A02D028
:1003600003E0002010BD20F00100002900DA002089
:10037000184310BD2DE9F04D81EA030404F0004B51
:1003800021F0004514464FF0000A23F0004150EAE6
:10039000050220D054EA01021DD0C5F30A570246D7
:1003A000C5F31303C1F31300C1F30A5640F48015DB
:1003B00043F48013A7EB0608101BD64608F2FD385D
:1003C00073EB050002D308F1010801E092185B41CC
:1003D000B8F1000F03DA00200146BDE8F08D0020DF
:1003E0004FF48011064684460EE0171B73EB050799
:1003F00005D3121B63EB050306434CEA010C4908C5
:100400004FEA300092185B4150EA0107EDD152EA01
:10041000030012D082EA040083EA0501084305D0F4
:10042000101BAB4106D20122002306E000224FF050
:10043000004302E06FF0010253101AEB06004CEB90
:10044000085110EB0A0041EB0B01BDE8F04D00F044
:10045000C2B80EB5C10F80EAE0700844CA07002197
:1004600040F233438DE80E000A460B4600F0C2F816
:1004700003B000BD00F0004220F00040C10DC0F309
:10048000160040F400007F2901DA00207047962909
:1004900003DCC1F19601C84001E096398840002A8A
:1004A000F4D040427047C1F30A5210B5C1F31301B2
:1004B00040F2FF3341F480119A4201DA002010BD6E
:1004C00040F233439A42A2F2334203DC524200F03C
:1004D00003F810BD904010BD202A04DB203A21FA19
:1004E00002F00021704721FA02F3D040C2F120024D
:1004F00091400843194670472DE9F04791460F4651
:1005000080460446002614F8015B2DB100F0E2F8A5
:100510000068405DC007F6D12B2D02D02D2D18D0DC
:10052000641E4A463946204600F0D8F827B139689B
:10053000A14201D1C7F8008071054FF002040BD52C
:100540004042002803DD16F0B5FD0460A007BDE8B9
:10055000F08746F48066E4E70028F8DA16F0AAFD92
:1005600004606FF00040F2E70029A8BF7047401C0C
:10057000490008BF20F00100704710B4B0FA80FCB9
:1005800000FA0CF050EA010404BF10BC704749B1F6
:10059000CCF1200421FA04F411FA0CF118BF012166
:1005A00021430843A3EB0C01CB1D4FEA00614FEA46
:1005B000102042BF002010BC704700EBC350104415
:1005C0000029A4BF10BC7047401C490008BF20F0A0
:1005D000010010BC704710B5141E73F1000408DA56
:1005E000401C41F1000192185B411A4301D120F0F7
:1005F000010010BD2DE9F04D92469B4611B1B1FAB4
:1006000081F202E0B0FA80F22032904600F052F817
:1006100004460F4640EA0A0041EA0B0153465A4697
:10062000084313D0114653EA010019D0C8F1400223
:100630005046FFF751FF05460E4650465946424682
:1006400000F038F8084305D0012004E02046394680
:10065000BDE8F08D0020054346EAE0762C433743A1
:100660000A986305E40AA0EB08000022FD0A44EAA8
:1006700047540A3002D500200146E9E70105101968
:100680006941DDE9084500196941BDE8F04DA2E77F
:10069000064C074D06E0E06840F0010394E80700CF
:1006A00098471034AC42F6D3FFF770FDA4D403088A
:1006B000C4D40308202A04DB203A00FA02F1002007
:1006C00070479140C2F1200320FA03F31943904090
:1006D0007047000000487047C8D303082DE9F05F59
:1006E00082460078002715468B460AF10104B94678
:1006F000302801D09DB113E014F8010B01277828B0
:1007000003D0582801D045B10AE00DB1102D07D112
:100710000027102514F8010B02E0082500E00A2547
:100720000026B0460EE005FB080005FB06F1012798
:1007300001EB10461FFA80F8B6F5803F00D3B946AA
:1007400014F8010B294600F018F80028EBDABBF189
:10075000000F05D00FB1641E00E05446CBF80040F6
:10076000B9F1000F06D016F0A5FC02210160C81EE9
:10077000BDE8F09F48EA0640FAE73A2800D2303850
:1007800020F02002412A01D3A2F13700884201D390
:100790004FF0FF30704770B58C1810F8015B15F002
:1007A000070301D110F8013B2A1106D110F8012BE3
:1007B00003E010F8016B01F8016B5B1EF9D12B0708
:1007C00005D40023521E0DD401F8013BFAE710F8BE
:1007D000013BCB1A921C03E013F8015B01F8015BAB
:1007E000521EF9D5A142D8D3002070BD10B5002407
:1007F00014E00C4800EB0410037A601CC2B20948F4
:1008000000EB04100179084800F0ACF9074800EB50
:100810004400044901EB0411C860641C032CE8D3B4
:1008200010BD000060040020002101409004002061
:1008300010B596B0012188050AF0A8F8002404E05C
:100840000020394921F81400641C032CF8D33748E0
:1008500003F01CFC01A803F031FD4FF00070019083
:100860003348029030480390002004900320059004
:10087000002006904FF480600790400008908000B0
:10088000099040110A9040020B9000200C9001202A
:100890000D9000200E900F9001A9244803F0E2FC77
:1008A0000121224803F0E6FB012148020AF0AEF8DC
:1008B00010A800F0B8F90020109001208DF8440035
:1008C0008DF84500002012901390149003208DF8AD
:1008D000540010A916484C3800F01AF9FFF786FFAB
:1008E000012113484C3800F076F8012110484C38AB
:1008F00000F066F801210E484C3800F03DF8012266
:1009000010210A4803F090FC3B208DF800000320E2
:100910008DF8010001208DF802008DF80300684673
:1009200009F000FD16B010BD90040020586402408C
:100930004C21014010B5002414E00C4800EB0410D9
:10094000037A601CC2B2094800EB04100179084820
:1009500000F008F9074800EB4400044901EB0411DA
:10096000C860641C062CE8D310BD00000004002001
:10097000002001407029002021B1826842F001026C
:10098000826003E0826822F001028260704700000A
:100990000021084A1168084A1140D0E900231A438F
:1009A00083681A43C3681A431143044AC2F8041304
:1009B0007047000004230140E030FCFF00200140AC
:1009C00021B1826842F48072826003E0826822F47E
:1009D00080728260704721B1826842F40072826046
:1009E00003E0826822F400728260704710B59AB00A
:1009F0000121880509F0CAFF002404E000204049D5
:100A000021F81400641C302CF8D33E4803F03EFB60
:100A100005A803F053FC002005903B480690384899
:100A20000790002008903020099000200A904FF491
:100A300080600B9040000C9080000D9040110E9053
:100A400040020F9000201090012011900020129081
:100A5000139005A92B4803F005FC0121294803F058
:100A600009FB0121080209F0D1FF0020019002904A
:100A70000390049001A8FFF78BFF14A800F0D3F8AF
:100A80000020149001208DF854008DF855000020AE
:100A900016901790189006208DF8640014A91A4833
:100AA0004C3800F035F8FFF745FF012000F0C6F89C
:100AB000012000F0D9F8012113484C38FFF78BFFD3
:100AC000012111484C38FFF77BFF01210E484C38BB
:100AD000FFF752FF012210210A4803F0A5FB38203E
:100AE0008DF8000003208DF8010001208DF8020030
:100AF0008DF80300684609F015FC1AB010BD00001F
:100B000010290020106402404C2001407047000072
:100B100030B50246002000235068104C20400D796B
:100B20000C6844EA05242043506090680C4C204037
:100B3000D1E903542C438D682C434D7944EA450494
:100B400020439060D06A20F470000C7D641EE4B2F3
:100B5000234340EA0350D06230BD0000FFFEFFFC9B
:100B6000FDF7FFC0F0B504460D4600200021092D19
:100B700011DDE068A5F10A0606EB4607072606FA2E
:100B800007F18843A5F10A0606EB460603FA06F1CB
:100B90000843E0600CE0206905EB4507072606FAEC
:100BA00007F1884305EB450603FA06F10843206187
:100BB000072A0FDA606B561E06EB86071F2606FA19
:100BC00007F18843561E06EB860605FA06F1084330
:100BD000606322E00D2A0FDA206BD61F06EB860732
:100BE0001F2606FA07F18843D61F06EB860605FA8C
:100BF00006F10843206310E0E06AA2F10D0606EB5F
:100C000086071F2606FA07F18843A2F10D0606EBB8
:100C1000860605FA06F10843E062F0BD816841F0FE
:100C200080418160704700210160017141718160E4
:100C3000C1600161012101757047000038B10849A8
:100C4000096841F40001074AC2F8041306E00449A8
:100C5000096821F40001034AC2F804137047000038
:100C6000042301400020014038B10849096841F4DB
:100C70008001074AC2F8041306E00449096821F418
:100C80008001034AC2F804137047000004230140A6
:100C90000020014010B50348FFF7C0FF0248FFF7EE
:100CA000BDFF10BD00210140002001404FF6FF7143
:100CB0000F4A116000210F4A1160002012E000214C
:100CC0000D4A42F820100D4A42F8201001210C4A2A
:100CD00042F8201000210B4A42F820100A4A42F83C
:100CE0002010401C0228EAD30021084A11607047F6
:100CF000280000202C000020C4000020CC00002090
:100D0000D4000020E4000020DC000020F0000020DF
:100D100000B50648006840B105480168034800680E
:100D200016F032FA00200149086000BD0C000020D6
:100D30001000002010B51348006800B110BD124823
:100D4000006800B1FAE71148007800B9F6E71049E9
:100D50000D4816F07BFA04462CB10D4801680A488C
:100D6000006809F00DF90AF0A7FA044644B1002121
:100D7000204616F025FA18B90021204616F090FA00
:100D800000BFDBE7180000200C00002078050020E1
:100D90001000002001200149087070473F000060EA
:100DA000042016F0E9F900BFFEE7000010B5044684
:100DB0000021074800F0E0F908B9002010BD054AFD
:100DC0000021034800F0E7F902480B30F6E7000085
:100DD00000640040B83A002010B51AF0A1FE10BD22
:100DE000704770477047000000B589B00121480680
:100DF00009F0ECFD3F4800F081F805A800F01BFA6F
:100E000000208DF81A008DF81B008DF81C008DF85D
:100E10001D008DF81E0001208DF81F0000208DF8A8
:100E2000170009208DF8180003208DF81900022002
:100E3000ADF8140005A92F4800F014F900208DF832
:100E40000E0001208DF80F008DF81000002017F023
:100E50007FFB4FF6FF7101EA4010ADF8040000205F
:100E6000ADF806000846ADF80800ADF80A0000200D
:100E7000ADF80C0001208DF8110001A800F05AF81F
:100E800001208DF80E008DF80F008DF8100017F07E
:100E90005FFB4FF6FF7101EA4010ADF8040000203F
:100EA000ADF806000846ADF80800ADF80A000020CD
:100EB000ADF80C0001208DF8110001A800F03AF8FF
:100EC000012202210B4800F0C4F814208DF8200004
:100ED00001208DF8210000208DF8220001208DF8DE
:100EE000230008A809F01EFA00200349086009B091
:100EF00000BD0000006400406806002010B50446F4
:100F00000B48844209D10121480609F06FFD0021F8
:100F10004FF0007009F06AFD08E00121880609F031
:100F200065FD00214FF0806009F060FD10BD0000FC
:100F30000064004010B50021837A012202FA03F117
:100F40003D4A126842F001023B4B1A603A4A1C3299
:100F500012688A43384B1C331A60027BCAB9364A7E
:100F60000C3212688A43344B0C331A604288C388AF
:100F700042EA0343304A4032847A42F834300288ED
:100F8000838842EA03432C4A4032847A02EBC4024B
:100F90005360027B012A19D1274A0C3212680A4396
:100FA000254B0C331A604288038842EA0343224AE5
:100FB0004032847A42F83430C288838842EA03435C
:100FC0001D4A4032847A02EBC4025360C27A3AB9B5
:100FD000194A121D12688A43174B1B1D1A6006E03E
:100FE000154A121D12680A43134B1B1D1A60028911
:100FF00032B9114A143212688A430F4B14331A6003
:101000000289012A06D10C4A143212680A430A4B9B
:1010100014331A60427B012A06D1074A1C32126837
:101020000A43054B1C331A60034A126822F001027E
:10103000014B1A6010BD0000006600400146002010
:101040008A69C2F307407047014600208A69100E82
:1010500070471AB143690B43436102E043698B4314
:101060004361704730B5024600200023146824F025
:1010700002041460146844F00104146000E05B1C76
:10108000546804F001041CB94FF6FF74A342F6D172
:10109000546804F001040CB900206CE08C79012C38
:1010A00004D1146844F08004146003E0146824F050
:1010B00080041460CC79012C04D1146844F04004FD
:1010C000146003E0146824F0400414600C7A012CCE
:1010D00004D1146844F02004146003E0146824F080
:1010E000200414604C7A012C04D1146844F01004DC
:1010F000146003E0146824F0100414608C7A012C4E
:1011000004D1146844F00804146003E0146824F067
:1011100008041460CC7A012C04D1146844F004044F
:10112000146003E0146824F0040414608C78A407AD
:10113000CD7844EA05640D7944EA05444D7944EAE2
:1011400005540D886D1E2C43D461146824F00104ED
:101150001460002300E05B1C546804F001041CB11F
:101160004FF6FF74A342F6D1546804F001040CB1A9
:10117000002000E0012030BD0246002019B9D368EC
:1011800003F0030006E0012903D1136903F0030013
:1011900000E00020704710B500F5D87303EB011391
:1011A0001B6803F004031372137A53B900F5D87364
:1011B00003EB01131B6840F2FF7404EA53531360FE
:1011C00009E000F5D87303EB01131B686FF060446E
:1011D00004EAD303536000F5D87303EB01131B68D3
:1011E00003F00203537200F5D87303EB01135B683D
:1011F00003F00F03937200F5D87303EB01135B68E0
:101200001B0AD37400F5D87303EB01139B68C2F873
:101210000B3000F5D87303EB0113DC680F239C50EF
:1012200021B9C36843F02003C36003E0036943F0BE
:101230002003036110BD00218171C17101724172EF
:101240008172C1728170C1700321017102214171EB
:1012500001210180704710B502460020936803F019
:101260008063B3F1806F00D110E0936803F00063F6
:10127000B3F1006F01D1012008E0936803F08053BF
:10128000B3F1805F01D1022000E00420042874D073
:1012900002F5C07303EB00131B6803F0010402F5B1
:1012A000C07303EB00131C600B7A7BB94B7A0C887C
:1012B00043EA445302F5C07404EB0014246823434A
:1012C00002F5C07404EB0014236010E00B7A4C6844
:1012D00043EAC4034C7A234302F5C07404EB0014C0
:1012E0002468234302F5C07404EB001423608B7A56
:1012F00003F00F038B7202F5C07303EB00135B68FE
:1013000023F00F0402F5C07303EB00135C6002F5D9
:10131000C07303EB00135B688C7A234302F5C0743F
:1013200004EB001463608B7B1C064B7B44EA034494
:101330000B7B44EA0323CC7A234302F5C07404EB0D
:101340000014A3608B7C1C064B7C44EA03440B7C9A
:1013500044EA0323CC7B234302F5C07404EB00145E
:10136000E36002F5C07303EB00131B6843F0010454
:1013700002F5C07303EB00131C6010BDF0B504460A
:1013800098B213E014F8016B80EA062000250BE008
:1013900000F400471FB182EA4007B8B203E04FF6FD
:1013A000FF7707EA40006D1C082DF1DB0F1EA1F14D
:1013B0000101E7D1F0BD00000A48006880B10A4889
:1013C0000068401C0849086008460068054909682B
:1013D000884205D3012005490860002002490860C1
:1013E00070470000F0040020F4040020F8040020FE
:1013F00010B50B48007800B910BD0A4800684FF2DC
:10140000FF31084050B10848007820B10548016814
:10141000FD2015F045FF00200349087000BFEBE7F1
:1014200040050020D00500204205002070B504468C
:10143000207800F0800050B12578667845EA0620D3
:10144000A3896289218908F08AFD012070BD0020EE
:10145000FCE7000010B50A48006838B116F0E6FB5A
:1014600060B10021B82015F01BFF07E016F0DEFB8D
:10147000032803D00021B92015F012FF10BD000091
:101480007C00002010B518F041FE50B10C480068F7
:1014900044F62061884204D209480068401C08498B
:1014A000086018F03FFE50B10648006844F620611D
:1014B000884204D203480068401C0249086010BDFD
:1014C000180100201C01002010B504460C480068DB
:1014D000A0B10C48006888B10020094908600A489A
:1014E0000068030C0848006882B20021204608F01A
:1014F00036FD05480068401C0349086010BD000027
:10150000F8040020F0040020FC04002010B502467E
:10151000074B1B689343064C23600846037803F08F
:1015200001031BB1038823F00103038010BD0000F9
:10153000D00500202DE9F04104460CB9BDE8F0814A
:101540006078102877D2DFE800F0E008232CE0E094
:1015500040CACBCCCDD0E0E0E0D32046FFF766FF19
:1015600000B1D3E0A078482811D1E07851280ED1FD
:10157000207954280BD16079452808D1A0795328C7
:1015800005D1E079542802D1012062490870BDE0FC
:101590002046FFF74BFF00B1B8E000205D4908701E
:1015A000B4E02046FFF742FF00B1AFE059480078B1
:1015B00050B163891AB2E3780BB1012300E0002334
:1015C0001946A07810F028FEA0E02046FFF72EFF75
:1015D00000B19BE0208909287ED2DFE800F00512E7
:1015E0001F2D52565A5E66002278657842EA052021
:1015F000494A126813142189474A126808F0AFFC5F
:101600006BE02278657842EA0520444A1268131498
:101610002189424A126808F0A2FC5EE022786578CF
:1016200042EA05203E4A1268131421893C4A126896
:1016300008F095FC51E068E02178627841EA0220E8
:10164000354909680B1434490A68002108F087FC01
:101650002178627841EA0220304909680B142F4949
:101660000A68012108F07BFC2178627841EA0220B7
:101670002B4909680B142A490A68022108F06FFCFB
:101680002BE000202449086027E00020234908605F
:1016900023E00020224908601FE000201E49086066
:1016A0001E4908601E49086017E01D4800681D4972
:1016B0000968451A6089A84207D0628919480368F9
:1016C00029464FF6F27008F04AFC002014490860E1
:1016D0001449086001E0FFE700BF00BF16E015E015
:1016E00014E013E009F0D4FF10E009F0A9FF0DE0C9
:1016F0004FF6AA752E462378677843EA0720320C06
:101700003146002308F02BFC00E000BF00BF00BF03
:1017100014E70000A00000206806002070060020EA
:10172000740600208400002070B5044604B970BD22
:10173000AD48007800B9FAE76078162870D2DFE883
:1017400000F06F0B34616A7490A0ABB4B5BFCAD916
:10175000FAF96FF86F6F6F842046FFF767FE00B1EC
:101760003EE1A2480078B8B1012018F00BFC38B96E
:1017700003209F49086000220121084616F014FE4C
:10178000002018F0FFFB38B90320994908600022B7
:101790000121104616F008FE9648007820B115F099
:1017A00073FE0020934908701AE12046FFF73EFEC1
:1017B00000B115E1208920B101280FD002281ED1E7
:1017C0000FE007F019FB05462178627841EA022014
:1017D000A3890022294608F0C2FB11E0FFF73AFE78
:1017E0000EE08548006838B18348006808F0B0FB17
:1017F00000208149086001E004F0C6FA00E000BF63
:1018000000BFEDE02046FFF711FE00B1E8E02089BF
:101810007A490860E4E02046FFF708FE08B1DFE0FF
:10182000DDE0208908F0B2FEDAE02046FFF7FEFD99
:1018300000B1D5E0E278012A01DB012300E00023BA
:101840001946A0781BF00EFCCAE02046FFF7EEFD1B
:1018500000B1C5E02178627841EA02201BF044FC27
:10186000BEE02046FFF7E2FD00B1B9E0A07818B96C
:10187000E07806F06FFA03E06189E07806F0FCF9A1
:1018800000BF2046FFF7D2FD00B1A9E0E178A078C3
:10189000012206F087FAA3E02046FFF7C7FD00B15A
:1018A0009EE0A07809F0BEFE9AE099E02046FFF79E
:1018B000BDFD00B194E06189208915F011FC8FE035
:1018C0002046FFF7B3FD00B18AE02279E178A078E5
:1018D00006F068FA84E02046FFF7A8FD00B17FE03B
:1018E0002178627841EA0220A3890022012108F0D0
:1018F00036FB75E02046FFF799FD00B170E02089C6
:10190000642802DD20893E4908606089642802DD80
:1019100060893C490860A089322811DDA0893949D5
:101920000968884208D33748006832383649086069
:1019300011E047E021E00FE0A089334908600AE0A8
:10194000314800682F490968884204D32D4800684F
:1019500032382D49086043E02046FFF767FD00B1AB
:101960003EE0A07818B900202849087004E0A0786B
:10197000012801D12549087032E02046FFF756FDC5
:1019800000B12DE0E07810B1012818D10BE0A0786B
:1019900018B900201E49087004E0A078012801D180
:1019A0001B4908700CE0A07818B90020194908708C
:1019B00004E0A078012801D11649087000E000BFBA
:1019C00000BF0DE02046FFF731FD00B108E0A07830
:1019D00008B1012000E000200F49087000E000BFBE
:1019E00000BF00BFA3E60000310000207805002002
:1019F0007C050020240000200C000020280000208E
:101A0000EC050020F4050020F80500204C01002022
:101A10004D0100204E0100206800002070B50446F2
:101A200004B970BD2046FFF701FD00B1F9E716F0DB
:101A300013F9054635B1012009490870A800094984
:101A400008600AE016F008F9217841EA0026A38927
:101A500000221146304608F082FA00BFE1E700009C
:101A6000440000204800002010B5044604B910BD11
:101A70001248007800B9FAE76078012802D00228FD
:101A800018D10BE02046FFF7D1FC00B113E00C4861
:101A9000018804F1080005F0F3F80CE02046FFF798
:101AA000C5FC00B107E00648018804F1080005F014
:101AB000DDFF00E000BF00BF00BFD8E7310000201D
:101AC0005200002070B5044604B970BD9C480078EF
:101AD00000B9FAE76078082870D2DFE800F06F04F8
:101AE000265077A1DFFD2046FFF7A0FC00B124E1DE
:101AF000012018F047FA38B99248007840F4807114
:101B0000FE2015F0CDFB18E1002018F03BFA28B9B3
:101B10008C480178FE2015F0C3FB0EE1A389628991
:101B2000E178A07804F010FE07E12046FFF77EFC84
:101B300000B102E100250026A07800F0010018B1F4
:101B400081488068C0B20543A07800F0020020B14F
:101B50007D480068C0B245EA0025A07800F0040086
:101B600018B179484068C0B206432178627841EAEA
:101B70000220A3893246294608F0F1F9DDE020462B
:101B8000FFF754FC00B1D8E0A07870B1E07810B154
:101B9000012808D103E060896C49086004E060898D
:101BA0006B49086000E000BF0FE0E07810B1012849
:101BB00009D104E060896749086005E0BCE06089FC
:101BC0006549086000E000BF00BFB6E02046FFF7AF
:101BD0002DFC00B1B1E00020A17821B1012906D08F
:101BE000022909D105E0E17801F10C0005E0E07877
:101BF00003E0E178881D00E000BF00BF618939B1D2
:101C000001218140554A12681143544A116006E08F
:101C100001218140514A12688A4350490A608CE090
:101C20002046FFF703FC00B187E000254C48007810
:101C300010B1A07800B980E0A078022800DD7CE037
:101C400007F034FDE079401008B1E07900E00020B1
:101C500044490870A07810B1A078401E00E002202E
:101C6000394951F82000E17801F007020121914043
:101C7000084008B9012000E000200546E178A0787E
:101C80002A4604F07FFD022037490870E178A078E9
:101C900001EBC0002030354908704EE02046FFF7C8
:101CA000C5FB00B149E06289E178A07804F014FD39
:101CB0000546A278E67842EA06212278667842EA6A
:101CC0000620628912B1012201E005E000221346DC
:101CD0002A4608F044F930E02046FFF7A7FB00B1A0
:101CE0002BE000251E48007810B1A07800B924E050
:101CF000A078022800DD20E007F0D8FCE079401051
:101D000008B1E07900E0002016490870608908B148
:101D1000012000E000200546E178A0782A4604F082
:101D200031FD012010490870E178A07801EBC00076
:101D300020300E49087000E000BF00BF00BFC4E6BD
:101D400031000020100500208C0F0020B80000207A
:101D5000BC000020B0000020B4000020C000002023
:101D6000320000209E0000209D0000209F000020E7
:101D70007CB5044604B97CBDF848007800B9FAE7A0
:101D8000607821287CD2DFE800F07B1155B0F2F0BA
:101D9000EFEEEDEC7B7B7B7B7BEB7B7B7B7BEAE97C
:101DA0007B7BE8E77BE6E5E4E3E2E1002046FFF742
:101DB0003DFB00B144E2012018F0E4F838B9E848EE
:101DC000007840F48071FE2015F06AFA38E220892C
:101DD000022811D003DC38B1012828D108E00328FB
:101DE0000ED0FF2823D11BE0A07909F02BFE1FE0C5
:101DF000A0790DF09DFE1BE0A0790DF0C7FE17E065
:101E0000608907F077FA00B112E0608910F06EF88F
:101E10000546A079C0F3001128460DF019FB07E034
:101E2000A279C2F3001160890DF012FB00E000BF3F
:101E300000BF05E22046FFF7F9FA00B100E2608931
:101E400007F058FA00B1FBE1A07805284AD2DFE894
:101E500000F003040527350000BF00BFE07880B123
:101E60006289A078012107F0E9F9054621786278B6
:101E700041EA0220A3890022294608F070F80EE00A
:101E8000DDE1A078012107F035F905462178627877
:101E900041EA0220A3890022294608F060F822E0E6
:101EA00060890AF039F805462178627841EA022013
:101EB000A3890022294608F052F814E0E07878B1AE
:101EC0006289A078012107F0B9F905462178627886
:101ED00041EA0220A3890022294608F040F800E0E8
:101EE00001E000E000BF00BFAAE12046FFF79EFA34
:101EF00000B1A5E1A07807F0FDF900B1A0E1012053
:101F000018F040F838B99648007840F48071FE2007
:101F100015F0C6F994E1E07840B1A178012088403D
:101F20009049096808438F49086007E0A1780120BB
:101F300088408C49096881438A480160A389628985
:101F400011B2A078012210F03BF979E149E12CE1CE
:101F50002AE11DE112E107E15AE14BE1F4E0E1E0A1
:101F6000D3E0D1E0AAE09FE02DE01BE0FFE72046B0
:101F7000FFF75CFA00B163E1E07807F0BBF900B16C
:101F80005EE1E0780FF0B2FF0546A07828B16089E5
:101F900001B228460DF082FE03E0618928460DF06B
:101FA00065FE4DE12046FFF741FA00B148E1208986
:101FB00020B9608901210DF0CFFE03E06089012185
:101FC0000DF006FF3CE12046FFF730FA00B137E1A3
:101FD0002089072850D007DC072862D2DFE800F00C
:101FE000172129333D42470040F20112811A9042E5
:101FF0001BD007DC08284AD009284DD0B0F5807FD7
:102000004FD109E0012919D002294AD120E0608985
:1020100000210EF059F945E0608901210EF054F9D4
:1020200040E060890EF05CF93CE060890EF002FA55
:1020300038E0608900210DF003FE33E06089012162
:102040000DF0FEFD2EE0608900210DF01FFF29E05C
:10205000608901210DF01AFF24E06189012011F04F
:102060007BF91FE0618901200EF03CFA1AE06189DA
:1020700001200DF045FF15E0608908B1012000E066
:1020800000200246002101200EF068F80AE0618974
:1020900001200DF0FFFF05E0608901210DF048FFF0
:1020A00000E000BF00BFCBE02046FFF7BFF900B162
:1020B000C6E0618920890DF035FEC1E02046FFF7BA
:1020C000B5F900B1BCE0012017F05CFF38B9244835
:1020D000007840F48071FE2015F0E2F8B0E0E0787E
:1020E00000F07F000090E57805F0800515B14FF411
:1020F000007500E0002545F00103A289658929B239
:10210000A07810F072F89BE09AE02046FFF78EF975
:1021100000B195E0A07820B96289E17801200DF046
:102120008FFE8DE02046FFF781F900B188E0E0786E
:1021300000F00302607908B1207900E0FF20014639
:10214000012005F0B5FB7BE02046FFF76FF900B1F9
:1021500076E0208904F044FF72E0000031000020A6
:1021600010050020AC0100202046FFF75FF900B108
:1021700066E06189012008F09DF861E02046FFF7E4
:1021800055F900B15CE0A178012008F03DF857E076
:102190002046FFF74BF900B152E0628911B2228963
:1021A00010B208F055F84BE000BF2046FFF73EF9AB
:1021B00000B145E061781F2901D1012100E0002133
:1021C0000846694607F0DCFF2578667845EA062070
:1021D000BDF80430BDF80220BDF8001007F0BFFEC6
:1021E0002EE02046FFF722F900B129E020890DF00A
:1021F000FBFC25E02046FFF719F900B120E0A0899B
:1022000003B2608902B2A178012010F0EDF817E066
:102210002046FFF70BF900B112E0A1786B4601AA46
:10222000012010F0B7F82278637842EA0320218970
:10223000BDF90030BDF9042007F091FE00E000BFB9
:1022400000BF00BF97E5000001B588B0089808B945
:1022500009B000BDF848007800B9F9E7089880781F
:10226000062808DC08988078052804D0089880782B
:10227000F249085C07900898407842287DD2DFE850
:1022800010F07C0042009900CA00170136014F018E
:1022900064017901B901C801E1017C007C007C0086
:1022A0005C0290027C007C007C0075027C007C005B
:1022B000A202B602CD02ED02FA02070325033303A0
:1022C00014034003510367036A036D037003710332
:1022D0007403F4037C007C007C007C007C007C00A8
:1022E00001041404430028047D00330444047C00EA
:1022F0007C007C007C007C007C007C007C007C00FE
:102300007C007C00440000BF00BF0898FFF78EF8F7
:1023100000B111E2012017F035FE48B9C848007835
:1023200040F4807001460690FE2014F0B9FFFEE3F1
:102330000898C0780690079907F000F800B1F6E316
:1023400008984078412801D1012100E000210022B5
:102350000898C079CDE9012100900898807906900D
:102360000898408900B205900898C0780490DDE98B
:10237000063205990EF054FAD9E3D7E30898FFF72F
:1023800055F800B1D3E3002101220898C079CDE9C6
:10239000012100900898807906900898408900B241
:1023A00005900898C0780490DDE9063205990EF092
:1023B00037FABCE30898FFF739F800B1B7E301201A
:1023C00017F0E0FD48B99E48007840F4807001465F
:1023D0000690FE2014F064FFA9E30898408990B1AC
:1023E0000898C0780690079906F0A8FF00B19EE310
:1023F0000898807906900898C0780590DDE9062154
:102400000EF0C7F906E00898807901460690079813
:102410000EF0D0F98BE30898FFF708F800B186E3D7
:10242000002006900898C07805282FD2DFE800F039
:102430000304051C1D0000BF00BF0898407958B177
:102440000898007905900898C0780490059A079933
:1024500006F0F4FE069006E00898C078059007990B
:1024600006F048FE069012E000BF0898407958B187
:102470000898007905900898C0780490059A079903
:1024800006F0DCFE069000E001E000E000BF00BFC7
:1024900008980178407841EA0020049008988089E3
:1024A0000346002205900699049807F058FD3EE384
:1024B0000898FEF7BBFF00B139E3FF2006900898AB
:1024C000C07801460590079807F086F806900898AE
:1024D0000178407841EA00200490089880890346FA
:1024E000002205900699049807F039FD1FE308982B
:1024F000FEF79CFF00B11AE30898C0780690079990
:1025000006F01CFF00B112E30898408900B2069063
:102510000898C0780590DDE906120EF071F906E31F
:102520000898FEF783FF00B101E308984089069000
:102530000898C078059008988078801CC0B20490F4
:10254000DDE905120CF02EFFF1E20898FEF76EFFB0
:1025500000B1ECE20898C078069008984089059090
:1025600008988078801CC0B20490DDE905120DF057
:1025700061FDDCE20898FEF759FF00B1D7E2089848
:10258000807850B90898408906900898C078801CD7
:10259000C0B20590069910F0DFFE089880780128F7
:1025A00009D10898408906900898C078801C059049
:1025B00006990DF097FF0898807802280AD10898AC
:1025C000408906900898C078801CC0B20590069992
:1025D0000CF02AFF0898807803280AD108984089CF
:1025E00006900898C078801CC0B2059006990CF03F
:1025F000E9FE9CE20898FEF719FF00B197E20898FF
:102600004089069008980089059006990DF03CFED7
:102610008DE20898FEF70AFF00B188E208988089E9
:102620000690089840890590089800890490DDE993
:10263000051205F053FA7AE2310000207C010020F7
:10264000100500200898FEF7F1FE00B16FE208982F
:102650008078012806D0022820D003284ED00428F4
:1026600068D166E0012017F08DFC48B9F748007882
:1026700040F4807001460690FE2014F011FE5AE0EE
:102680000898808906900898408905900898C07835
:102690000490DDE9051205F061F94CE008984089E5
:1026A000002815DD0898C07805900EF00DF806900A
:1026B00008980178407841EA0020049008988089C1
:1026C0000346002205900699049807F048FC14E0A0
:1026D0000898C07805900EF002F8069008980178E6
:1026E000407841EA0020049008988089034600223F
:1026F00005900699049807F032FC1CE00898808940
:1027000000280ADD0898408900B206900898C07831
:102710000590069909F05AF90AE00898807A00F0C5
:10272000030006900898C078059006990EF00BF803
:1027300001E000E000BF00BFF9E10898FEF776FE77
:1027400000B1F4E10898807806280EDA08984089EC
:1027500006900898C078059008988078801CC0B2D0
:102760000490DDE905120DF06BFBE0E10898FEF73F
:102770005DFE00B1DBE10898C07800F00300069030
:102780000898407910B10898007900E0FF20059082
:1027900008988078801C0490DDE9051205F088F81F
:1027A000C5E10898FEF742FE00B1C0E10798042891
:1027B00008D10898408906900898C0780590069935
:1027C00009F016FAB3E10898FEF730FE00B1AEE169
:1027D000079803280AD10898408900B20690089803
:1027E000C0780590DDE9061210F036FE9FE10898EA
:1027F000FEF71CFE00B19AE10898808900B20690AD
:102800000898408900B205900898C0780490014665
:10281000DDE9052307980FF0E7FD88E10898FEF74A
:1028200005FE00B183E10898C07805AB06AA014611
:10283000049007980FF0AEFD08980178407841EABF
:1028400000200390089800890490BDF91430BDF968
:1028500018200146039807F082FB68E10898FEF70C
:10286000E5FD00B163E108984089014606900798AC
:1028700007F0F8FC5BE10898FEF7D8FD00B156E1DF
:102880000898408901460690079807F013FD4EE12D
:102890000898FEF7CBFD00B149E108984089014650
:1028A000069007980DF02CFB41E10898FEF7BEFD5D
:1028B00000B13CE10898408906900898C0780590DE
:1028C0000146DDE906200DF049FC30E10898FEF7ED
:1028D000ADFD00B12BE10898408900B20146069099
:1028E00007980DF01BFB22E10898FEF79FFD00B151
:1028F0001DE1089840890146069007980DF0CAFB33
:1029000015E10898FEF792FD00B110E108984089A2
:1029100006900898C07805900146DDE906200DF084
:10292000C5FB04E10898FEF781FD00B1FFE00898BF
:10293000808900B206900898007905900898C078C0
:1029400004900146DDE90523079808F0C7FFEEE093
:10295000022007900CE00320079009E00420079074
:1029600006E000BF0520079002E00620079000BFA8
:102970000898FEF75BFD00B1D9E015F06DF9C0B223
:1029800005900598072868D2DFE800F00414246752
:10299000344454000798052808D108984078252821
:1029A00003D108980089069003E05DE008988078DC
:1029B000069053E00798052808D108984078252804
:1029C00003D108984089069003E04DE00898C0784C
:1029D000069043E00798052808D1089840782528F4
:1029E00003D108988089069003E03DE008980079BB
:1029F000069033E00798052808D1089840782628E3
:102A000003D108980089069003E02DE008984079EA
:102A1000069023E00798052808D1089840782628D2
:102A200003D108984089069003E01DE0089880795A
:102A3000069013E0079805280BD1089840782628BF
:102A400006D108988089069006E006E0100500206F
:102A50000AE00898C079069000E000BF00BFDDE9F9
:102A6000061008F009FF00BF61E00898FEF7DEFCE1
:102A700000B15CE00898C0780146069007980DF018
:102A800011FA54E00898FEF7D1FC00B14FE0089825
:102A9000C07838B90898408901460690079808F030
:102AA0005FFE00E000BF00BF41E00898FEF7BEFCFB
:102AB00000B13CE008980178407841EA0020059098
:102AC0000898807806900146079A05980DF0D8FD81
:102AD0002DE00898FEF7AAFC00B128E0089840898C
:102AE000069010F035F822E00898FEF79FFC00B140
:102AF0001DE00898007906900898C0780590014676
:102B0000DDE906200FF026FB11E00898FEF78EFCA9
:102B100000B10CE00898007906900898C0780590FC
:102B20000146DDE906200DF0EDFF00E000BF00BF2B
:102B300000BFFFF78DBB00002DE9F04104460CB942
:102B4000BDE8F081D848007800B9F9E760781B2823
:102B500071D2DFE800F0700E233F51636B91B2BB7E
:102B6000C4D170E0E1FAFBF0EFEEEDEC7070707044
:102B7000EB002046FEF75AFC00B192E106F0AAFAFB
:102B8000054606F063FC06462178677841EA07208F
:102B90002B0CAAB2314607F0E2F982E12046FEF79B
:102BA00045FC00B17DE106F095FA064615F026F8E1
:102BB0006189884201D1658902E015F007F8054670
:102BC0002178677841EA0720330CB2B2294607F032
:102BD000C6F966E12046FEF729FC00B161E106F086
:102BE0003DF905462178627841EA0220A389002256
:102BF000294607F0B4F954E12046FEF717FC00B16E
:102C00004FE12178657841EA0520A389A749096841
:102C10000A0CA649096807F0A2F942E12046FEF72E
:102C200005FC00B13DE10DF0D5FF3AE12046FEF78D
:102C3000FDFB08B135E133E12089102800DB30E1EC
:102C4000608990B114F0DAFF6189884206D115F0ED
:102C500075FE15F049FB14F0B1F822E114F0B6FF4F
:102C600080B26189884200D01BE115F067FE15F043
:102C70003BFB14F0E1F914E12046FEF7D7FB00B16D
:102C80000FE1A07801280AD12278657842EA052070
:102C9000A3892189864A128807F061F90CE0A0789F
:102CA000022809D12278657842EA0520A389218982
:102CB000804A128807F053F9F3E02046FEF7B6FB8E
:102CC00000B1EEE0A07806F001FDEAE02046FEF754
:102CD000ADFB00B1E5E0A07806F078FBE1E020462E
:102CE000FEF7A4FB00B1DCE02278637842EA03201F
:102CF000A17806F0BFF8D4E02046FEF797FB00B1BC
:102D0000CFE02178627841EA0220A38900220121E4
:102D100007F025F9C5E000BF2046FEF787FB00B1AC
:102D2000BFE060780D2809D0012008E0ACE09DE00C
:102D300090E056E043E041E008E006E00020014674
:102D400004F1080005F0C4FAABE000BF2046FEF72E
:102D50006DFB00B1A5E060780F2801D0012000E0F4
:102D60000020014604F1080004F0E8FD22786378B1
:102D700042EA03200F2B01D0012200E0002211467D
:102D800004F018F960780F2801D0012100E000213B
:102D90000120884048490978084347490870084697
:102DA000007800F00300032807D104F0D5FD424865
:102DB000007820F003004049087072E000BF204610
:102DC000FEF734FB00B16CE02278637842EA03201E
:102DD000112B01D0012200E00022114603F05EFD1C
:102DE0005FE02046FEF722FB00B15AE000253348A1
:102DF0000068042804D20021FA2014F051FA50E0AF
:102E0000A2896189208904F0F5FF98B9A089012879
:102E100004DC022104F10C0005F05AFAA089022812
:102E200001D1012000E000200146002005F0A6F8B5
:102E3000012500E00025A08902280AD1A68946EADA
:102E400005232678677846EA07206289218907F0FA
:102E500086F826E02046FEF7E9FA00B121E0217865
:102E6000627841EA022003F005FD1AE02046FEF7F1
:102E7000DDFA00B115E004F1080004F04BFD104844
:102E8000008808F049FD0CE02046FEF7CFFA00B1BB
:102E900007E06189A28941EA024008F04FFD00E0A5
:102EA00000BF00BF00BF4BE631000020F80000204B
:102EB000980500209A050020AC000020EC000020BE
:102EC000000500202DE9FC4104460CB9BDE8FC8159
:102ED000FC48007818B960780C2800D0F6E76078D4
:102EE00027286FD2DFE800F0141A3340526F9E9FFC
:102EF000D2F3F1F0EFEEEDECEBEAE9E8E7E6E5E43A
:102F0000E3E2C7E1B4A0AA6E6EE06EDFDE87DD000B
:102F10002046FEF78BFA00B120E31FE32046FEF7C0
:102F200085FA00B11AE3208970B115F005FAE64878
:102F3000007858B9E548008808F0EEFCE2480078CF
:102F4000401CE149087001E015F0CEF906E3204687
:102F5000FEF76CFA00B101E3208910B115F0A8FD6D
:102F600001E015F0EBFCF9E22046FEF75FFA00B154
:102F7000F4E214F05BFE05462178627841EA022013
:102F8000A3890022294606F0EAFFE7E22046FEF781
:102F90004DFA00B1E2E22089CD4908600020CD4918
:102FA00008700120CC490870FF20CC490870CC483B
:102FB000008830B1CB48008818B10021FB2014F004
:102FC0006FF9CBE2C9E22046FEF730FA00B1C5E264
:102FD000218909B1012100E00021084606F04EFADE
:102FE00005462178627841EA0220A3890022294619
:102FF00006F0B5FFB2E22046FEF718FA00B1ADE2E6
:10300000012006F093FA0546002006F08FFA0646E6
:103010002178627841EA0220A3892A46314606F0E7
:103020009EFF9BE29AE299E22046FEF7FFF900B18B
:1030300094E26189208902F021FD8FE22046FEF7AB
:10304000F5F900B18AE26189208902F037FD85E255
:103050002046FEF7EBF900B180E2208902F066FA23
:1030600005462278667842EA0620A38921892A4605
:1030700006F075FF72E22046FEF7D8F900B16DE266
:10308000208902F03DFA0CF0B5FD67E22046FEF71C
:10309000CDF900B162E2208902F01AFA0CF0AAFD23
:1030A0005CE251E247E23DE230E294E072E066E049
:1030B00052E047E033E01CE210E2E1E1D3E1AEE1AF
:1030C000A0E1E7E0D1E0C3E092E013E0FFE72046B3
:1030D000FEF7ACF900B141E2FF2002F007FC054623
:1030E0002178627841EA0220A3890022294606F06D
:1030F00036FF33E22046FEF799F900B12EE220892F
:103100006A4601A902F0B0FD05B22178627841EA71
:1031100002202B46DDE9002106F021FF1EE22046B9
:10312000FEF784F900B119E2608918B9208902F02C
:10313000E1FD06E06089012803D1A189208902F020
:103140002FFD0BE22046FEF771F900B106E261891E
:10315000208902F0C1FE01E22046FEF767F900B1C6
:10316000FCE1208902F098FD05462178627841EA69
:103170000220A3890022294606F0F1FEEEE1204656
:10318000FEF754F900B1E9E161892089012202F0DA
:1031900041FEE3E12046FEF749F900B1DEE1608936
:1031A00020B92089012102F0C5FD13E060890128C2
:1031B00009D12089FF2802D102F0DAFC0AE0208937
:1031C00002F09CFC06E06089022803D1A1892089D5
:1031D00002F05CFEC2E12046FEF728F900B1BDE135
:1031E0002278637842EA0320A17802F0ABF9B5E1D6
:1031F0002046FEF71BF900B1B0E1208930B96089A3
:1032000039490860608900F0C7FE1DE02089012867
:1032100006D1608934498860608900F0D3FE13E0EC
:103220002089022810D160892F4948612F480078F1
:1032300018B1608906F0DCFD06E02D480078022810
:1032400002D1608907F08CFD01202A49087085E1D0
:103250002046FEF7EBF800B180E1208908B101209B
:1032600000E000201749087078E12046FEF7DEF8FC
:1032700000B173E105F098FE05462678677846EAC6
:103280000720A3894FF6FF7606EA1542A9B206F099
:1032900066FE63E12046FEF7C9F800B15EE12078E2
:1032A000617840EA0120ADF80000A078ADF8060092
:1032B000A07830B101284ED0022864D0032876D1FE
:1032C00076E019E0310000203401002000050020E4
:1032D0007C00002080000020890000208A0000205F
:1032E000E4040020E2040020A82500203300002090
:1032F0009D010020300000209A48006885B240F20D
:10330000726085420CDB05EB850044F27401C1EB71
:103310004000372190FBF1F080B2ADF8020002E0EE
:103320000020ADF802009048006885B240F272605B
:1033300085420CDB05EB850044F27401C1EB4000D3
:10334000372190FBF1F080B2ADF8040002E00020DC
:10335000ADF804004AE085480068C0EBC00000EB0F
:1033600040006421B0FBF1F080B2ADF8020080486B
:103370000068C0EBC00000EB4000B0FBF1F080B291
:10338000ADF8040032E07B480068D721484340F2A2
:10339000DC51B0FBF1F080B2ADF802007648006875
:1033A0004FF6FF7101EA4000ADF804001EE01CE09A
:1033B0007248006880B2ADF802007148006885B2BA
:1033C000C5F53E7064214843192190FBF1F0C0F12E
:1033D000FA0080B2ADF80400BDF80600694909782A
:1033E00040EA0120ADF8060000E000BF00BFBDF8D4
:1033F0000630BDF80420BDF80210BDF8000006F04C
:10340000AEFDABE02046FEF711F800B1A6E0A078D3
:1034100000F00F005C49087006F048F99EE0204675
:10342000FEF704F800B199E0002519E0002606EB4C
:103430004506012707EB450746EA07232678677804
:1034400046EA0720012606EB4506504F57F826208E
:10345000002606EB450657F8261006F080FD6D1C89
:10346000282DE3DB7AE02046FDF7E0FF00B175E0B0
:10347000A07808B1012000E00020454908706DE007
:103480002046FDF7D3FF00B168E0208940F2012219
:10349000811A904214D006DC60B101280CD0A0F251
:1034A000011098B90AE0B1F5807F0BD0B1F5007F2B
:1034B0000CD109E001250BE0022509E0032507E016
:1034C000042505E0052503E0062501E0002500BFF1
:1034D00000BF6189284603F08DFD3FE02046FDF7DF
:1034E000A5FF00B13AE0E178A0782B2214F05CFF50
:1034F00034E02046FDF79AFF00B12FE0E07800F0BD
:103500000302FF21084604F0D3F927E02046FDF727
:103510008DFF00B122E0A3896289E178A07804F0F0
:103520003FF81BE02046FDF781FF00B116E020893F
:1035300008F028F912E02046FDF778FF00B10DE011
:1035400020891449088009E02046FDF76FFF00B18B
:1035500004E020891049088000E000BF00BF00BFE0
:10356000B4E40000980400209C040020A004002083
:10357000A4040020A8040020AC040020B004002013
:10358000B4040020F00500209C0000205C350020E1
:1035900050000020520000205400002070B5044666
:1035A00004B970BD5D48007800B9FAE76078152865
:1035B00073D2DFE800F0AE0B14244D6CAE6D30AE6C
:1035C000AEAEAEAEAEAE778390A33A002046FDF726
:1035D0002DFF00B19EE02089514908609AE0204605
:1035E000FDF724FF00B195E0E078062806DCE378DB
:1035F0004C4DEA5C2179A07810F0C4FF8AE02046A7
:10360000FDF714FF00B185E0E37862792179A078B5
:1036100011F00CF87EE02046FDF708FF00B179E0DC
:10362000E178A07811F03AF874E02046FDF7FEFE4C
:1036300000B16FE0A07808F0E3FC05B2217866786D
:1036400041EA0620A3892289294606F088FC61E028
:103650002046FDF7EBFE00B15CE0A07810B9E07801
:103660000CF072FCA07801280BD111F037F8054658
:103670002178627841EA022000231A46294606F0A2
:103680006EFCA078022801D105F088FE42E041E0FE
:103690002046FDF7CBFE08B13CE03AE02089224904
:1036A000088037E02046FDF7C1FE00B132E0A27984
:1036B000C2F30011A0780BF0CBFE2BE02046FDF703
:1036C000B5FE00B126E0A389628911B2A07801227B
:1036D0000EF076FD1EE02046FDF7A8FE00B119E0D1
:1036E000A07808F019FC05462178627841EA0220AA
:1036F000A3890022294606F032FC0BE02046FDF7A4
:1037000095FE00B106E0628911B2A0780CF0C6FA0D
:1037100000E000BF00BF00BF43E700003100002011
:103720002C0000207C0100208E00002000B9704792
:103730000249097801B9FAE700BFF8E73100002033
:103740002DE9F04104460CB9BDE8F081FA48007853
:1037500000B9F9E760780D286FD00ADC0D286DD22A
:10376000DFE800F06C2028B2D5F1EFEEEDECEBEAEB
:10377000E90014287BD008DCA0F10E000628EED268
:10378000DFE800F0F8F7F6F5F4F3172870D004DC62
:1037900015286ED0162851D152E118286AD08228F7
:1037A000F9D108E02046FDF741FE00B192E206F0B3
:1037B00089FA8FE200BF2046FDF738FE00B189E2AA
:1037C00014F04AFAC7B26078C009DC490870DC48D6
:1037D0000068DC490968884203D3D9480068D949A0
:1037E0000860D748006820B1D5480068401ED44919
:1037F0000860012016F0C6FB38B9D348007840F4C1
:103800008071FE2013F04CFD64E2002016F0BAFB3C
:1038100028B9CD480178FE2013F042FD5AE2CB488A
:103820000068B0B1062F12D2DFE807F0030A0E04D9
:10383000090D00BFA578E6780AE0BFE149E200BFC4
:103840002579667904E000BFA579E67900E000BF3C
:1038500031E0072F2DD2DFE807F0040E142C1A20D8
:103860002600A07800F00F05A078060922E0E6E027
:103870001BE2A8E022E2E07800F00F05E0780609FC
:1038800018E0207900F00F052079060912E0607930
:1038900000F00F05607906090CE0A07900F00F0533
:1038A000A079060906E0E07900F00F05E079060945
:1038B00000E000BF00BFF1B2E8B217F041FD3146B1
:1038C000284606F07FFD05E22046FDF7AFFD00B17A
:1038D00000E2012016F056FB38B99B48007840F40E
:1038E0008071FE2013F0DCFCF4E1002016F04AFBAE
:1038F00028B995480178FE2013F0D2FCEAE16289EC
:10390000A38942EA0341208903F006F8E2E1204658
:10391000FDF78CFD00B1DDE12278657842EA0520F3
:10392000A389227A02F00702894D55F8221000225D
:1039300006F015FBCEE132E11AE1E9E0DFE0BCE0A0
:103940002CE018E0FFE72046FDF770FD00B1C1E173
:1039500006F0AEF905462178627841EA0220A38993
:103960000022294606F0FBFAB4E12BE097E18BE157
:1039700064E026E06CE12046FDF758FD00B1A9E1C6
:10398000208906F09BF905462178627841EA0220F9
:10399000A3890022294606F0E2FA9BE12046FDF7C2
:1039A00045FD00B196E16089217A01F00701694A7D
:1039B00042F82100A189227A02F0070006F0B0F94E
:1039C00088E100BF00BF2046FDF730FD00B181E176
:1039D00014F042F906460027042E2DD226B1012EFE
:1039E00004D0022E06D103E0278904E0678902E0B3
:1039F000A78900E021E000BF00251BE0A80047FAEE
:103A000000F000F00F0005F00701524A42F82100D3
:103A100062780F2A01D1002206E06278152A02D1CD
:103A200045F2AA5200E00122114605F0070006F017
:103A300077F96D1C042DE1DB00BF4BE100BF00BF37
:103A40002046FDF7F3FC00B144E114F005F9064609
:103A50000027082E2FD2042E2DD304D0052E04D0FB
:103A6000062E06D103E0278904E0678902E0A789D2
:103A700000E021E000BF00251BE0A80047FA00F0AD
:103A800000F00F0005F00701324A42F82100627889
:103A9000102A01D1002206E06278152A02D145F2EF
:103AA000AA5200E00122114605F0070006F038F99D
:103AB0006D1C042DE1DB00BF0CE12046FDF7B6FCD8
:103AC00000B107E12089C8B9A08988B1A08942F274
:103AD0001071884212DCA089322801DC012004E048
:103AE000A0891930322190FBF1F01B49086005E0F4
:103AF000207900EB8000400017490860EAE020468A
:103B0000FDF794FC00B1E5E0208906F03BF9E1E027
:103B10002046FDF78BFC00B1DCE02089401C0F49FA
:103B200008600A480068D8B10846006805281ED910
:103B3000052008601BE00000310000208800002004
:103B40002001002024010020100500204C0000204E
:103B50005C0E0020740B002070000020600000202C
:103B60005E4800680A2802D90A205C490860B1E072
:103B70002046FDF75BFC00B1ACE0208908B10120D4
:103B800000E00020564908600846006818B1082087
:103B90005449087002E00420524908709AE0204617
:103BA000FDF744FC00B195E02089012802D020896E
:103BB000022802D120894C4908808BE02046FDF77D
:103BC00035FC00B186E0002505F070FDA07800F01E
:103BD0000300464951F82000E17801F00F0201216D
:103BE0009140084008B1012000E000200546E0793E
:103BF000401008B1E07900E000203D490870084617
:103C0000007820B10DB9012000E000200546A3791D
:103C1000E178A0782A4602F025FF02203549087095
:103C2000E07808280BDBA07800F00300482101EBC6
:103C30004000E178084408382F49087007E0A07870
:103C400000F00301E07861F3DF002B49087041E0E8
:103C50002046FDF7EBFB00B13CE0E178A07802F0F4
:103C600031FE0546A278E67842EA06212278667897
:103C700042EA062062890AB1012200E000221346CE
:103C80002A4606F06CF925E02046FDF7CFFB00B18F
:103C900020E02279E178A07806F084F81AE0204646
:103CA000FDF7C4FB00B115E014E02046FDF7BEFBB4
:103CB00000B10FE0A078114908700BE02046FDF735
:103CC000B5FB00B106E020890D4908806089488075
:103CD00000E000BF00BF00BF36E50000600000202C
:103CE0004C00002079050020F40000205C0E00202C
:103CF0009E0000209D0000209F000020E004002086
:103D0000380000207FB567480068401C654908609E
:103D1000C4E006F0B1F8044604B9C0E020788DF89C
:103D20000000A0788DF80100A088ADF80800E088B8
:103D3000ADF80A002089ADF80C00BDF80800C0B24B
:103D40008DF80200BDF80800000A8DF80300BDF8E8
:103D50000A00C0B28DF80400BDF80A00000A8DF810
:103D60000500BDF80C00C0B28DF80600BDF80C00CF
:103D7000000A8DF807004C48006810B12088803890
:103D800020809DF8000000F07F00172871D2DFE846
:103D900000F00C1014181C20686C717579818181F9
:103DA000817D81818181818124006846FFF7BEFC8D
:103DB00071E06846FFF786F86DE06846FFF7EEFBB6
:103DC00069E06846FDF7D4FF65E06846FEF73CFA17
:103DD00061E06846FDF776FE5DE09DF80100C0F306
:103DE000021500269DF8000000F0800088BB2F48D7
:103DF000007818B901202D4908701CE02C48007883
:103E0000A8420DD12B480068401C2A490860284868
:103E1000007840EA05219A2013F042FA01260AE0D0
:103E200025480078A84206D02348007840EA0521BA
:103E30009A2013F035FA1E4805700078401C1E4980
:103E4000087008460078072801DD0020087006B1D8
:103E500021E0FFE79DF8010000F08F008DF80100E0
:103E600000BF6846FFF76CFC15E06846FDF75CFC98
:103E700011E00FE06846FEF75FFE0CE06846FDF7D4
:103E8000CDFD08E06846FDF7EFFD04E06846FDF76C
:103E900051FB00E000BF00BFFCF73AFF39E700BF6D
:103EA0007FBD0000A40000202C0000208000002026
:103EB00081000020840000208200002039B1084ADF
:103EC0001268012383401A43054B1A6006E0044A36
:103ED0001268012383409A43014B1A607047000027
:103EE000007400401FB50121480706F06FFD3C201B
:103EF0000090002001904FF4007002900220039087
:103F00006946002000F00EF86946102000F00AF81B
:103F100001210020FFF7D2FF01211020FFF7CEFF83
:103F20001FBD000030B5002200230A4C226840F675
:103F3000FE748440A243D1E900452C438D682C4394
:103F4000CD6844EA050303FA00F42243014C2260E1
:103F500030BD00000074004008B500220092054A00
:103F6000009200F10802009B1A440092009A11602E
:103F700008BD00000074004008B500220092054A08
:103F8000009200F11402009B1A440092009A116002
:103F900008BD00000074004070B50446204616F0CD
:103FA00033FB0446E000C0EB003048F2E80190FB30
:103FB000F1F5A9B20020FFF7CFFF0121002000F0AA
:103FC00017F870BD70B50446204616F01DFB044678
:103FD000E000C0EB003048F2E80190FBF1F5A9B237
:103FE0000020FFF7C9FF0121102000F001F870BD8B
:103FF00010B541B1084A126804090123A3401A43CD
:10400000054B1A6007E0044A126804090123A34023
:104010009A43014B1A6010BD04740040704770470A
:1040200070477047704770477047704710B515F07C
:10403000F5FD10BD7047704710B515F029FD10BD96
:104040000246094B9A4201D2084801E0064810385E
:1040500001F000531BB1064B0B40C36002E0044B60
:104060000B40836070470000106402400060024013
:104070007D0F7D0F21B1026842F00102026003E072
:10408000026822F00102026070470000016821F01E
:10409000010101600021016041608160C160016136
:1040A000212141614A49884204D13D21484A103AC0
:1040B00091608CE046491831884205D14FF4746113
:1040C000434A103A916082E041493031884205D13B
:1040D0004FF474113E4A103A916078E03C494831FF
:1040E000884205D14FF07461394A103A91606EE010
:1040F00037496031884204D13649354A103AD16097
:1041000065E033497831884204D13349304A103A66
:10411000D1605CE02E499031884204D12F492C4A6D
:10412000103AD16053E02A49A831884205D14FF0B6
:104130003D51274A103AD16049E02949884204D1CB
:104140003D21274A083A116041E02549183188424B
:1041500005D14FF47461224A083A116037E02049D2
:104160003031884205D14FF474111D4A083A11606C
:104170002DE01B494831884205D14FF07461184A3F
:10418000083A116023E016496031884204D1114990
:10419000134A121F11601AE011497831884204D184
:1041A0000D490F4A121F116011E00D4990318842EC
:1041B00004D10A490A4A121F116008E00849A831CF
:1041C000884204D14FF03D51054A121F11607047DB
:1041D000106002403D000020400F002000003D2004
:1041E0001064024030B503460A46002000240B4DFF
:1041F000AB4201D20A4901E00849103902F00055EA
:104200000DB14C6800E00C68064D2C4004EA020534
:104210000DB1012000E0002030BD0000106402401C
:10422000006002407D0F7D0F10B501F080034BB19F
:1042300022B1436943F08003436103E0436923F003
:104240008003436180290BD02AB1036801F01E046A
:104250002343036004E0036801F01E04A3430360EA
:1042600010BD000010B500220268134B1A40CC6844
:104270000B6823434C6923438C692343CC69234354
:104280000C6A23434C6A23438C6A23434C6B2343BD
:104290008C6B23431A430260426922F00702D1E982
:1042A0000B3423431A4342610B6943604B688360BC
:1042B0008B68C36010BD00003F801CF000210160CE
:1042C00041608160C160016141618161C1610162E0
:1042D00041628162C16201634163816370477047DB
:1042E000F3B50646358801A804F0ECFD0746002F1B
:1042F00060D10021002415E004F10800BDF804207D
:10430000024102F0010028B145FA04F0012222EA3C
:10431000000003E045FA04F000F00100A04008436B
:1043200081B2641C082CE7DB00241BE004F10800C8
:10433000BDF80420024102F0010038B104F1080088
:1043400045FA00F0012222EA000005E004F108002D
:1043500045FA00F000F0010004F108029040084323
:1043600081B2641C082CE1DB0D46BDF80400C0F3EB
:104370000310C0F1100005FA00F081B2BDF804008E
:10438000C0F3031005410D43002100240DE0A200FD
:1043900045FA02F0BDF80420801A001B00F00F005F
:1043A000A2009040084381B2641C042CEFDB3180F2
:1043B0000020FCBD4FF0FF30FBE7FCB505460E4684
:1043C000002728680090A888ADF804008EB14FF649
:1043D000FF7086420DD0002409E0694601EB4400DD
:1043E0003146FFF77DFF08B1012722E0641C032C52
:1043F000F3DBBDF80400B0B1BDF804004FF6FF7167
:10440000884210D0BDF804100DF10200FFF768FFDC
:1044100008B102270DE0BDF804106846FFF760FF01
:1044200008B1032705E000982860BDF80400A880C3
:1044300000BF3846FCBD00002DE9F84380460C461D
:10444000208820F0020020802088C0F34310062836
:104450007ED2DFE800F0F103295B7EEC608C07F090
:10446000C3FAE08A2082608C012200210AF062FFF8
:10447000608AC0EB0010C000642190FBF1F00FFADD
:1044800080F900200090608C00231A4649460CF009
:10449000CDFB608C4FF47A710EF0B2FA208820F4D4
:1044A000F07040302080CCE0E18A208A00F0DCF817
:1044B0000646002E02DDE08A208226E0608C07F0AE
:1044C00087FD00B1BDE0208AE081608AC0EB00106A
:1044D000C000642190FBF1F00FFA80F9608C01229A
:1044E00049460AF027FF00200090608C00231A46FE
:1044F00019460CF09BFB608C4FF47A710EF080FA39
:10450000208820F4F070603020809AE0E18AE08911
:1045100000F0AAF80646002E02DAE08AE08116E0F2
:10452000608C07F055FD00B18BE0608C012200210A
:104530000AF000FF00200090608C00231A4605213D
:104540000CF074FB208820F4F0708030208078E03C
:1045500072E0608C07F03CFD00B172E0208820F42E
:10456000F0702080608C0DF067FF208AE189451A89
:10457000002D01DA05F58055E18801FB05F0C11732
:1045800000EB1151C1F30F3121840095E389228A98
:1045900041462DA018F01AFCE389228A01214046E9
:1045A00000F07AF80746A08AC8B1A08AB0F5487F23
:1045B00001D0A08A07E0608A00EB001000EB8000C9
:1045C000642190FBF1F0B84209DD0DB16D4201E0CC
:1045D0004FF0FF352946404600F06AFC26E0A078FF
:1045E000C0F3401038B9E0884FF47041B1FBF0F0EF
:1045F000E189451802E06D10E0890544C5F30B051B
:104600002581208820F001002080608820F00200B1
:10461000801C60802946404600F04AFC208820F437
:10462000F070A03020804FF4C870608309E0608C87
:1046300000210AF00DFF00BF208820F4F0702080D8
:1046400000BF00BFBDE8F8835B25645D2063775B36
:1046500025645D202D206363775B25645D203D200C
:104660005B25645D0D0A000010B502460B46991AE1
:1046700009B9002010BD081E01DB044600E04442D9
:10468000B4F5006F06D9002902DA01F5805101E086
:10469000A1F580510846EDE7F0B504460D460D4EF4
:1046A00006EB8416F7884FF48051012D02D1D61AFB
:1046B000314401E09E1A3144B1F5805F01D3A1F588
:1046C000805101FB07F64FEAE67C06EB1C5C4FEAE3
:1046D0002C30F0BDC83C002070B506460C4623893E
:1046E000E28A01213046FFF7D7FF0546A078C0F3E4
:1046F000401030B9E0884638A84207DAE0882D1A21
:1047000004E0A08FA84201DAE0882D1A284670BD87
:104710002DE9F04782460F4690461C462078C0F3AC
:10472000400010B90020BDE8F087B4F80690218B56
:10473000B4F9040001F0BEFA08B10020F3E7380331
:1047400090FBF9F620890644C6F30B06002E01DA29
:1047500006F58056E18A3046FFF786FF0546281E9B
:1047600001DB014600E041420D466089F8B16089F5
:10477000A8421CDAA08B401CA083A08B404501DA24
:104780000120D0E7608820F0100010306080207891
:10479000C0F3C00028B100220121504600F04AFCBD
:1047A00013E0AAB20221504600F044FC0DE020883C
:1047B000C00B38B1208820F4F0402080208820F4FD
:1047C0000040208020460EF06DFE0020A08320884F
:1047D000C00B18B9208820F008002080208820F025
:1047E00002002080208820F01000208000209AE71E
:1047F0000346062106221248018812480288ABB1FE
:10480000012B1BD13AB94EF6EE60814201D1002056
:1048100070470120FCE739B94EF6EE60824201D1C3
:104820000120F5E70020F3E7AB20F1E709B900200C
:10483000EEE70AB90120EBE7AB20E9E70020E7E764
:1048400000C000080000010810B50824012010492C
:1048500008600221182003F07FFD0446082C01D0D7
:10486000204610BD02200A4908600021094803F0D3
:1048700011FE0446082C01D02046F2E7012004492D
:1048800008600221202003F067FD04462046E8E787
:104890007808002000C000082DE9F05F4FF0060BFB
:1048A00006260025A846A9464FF0FF3A002705E056
:1048B000781D844921F81700781C87B2642FF7DB34
:1048C0008148B0F800B0814806880120804908601E
:1048D000BBF1000072D0A0F56E40EE3848B3A0F5F1
:1048E0008850113800286AD116B34EF6EE60864221
:1048F00017D1012008600221182003F02DFD044685
:10490000082C02D02046BDE8F09F022070490860C4
:1049100000216E4803F0BEFD0446082C08D0204656
:10492000F1E7FFF791FF0446082C01D02046EAE7A3
:10493000C2E0002E44D1002526E06348C0886149CA
:1049400031F81510884201D10FFA85FA554519D072
:104950005C4931F815005F4900F060F98146B9F112
:10496000010F0FD002205A490860564931F815004E
:104970005849098800F08CF98046B8F1080F01D039
:104980004046C0E7681C85B2642DD6DB0220504942
:10499000086000214C4803F07DFD0446082C01D03E
:1049A0002046B0E701204A4908600221202003F098
:1049B000D3FC0446082C26D02046A4E724E073E06C
:1049C0004FF6FF70864217D101204149086002214D
:1049D000202003F0C1FC0446082C01D0204692E7B9
:1049E00002203B4908600021374803F053FD04468C
:1049F000082C08D0204686E7FFF726FF0446082C3F
:104A000001D020467FE757E036B9FFF71DFF044687
:104A1000082C48D0204676E74FF6FF70864242D0F9
:104A2000002526E02948C088264931F8151088421B
:104A300001D10FFA85FA554519D0224931F81500F0
:104A4000244900F0EBF88146B9F1010F0FD00220A4
:104A50001F4908601B4931F815001E49098800F0FC
:104A600017F98046B8F1080F01D040464BE7681CA3
:104A700085B2642DD6DB0220154908600021134859
:104A800003F008FD0446082C01D020463BE7012036
:104A90000F4908600221182003F05EFC0446082C30
:104AA00001D020462FE707E0FFF7CEFE0446082C92
:104AB00001D0204627E700BF00BF0020044908605E
:104AC000082020E7AC3B002000C0000800000108DF
:104AD00078080020A40600202DE9F84F80468A4679
:104AE0000825374800904FF00009002400264FF0B9
:104AF000000B0020FFF77CFE8146B9F1010F03D1C6
:104B000030480090202709E0B9F1000F03D12E486A
:104B10000090182702E0AB20BDE8F88F02202B4957
:104B200008604EF6EE61009803F0B4FC0546082DCF
:104B300001D02846F0E75146404600F0A9F8064665
:104B4000082E01D03046E7E700241CE0204830F86A
:104B50001400404515D01E4931F814001D4900F0DD
:104B60005DF88346BBF1010F0BD0194931F81400F1
:104B70001849098800F08CF80646082E01D0304606
:104B8000CAE7601C84B2642CE0DB01200F49086096
:104B90000221384603F0E0FB0546082D01D02846E7
:104BA000BAE70220094908600021009803F072FC6E
:104BB0000546082D01D02846AEE72846ACE70000A0
:104BC000FF03010800C00008000001087808002069
:104BD000AC3B0020A40600202DE9F04105460F461D
:104BE0001646A819642802DDAF20BDE8F081002434
:104BF0000DE007EB44012A19074B33F8120000F0CF
:104C00000DF8082802D04FF0FF30EEE7641CB442E4
:104C1000EFDB0020E9E70000AC3B00202DE9F04786
:104C200006460F46002545F255584FF00109154C30
:104C3000A2460020FFF7DCFD0546AB2D01D1BDE803
:104C4000F0871DB910490F4A521E06E0012D02D10E
:104C50000C490E4A01E0AB20F1E78A46541E0AE0F7
:104C6000B4F80080B04505D134F8020C38804FF01C
:104C7000080904E0241F0AF102008442F0D800BFB2
:104C80004846DCE70000010800C00008FFFF0108FB
:104C90002DE9F04706468846082700251D4CDFF819
:104CA00078900120FFF7A4FD0546AB2D01D1BDE8AA
:104CB000F0871DB91949174A521E06E0012D02D18D
:104CC0001449174A01E0AB20F1E70C46A2F10109B3
:104CD00019E02068401CA8B902201249086041462A
:104CE000204603F0D7FB0746082F01D03846DEE701
:104CF00002200C4908603146A01C03F0CBFB07469C
:104D00003846D4E7241D4C45E3D30020054908600C
:104D10008020CCE700000108FF07010800C0000860
:104D2000FFFF0108780800202DE9F04105460F46F5
:104D300016464FF00008A819642804DD4FF0AF08AC
:104D40004046BDE8F081012080F3108800BF03F0E9
:104D5000D9FB00240DE037F814102A190A4B33F858
:104D6000120000F013F8082802D04FF0FF3802E0DC
:104D7000641CB442EFDB00BF03F064FB002080F34F
:104D8000108800BF4046DCE7AC3B002070B505460C
:104D90000E46002431462846FFF77AFF0446802C51
:104DA00004D131462846FFF797FE0446204670BDE1
:104DB0000021144A11601521134A1160134A116031
:104DC0000021134A1160134A1160134A1160002038
:104DD00004E00021114A42F82010401C1428F8DB9E
:104DE000002004E000210E4A42F82010401C032855
:104DF000F8DB00210B4A11604FF6FF71084A916001
:104E000070470000C0000020B0000020B400002067
:104E1000B8000020BC000020940000203C0F0020BF
:104E20008C0F00209800002010B500241D48006859
:104E3000002836D000BF0120A0401A490968084068
:104E400038B30120A04018490968084000B121E0AA
:104E5000164850F8240000B91CE0144850F824000B
:104E6000401E124941F82400084650F8240080B939
:104E70000C2C03D2204612F063FB03E0A4F10C00DB
:104E800014F026FC0120A04006490968814305482A
:104E9000016000BF601C044602490968C140002946
:104EA000C9D110BD98000020C00000203C0F002098
:104EB00070B504460D4600232246294641F20150B2
:104EC00005F04DF870BD00002DE9F84306460C468C
:104ED0004FF0FF3700BFA07800F0010000B9A2E05A
:104EE0002088C0F3402010B9E08D401CE08504F11B
:104EF00018036A46211D304605F0DEFF0746002FE5
:104F000040D1BDF80000E082606A08B10020606214
:104F1000608820F008000830608015F017F94449D7
:104F200041F82600A078C0F3800020B1E08A40F666
:104F3000FF71081AE0822088C0F34020E0B9A08DFC
:104F40004FF6FF71884201D1E08AA085E08EE18AA8
:104F5000884201DAE08AE086208FE18A884201DD1A
:104F6000E08A2087608E38B1A08E618E884201DA97
:104F7000608EA0860020608694F82200002106F052
:104F8000F1FC50E0A078C0F3C00020B115F0DEF8CD
:104F90006062002505E04FF47A71304600F048FA6F
:104FA00005462088C0F3402028B9208E401C20866A
:104FB000608E401C6086608820F00800608094F855
:104FC0002200012106F0CEFC41F28831304600F08B
:104FD00055FA20B12088C0F3402000B923E03046C4
:104FE00005F05EFF47F23051884200DD00BFCDB1D1
:104FF0006420608315F0AAF86062A078C0F3001006
:1050000078B9608820F0100010306080218BB4F9EE
:10501000040000F04FFE804642460021304600F07A
:1050200009F800E000BF00BF3846BDE8F883000083
:10503000C83E00202DE9F04107460C4616460025E3
:10504000E2200A49086025460CB945EA0625022CEB
:1050500003D1304665F31F3005460449096841EA2B
:105060000720294612F01CF9BDE8F08158080020FD
:1050700010B516F099FD10BD10B516F095FD10BDD8
:1050800010B516F091FD10BD10B516F08DFD10BDD8
:1050900010B516F089FD10BD704710B516F084FDEF
:1050A00010BD10B5002400F005F804460CB1FCF763
:1050B0009FF910BD0020704701490860704700004B
:1050C000143C01400EB50121880305F09FFC0B2123
:1050D000052006F0D1F815F089FA70B908210520ED
:1050E00006F0CAF80C21042006F0C6F87F480078C4
:1050F00018B90721042006F0BFF80321022006F0AA
:10510000BBF80221084606F0B7F80121062006F098
:10511000B3F80021062006F0AFF84FF400600090CD
:1051200000208DF804000C208DF8050001208DF87A
:105130000600684600F00CF94FF4006000F0D8F863
:1051400015F054FAC8BB4FF48070009000208DF821
:1051500004000C208DF8050001208DF8060068463B
:1051600000F0F6F84FF4807000F0C2F84FF4805071
:10517000009000208DF804000C208DF8050001201F
:105180008DF80600684600F0E3F84FF4805000F018
:10519000AFF85648007880B98020009000208DF844
:1051A00004000C208DF8050001208DF806006846EB
:1051B00000F0CEF8802000F09BF80820009000203E
:1051C0008DF804000C208DF8050001208DF80600F4
:1051D000684600F0BDF8082000F08AF8042000902E
:1051E00000208DF804000C208DF8050001208DF8BA
:1051F0000600684600F0ACF8042000F079F80220C0
:10520000009000208DF804000C208DF8050001208E
:105210008DF80600684600F09BF8022000F068F860
:105220000120009000208DF804000C208DF805006E
:1052300001208DF80600684600F08AF8012000F091
:1052400057F806208DF8080000208DF8090001208D
:105250008DF80A008DF80B0002A805F063F807200E
:105260008DF8080000208DF8090001208DF80A0053
:105270008DF80B0002A805F055F808208DF80800FD
:1052800000208DF8090001208DF80A008DF80B0030
:1052900002A805F047F809208DF8080000208DF8D5
:1052A000090001208DF80A008DF80B0002A805F016
:1052B00039F817208DF8080000208DF8090001202A
:1052C0008DF80A008DF80B0002A805F02BF82820B5
:1052D0008DF8080000208DF8090001208DF80A00E3
:1052E0008DF80B0002A805F01DF80EBD320000205D
:1052F000054909688143044A1160111D0968814309
:10530000121D116070470000003C014010B50446BA
:105310002046FFF7D1FE034800682043014908609A
:1053200010BD0000003C0140014600200022074B58
:105330001B6803EA0102054B14331B680B4013B1D1
:105340000AB1012000E0002070470000003C01404D
:10535000002123498279002A3AD00A46126803685C
:105360009A430B461A600A1D126803689A430B1D84
:105370001A60027911440A6803681A430A60184ADD
:105380000832126803689A43154B08331A601A1DD5
:10539000126803689A43124B0C331A604279102A40
:1053A0000ED11A1F126803681A430D4B08331A6096
:1053B0001A1D126803681A43094B0C331A600DE07A
:1053C0000749427911440A6803681A430A6005E0F4
:1053D000027911440A6803689A430A607047000022
:1053E000003C01407047000070B504460E46304650
:1053F00015F00AF90646304616F0CEFA0546B5F520
:10540000757F02DD4FF4757502E0142D00DC142564
:1054100024B92946054811F088F905E0012C03D18B
:105420002946024811F083F970BD000000080040D1
:1054300070B505460E460F480078854201DB002016
:1054400070BD14F083FE04460B4850F82500241A62
:10545000201E01DB014600E041420C46B4F1004F42
:1054600001D3C4F1FF34B6EB940F01D20120E7E77A
:105470000020E5E75C080020C83E00202DE9F0414F
:1054800005460E4610480078854202DB0020BDE844
:10549000F0810E4800EB851714F058FE0446B86AF8
:1054A000241A201E01DB014600E041420C46B4F103
:1054B000004F01D3C4F1FF34B6EB940F01D20120A9
:1054C000E5E70020E3E700005C080020C83C00207E
:1054D000014609B1012200E00022114600200AE045
:1054E000064A02EB8012528861F30002034B03EB81
:1054F00080135A80401C0828F2DB7047C83C00200B
:10550000014600200CE041FA00F2074B03EB801348
:105510005B8862F30003044A02EB80125380401C54
:105520000828F0DB70470000C83C0020014600203E
:10553000082903DA024B03EB8112108C704700003C
:10554000C83C00202DE9F04781460E464FF0000888
:10555000FF2E14D100240FE0144800EB8415298B92
:10556000B5F9040000F0A6FB074604EB440007FA77
:1055700000F040EA0808641C082CEDDB0AE0082E65
:1055800005DA0A4800EB8615B5F8188002E001201C
:10559000BDE8F0874FF6FF7000EA18431FFA88F263
:1055A0003146484604F0DBFC0020F1E7C83C00200F
:1055B0002DE9F041064640490E70082E05DD082011
:1055C000087031463DA017F001FC002566E0062D6D
:1055D00003DBA81D00F0FF0801E005F0FF08C8EBA1
:1055E000C80000EB48103B4901EB80078020C05BFE
:1055F000C0F34410A84207D08020C05BC0F3441120
:105600002A4635A017F0E2FB3C4800EB8514A4F8CD
:105610002280002020806080A08097F89000C0F356
:10562000C0010022284600F0F5FBB8F1030F04DDAD
:10563000608820F0200020306080608820F04000EA
:1056400040306080608820F008000830608060880A
:1056500020F001006080022020810020E0834FF4D0
:105660004870E0800020A083322060831920608190
:105670000520A0814FF4397060824FF44870A082F9
:10568000608A208400206062208820F400702080DE
:105690000020A0624FF4C870A0876D1C082D96DB17
:1056A00000231A461946184605F006FCFF2000F0B4
:1056B0001DF90020BDE8F0815C080020452D4E75E5
:1056C0006D20746F6F206C617267655B25645D0D82
:1056D0000A000000E81B0020537465706E6F5F6560
:1056E0006E6964785B25645D213D456E636F64651A
:1056F0005F6964785B25645D0D0A0000C83C00208A
:105700002DE9F0474FF0000900BF76480078401CB3
:10571000744908700878C11700EB5171C910A0EBEB
:10572000C101704A117070481146097800EB81146C
:10573000A07800F0010000B9D0E0608C06F048FCD1
:10574000054625BB608B18B1608B401E6083C5E0A9
:105750000A2060832088C0F3402000285CD014F029
:10576000F5FCA062208820F4007020804FF0010931
:105770004FF6FF70A08500206087E0864FF6FF702F
:1057800020870020E08520866086A08644E020886F
:10579000C0F34020002835D1A078C0F3C00010B17C
:1057A000E08A608702E04FF6FF706087E18E228F0B
:1057B000881A002801DB014600E041428FB2208EAA
:1057C00028B9142F1DDD40F6EC70874219DA628F7C
:1057D000A18D608C04F0BAFC228FE18E638C43F4BF
:1057E000807004F0B3FC228EE18D638C43F4007072
:1057F00004F0ACFCA28E618E638C43F4407004F024
:10580000A5FC00BF208820F4007000F50070208007
:10581000A06A08B10020A062214632480078FFF754
:1058200053FB0646002E05DAB9F1000F01D0002027
:10583000608353E02088C0F3431028B121462948F3
:105840000078FEF7F9FD49E0207800F0010078B11A
:10585000208820F001002080608820F00200801C59
:105860006080E08A2081608C0022114609F062FD90
:105870001DB9A078C0F3400058B94DB1A078C0F36D
:10588000400028B90022042116480078FFF7D2FB17
:1058900024E02078C0F3800080B1214611480078D0
:1058A000FEF71AFF0FFA80F8608C0122414609F0DA
:1058B00041FD208820F0040020800EE0A078C0F395
:1058C000001050B9608C06F055FB82462346012239
:1058D000514604480078FEF71BFF00BF00BFBDE83B
:1058E000F08700005D080020C83C0020F8B50546A0
:1058F0000027082D19DA214800EB85142146284697
:10590000FFF7E2FA064606F1640038B1608820F03D
:10591000080008306080208B47102DE0608820F060
:10592000080060804FF6FF7726E0FF2D24D1002588
:105930001EE0124800EB851421462846FFF7C4FA02
:105940000646208B0090E38A2A4631460CA017F0C9
:105950003DFA46B90120A8400743608820F00800BE
:105960000830608003E0608820F0080060806D1CD3
:105970000E4800788542DCDB3846F8BDC83C002084
:105980005353495F526561643D202564202E2E2EBD
:105990002564205B636F6465723A256420737461CB
:1059A000743A307825785D0D0A0000005C0800200C
:1059B0002DE9F04105460E4614480078854200DA8C
:1059C0001EB94FF0FF30BDE8F081114800EB85149F
:1059D000A07800F0010008B90020F4E7608820F00A
:1059E00010006080A078C0F3C00008B90020EAE78A
:1059F00021462846FEF770FE07463760208820F0D3
:105A00000800083020800120DDE700005C0800204D
:105A1000C83C00202DE9F04705460E4691464FF060
:105A2000000800BF13480078854200DB1DE01248E3
:105A300000EB85142088C0F3431000B115E0A07876
:105A4000C0F3001018B1608820F010006080A078CA
:105A5000C0F3C00000B908E021462846FEF73CFE2E
:105A600007B237804FF0010800BF00BF4046BDE8D5
:105A7000F08700005C080020C83C00200246C829CE
:105A800001DD00207047082A03DA034800EB821387
:105A9000D9830120F6E70000C83C00200246B1F59A
:105AA000487F01DD00207047082A03DA024800EB36
:105AB000821399870120F6E7C83C00200246B1F521
:105AC000487F01DC002901DA00207047082A03DA48
:105AD000024800EB821399820120F6E7C83C0020BF
