:020000040802F0
:100000007074002099010208AD7C02081575020881
:1000100077780208310C02086D2103080000000007
:100020000000000000000000000000005D890208E0
:10003000EB330208000000004B820208C1130308E2
:10004000772103084982020825140308D78502088E
:100050003162020821850208C13F0208D13F02082F
:10006000D93F0208E13F0208E93F020829310208AE
:100070002B3102082D3102082F31020831310208DC
:1000800033310208353102089D090208470C020885
:100090003B0C0208430C0208450C0208EB3F020827
:1000A0002714030839140308371403082F1403080E
:1000B0004114030849140308511403082B7502085E
:1000C000297502082F7502082D7502083586020869
:1000D00037860208FD1D0308051E0308071E0308D6
:1000E000C93F0208D5850208A57E02085F140308EF
:1000F0006B140308691403086114030837310208FC
:100100009B63020805860208531403083986020817
:10011000F91D0308FB1D03085514030857140308B1
:1001200039310208413102084331020845310208E1
:10013000B3010208B3010208B3010208B3010208C7
:10014000B3010208B3010208B3010208B3010208B7
:10015000B3010208B3010208B3010208B3010208A7
:10016000B3010208B3010208B3010208B301020897
:10017000B3010208B3010208B3010208B301020887
:10018000B3010208DFF80CD000F02CFA0048004759
:10019000E173030870740020064880470648004752
:1001A000FEE7FEE7FEE7FEE7FEE7FEE7FEE7FEE727
:1001B000FEE7FEE7C91303088501020840EA0103D0
:1001C0009B0703D009E008C9121F08C0042AFAD20D
:1001D00003E011F8013B00F8013B521EF9D27047D1
:1001E000D2B201E000F8012B491EFBD27047002279
:1001F000F6E710B513460A4604461946FFF7F0FF26
:10020000204610BD421C10F8011B0029FBD1801AAA
:100210007047F0B480EA0102D40F4200B2EB410F04
:1002200002D20246084611464A0042D0C30DDDB252
:10023000C1F3C752AD1A202D35DAC1F3160141F4CE
:10024000000204B15242C5F1200602FA06F12A4129
:100250001044B3EBD05F23D0C4B1012DA0EBC35049
:1002600009DCF0BC4FF0004202EAC352DBB200F5F9
:10027000000000F02CB9400000F1807000EBC3508A
:10028000A0F1807040EAD170490009E0490841EAD4
:10029000C071A0EBC35000F50000400800EBC35054
:1002A000F0BC00F00BB96142012202EB4101001BDE
:1002B000F6E7F0BC704781F00041AAE780F000400B
:1002C000A7E780EA010210B502F00043400022D007
:1002D0004A001FD0010E01EB1261C0F35600C2F3B9
:1002E000560240F4000042F40002A0FB0220000489
:1002F0007F39140400D0401C50EA124001D4400061
:10030000491EC2B20C0604EBD010401C4008802AE3
:1003100002D003E0002010BD20F00100002900DA27
:100320000020184310BD2DE9F04D81EA030404F0CC
:10033000004B21F0004514464FF0000A23F0004125
:1003400050EA050220D054EA01021DD0C5F30A5735
:100350000246C5F31303C1F31300C1F30A5640F478
:10036000801543F48013A7EB0608101BD64608F24D
:10037000FD3873EB050002D308F1010801E0921883
:100380005B41B8F1000F03DA00200146BDE8F08DB3
:1003900000204FF48011064684460EE0171B73EBD5
:1003A000050705D3121B63EB050306434CEA010C5A
:1003B00049084FEA300092185B4150EA0107EDD13D
:1003C00052EA030012D082EA040083EA05010843DE
:1003D00005D0101BAB4106D20122002306E000220B
:1003E0004FF0004302E06FF0010253101AEB0600D9
:1003F0004CEB085110EB0A0041EB0B01BDE8F04D4E
:1004000000F093B8C10F80EAE0700844CA07962351
:10041000002100F05CB80EB5C10F80EAE07008441E
:10042000CA07002140F233438DE80E000A460B460E
:1004300000F08AF803B000BD00F0004220F0004058
:10044000C10DC0F3160040F400007F2901DA00203E
:100450007047962903DCC1F19601C84001E0963946
:100460008840002AF4D040427047C1F30A5210B5C8
:10047000C1F3130140F2FF3341F480119A4201DAD3
:10048000002010BD40F233439A42A2F2334203DC13
:10049000524200F003F810BD904010BD202A04DB4A
:1004A000203A21FA02F00021704721FA02F3D040ED
:1004B000C2F1200291400843194670470029A8BFA5
:1004C0007047401C490008BF20F00100704710B47D
:1004D000B0FA80FC00FA0CF050EA010404BF10BC32
:1004E000704749B1CCF1200421FA04F411FA0CF15F
:1004F00018BF012121430843A3EB0C01CB1D4FEA98
:1005000000614FEA102042BF002010BC704700EB92
:10051000C35010440029A4BF10BC7047401C4900C0
:1005200008BF20F0010010BC704710B5141E73F115
:10053000000408DA401C41F1000192185B411A43A3
:1005400001D120F0010010BD2DE9F04D92469B46EF
:1005500011B1B1FA81F202E0B0FA80F22032904695
:1005600000F052F804460F4640EA0A0041EA0B0147
:1005700053465A46084313D0114653EA010019D096
:10058000C8F140025046FFF789FF05460E46504627
:100590005946424600F038F8084305D0012004E0EF
:1005A00020463946BDE8F08D0020054346EAE07656
:1005B0002C4337430A986305E40AA0EB08000022A5
:1005C000FD0A44EA47540A3002D500200146E9E713
:1005D000010510196941DDE9084500196941BDE8C7
:1005E000F04DA2E7064C074D06E0E06840F001033D
:1005F00094E8070098471034AC42F6D3FFF7C6FDE5
:10060000047E0308247E0308202A04DB203A00FA33
:1006100002F1002070479140C2F1200320FA03F359
:1006200019439040704770B58C1810F8015B15F0B5
:10063000070301D110F8013B2A1106D110F8012B54
:1006400003E010F8016B01F8016B5B1EF9D12B0779
:1006500005D40023521E0DD401F8013BFAE710F82F
:10066000013BCB1A921C03E013F8015B01F8015B1C
:10067000521EF9D5A142D8D3002070BD10B5002478
:1006800014E00C4800EB0410037A601CC2B2094865
:1006900000EB04100179084800F0ACF9074800EBC2
:1006A0004400044901EB0411C860641C032CE8D326
:1006B00010BD0000B805002000210140E805002021
:1006C00010B596B00121880507F0C0FD002404E0B4
:1006D0000020394921F81400641C032CF8D3374852
:1006E00002F05AFD01A802F06FFE4FF00070019079
:1006F0003348029030480390002004900320059076
:10070000002006904FF48060079040000890800021
:10071000099040110A9040020B9000200C9001209B
:100720000D9000200E900F9001A9244802F020FEA9
:100730000121224802F024FD0121480207F0C6FDF4
:1007400010A800F0B8F90020109001208DF84400A6
:100750008DF84500002012901390149003208DF81E
:10076000540010A916484C3800F01AF9FFF786FF1C
:10077000012113484C3800F076F8012110484C381C
:1007800000F066F801210E484C3800F03DF80122D7
:1007900010210A4802F0CEFD3B208DF80000032016
:1007A0008DF8010001208DF802008DF803006846E5
:1007B00007F08CFA16B010BDE8050020586402401E
:1007C0004C21014010B5002414E00C4800EB04104B
:1007D000037A601CC2B2094800EB04100179084892
:1007E00000F008F9074800EB4400044901EB04114C
:1007F000C860641C062CE8D310BD0000580500201A
:10080000002001405C24002021B1826842F00102F6
:10081000826003E0826822F001028260704700007B
:100820000021084A1168084A1140D0E900231A4300
:1008300083681A43C3681A431143044AC2F8041375
:100840007047000004230140E030FCFF002001401D
:1008500021B1826842F48072826003E0826822F4EF
:1008600080728260704721B1826842F400728260B7
:1008700003E0826822F400728260704710B59AB07B
:100880000121880507F0E2FC002404E00020404933
:1008900021F81400641C302CF8D33E4802F07CFC94
:1008A00005A802F091FD002005903B4806903848CD
:1008B0000790002008903020099000200A904FF403
:1008C00080600B9040000C9080000D9040110E90C5
:1008D00040020F90002010900120119000201290F3
:1008E000139005A92B4802F043FD0121294802F08D
:1008F00047FC0121080207F0E9FC0020019002906A
:100900000390049001A8FFF78BFF14A800F0D3F820
:100910000020149001208DF854008DF8550000201F
:1009200016901790189006208DF8640014A91A48A4
:100930004C3800F035F8FFF745FF012000F0C6F80D
:10094000012000F0D9F8012113484C38FFF78BFF44
:10095000012111484C38FFF77BFF01210E484C382C
:10096000FFF752FF012210210A4802F0E3FC382071
:100970008DF8000003208DF8010001208DF80200A1
:100980008DF80300684607F0A1F91AB010BD000009
:10099000FC230020106402404C20014070470000FE
:1009A00030B50246002000235068104C20400D79DD
:1009B0000C6844EA05242043506090680C4C2040A9
:1009C000D1E903542C438D682C434D7944EA450406
:1009D00020439060D06A20F470000C7D641EE4B265
:1009E000234340EA0350D06230BD0000FFFEFFFC0D
:1009F000FDF7FFC0F0B504460D4600200021092D8B
:100A000011DDE068A5F10A0606EB4607072606FA9F
:100A100007F18843A5F10A0606EB460603FA06F13C
:100A20000843E0600CE0206905EB4507072606FA5D
:100A300007F1884305EB450603FA06F108432061F8
:100A4000072A0FDA606B561E06EB86071F2606FA8A
:100A500007F18843561E06EB860605FA06F10843A1
:100A6000606322E00D2A0FDA206BD61F06EB8607A3
:100A70001F2606FA07F18843D61F06EB860605FAFD
:100A800006F10843206310E0E06AA2F10D0606EBD0
:100A900086071F2606FA07F18843A2F10D0606EB2A
:100AA000860605FA06F10843E062F0BD816841F070
:100AB0008041816070470021016001714171816056
:100AC000C1600161012101757047000038B108491A
:100AD000096841F40001074AC2F8041306E004491A
:100AE000096821F40001034AC2F8041370470000AA
:100AF000042301400020014038B10849096841F44D
:100B00008001074AC2F8041306E00449096821F489
:100B10008001034AC2F80413704700000423014017
:100B20000020014010B50348FFF7C0FF0248FFF75F
:100B3000BDFF10BD00210140002001404FF6FF71B4
:100B40000F4A116000210F4A1160002012E00021BD
:100B50000D4A42F820100D4A42F8201001210C4A9B
:100B600042F8201000210B4A42F820100A4A42F8AD
:100B70002010401C0228EAD30021084A1160704767
:100B800024000020280000208C0000209400002079
:100B90009C000020AC000020A4000020B800002031
:100BA00000B50648006840B1054801680348006880
:100BB00012F0CAF800200149086000BD0C000020B6
:100BC0001000002010B51348006800B110BD124895
:100BD000006800B1FAE71148007800B9F6E710495B
:100BE0000D4812F013F904462CB10D4801680A486B
:100BF000006806F0FEFE07F0D3FE044644B1002173
:100C0000204612F0BDF818B90021204612F028F94C
:100C100000BFDBE7180000200C000020A806002021
:100C20001000002001200149087070473F0000605B
:100C3000042012F081F800BFFEE710B515F072FE37
:100C400010BD70477047704700B589B00121480654
:100C500007F01CFB3E4800F07FF805A800F00AFAF8
:100C600000208DF81A008DF81B008DF81C008DF8FF
:100C70001D008DF81E0001208DF81F0000208DF84A
:100C8000170009208DF8180003208DF819000220A4
:100C9000ADF8140005A92E4800F012F900208DF8D7
:100CA0000E0001208DF80F008DF81000002013F0C9
:100CB000C9F84FF6FF7101EA4010ADF804000020BA
:100CC000ADF806000846ADF80800ADF80A000020AF
:100CD000ADF80C0001208DF8110001A800F058F8C3
:100CE00001208DF80E008DF80F008DF8100013F024
:100CF000A9F84FF6FF7101EA4010ADF8040000209A
:100D0000ADF806000846ADF80800ADF80A0000206E
:100D1000ADF80C0001208DF8110001A800F038F8A2
:100D2000012202210A4800F0C2F814208DF82000A8
:100D300000208DF821008DF8220001208DF823007D
:100D400008A806F0C3FF00200249086009B000BDF2
:100D5000006400402807002010B504460B48844278
:100D600009D10121480607F0A1FA00214FF00070D7
:100D700007F09CFA08E00121880607F097FA0021A5
:100D80004FF0806007F092FA10BD00000064004050
:100D900010B50021837A012202FA03F13D4A12685C
:100DA00042F001023B4B1A603A4A1C3212688A43F5
:100DB000384B1C331A60027BCAB9364A0C321268AF
:100DC0008A43344B0C331A604288C38842EA034397
:100DD000304A4032847A42F834300288838842EACA
:100DE00003432C4A4032847A02EBC4025360027BF4
:100DF000012A19D1274A0C3212680A43254B0C33B9
:100E00001A604288038842EA0343224A4032847AC5
:100E100042F83430C288838842EA03431D4A403294
:100E2000847A02EBC4025360C27A3AB9194A121D9D
:100E300012688A43174B1B1D1A6006E0154A121DE3
:100E400012680A43134B1B1D1A60028932B9114AFA
:100E5000143212688A430F4B14331A600289012A34
:100E600006D10C4A143212680A430A4B14331A6032
:100E7000427B012A06D1074A1C3212680A43054BFD
:100E80001C331A60034A126822F00102014B1A60F7
:100E900010BD000000660040014600208A69C2F3D0
:100EA00007407047014600208A69100E70471AB14A
:100EB00043690B43436102E043698B4343617047DD
:100EC00030B5024600200023146824F002041460A8
:100ED000146844F00104146000E05B1C546804F0E2
:100EE00001041CB94FF6FF74A342F6D1546804F014
:100EF00001040CB900206CE08C79012C04D1146839
:100F000044F08004146003E0146824F0800414604A
:100F1000CC79012C04D1146844F04004146003E03F
:100F2000146824F0400414600C7A012C04D1146875
:100F300044F02004146003E0146824F020041460DA
:100F40004C7A012C04D1146844F01004146003E0BE
:100F5000146824F0100414608C7A012C04D11468F5
:100F600044F00804146003E0146824F008041460DA
:100F7000CC7A012C04D1146844F00404146003E01A
:100F8000146824F0040414608C78A407CD7844EA33
:100F900005640D7944EA05444D7944EA05540D8809
:100FA0006D1E2C43D461146824F0010414600023E6
:100FB00000E05B1C546804F001041CB14FF6FF74A0
:100FC000A342F6D1546804F001040CB1002000E003
:100FD000012030BD10B500F5D87303EB01131B6879
:100FE00003F004031372137A53B900F5D87303EBBB
:100FF00001131B6840F2FF7404EA5353136009E0C5
:1010000000F5D87303EB01131B686FF0604404EA2A
:10101000D303536000F5D87303EB01131B6803F08F
:101020000203537200F5D87303EB01135B6803F0FE
:101030000F03937200F5D87303EB01135B681B0A6F
:10104000D37400F5D87303EB01139B68C2F80B301F
:1010500000F5D87303EB0113DC680F239C5021B912
:10106000C36843F02003C36003E0036943F0200337
:10107000036110BD00218171C171017241728172E1
:10108000C1728170C170032101710221417101217E
:101090000180704710B502460020936803F080631A
:1010A000B3F1806F00D110E0936803F00063B3F1F7
:1010B000006F01D1012008E0936803F08053B3F181
:1010C000805F01D1022000E00420042874D002F5E2
:1010D000C07303EB00131B6803F0010402F5C07337
:1010E00003EB00131C600B7A7BB94B7A0C8843EA44
:1010F000445302F5C07404EB00142468234302F542
:10110000C07404EB0014236010E00B7A4C6843EACF
:10111000C4034C7A234302F5C07404EB0014246822
:10112000234302F5C07404EB001423608B7A03F0B0
:101130000F038B7202F5C07303EB00135B6823F09F
:101140000F0402F5C07303EB00135C6002F5C0737B
:1011500003EB00135B688C7A234302F5C07404EB45
:10116000001463608B7B1C064B7B44EA03440B7BBF
:1011700044EA0323CC7A234302F5C07404EB001441
:10118000A3608B7C1C064B7C44EA03440B7C44EA42
:101190000323CC7B234302F5C07404EB0014E3600B
:1011A00002F5C07303EB00131B6843F0010402F562
:1011B000C07303EB00131C6010BD000010B50B489A
:1011C000007800B910BD0A4800684FF2FF310840AE
:1011D00050B10848007820B105480168FD2011F0A1
:1011E0003FFE00200349087000BFEBE770060020B7
:1011F000F40600207206002070B50446207800F046
:10120000800050B12578667845EA0620A389628976
:10121000218906F0CCFB012070BD0020FCE7000016
:1012200010B50A48006838B112F092FA60B1002196
:10123000B82011F015FE07E012F08AFA032803D057
:101240000021B92011F00CFE10BD00005C00002050
:1012500010B514F053F950B10C48006844F6206101
:10126000884204D209480068401C0849086014F00C
:1012700051F950B10648006844F62061884204D212
:1012800003480068401C0249086010BDD8000020D7
:10129000DC00002010B50246074B1B689343064C48
:1012A00023600846037803F001031BB1038823F091
:1012B0000103038010BD0000F406002070B5044651
:1012C00004B970BD60780C2875D2DFE800F0DA064A
:1012D000212ADADA3ECBCCCFD4D72046FFF78CFFD9
:1012E00000B1CFE0A078482811D1E07851280ED184
:1012F000207954280BD16079452808D1A07953284A
:1013000005D1E079542802D1012060490870B9E084
:101310002046FFF771FF00B1B4E000205B49087080
:10132000B0E02046FFF768FF00B1ABE05748007817
:1013300050B163891AB2E3780BB1012300E00023B6
:101340001946A0780CF0CAFE9CE02046FFF754FF37
:1013500000B197E0208909287ED2DFE800F005126D
:101360001F2D52565A5E66002278657842EA0520A3
:10137000474A126813142189454A126806F017FB80
:101380006EE02278657842EA0520424A126813141A
:101390002189404A126806F00AFB61E022786578EC
:1013A00042EA05203C4A1268131421893A4A12681D
:1013B00006F0FDFA54E064E02178627841EA022008
:1013C000334909680B1432490A68002106F0EFFA24
:1013D0002178627841EA02202E4909680B142D49D0
:1013E0000A68012106F0E3FA2178627841EA0220D6
:1013F000294909680B1428490A68022106F0D7FA1E
:101400002EE00020224908602AE0002021490860DF
:1014100026E000202049086022E000201C490860E6
:101420001C4908601C4908601AE060891A4909686B
:1014300088420ED06089184A1268811AED2011F096
:101440000FFD62890023144801684FF6F27006F020
:10145000AEFA0020104900E001E0086000E000BFA3
:1014600000BF0FE00EE007F095FC0BE0E178A078FC
:1014700016F072FA06E007F0A3FC03E007F062FC46
:1014800000E000BF00BF00BF1BE700006F000020AE
:1014900028070020300700203407002070B50446DC
:1014A00004B970BD7B48007800B9FAE760780F286E
:1014B00073D2DFE800F0EB0829565F687989949FC2
:1014C000AAB4BFCEDA002046FFF796FE00B1DEE0F8
:1014D00071480078B8B1012013F0C4FF38B9032077
:1014E0006E49086000220121084612F0DDFB002051
:1014F00013F0B8FF38B903206849086000220121C1
:10150000104612F0D1FBC2E02046FFF775FE00B195
:10151000BDE0208920B101280FD002281ED10FE0A4
:1015200005F03CFB05462178627841EA0220A38958
:101530000022294606F03BFA11E0FFF771FE0EE0AB
:101540005748006838B15648006806F029FA00206C
:101550005349086001E003F0EFFB00E000BF00BF6B
:1015600095E02046FFF748FE00B190E020894D4904
:1015700008608CE02046FFF73FFE00B187E020893D
:1015800006F092FC83E02046FFF736FE00B17EE0D5
:10159000E278012A02DB012301E077E0002319460B
:1015A000A07816F0C1FA72E02046FFF725FE00B1E0
:1015B0006DE0A07818B9E07804F06EFD03E0618971
:1015C000E07804F0FBFC00BF2046FFF715FE00B1F9
:1015D0005DE0E178A078012204F086FD57E0204626
:1015E000FFF70AFE00B152E061892089002210F065
:1015F000EBFD4CE02046FFF7FFFD00B147E06189BD
:101600002089012210F0E0FD41E02046FFF7F4FDC3
:1016100000B13CE06189208911F044FB37E02046AD
:10162000FFF7EAFD00B132E02279E178A07804F01A
:101630005BFD2CE02046FFF7DFFD00B127E02178BD
:10164000627841EA0220A3890022012106F0AFF965
:101650001DE02046FFF7D0FD00B118E02089642886
:1016600002DD20891049086011E02046FFF7C4FD23
:1016700000B10CE0A07818B900200C49087004E013
:10168000A078012801D10949087000E000BF00BF1F
:1016900000BF06E72D000020A8060020AC060020B1
:1016A0000C0000202400002008070020F800002083
:1016B00070B5044604B970BD2046FFF79DFD00B12A
:1016C000F9E712F05BF8054635B1012009490870C9
:1016D000A800094908600AE012F050F8217841EAB0
:1016E0000026A38900221146304606F060F900BFAB
:1016F000E1E700003C0000204000002070B50446F7
:1017000004B970BD9448007800B9FAE760780828F9
:1017100070D2DFE800F06F04265077A1D7F520469D
:10172000FFF76AFD00B114E1012013F09BFE38B908
:101730008A48007840F48071FE2011F091FB08E1A6
:10174000002013F08FFE28B984480178FE2011F0A4
:1017500087FBFEE0A3896289E178A07803F096FE1A
:10176000F7E02046FFF748FD00B1F2E00025002633
:10177000A07800F0010018B179488068C0B2054334
:10178000A07800F0020020B175480068C0B245EAB8
:101790000025A07800F0040018B171484068C0B27C
:1017A00006432178627841EA0220A389324629461D
:1017B00006F0FDF8CDE02046FFF71EFD00B1C8E0C1
:1017C000A07870B1E07810B1012808D103E06089F9
:1017D0006449086004E060896349086000E000BF74
:1017E0000FE0E07810B1012809D104E060895F4979
:1017F000086005E0ACE060895D49086000E000BF7A
:1018000000BFA6E02046FFF7F7FC00B1A1E00020F2
:10181000A17821B1012906D0022909D105E0E1789A
:1018200001F10C0005E0E07803E0E178881D00E0BC
:1018300000BF00BF618939B1012181404D4A126862
:1018400011434C4A116006E001218140494A126867
:101850008A4348490A607CE02046FFF7CDFC00B18E
:1018600077E000254448007810B1A07800B970E016
:10187000A078022800DD6CE005F084FCA07810B1AF
:10188000A078401E00E00220354951F82000E178A0
:1018900001F0070201219140084008B9012000E051
:1018A00000200546E178A0782A4603F00DFE0220CC
:1018B00032490870E178A07801EBC000203030494F
:1018C000087046E02046FFF797FC00B141E06289CE
:1018D000E178A07803F0A2FD0546A278E67842EA16
:1018E00006212278667842EA0620628912B1012236
:1018F00001E005E0002213462A4606F058F828E0E9
:101900002046FFF779FC00B123E000251A48007853
:1019100010B1A07800B91CE0A078022800DD18E022
:1019200005F030FC608908B1012000E00020054688
:10193000E178A0782A4603F0C7FD01200F4908701E
:10194000E178A07801EBC00020300D49087000E07C
:1019500000BF00BF00BFD4E62D00002040060020DD
:10196000CC0D0020800000208400002078000020A2
:101970007C000020880000202E0000206D00002048
:101980006E00002038B5044604B938BDF748007829
:1019900000B9FAE760781E287AD2DFE800F0790F04
:1019A00053AEDFEEEDECEBEA7979797979E9797983
:1019B0007979E8E77979797979E6E5E42046FFF7FE
:1019C0001BFC00B1EDE1012013F04CFD38B9E848F3
:1019D000007840F48071FE2011F042FAE1E12089A4
:1019E000022811D003DC38B1012828D108E00328EF
:1019F0000ED0FF2823D11BE0A07907F00FFB1FE0DA
:101A0000A0790AF045FA1BE0A0790AF06FFA17E016
:101A1000608905F047FA00B112E060890CF08EFA97
:101A20000546A079C0F30011284609F083FF07E0BE
:101A3000A279C2F30011608909F07CFF00E000BFC9
:101A400000BFAEE12046FFF7D7FB00B1A9E16089F6
:101A500005F028FA00B1A4E1A07805284AD2DFE811
:101A600000F003040527350000BF00BFE07880B117
:101A70006289A078012105F0C5F9054621786278D0
:101A800041EA0220A3890022294605F090FF0EE0DA
:101A900086E1A078012105F017F9054621786278E2
:101AA00041EA0220A3890022294605F080FF22E0B6
:101AB000608907F021FD05462178627841EA02201D
:101AC000A3890022294605F072FF14E0E07878B17E
:101AD0006289A078012105F095F9054621786278A0
:101AE00041EA0220A3890022294605F060FF00E0B8
:101AF00001E000E000BF00BF53E12046FFF77CFBA0
:101B000000B14EE1A07805F0CDF900B149E1012026
:101B100013F0A8FC38B99648007840F48071FE2094
:101B200011F09EF93DE1E07840B1A17801208840B4
:101B30009049096808438F49086007E0A1780120AF
:101B400088408C49096881438A480160A389628979
:101B500011B2A07801220CF097FA22E12046FFF79B
:101B60004BFB58B11DE111E106E1F4E0EAE0D7E0FA
:101B7000C9E0C7E0A0E095E027E015E0E07805F0D7
:101B800091F900B10DE1E0780CF0D8F90546A078A4
:101B900028B1608901B228460AF010FA03E0618991
:101BA00028460AF0F3F9FCE02046FFF725FB00B1D8
:101BB000F7E0208920B9608901210AF05DFA03E08D
:101BC000608901210AF094FAEBE02046FFF714FB4C
:101BD00000B1E6E0208907284ED006DC5FD2DFE8BE
:101BE00000F0172129333D41460040F20112811ACD
:101BF00090421BD007DC082847D009284AD0B0F50E
:101C0000807F4CD109E0012919D0022947D120E079
:101C1000608900210AF0CAFB42E0608901210AF0D4
:101C2000C5FB3DE060890AF0CDFB39E060890AF030
:101C300041FC35E0608900210AF092F930E06089CA
:101C400001210AF08DF92BE0608900210AF0A6FA43
:101C500026E0608901210AF0A1FA21E060890AF0FA
:101C600073F91DE0608901210AF06EFC18E06189BA
:101C700001200AF09FFA13E0618909B1012100E017
:101C80000021084603F0EEFE0AE0618901200AF017
:101C90001DFB05E0608901210AF09AFA00E000BF0F
:101CA00000BF7EE02046FFF7A7FA00B179E0618926
:101CB00020890AF0C7F974E02046FFF79DFA00B1C9
:101CC0006FE0012013F0CEFB38B92948007840F4CA
:101CD0008071FE2011F0C4F863E0E07800F07F002E
:101CE0000090E57805F0800515B14FF4007500E02F
:101CF000002545F00103A289658929B2A0780CF07E
:101D0000D6F94EE04DE02046FFF776FA00B148E004
:101D1000A07820B96289E17801200AF021FA40E038
:101D20002046FFF769FA00B13BE0E07800F00302DB
:101D3000607908B1207900E0FF200146012003F01E
:101D4000B5FF2EE02046FFF757FA00B129E02089C1
:101D500003F07EFE25E02046FFF74EFA00B120E0BA
:101D60006189012005F07AFF1BE000002D000020B2
:101D700040060020380100202046FFF73DFA00B160
:101D80000FE0A178012005F013FF0AE02046FFF7DD
:101D900033FA00B105E06189208905F02DFF00E0EC
:101DA00000BF00BF00BFF0E52DE9F04104460CB9CB
:101DB000BDE8F081F748007800B9F9E7A078052878
:101DC0000ED2DFE800F0030507090B00022508E04A
:101DD000032506E0042504E0052502E0062500E0D1
:101DE000E6E700BF6078202873D2DFE800F07210C9
:101DF0002F538BA0B2BECAFAF8F7727272F6F57260
:101E00007272F47272F3F2F1F0EFEE72EDEC2046C2
:101E1000FFF7F2F900B1E5E1012013F023FB38B937
:101E2000DD48007840F48071FE2011F019F8D9E106
:101E3000E078294605F05AF800B1D3E1A379628928
:101E400011B2E0782A460AF053FDCBE12046FFF7B5
:101E5000D3F900B1C6E1012013F004FB38B9CE4834
:101E6000007840F48071FE2010F0FAFFBAE160893A
:101E700058B1E078294605F039F800B1B2E1A2790D
:101E8000E07829460AF0ECFC03E0A17928460AF044
:101E9000F9FCA7E12046FFF7AFF900B1A2E1002667
:101EA000E078052822D2DFE800F0030405151600CB
:101EB00000BF00BF607930B12279E078294604F094
:101EC000A1FF064604E0E078294604F0FDFE064640
:101ED0000DE086E100BF607930B12279E0782946D3
:101EE00004F090FF064600E001E000E000BF00BF04
:101EF0002178627841EA0220A3890022314605F068
:101F000056FD6FE12046FFF777F900B16AE1FF2641
:101F1000E178284605F0ECF806462178627841EA37
:101F20000220A3890022314605F041FD5AE12046F6
:101F3000FFF762F900B155E1E078294604F0D6FFD9
:101F400000B14FE1628911B2E0782A460AF0C0FC84
:101F500048E12046FFF750F900B143E16289E1789A
:101F6000A378981C09F07CFC3CE12046FFF744F97B
:101F700000B137E16189A278921CD0B20AF098F9D9
:101F800030E12046FFF738F900B12BE1A07818B90D
:101F90006189E07809F074FCA078012804D1E27826
:101FA000911C60890AF0D0FAA078022803D16189D7
:101FB000E07809F0ADFCA078032803D16189E078CE
:101FC00009F072FC0EE1F8E001E1ECE0DDE0D2E0C6
:101FD000B8E0AAE09BE07BE08DE06AE016E00AE072
:101FE000FFE72046FFF708F900B1FBE0618920898F
:101FF0000AF0BCF9F6E02046FFF7FEF800B1F1E088
:10200000A2896189208903F00BFFEBE02046FFF7EE
:10201000F3F800B1E6E0A078012806D0022816D037
:10202000032833D0042841D13FE0012013F01AFAED
:1020300038B95948007840F48071FE2010F010FF44
:1020400035E0A2896189E07803F064FE2FE06089C1
:1020500000280DDDE0780AF063FB064621786278FF
:1020600041EA0220A3890022314605F0A0FC0CE0E1
:10207000E0780AF060FB06462178627841EA0220A7
:10208000A3890022314605F092FC10E0A0890028C7
:1020900004DD6189E07806F086FF05E0A27A02F0AF
:1020A0000301E0780AF090FB01E000E000BF00BF10
:1020B00098E02046FFF7A0F800B193E0A07805284B
:1020C00005DA6289E178A378981C0AF049F889E07A
:1020D0002046FFF791F800B184E0E37803F00302B3
:1020E00063790BB1237900E0FF231946A378981C8C
:1020F00003F0DCFD76E02046FFF77EF800B171E0EA
:10210000042D03D16189E07807F046F86AE02046A3
:10211000FFF772F800B165E0032D05D1628911B2B5
:10212000E0782A460CF0DEFF5CE02046FFF764F81A
:1021300000B157E0032D04D1A2896189E0780AF04B
:1021400069FB4FE02046FFF757F800B14AE0032D46
:1021500010D1E0780AF01AFB06B2E0780AF0C2FA71
:1021600007B22278637842EA032021893B4632464F
:1021700005F01DFC36E02046FFF73EF800B131E0E7
:102180006189284605F042FD2CE02046FFF734F82F
:1021900020B127E02D00002040060020618928465C
:1021A00005F05CFD1EE02046FFF726F800B119E0BF
:1021B0006189284609F0FEFF14E02046FFF71CF86D
:1021C00000B10FE0618928460AF08CF80AE0204649
:1021D000FFF712F800B105E0618928460AF076F8A9
:1021E00000E000BF00BF00BFE2E500002DE9F041C4
:1021F00004460CB9BDE8F0816148007800B9F9E700
:1022000060780C287BD2DFE800F0B7061B2D3F4F2B
:10221000576789929BA82046FEF7EEFF00B1ACE01D
:1022200004F04CFD054604F0A9FE064621786778C7
:1022300041EA07202B0CAAB2314605F0B8FB9CE01E
:102240002046FEF7D9FF00B197E011F069FA054684
:102250002178627841EA0220A3890022294605F00C
:10226000A6FB8AE02046FEF7C7FF00B185E004F038
:10227000C7FC05462178627841EA0220A389002242
:10228000294605F094FB78E02046FEF7B5FF00B143
:1022900073E02178627841EA0220A389002239495B
:1022A000096805F084FB68E02046FEF7A5FF00B151
:1022B00063E00AF0FBFB60E02046FEF79DFF00B103
:1022C0005BE02089102800DB57E011F067FF11F078
:1022D0008BFC0FF02FFF50E02046FEF78DFF00B182
:1022E0004BE0A07801280BD12278657842EA0520DE
:1022F000A3892189244A128805F059FB0DE03BE0AF
:10230000A078022809D12278657842EA0520A389BD
:1023100021891E4A128805F04AFB2EE02046FEF76E
:102320006BFF00B129E0A07804F03CFF25E02046D7
:10233000FEF762FF00B120E0A07804F01DFE1CE073
:102340002046FEF759FF00B117E02278637842EA91
:102350000320A17804F060FC0FE02046FEF74CFF5C
:1023600000B10AE02178627841EA0220A3890022C4
:10237000012105F01CFB00E000BF00BF00BF39E7F2
:102380002D000020C0000020C8060020CA06002042
:102390002DE9FC4104460CB9BDE8FC81F848007801
:1023A00018B960780C2800D0F6E7607826287CD22F
:1023B000DFE800F013192633454E7F80B1BACDF027
:1023C000EFEEEDECEBEAE9E8E7F1E5E4E3E2A8E1C2
:1023D00095818B7B7B7B7B7B7B662046FEF70CFFAE
:1023E00000B1B0E2AFE22046FEF706FF00B1AAE27C
:1023F000208910B111F020FC01E011F0F5FBA2E200
:102400002046FEF7F9FE00B19DE2208910B111F0DF
:1024100007FF01E011F0C2FE95E22046FEF7ECFE58
:1024200000B190E211F094F905462178627841EA12
:102430000220A3890022294605F0B9FA83E220464A
:10244000FEF7DAFE00B17EE22089CE4908607AE22A
:102450002046FEF7D1FE00B175E2218909B10121C4
:1024600000E00021084604F0A1FD054621786278CD
:1024700041EA0220A3890022294605F098FA62E287
:102480002046FEF7B9FE00B15DE2012004F0E0FD58
:102490000546002004F0DCFD06462178627841EA1A
:1024A0000220A3892A46314600E04BE205F07FFA7C
:1024B00049E248E247E22046FEF79EFE00B142E2D2
:1024C0006189208902F0AAFA3DE22046FEF794FED7
:1024D00000B138E26189208902F0C4FA33E2204673
:1024E000FEF78AFE00B12EE2208901F0BDFF05460D
:1024F0002278667842EA0620A38921892A4605F0D7
:1025000056FA20E22046FEF777FE00B11BE2208952
:1025100001F094FF17E22046FEF76EFE00B112E2D2
:10252000208901F073FF0EE22046FEF765FE00B140
:1025300009E2FF2002F088F905462178627841EA35
:102540000220A3890022294605F031FAFBE120464A
:10255000FEF752FE00B1F6E120896A4601A902F0B9
:1025600053FB2178627841EA0220A389DDE900214A
:1025700005F01DFAE7E169E047E03CE028E01DE0F6
:1025800009E0D2E1C6E197E189E164E156E1B1E019
:102590009EE090E067E02046FEF72EFE00B1D2E11B
:1025A000608918B9208902F07DFB06E06089012866
:1025B00003D1A189208902F0D5FAC4E12046FEF7B3
:1025C0001BFE00B1BFE16189208902F059FCBAE12C
:1025D0002046FEF711FE00B1B5E1208902F032FB82
:1025E00005462178627841EA0220A3890022294623
:1025F00005F0DDF9A7E12046FEF7FEFD00B1A2E1FE
:102600006189208902F0DEFB9DE12046FEF7F4FDA2
:1026100000B198E1608920B92089012102F062FBB4
:1026200013E06089012809D12089FF2802D102F036
:1026300081FA0AE0208902F037FA06E06089022870
:1026400003D1A189208902F0E5FB7CE12046FEF759
:10265000D3FD00B177E12278637842EA0320A178C4
:1026600001F00EFF6FE12046FEF7C6FD00B16AE102
:10267000208930B9608944490860608900F01AFDFA
:1026800015E02089012806D160893F49886060896A
:1026900000F022FD0BE02089022808D160893A4928
:1026A00048613A48007810B1608905F0CDF8012002
:1026B0003749087047E12046FEF79EFD00B142E130
:1026C000208908B1012000E000202D4908703AE17E
:1026D0002046FEF791FD00B135E104F0CDFA054644
:1026E0002178627841EA0220A3890022294605F078
:1026F0005EF928E12046FEF77FFD00B123E1207856
:10270000617840EA0120ADF80000A078ADF806003D
:10271000A07830B1012841D0022857D003287CD1BD
:1027200068E01C48006885B240F2726085420CDBAC
:1027300005EB850044F27401C1EB4000372190FBAA
:10274000F1F080B2ADF8020002E00020ADF8020026
:102750001148006885B240F2726085420CDB05EBDF
:10276000850044F27401C1EB4000372190FBF1F089
:1027700080B2ADF8040002E00020ADF8040051E0A2
:102780002D0000205C000020F82100202F000020F8
:102790002C000020F0050020F40500206B480068A4
:1027A000C0EBC00000EB40006421B0FBF1F080B250
:1027B000ADF8020066480068C0EBC00000EB4000C6
:1027C000B0FBF1F080B2ADF804002BE06148006886
:1027D000D721484340F2DC51B0FBF1F080B2ADF8B4
:1027E00002005D4800684FF6FF7101EA4000ADF855
:1027F000040017E05948006880B2ADF8020058485C
:10280000006885B2C5F53E7064214843192190FBEC
:10281000F1F0C0F1FA0080B200E002E0ADF804008F
:1028200000E000BF00BFBDF80630BDF80420BDF8D1
:102830000210BDF8000005F0BAF884E02046FEF76B
:10284000DBFC00B17FE0A07800F00F004549087084
:1028500004F098FC77E02046FEF7CEFC00B172E071
:10286000002519E0002606EB4506012707EB450782
:1028700046EA07232678677846EA0720012606EB12
:102880004506394F57F82620002606EB450657F82F
:10289000261005F08CF86D1C242DE3DB53E0204658
:1028A000FEF7AAFC00B14EE0A07808B1012000E0DC
:1028B00000202E49087046E02046FEF79DFC00B13E
:1028C00041E0208940F20122811A904214D006DCB6
:1028D00060B101280CD0A0F2011098B90AE0B1F55E
:1028E000807F0BD0B1F5007F0CD109E001250BE012
:1028F000022509E0032507E0042505E0052503E09E
:10290000062501E0002500BF00BF6189284603F0CD
:10291000CDF818E02046FEF76FFC00B113E0E17837
:10292000A0782B2211F0C0F90DE02046FEF764FCE0
:1029300000B108E0E07800F00302FF21084603F050
:10294000B5F900E000BF00BF00BF25E5F805002095
:10295000FC050020000600200406002008060020D8
:102960000C0600206C0000204830002048000020A9
:1029700070B5044604B970BD2848007800B9FAE77C
:102980006078062845D2DFE800F044030C182443A1
:102990002046FEF731FC00B13CE020892049086068
:1029A00038E02046FEF728FC00B133E0E378627996
:1029B0002179A0780CF01EFE2CE02046FEF71CFCCE
:1029C00000B127E0E37862792179A0780CF058FE15
:1029D00020E02046FEF710FC00B11BE0A07810B903
:1029E000E07809F001FCA07801280BD10CF080FE02
:1029F00005462178627841EA022000231A462946DA
:102A000004F0D5FFA078022801D104F09FFA01E07C
:102A100000E000BF00BF00BFADE700002D000020B8
:102A20002800002000B970470249097801B9FAE787
:102A300000BFF8E72D0000202DE9F04104460CB955
:102A4000BDE8F081FD48007800B9F9E76078152805
:102A50006FD2DFE800F06E0B138EB1C5D7F8F6F534
:102A6000F4F3F2F1F0EFEEEDECEBEA002046FEF7C6
:102A7000C3FB00B126E204F02DFE23E22046FEF760
:102A8000BBFB00B11EE210F079FEC7B2EC48006853
:102A9000032804D3EA480168EF2010F0E1F9E84880
:102AA000006820B1E6480068401EE5490860012042
:102AB00012F0D8FC38B9E348007840F48071FE2069
:102AC00010F0CEF9FEE1002012F0CCFC28B9DD4870
:102AD0000178FE2010F0C4F9F4E1DB480068A0B1F1
:102AE000062F10D2DFE807F003080C04070B00BF25
:102AF000A578E67808E000BF2579667904E000BF94
:102B0000A579E67900E000BF2EE0072F2AD2DFE8A2
:102B100007F0040A1129171D2300A07800F00F0503
:102B2000A07806091FE0E07800F00F05E0780609BC
:102B300019E0C6E1207900F00F052079060912E0BE
:102B4000607900F00F05607906090CE0A07900F0CB
:102B50000F05A079060906E0E07900F00F05E0799D
:102B6000060900E000BF00BF3146284605F0FEF828
:102B7000A8E12046FEF740FB00B1A3E1012012F0DE
:102B800071FC38B9AF48007840F48071FE2010F035
:102B900067F997E1002012F065FC28B9A94801788F
:102BA000FE2010F05DF98DE16289A38942EA0341BC
:102BB000208902F00DFD85E12046FEF71DFB00B1E6
:102BC00080E12278657842EA0520A389227A02F022
:102BD00007029E4D55F82210002204F0E8FE71E134
:102BE0002046FEF709FB00B16CE104F069FD0546E3
:102BF0002178627841EA0220A3890022294604F064
:102C0000D6FE5FE12046FEF7F7FA00B15AE12089CF
:102C100004F05CFD05462178627841EA0220A38930
:102C20000022294604F0C3FE4CE156E01FE042E1D9
:102C300036E151E01AE017E1D4E0C4E0B6E09AE0F2
:102C400090E081E0FFE72046FEF7D6FA00B139E1D7
:102C50006089217A01F007017D4A42F82100A189AB
:102C6000227A02F0070004F06FFD2BE100BF20463E
:102C7000FEF7C2FA00B125E110F080FD06460027FC
:102C8000042E28D226B1012E04D0022E06D103E054
:102C9000278904E0678902E0A78900E01BE000BF04
:102CA000002515E0A80047FA00F000F00F0005F03D
:102CB0000701674A42F8210062780F2A01D00122F9
:102CC00000E00022114605F0070004F03DFD6D1CF8
:102CD000042DE7DB00BFF5E000BF2046FEF78CFACD
:102CE00000B1EFE010F04AFD06460027082E2AD278
:102CF000042E28D304D0052E04D0062E06D103E0DE
:102D0000278904E0678902E0A78900E01BE000BF93
:102D1000002515E0A80047FA00F000F00F0005F0CC
:102D200007014B4A42F821006278102A01D00122A3
:102D300000E00022114605F0070004F005FD6D1CBF
:102D4000042DE7DB00BFBDE02046FEF755FA00B1D9
:102D5000B8E0208928B913F027F9618948433D4933
:102D60000860AFE02046FEF747FA00B1AAE02089EC
:102D700004F026FDA6E02046FEF73EFA00B1A1E0F1
:102D80002089401C344908602F48006830B108464B
:102D90000068052809D90520086006E02E4800686B
:102DA0000A2802D90A202C4908608BE02046FEF749
:102DB00023FA00B186E0208908B1012000E000205C
:102DC000214908607EE02046FEF716FA00B179E05E
:102DD0002089012802D02089022802D120891F4998
:102DE00008806FE02046FEF707FA00B16AE0002590
:102DF00004F0C8F9A07800F00300144951F820103D
:102E0000E07800F0070201209040014009B1012064
:102E100000E000200546A379E178A0782A4602F078
:102E20006FFC02200E490870E178A07801EBC00029
:102E300000F007000B49087044E000002D0000205E
:102E4000E000002040060020440000205C0D00202F
:102E5000B40B0020580000204C000020BC000020D3
:102E60006D0000206E0000202046FEF7C5F900B17D
:102E700028E0E178A07802F093FB0546A278E67896
:102E800042EA06212278667842EA062062890AB17F
:102E9000012200E0002213462A4604F088FD11E0DA
:102EA0002046FEF7A9F900B10CE02279E178A0787C
:102EB00004F092FC06E02046FEF79EF900B101E026
:102EC00000E000BF00BF00BFBAE500001FB54048EA
:102ED0000068401C3E49086077E004F0F5FC0446B9
:102EE00004B973E020788DF80000A0788DF8010017
:102EF000A088ADF80800E088ADF80A002089ADF898
:102F00000C00BDF80800C0B28DF80200BDF8080042
:102F1000000A8DF80300BDF80A00C0B28DF8040065
:102F2000BDF80A00000A8DF80500BDF80C00C0B21B
:102F30008DF80600BDF80C00000A8DF80700254842
:102F4000006810B12088803820809DF8000000F0D3
:102F50007F00102835D2DFE800F0080C1014181C90
:102F60002024282C3434343434306846FFF75AFD9A
:102F700028E06846FFF70CFA24E06846FFF7F8FC03
:102F800020E06846FEF7FEFC1CE06846FEF70CFFFA
:102F900018E06846FEF7B2FB14E06846FFF74CFD08
:102FA00010E06846FEF77AFA0CE06846FFF71EF973
:102FB00008E06846FEF77CFB04E06846FEF77EF911
:102FC00000E000BF00BFFDF7EBFD86E700BF1FBDBF
:102FD000700000202800002039B1084A126801233F
:102FE00083401A43054B1A6006E0044A1268012325
:102FF00083409A43014B1A60704700000074004000
:103000001FB50121480705F041F93C200090002040
:1030100001904FF400700290022003906946002056
:1030200000F00EF86946102000F00AF80121002097
:10303000FFF7D2FF01211020FFF7CEFF1FBD0000D8
:1030400030B5002200230A4C226840F6FE7484400A
:10305000A243D1E900452C438D682C43CD6844EA56
:10306000050303FA00F42243014C226030BD000046
:103070000074004008B500220092054A009200F159
:103080000802009B1A440092009A116008BD0000DB
:103090000074004008B500220092054A009200F139
:1030A0001402009B1A440092009A116008BD0000AF
:1030B0000074004070B50446E000C0EB003048F2F8
:1030C000E80190FBF1F5A9B20020FFF7D3FF012141
:1030D000002000F013F870BD70B50446E000C0EBAE
:1030E000003048F2E80190FBF1F5A9B20020FFF7AB
:1030F000D1FF0121102000F001F870BD10B541B1E1
:10310000084A126804090123A3401A43054B1A60B8
:1031100007E0044A126804090123A3409A43014BC3
:103120001A6010BD047400407047704770477047C4
:10313000704770477047704710B511F0D9FF10BD48
:103140007047704710B511F00DFF10BD0246094BD6
:103150009A4201D2084801E00648103801F00053B5
:103160001BB1064B0B40C36002E0044B0B40836075
:103170007047000010640240006002407D0F7D0F28
:1031800021B1026842F00102026003E0026822F00D
:103190000102026070470000016821F00101016036
:1031A0000021016041608160C160016121214161B4
:1031B0004A49884204D13D21484A103A91608CE046
:1031C00046491831884205D14FF47461434A103A98
:1031D000916082E041493031884205D14FF4741149
:1031E0003E4A103A916078E03C494831884205D126
:1031F0004FF07461394A103A91606EE0374960319E
:10320000884204D13649354A103AD16065E03349E5
:103210007831884204D13349304A103AD1605CE0B9
:103220002E499031884204D12F492C4A103AD1605E
:1032300053E02A49A831884205D14FF03D51274A31
:10324000103AD16049E02949884204D13D21274AFA
:10325000083A116041E025491831884205D14FF400
:103260007461224A083A116037E0204930318842BF
:1032700005D14FF474111D4A083A11602DE01B4925
:103280004831884205D14FF07461184A083A1160FC
:1032900023E016496031884204D11149134A121FB4
:1032A00011601AE011497831884204D10D490F4A62
:1032B000121F116011E00D499031884204D10A4972
:1032C0000A4A121F116008E00849A831884204D157
:1032D0004FF03D51054A121F1160704710600240C7
:1032E0003D000020400F002000003D2010640240FF
:1032F00030B503460A46002000240B4DAB4201D2F4
:103300000A4901E00849103902F000550DB14C6836
:1033100000E00C68064D2C4004EA02050DB10120C6
:1033200000E0002030BD0000106402400060024058
:103330007D0F7D0F10B501F080034BB122B14369C1
:1033400043F08003436103E0436923F0800343615A
:1033500080290BD02AB1036801F01E0423430360C7
:1033600004E0036801F01E04A343036010BD0000E5
:1033700010B500220268134B1A40CC680B68234337
:103380004C6923438C692343CC6923430C6A234350
:103390004C6A23438C6A23434C6B23438C6B23433B
:1033A0001A430260426922F00702D1E90B34234339
:1033B0001A4342610B6943604B6883608B68C3604A
:1033C00010BD00003F801CF0002101604160816061
:1033D000C160016141618161C161016241628162DB
:1033E000C162016341638163704770472DE9F8430F
:1033F00080460C46208820F0020020802088C0F300
:103400004310062878D2DFE800F0EB03275778E670
:10341000208C05F0D5FDA08AE081208C01220021BE
:1034200008F0E6F9208AC0EB0010C000642190FB90
:10343000F1F00FFA80F9208C00231A46494609F072
:1034400061FB208C4FF47A710BF074F9208820F422
:10345000F07040302080C8E0A18AE08900F0D8F800
:103460000646002E02DDA08AE08124E0208C06F0D2
:103470009FF800B1B9E0E089A081208AC0EB00107C
:10348000C000642190FBF1F00FFA80F9208C01223A
:10349000494608F0ADF9208C00231A46194609F078
:1034A00031FB208C4FF47A710BF044F9208820F422
:1034B000F0706030208098E0A18AA08900F0A8F820
:1034C0000646002E02DAA08AA08114E0208C06F0C5
:1034D0006FF800B189E0208C0122002108F088F902
:1034E000208C00231A46052109F00CFB208820F4CB
:1034F000F0708030208078E072E0208C06F058F880
:1035000000B172E0208820F4F0702080208C0AF056
:103510009FFEE089A189451A002D01DA05F5805545
:10352000A18801FB05F0C11700EB1151C1F30F3168
:10353000E1830095A389E28941462DA014F012F998
:10354000A389E2890121404600F07AF80746608AA3
:10355000C8B1608AB0F5487F01D0608A07E0208A50
:1035600000EB001000EB8000642190FBF1F0B8420A
:1035700009DD0DB16D4201E04FF0FF3529464046AF
:1035800000F04CFC26E0A078C0F3401038B9A088C9
:103590004FF47041B1FBF0F0A189451802E06D10C5
:1035A000A0890544C5F30B05E580208820F00100C3
:1035B0002080608820F00200801C60802946404600
:1035C00000F02CFC208820F4F070A03020804FF414
:1035D000C870208309E0208C002108F0ABF900BFFF
:1035E000208820F4F070208000BF00BFBDE8F88381
:1035F0005B25645D2063775B25645D202D2063631C
:10360000775B25645D203D205B25645D0D0A00002D
:1036100010B502460B46991A09B9002010BD081EC4
:1036200001DB044600E04442B4F5006F06D90029EE
:1036300002DA01F5805101E0A1F580510846EDE77D
:10364000F0B504460D460D4E06EB8416B7884FF4D0
:103650008051012D02D1D61A314401E09E1A314425
:10366000B1F5805F01D3A1F5805101FB07F64FEA68
:10367000E67C06EB1C5C4FEA2C30F0BD8C3600205B
:1036800070B506460C46E388A28A01213046FFF752
:10369000D7FF0546A078C0F3401030B9A08846385F
:1036A000A84207DAA0882D1A04E0A08FA84201DA08
:1036B000A0882D1A284670BD2DE9F04782460F4696
:1036C00090461C462078C0F3400010B90020BDE8A9
:1036D000F087B4F80490E08A01F0C2FA08B1002043
:1036E000F5E7380390FBF9F6E0880644C6F30B06CD
:1036F000002E01DA06F58056A18A3046FFF788FFD2
:103700000546281E01DB014600E041420D462089A6
:1037100010B32089A8421FDA504613F01BF8608BC3
:10372000401C6083608B404501DA0120CFE7608850
:1037300020F01000103060802078C0F3C00028B165
:1037400000220121504600F01DFC13E0AAB2022124
:10375000504600F017FC0DE02088C00B38B12088DF
:1037600020F4F0402080208820F400402080204673
:103770000BF0DEFC002060832088C00B18B9208885
:1037800020F008002080208820F00200208020887F
:1037900020F010002080002099E700000346062159
:1037A00006221248018812480288ABB1012B1BD1B6
:1037B0003AB94EF6EE60814201D1002070470120F7
:1037C000FCE739B94EF6EE60824201D10120F5E7FF
:1037D0000020F3E7AB20F1E709B90020EEE70AB9D2
:1037E0000120EBE7AB20E9E70020E7E700C0000895
:1037F0000000010810B508240120104908600221CA
:10380000182002F0A1FC0446082C01D0204610BD6F
:1038100002200A4908600021094802F063FD0446BD
:10382000082C01D02046F2E701200449086002215B
:10383000202002F089FC04462046E8E72C090020FD
:1038400000C000082DE9F05F4FF0060B06260025AA
:10385000A846A9464FF0FF3A002705E0781D8449A5
:1038600021F81700781C87B2642FF7DB8148B0F885
:1038700000B0814806880120804908605FEA0B009B
:1038800072D0A0F56E40EE3848B3A0F588501138DC
:1038900000286AD116B34EF6EE60864217D1012099
:1038A00008600221182002F04FFC0446082C02D0C8
:1038B0002046BDE8F09F02207049086000216E4854
:1038C00002F010FD0446082C08D02046F1E7FFF76F
:1038D00091FF0446082C01D02046EAE7C2E0002E02
:1038E00044D1002526E06348C088614931F81510AD
:1038F000884201D10FFA85FA554519D05C4931F853
:1039000015005F4900F044F98146B9F1010F0FD06D
:1039100002205A490860564931F81500584909886B
:1039200000F070F98046B8F1080F01D04046C0E7BA
:10393000681C85B2642DD6DB022050490860002146
:103940004C4802F0CFFC0446082C01D02046B0E7DA
:1039500001204A4908600221202002F0F5FB0446BC
:10396000082C26D02046A4E724E073E04FF6FF7031
:10397000864217D10120414908600221202002F02F
:10398000E3FB0446082C01D0204692E702203B4985
:1039900008600021374802F0A5FC0446082C08D036
:1039A000204686E7FFF726FF0446082C01D0204674
:1039B0007FE757E036B9FFF71DFF0446082C48D0D3
:1039C000204676E74FF6FF70864242D0002526E07B
:1039D0002948C088264931F81510884201D10FFACC
:1039E00085FA554519D0224931F81500244900F0CF
:1039F000CFF88146B9F1010F0FD002201F490860AE
:103A00001B4931F815001E49098800F0FBF8804673
:103A1000B8F1080F01D040464BE7681C85B2642D11
:103A2000D6DB0220154908600021134802F05AFC39
:103A30000446082C01D020463BE701200F490860CE
:103A40000221182002F080FB0446082C01D02046F9
:103A50002FE707E0FFF7CEFE0446082C01D02046F2
:103A600027E700BF00BF002004490860082020E7C6
:103A70001835002000C00008000001082C090020B3
:103A8000600700202DE9FC5F80468A4608253A48F9
:103A900001903A4800904FF00009002400264FF0B2
:103AA000000B0020FFF77AFE8146B9F1010F05D126
:103AB000334801903148009020270BE0B9F1000F06
:103AC00005D12E4801902E480090182702E0AB2027
:103AD000BDE8FC9F02202B4908604EF6EE6101987C
:103AE00002F000FC0546082D01D02846F0E75146BB
:103AF000404600F087F80646082E01D03046E7E73A
:103B000000241CE0204830F81400404515D01E4920
:103B100031F814001D4900F03BF88346BBF1010F5A
:103B20000BD0194931F814001849098800F06AF8D7
:103B30000646082E01D03046CAE7601C84B2642CC9
:103B4000E0DB01200F4908600221384602F0FCFA50
:103B50000546082D01D02846BAE702200949086029
:103B60000021019802F0BEFB0546082D01D0284631
:103B7000AEE72846ACE70000FF030108000001089B
:103B800000C000082C090020183500206007002024
:103B90002DE9F04706460F46002545F255584FF0EF
:103BA0000109154CA2460020FFF7F8FD0546AB2D94
:103BB00001D1BDE8F0871DB910490F4A521E06E039
:103BC000012D02D10C490E4A01E0AB20F1E78A46F3
:103BD000541E0AE0B4F80080B04505D134F8020C58
:103BE00038804FF0080904E0241F0AF102008442E3
:103BF000F0D800BF4846DCE70000010800C000081C
:103C0000FFFF01082DE9F0470646884608270025F2
:103C10001D4CDFF878900120FFF7C0FD0546AB2D65
:103C200001D1BDE8F0871DB91949174A521E06E0B7
:103C3000012D02D11449174A01E0AB20F1E70C46EF
:103C4000A2F1010919E02068401CA8B9022012491C
:103C500008604146204602F045FB0746082F01D088
:103C60003846DEE702200C4908603146A01C02F00D
:103C700039FB07463846D4E7241D4C45E3D30020E2
:103C8000054908608020CCE700000108FF07010813
:103C900000C00008FFFF01082C0900202DE9F041B9
:103CA00005460F461646012080F3108800BFA8196C
:103CB000642802DDAF20BDE8F08102F04BFB002458
:103CC0000DE037F814102A190A4B33F8120000F0EF
:103CD00013F8082802D04FF0FF30ECE7641CB44220
:103CE000EFDB02F0A7FA002080F3108800BF00BFCE
:103CF000E1E700001835002070B505460E460024A7
:103D000031462846FFF77EFF0446802C04D1314619
:103D10002846FFF7B7FE0446204670BD0021144A2E
:103D200011601521134A1160134A11600021134AD2
:103D30001160134A1160134A1160002004E0002151
:103D4000114A42F82010401C1428F8DB002004E03F
:103D500000210E4A42F82010401C0328F8DB002105
:103D60000B4A11604FF6FF71084A916070470000DE
:103D700088000020780000207C00002080000020C7
:103D800084000020640000207C0D0020CC0D002069
:103D90006800002010B500241D480068002836D0B7
:103DA00000BF0120A0401A490968084038B301202B
:103DB000A04018490968084000B121E0164850F8B1
:103DC000240000B91CE0144850F82400401E124999
:103DD00041F82400084650F8240080B90C2C03D286
:103DE00020460FF0A9F903E0A4F10C0010F0D0FE7A
:103DF0000120A0400649096881430548016000BFD1
:103E0000601C044602490968C1400029C9D110BD9F
:103E100068000020880000207C0D002070B504465A
:103E20000D4600232246294641F2015003F0BFFD12
:103E300070BD00002DE9F84306460C464FF0FF37F1
:103E400000BFA07800F0010000B995E02088C0F321
:103E5000402010B9E08D401CE08504F1160269464F
:103E6000304604F045FC0746002F3BD1BDF800006A
:103E7000A082606A08B100206062608820F00800BB
:103E80000830608011F05AFB3D4941F82600A078C7
:103E9000C0F3800020B1A08A40F6FF71081AA0820A
:103EA0002088C0F34020E0B9A08D4FF6FF71884212
:103EB00001D1A08AA085E08EA18A884201DAA08A79
:103EC000E086208FA18A884201DDA08A2087608E4B
:103ED00038B1A08E618E884201DA608EA086002003
:103EE000608649E0A078C0F3C00020B111F026FB45
:103EF0006062002505E04FF47A71304600F02EFA3A
:103F000005462088C0F3402028B9208E401C20861A
:103F1000608E401C6086608820F00800608041F25E
:103F20008831304600F048FA20B12088C0F34020A4
:103F300000B921E0304604F0CFFB47F2305188420F
:103F400000DD00BFBDB16420208311F0F7FA60628C
:103F5000A078C0F3001068B9608820F0100010301D
:103F60006080E08A00F07CFE8046424600213046B8
:103F700000F008F800E000BF00BF3846BDE8F88355
:103F80008C3800202DE9F04107460C4616460025E6
:103F9000E2200A49086025460CB945EA0625022CAC
:103FA00003D1304665F31F3005460449096841EAEC
:103FB000072029460EF054FFBDE8F081C808002014
:103FC00010B512F0EBFC10BD10B512F0E7FC10BDFF
:103FD00010B512F0E3FC10BD10B512F0DFFC10BDFF
:103FE00010B512F0DBFC10BD704710B512F0D6FC16
:103FF00010BD10B5002400F005F804460CB1FDF723
:10400000DDF810BD002070470149086070470000CE
:10401000143C01400EB50121880304F057F90F212B
:10402000042004F09DFC0C21042004F099FC0B21D9
:10403000052004F095FC0821052004F091FC884837
:10404000007818B90721042004F08AFC032102201B
:1040500004F086FC0221084604F082FC01210620BF
:1040600004F07EFC0021062004F07AFC4FF40040AE
:10407000009000208DF804000C208DF80500012030
:104080008DF80600684600F01DF94FF4004000F07E
:10409000E9F84FF48050009000208DF804000C20C7
:1040A0008DF8050001208DF80600684600F00AF939
:1040B0004FF4805000F0D6F84FF4006000900020DC
:1040C0008DF804000C208DF8050001208DF8060005
:1040D000684600F0F7F84FF4006000F0C3F84FF4C2
:1040E0008070009000208DF804000C208DF80500F1
:1040F00001208DF80600684600F0E4F84FF4807067
:1041000000F0B0F85648007880B980200090002078
:104110008DF804000C208DF8050001208DF80600B4
:10412000684600F0CFF8802000F09CF8082000904E
:1041300000208DF804000C208DF8050001208DF87A
:104140000600684600F0BEF8082000F08BF8042056
:10415000009000208DF804000C208DF8050001204F
:104160008DF80600684600F0ADF8042000F07AF8FB
:104170000220009000208DF804000C208DF805002E
:1041800001208DF80600684600F09CF8022000F03F
:1041900069F80120009000208DF804000C208DF8B3
:1041A000050001208DF80600684600F08BF801201C
:1041B00000F058F806208DF8080000208DF809005E
:1041C00001208DF80A008DF80B0002A803F07EFD97
:1041D00007208DF8080000208DF8090001208DF8D7
:1041E0000A008DF80B0002A803F070FD08208DF87E
:1041F000080000208DF8090001208DF80A008DF8D4
:104200000B0002A803F062FD09208DF808000020D1
:104210008DF8090001208DF80A008DF80B0002A826
:1042200003F054FD17208DF8080000208DF80900D8
:1042300001208DF80A008DF80B0002A803F046FD5E
:1042400028208DF8080000208DF8090001208DF845
:104250000A008DF80B0002A803F038FD0EBD000027
:104260002E000020054909688143044A1160111D90
:1042700009688143121D116070470000003C014035
:1042800010B504462046FFF7BFFE034800682043F0
:104290000149086010BD0000003C014001460020BB
:1042A0000022074B1B6803EA0102054B14331B680D
:1042B0000B4013B10AB1012000E00020704700005C
:1042C000003C0140002123498279002A3AD00A4665
:1042D000126803689A430B461A600A1D1268036845
:1042E0009A430B1D1A60027911440A6803681A4345
:1042F0000A60184A0832126803689A43154B08335B
:104300001A601A1D126803689A43124B0C331A6024
:104310004279102A0ED11A1F126803681A430D4BF6
:1043200008331A601A1D126803681A43094B0C33CC
:104330001A600DE00749427911440A6803681A437C
:104340000A6005E0027911440A6803689A430A602A
:1043500070470000003C0140704700002DE9F0412B
:1043600005460E4611480078854202DB0020BDE874
:10437000F0810F4800EB851711F0E0F804460D4876
:1043800050F82500241A201E01DB014600E04142BE
:104390000C46B4F1004F01D3C4F1FF34B6EB940FD7
:1043A00001D20120E3E70020E1E70000CC08002073
:1043B0008C3600208C3800202DE9F04105460E4651
:1043C00010480078854202DB0020BDE8F0810E48ED
:1043D00000EB851711F0B2F80446B86A241A201EC3
:1043E00001DB014600E041420C46B4F1004F01D32D
:1043F000C4F1FF34B6EB940F01D20120E5E70020B1
:10440000E3E70000CC0800208C360020014609B10B
:10441000012200E00022114600200AE0064A02EBD9
:104420008012528861F30002034B03EB80135A8021
:10443000401C0828F2DB70478C3600200146002023
:104440000CE041FA00F2074B03EB80135B8862F348
:104450000003044A02EB80125380401C0828F0DB62
:10446000704700008C36002001460020082903DA3E
:10447000024B03EB8112D08B704700008C3600207A
:104480002DE9F04781460D464FF00008FF2D12D16F
:1044900000240DE0134800EB8416F08A00F0E0FBE6
:1044A000074604EB440007FA00F040EA0808641CE1
:1044B000082CEFDB0AE0082D05DA0A4800EB851628
:1044C000B6F8168002E00120BDE8F0874FF6FF70D5
:1044D00000EA18431FFA88F22946484603F067FAB3
:1044E0000020F1E78C3600202DE9F04106463F49D7
:1044F0000E70082E05DD0820087031463CA013F030
:1045000031F9002564E0062D03DBA81D00F0FF084B
:1045100001E005F0FF0808EB480000EB08103A49FD
:1045200001EBC0078420C05BC0F30420A84207D081
:104530008420C05BC0F304212A4634A013F012F992
:104540003B4800EB8514A4F8208000202080608088
:1045500097F89000C0F3C001284600F033FCB8F192
:10456000030F04DD608820F0200020306080608828
:1045700020F0400040306080608820F00800083063
:104580006080608820F0010060800220E0800020D0
:10459000A0834FF44870A0800020608332202083E5
:1045A00019202081052060814FF4397020824FF45A
:1045B00048706082208AE08300206062208820F4B6
:1045C000007020800020A0624FF4C870A0876D1C8E
:1045D000082D98DB00221146104604F089F8FF20D0
:1045E00000F032F90020BDE8F0810000CC08002086
:1045F000452D4E756D20746F6F206C617267655B21
:1046000025645D0D0A000000A81900205374657030
:104610006E6F5F656E6964785B25645D213D456EF4
:10462000636F64655F6964785B25645D0D0A0000F3
:104630008C3600202DE9F0474FF0000900BF7A4882
:104640000078401C784908700878C11700EB517158
:10465000C910A0EBC101744A117074481146097861
:1046600000EB8114A07800F0010000B9D8E0208CA4
:1046700004F09EFF054625BB208B18B1208B401E01
:104680002083CDE00A2020832088C0F3402000282A
:104690005ED010F053FFA062208820F400702080CC
:1046A0004FF001094FF6FF70A08500206087E0867B
:1046B0004FF6FF7020870020E08520866086A08668
:1046C00046E02088C0F34020002837D1A078C0F30E
:1046D000C00010B1A08A608702E04FF6FF706087CB
:1046E000E18E228F881A002801DB014600E041425A
:1046F0001FFA81F8208E30B9B8F1140F1DDD40F695
:10470000EC70804519DA628FA18D208C03F036FAA7
:10471000228FE18E238C43F4807003F02FFA228ED7
:10472000E18D238C43F4007003F028FAA28E618E91
:10473000238C43F4407003F021FA00BF208820F45A
:10474000007000F500702080A06A08B10020A0620F
:10475000214635480078FFF76DFB0646002E05DA46
:10476000B9F1000F01D00020208359E02088C0F368
:10477000431028B121462C480078FEF737FE4FE061
:10478000207800F0010078B1208820F0010020801E
:10479000608820F00200801C6080A08AE080208C6D
:1047A0000022114607F024F81DB9A078C0F340009C
:1047B00058B94DB1A078C0F3400028B900220421B7
:1047C00019480078FFF7DEFB2AE02078C0F380006C
:1047D000B0B1214614480078FEF752FF07B2208C92
:1047E0000122394607F004F8A38A3A460E480178B8
:1047F0000FA012F0B7FF208820F0040020800EE008
:10480000A078C0F3001050B9208C04F0A3FE8246BB
:1048100023460122514604480078FEF74DFF00BFB1
:1048200000BFBDE8F0870000CD0800208C360020D6
:104830005B25645D452D65506F735B25645D5B256D
:10484000645D0D0A00000000F8B505460027082D3C
:1048500021DA274800EB851421462846FFF7EAFABB
:104860000646E08A0090A38A2A46314621A012F02B
:1048700079FF06F1640038B1608820F00800083044
:104880006080E08A471031E0608820F00800608096
:104890004FF6FF772AE0FF2D28D100251EE01448AF
:1048A00000EB851421462846FFF7C4FA0646E08A45
:1048B0000090A38A2A4631460EA012F053FF46B953
:1048C0000120A8400743608820F00800083060807D
:1048D00003E0608820F0080060806D1C10480078BC
:1048E0008542DCDB39460FA012F03CFF3846F8BDAC
:1048F0008C3600205353495F526561643D20256426
:10490000202E2E2E2564205B636F6465723A256429
:1049100020737461743A307825785D0D0A000000C8
:10492000CC080020452D7374617475732030782590
:10493000780D0A002DE9F04105460E46DFF8548057
:1049400015480078854200DA1EB94FF0FF30BDE807
:10495000F081124800EB8514A07800F0010008B93E
:104960000020F4E7608820F010006080A078C0F399
:10497000C00008B90020EAE721462846FEF780FE7D
:1049800007463760208820F008000830208001208A
:10499000DDE70000FFFF0F00CC0800208C36002070
:1049A0002DE9F05F05460E4693464FF0000900BF23
:1049B00018480078854200DB28E0174800EB851492
:1049C0002088C0F3431000B120E0A078C0F30010AD
:1049D00018B1608820F010006080A078C0F3C0009B
:1049E00000B913E0B6F9008021462846FEF748FEDC
:1049F00007B2A8EB0700002801DB014600E04142B6
:104A00000FFA81FA37804FF0010900BF00BF484616
:104A1000BDE8F09FCC0800208C36002010B502467F
:104A20000024C82901DD002010BD082A03DA03484C
:104A300000EB821399830120F6E700008C360020FA
:104A400010B502460024B1F5487F01DD002010BDFD
:104A5000082A03DA024800EB821399870120F6E75F
:104A60008C36002010B502460024B1F5487F01DCE9
:104A7000002901DA002010BD082A03DA024800EB01
:104A8000821359820120F6E78C360020014608295E
:104A900001DB00207047034800EB8110807800F0B4
:104AA0000100F7E78C36002070B50546082D02DBC3
:104AB0004FF0FF3070BD184800EB8514A078C0F3AC
:104AC000400010B94FF0FF30F4E7608820F010008C
:104AD00060802078C0F3001010B14FF0FF30E9E79C
:104AE00000202080208820F0100010302080208CB2
:104AF00009F000FF208C04F02DFD0646208C0023D9
:104B00000122314607F0FEFF3246294603A012F08B
:104B100029FE0020CEE700008C3600205B25645D76
:104B2000452D61646A5B6D706F732025645D0D0AAD
:104B30000000000010B500240AE0084800EB8410D3
:104B40008078C0F3001010B12046FFF7ADFF641C61
:104B5000034800788442F0DB10BD00008C36002052
:104B6000CC08002070B506460D46082E00DB70BD4F
:104B7000134800EB86143C2D00DCA588A0883C3847
:104B8000A84202DCA0883C3885B22582608820F0EB
:104B900002006080608820F010006080002020808B
:104BA000208820F4F07020302080192020830020FD
:104BB00060832A46314603A012F0D4FD00BFD6E739
:104BC0008C3600205B25645D452D6175746F5A65D8
:104BD000726F206D6178737465705B25645D0D0A7A
:104BE00000000000082800DB7047064901EB801137
:104BF000498821F00201034A02EB8012518000BF74
:104C0000F2E700008C3600202DE9F04105460F4602
:104C10001646082D03DB4FF0FF30BDE8F081084851
:104C200000EB851421462846FFF704F980460FB1B2
:104C3000A08A38600EB1E08A30604046EDE700009F
:104C40008C3600200146082902DB4FF0FF30704708
:104C5000024800EB8110C088F9E700008C36002084
:104C6000014601F03F003F2802D001F03F0008B9A3
:104C70000120704701F0180008B10220F9E701F0A7
:104C80000600062801D10320F3E701F0010008B176
:104C90000420EEE701F0200008B90520E9E7002034
:104CA000E7E700000146082902DB4FF0FF307047BC
:104CB0000B4800EB8110008820F00100401C084ADE
:104CC00002EB81121080064800EB8110408820F032
:104CD0000200034A02EB811250800020E7E7000047
:104CE0008C3600200246082A02DB4FF0FF30704766
:104CF00009B1012000E00020054B03EB82131B8863
:104D000060F38203024800EB821003800020EEE78C
:104D10008C36002001460020082900DB7047054A38
:104D200002EB81121278C2F3400202B9012000BFE7
:104D3000F4E700008C36002010B50448006802F04B
:104D40002FFEEF200149086010BD0000C8080020B8
:104D50000246082A02DB4FF0FF307047C9B11848FD
:104D600000EB8210008820F00200801C144B03EB43
:104D700082131880124800EB82100088C0F34310A1
:104D800008B1192000E005200D4B03EB82131883B6
:104D90000EE00B4800EB8210008820F00200084B68
:104DA00003EB821318800020054B03EB821318835A
:104DB0000020034B03EB8213588300BFCDE70000B4
:104DC0008C3600200246082A02DB4FF0FF30704785
:104DD00009B1012000E00020054B03EB82135B8842
:104DE00060F38203024800EB821043800020EEE76C
:104DF0008C3600200246082A00DA11B94FF0FF3045
:104E00007047034800EB821081800020F8E7000023
:104E10008C36002070B504460D46082C02DB4FF09E
:104E2000FF3070BD022D00DA0225B5F5806F01D983
:104E30004FF480650C4800EB841005810A4901EBB2
:104E40008411898801FB05F0C11700EB11510E1385
:104E5000054901EB84114E812A46214603A012F038
:104E600081FC0020DDE700008C3600205B25645DBE
:104E7000452D73657454685B25645D0D0A00000060
:104E800070B506460D46082E02DAB5F5805F02D3EE
:104E90004FF0FF3070BD104800EB861400202080DA
:104EA000608820F010006080608820F00200801C84
:104EB0006080E088A84207D0E580208820F00400C8
:104EC000001D2080322020832A46314603A012F0A4
:104ED00049FC0020DEE700008C3600205B25645D85
:104EE000452D5A65726F5B25645D0D0A0000000058
:104EF00070B500263048007800B970BD2F480078A2
:104F0000002857D1322012F019FF2B480078401E9C
:104F1000294908700846007828B910F0EDFD0020F6
:104F20002549087046E02648007820281DDA2448E4
:104F30000078C010234951F820102148007800F073
:104F4000070201209040014009B1012000E000204B
:104F500006461B4A127802F00701194A1278D0104F
:104F60000023324600F0CCFB24E0154800783828B6
:104F700020DA00240025124800782038C410104898
:104F8000007800F007050CB1601E00E002200E4919
:104F900051F8200005F0070201219140084008B9AE
:104FA000012000E00020064632462946204600F057
:104FB0008BFA00BF00BFA0E76D000020250600208F
:104FC0006E0000205C0D0020CC0D002070B5002488
:104FD000AF48007800B970BDAD48007800F001001E
:104FE000002867D00024AB48006820B1012825D0F4
:104FF00002285CD139E0A8480068C008A74951F8E8
:105000002000A549097801F00702012191400840DC
:1050100008B1012000E0002004469F4A127802F007
:1050200007019D4A1268D0080023224600F068FB61
:1050300098480068401C9749086039E09848007813
:1050400020B99848006800F0030000B130E09248B1
:105050000068401C904908608E480068401C8D49DB
:105060000860322012F06AFE22E08B480068202897
:1050700019D38D48007840B901208B490870002071
:10508000854908608349086010E08148007820F075
:1050900001007F49087000207F4908607D49086051
:1050A0008149087002E000207A49086000E000BFF2
:1050B00000BFDAE07648007800F0020000285AD0FD
:1050C0007A48007830B17248007820F002007049C8
:1050D0000870CAE06F48006820B101281DD002287E
:1050E00046D131E0724880686B49097801F00701C8
:1050F000C84000F001040CB9012000E00020024685
:105100006548007800F00701002000F0DDF96148F3
:105110000068401C5F4908602BE06148007820B9B6
:105120006048006800F0030000B122E05A480068BF
:10513000401C5949086057480068401C55490860A0
:10514000322012F0FBFD14E05348006810280BD306
:105150004F48007820F002004D49087000204E4969
:1051600008604C49086002E000204A49086000E0FD
:1051700000BF00BF79E04648007800F00400002836
:1051800066D04448006820B1012833D002285CD1A1
:1051900047E0414800680621B0FBF1F000F0010053
:1051A000434951F820003C4909680622B1FBF2F35B
:1051B00002FB1311C84000F00104374800680621C3
:1051C000B0FBF1F201FB120533480068B0FBF1F0CF
:1051D00000F00100461C0CB9012000E0002002464E
:1051E0002946304600F070F92A480068401C2949D9
:1051F00008602BE02A48007820B92A48006800F0AF
:10520000030000B122E024480068401C22490860E5
:1052100020480068401C1F490860322012F08EFDB3
:1052200014E01D48006818280BD31948007820F0B6
:1052300004001749087000201749086015490860E4
:1052400002E000201349086000E000BF00BF0CE04E
:105250000F48007800F0080030B10D48007820F0C9
:1052600008000B49087000E000BF0948007868B9E1
:1052700000231A46194640F6017002F098FB002000
:1052800005490860034908600749087000BFA2E6A5
:105290006C000020E8000020E40000205C0D0020ED
:1052A00025060020FC060020EC0000202E00002037
:1052B000CC0D00202DE9F0470446894692469846D9
:1052C00096204D490860142C01D3BDE8F0870C2CC2
:1052D0003DD226460620B4FBF0F5B4FBF0F100FB0E
:1052E0001141012000FA01F7B9F1000F0CD0434839
:1052F00050F825003843414941F8250040480068EE
:10530000404941F824000BE03C4850F82500B843E0
:105310003A4941F825003C4800683A4941F82400E0
:105320004FEA680020B14FEA6800364941F824008E
:10533000BAF1000F03D00A20324941F824000020BE
:1053400010F000FD494630460DF04CFF4AE0A4F154
:105350000C060225012000FA06F72C48007820B13F
:10536000494630460FF074FCAFE7B9F1000F13D097
:10537000224850F825003843204941F825002048AC
:105380000068204941F8240021480068B8B120484D
:10539000006841F8240012E0184850F82500B8438E
:1053A000164941F8250018480068164941F82400BC
:1053B0001848006818B11748006841F824004FEAFF
:1053C000680020B14FEA68000E4941F82400BAF1A4
:1053D000000F03D00F200B4941F824004946304606
:1053E0000FF036FC0120A0400B49096808430A4928
:1053F000086000BF69E7000064000020CC0D0020B9
:10540000780000207C0D00207C0000202E00002071
:1054100080000020840000206800002010B50446B1
:105420000B4624B1012C0BD0022C1FD113E00AB182
:10543000012000E0002003EBC00000F1200118E093
:105440000AB1012000E0002000EB400003EB8000E7
:1054500000F130010DE00AB1012000E0002000EB76
:10546000400003EB800000F1360102E04FF0FF3115
:1054700000BF00BF482903D2034850F8210010BDE7
:105480004FF6FF70FBE70000483000202DE9F041A7
:1054900006460C461746984626B1012E05D0022E28
:1054A00007D104E004F10C0505E0254603E0A51D45
:1054B00001E0BDE8F08100BF43460022394628469E
:1054C000FFF7F8FE00BFF4E72DE9F04106460C4671
:1054D000174626B1012E0BD0022E19D110E004F18F
:1054E0000C051148007840F002000F49087011E0E7
:1054F00025460D48007840F004000B49087009E08B
:10550000A51D0948007840F004000749087001E033
:10551000BDE8F08100BF0023012239462846FFF78D
:10552000C9FE00BFF4E70000790600207FB50446FD
:1055300000200090019002900390E1B215480068AD
:105540001030814223D11448007800B3C4F30725FA
:10555000082D00DB7FBD6A100521104608F0F6FC1F
:1055600000EB400101EB00110C4A02EBC101096D97
:10557000009108490968103145EA01210191002391
:1055800040F60420DDE9001202F011FA00BF00BF6E
:10559000E0E700006C0600202E000020A819002083
:1055A0000246082A02D34FF6FF707047082902D33B
:1055B0004FF6FF70F9E701EBC203482B03D2034813
:1055C00050F82300F1E74FF6FF70EEE74830002077
:1055D0002DE9F04704460E4642480768C6F30749DE
:1055E00006F0FF08082C01D3BDE8F08732203E49C1
:1055F0000860002571E049FA05F000F0010000287C
:1056000068D10120A84000EA080088B3374850F864
:1056100024000121A940084000285CD101231A463A
:10562000294620460EF008FA08BB304850F82400FE
:105630000121A94008432D4941F824002C48006865
:1056400004EB84012B4A02EBC10141F82500002044
:1056500004EB8401284A02EB41014855274850F8E1
:1056600024000121A9400843244941F8240033E0E3
:10567000FFE71E4850F824100120A840014051B314
:1056800001230022294620460EF0D6F908BB174810
:1056900050F824000121A9408843144941F824000E
:1056A0001348006804EB8401124A02EBC10141F87F
:1056B0002500002004EB84010F4A02EB410148550C
:1056C0000E4850F824100120A84001430B4840F830
:1056D000241001E000E000BF6D1CBD428BD300BF71
:1056E00082E700004C000020600000205C0D0020DC
:1056F0005800002028100020D80F0020681100203A
:105700002DE9F04104460D4617461E463048D0F8B4
:1057100000800FB1002100E00321012088402D49C5
:10572000097808432B490870082C01D3BDE8F081A3
:10573000082D00D3FAE73220274908607FB1002303
:105740000122294620460EF077F9244850F824001B
:105750000121A9400843214941F824000EE000231B
:105760001A46294620460EF067F91C4850F82400D6
:105770000121A9408843194941F824004EB1142E53
:1057800007D204EB8400164901EBC00040F8256005
:1057900007E00A2004EB8401114A02EBC10141F841
:1057A0002500012004EB84010E4A02EB410148551B
:1057B0000D4850F824000121A94008430A4941F846
:1057C00024000020094901EBC401485500BFADE7A2
:1057D0004C00002079060020600000205C0D0020B5
:1057E00028100020D80F002068110020AC310020C4
:1057F0002DE9F04107460D4610480078D8B1002445
:1058000015E004EB440000EB04100D4901EBC00669
:1058100084208059C0F34330052800D005E0C5F34B
:105820000011204606F086F800BF601C84B20548CF
:1058300000788442E5DBBDE8F08100002E00002006
:10584000A8190020280100202DE9F04104460D464A
:10585000E1B20D4800681030814213D10B48007846
:1058600080B1C4F30726082E01DBBDE8F08170107B
:10587000052108F06BFB0746C5F30011384606F01A
:1058800059F800BF00BFF0E76C0600202E00002092
:105890002DE9F04106460F46F1B254480068103039
:1058A000814273D15248007800286FD0B8B2514974
:1058B0008860002593E00521284608F047FB84B264
:1058C0004C4880686900C84000F0030030B10128EE
:1058D00020D002283AD0032869D158E005214FF49E
:1058E000C87012F0E7F800B204EB440101EB0411B8
:1058F000414A22F8310005214FF4C87012F0DAF85D
:1059000000B204EB440101EB04113B4A02EBC1017C
:1059100048804CE005213948006812F0CBF800B20D
:1059200004EB440101EB0411334A22F83100052154
:105930003248006812F0BEF800B204EB440101EBFB
:1059400004112D4A02EBC101488030E02B4909685F
:10595000C1F54870052112F0ADF800B204EB440126
:1059600001EB0411244A22F8310024490968C1F5E9
:105970004870052112F09EF800B204EB440101EBDF
:1059800004111D4A02EBC101488010E02BE0002009
:1059900004EB440101EB0411174A22F8310004EB37
:1059A000440101EB041102EBC101488000BF00BFBC
:1059B00004EB440000EB04100F4901EBC000D0F8E9
:1059C000900020F00100401C04EB440101EB0411A5
:1059D000094A02EBC101C1F89000681C85B2042D90
:1059E000FFF669AF00BFBDE8F08100006C06002043
:1059F0002E000020CC0D0020A81900203C01002022
:105A000070B504460D46E1B20E4800681030814280
:105A100015D10D48007890B1C4F30726082E00DB9D
:105A200070BD72100521104608F090FA00EB40019D
:105A300001EB0011054A02EBC1010D6500BF00BF7B
:105A4000EEE700006C0600202E000020A8190020C0
:105A500008B9002100E00146014A116070470000CA
:105A60003001002030B502460023002115E001EB93
:105A7000410404EB01140B4D05EBC40084242458AD
:105A8000C4F34334012C00D006E08424245862F38C
:105A90005D7484252C5000BF491C034C2478A1421E
:105AA000E5DB30BDA81900202801002070B50446B0
:105AB0000D462946204600F005F82946204600F00C
:105AC0000FF870BD002806DD072804DA421E034BDC
:105AD00043F8221000E0704700BFFCE7F8210020E7
